:100000000C94D3090C94FB090C94FB090C94FB0988
:100010000C94FB090C94FB090C94FB090C94FB0950
:100020000C94FB090C94FB090C94FB090C94FB0940
:100030000C94FB090C94FB090C94FB090C94FB0930
:100040000C94FB090C94FB090C94FB090C94FB0920
:100050000C94FA0D0C943D2E0C94FB090C94FB09A6
:100060000C94FB090C94092E0C94FB090C94E22DC2
:100070000C94FB090C94FB090C94FB090C94FB09F0
:100080000C94FB090C94FB090C94FB090C94FB09E0
:100090000C94FB090C94FB090C94FB090C94FB09D0
:1000A0000C94FB090C94FB090C94FB0900407A109A
:1000B000F35A00A0724E18090010A5D4E80000E819
:1000C0007648170000E40B54020000CA9A3B000077
:1000D00000E1F505000080969800000040420F0006
:1000E0000000A08601000000102700000000E803C7
:1000F000000000006400000000000A000000000092
:100100000100000000002C76D888DC674F0823DF50
:10011000C1DFAE59E1B1B796E5E3E453C63AE65123
:10012000997696E8E6C28426EB898C9B62ED407C4A
:100130006FFCEFBC9C9F40F2BAA56FA5F490055AE6
:100140002AF75C936B6CF9676DC11BFCE0E40D470B
:10015000FEF520E6B500D0ED902E0300943577052E
:100160000080841E080000204E0A000000C80C33E6
:100170003333330F986E12831141EF8D2114893B75
:10018000E65516CFFEE6DB18D1844B381BF77C1DF5
:10019000901DA4BBE424203284725E228100C9F148
:1001A00024ECA1E53D27FF03F603EF03E703DF039C
:1001B000D703CF03C703BF03B803B003A803A0034B
:1001C000990391038A0382037B0373036C03640323
:1001D0005D0356034E0347034003390331032A03EB
:1001E00023031C0315030E0307030003F902F202A5
:1001F000EB02E402DE02D702D002C902C302BC0253
:10020000B502AF02A802A2029B0295028E028802EA
:1002100081027B0275026F02680262025C02560272
:1002200050024A0243023D02370231022C022602EA
:1002300020021A0214020E0209020302FD01F80153
:10024000F201EC01E701E101DC01D601D101CC01B1
:10025000C601C101BC01B601B101AC01A701A101F8
:100260009C01970192018D01880183017E01790132
:10027000750170016B01660161015D015801530157
:100280004F014A01460141013D01380134012F016E
:100290002B01270122011E011A01160112010D0175
:1002A000090105010101FD00F900F500F100EE0072
:1002B000EA00E600E200DE00DB00D700D300D00059
:1002C000CC00C800C500C100BE00BA00B700B40031
:1002D000B000AD00AA00A600A300A0009D009A00F7
:1002E0009700940090008D008B00880085008200AC
:1002F0007F007C0079007700740071006F006C0053
:1003000069006700640062005F005D005A005800E9
:100310005600530051004F004D004A00480046006F
:100320004400420040003E003C003A0038003600E5
:100330003400330031002F002D002C002A0028004B
:10034000270025002400220021001F001E001D00A0
:100350001B001A00190017001600150014001300E6
:100360001200110010000F000E000D000C000B0019
:100370000A00090009000800070006000600050041
:100380000500040004000300030002000200010055
:10039000010001000100000000000000000000005A
:1003A000000000000000FF03F303E703DB03CF03BB
:1003B000C303B803AD03A10396038B038003750346
:1003C0006A035F0354034A033F0335032A032003F0
:1003D00016030C030203F802EE02E402DB02D10270
:1003E000C802BE02B502AC02A302990290028802C2
:1003F0007F0276026D0265025C0254024B024302E8
:100400003B0233022B0223021B0213020B020402E3
:10041000FC01F501ED01E601DE01D701D001C901C2
:10042000C201BB01B401AD01A701A0019901930173
:100430008D01860180017A0173016D0167016101FF
:100440005B01560150014A0145013F013901340168
:100450002F01290124011F011A01150110010B01AF
:1004600006010101FC00F700F300EE00EA00E500E0
:10047000E100DC00D800D400D000CC00C800C300EC
:10048000C000BC00B800B400B000AC00A900A500DA
:10049000A2009E009B009700940091008D008A00AE
:1004A0008700840081007E007B0078007500720068
:1004B00070006D006A0067006500620060005D000A
:1004C0005B0059005600540052004F004D004B0095
:1004D000490047004500430041003F003D003B000C
:1004E0003A003800360034003300310030002E006E
:1004F0002C002B002A0028002700250024002300C0
:10050000220020001F001E001D001C001B001A00FE
:10051000190018001700160015001400130012002F
:100520001100100010000F000E000E000D000C0056
:100530000C000B000A000A0009000900080008006E
:10054000070007000600060006000500050004007D
:100550000400040003000300030003000200020083
:100560000200020002000100010001000100010080
:10057000010000000000000000000000000000007A
:10058000000000000000000000000000000000006B
:10059000000000000000000000000000000000005B
:1005A000000000000000000000016A01BC01000220
:1005B0003D027402A602D50201032A035203780306
:1005C0009C03BF03E103010421043F045D047A049A
:1005D0009704B204CD04E80402051B0534054C055C
:1005E00064057C059305AA05C105D705ED0502063E
:1005F00017062C06410655066A067D069106A506D5
:10060000B806CB06DE06F0060307150727073907ED
:100610004A075C076D077F079007A007B107C2076D
:10062000D207E307F3070308130823083308420837
:100630005208610870087F088F089D08AC08BB0845
:10064000CA08D808E708F5080309120920092E0985
:100650003C094A0957096509730980098E099B09F4
:10066000A909B609C309D009DD09EA09F709040A8D
:10067000110A1D0A2A0A370A430A500A5C0A680A44
:10068000750A810A8D0A990AA50AB20ABE0AC90A20
:10069000D50AE10AED0AF90A040B100B1C0B270B13
:1006A000330B3E0B490B550B600B6B0B770B820B1F
:1006B0008D0B980BA30BAE0BB90BC40BCF0BDA0B46
:1006C000E50BEF0BFA0B050C0F0C1A0C250C2F0C7D
:1006D0003A0C440C4F0C590C630C6E0C780C820CC9
:1006E0008D0C970CA10CAB0CB50CBF0CC90CD40C29
:1006F000DE0CE70CF10CFB0C050D0F0D190D230D95
:100700002C0D360D400D4A0D530D5D0D660D700D0F
:100710007A0D830D8D0D960D9F0DA90DB20DBC0D9B
:10072000C50DCE0DD80DE10DEA0DF30DFC0D060E35
:100730000F0E180E210E2A0E330E3C0E450E4E0ED5
:10074000570E600E690E720E7B0E840E8C0E950E87
:100750009E0EA70EB00EB80EC10ECA0ED20EDB0E44
:10076000E40EEC0EF50EFE0E060F0F0F170F200F06
:10077000280F310F390F410F4A0F520F5B0F630FD4
:100780006B0F740F7C0F840F8D0F950F9D0FA50FAE
:10079000AD0FB60FBE0FC60FCE0FD60FDE0FE60F92
:1007A000EE0FF60FFF0F35021502F801DB01C10154
:1007B000A70190017901640150013D012C011A014A
:1007C0000B01FC00ED00E100D400C800BD00B20048
:1007D000A8009E0096008D0085007E0076007000C7
:1007E0006A0064005F00590054004F004B0047004E
:1007F00043003F003B003800350032002F002C0042
:100800002A0028002500240021001F001D001C00D4
:100810001B00190017001600150014001300120029
:1008200010000F000E000E000D000C000C000B005D
:100830000A000A000A000900080007000700070074
:10084000060006000600060005000500050004007D
:1008500041EE0E00BA170E003E4D0D001F8E0C002B
:10086000BAD90B00742F0B00BE8E0A000CF70900DA
:10087000DE670900BAE008002B610800C5E8070040
:1008800020770700DD0B07009FA606000F47060034
:10089000DDEC0500BA9705005F47050086FB040004
:1008A000EFB304005D7004009530040062F40300AF
:1008B00090BB0300EE8503004F5303008723030022
:1008C0006EF60200DDCB0200AFA30200C37D020082
:1008D000F75902002E3802004A18020031FA0100CE
:1008E000C8DD0100F7C20100A7A90100C391010002
:1008F000377B0100EE650100D7510100E13E0100A8
:10090000FB2C0100171C0100250C010018FD000044
:10091000E4EE00007BE10000D3D40000E1C8000059
:100920009BBD0000F7B20000EBA80000709F000024
:100930007D9600000B8E0000128600008C7E000069
:1009400072770000BD700000696A000070640000EA
:10095000CD5E00007B59000075540000B84F0000C8
:100960003E4B00000547000009430000463F0000E1
:10097000B93B00005E38000034350000383200001A
:10098000662F0000BD2C00003A2A0000DC27000082
:100990009F2500008223000084210000A31F000087
:1009A000DC1D0000FF03FB03F703F303EF03EB037E
:1009B000E703E303DF03DB03D703D303CF03CB0357
:1009C000C703C303BF03BB03B703B303AF03AB0347
:1009D000A703A3039F039B03970393038F038B0337
:1009E000870383037F037B03770373036F036B0327
:1009F000670363035F035B03570353034F034B0317
:100A0000470343033F033B03370333032F032B0306
:100A1000270323031F031B03170313030F030B03F6
:100A200007030303FF02FB02F702F302EF02EB02EC
:100A3000E702E302DF02DB02D702D302CF02CB02DE
:100A4000C702C302BF02BB02B702B302AF02AA02CF
:100A5000A602A2029E029A02960292028E028A02C6
:100A6000860282027E027A02760272026E026A02B6
:100A7000660262025E025A02560252024E024A02A6
:100A8000460242023E023A02360232022E022A0296
:100A9000260222021E021A02160212020E020A0286
:100AA00006020202FE01FA01F601F201EE01EA017C
:100AB000E601E201DE01DA01D601D201CE01CA016E
:100AC000C601C201BE01BA01B601B201AE01AA015E
:100AD000A601A2019E019A01960192018E018A014E
:100AE000860182017E017A01760172016E016A013E
:100AF000660162015E015A01550151014D01490132
:100B0000450141013D013901350131012D01290125
:100B1000250121011D011901150111010D01090115
:100B200005010101FD00F900F500F100ED00E9000B
:100B3000E500E100DD00D900D500D100CD00C900FD
:100B4000C500C100BD00B900B500B100AD00A900ED
:100B5000A500A1009D009900950091008D008900DD
:100B6000850081007D007900750071006D006900CD
:100B7000650061005D005900550051004D004900BD
:100B8000450041003D003900350031002D002900AD
:100B9000250021001D001900150011000D0009009D
:100BA00005000000FF03FB03F703F303EF03EB0370
:100BB000E703E303DF03DB03D703D303CF03CB0355
:100BC000C703C303BF03BB03B703B303AF03AB0345
:100BD000A703A3039F039B03970393038F038B0335
:100BE000870383037F037B03770373036F036B0325
:100BF000670363035F035B03570353034F034B0315
:100C0000470343033F033B03370333032F032B0304
:100C1000270323031F031B03170313030F030B03F4
:100C200007030303FF02FB02F702F302EF02EB02EA
:100C3000E702E302DF02DB02D702D302CF02CB02DC
:100C4000C702C302BF02BB02B702B302AF02AA02CD
:100C5000A602A2029E029A02960292028E028A02C4
:100C6000860282027E027A02760272026E026A02B4
:100C7000660262025E025A02560252024E024A02A4
:100C8000460242023E023A02360232022E022A0294
:100C9000260222021E021A02160212020E020A0284
:100CA00006020202FE01FA01F601F201EE01EA017A
:100CB000E601E201DE01DA01D601D201CE01CA016C
:100CC000C601C201BE01BA01B601B201AE01AA015C
:100CD000A601A2019E019A01960192018E018A014C
:100CE000860182017E017A01760172016E016A013C
:100CF000660162015E015A01550151014D01490130
:100D0000450141013D013901350131012D01290123
:100D1000250121011D011901150111010D01090113
:100D200005010101FD00F900F500F100ED00E90009
:100D3000E500E100DD00D900D500D100CD00C900FB
:100D4000C500C100BD00B900B500B100AD00A900EB
:100D5000A500A1009D009900950091008D008900DB
:100D6000850081007D007900750071006D006900CB
:100D7000650061005D005900550051004D004900BB
:100D8000450041003D003900350031002D002900AB
:100D9000250021001D001900150011000D0009009B
:100DA000050000000000470510069406F7064907F5
:100DB0008E07CB07010831085E088708AE08D20805
:100DC000F308130931094E09690984099D09B50918
:100DD000CC09E209F8090D0A210A350A480A5B0A1A
:100DE0006D0A7E0A8F0AA00AB00AC00AD00ADF0A7A
:100DF000EE0AFC0A0B0B190B260B340B410B4E0BA6
:100E00005B0B670B740B800B8C0B970BA30BAE0B60
:100E1000BA0BC50BD00BDA0BE50BEF0BFA0B040C7E
:100E20000E0C180C210C2B0C350C3E0C470C500CE6
:100E30005A0C630C6B0C740C7D0C850C8E0C960C90
:100E40009F0CA70CAF0CB70CBF0CC70CCF0CD70C6A
:100E5000DE0CE60CEE0CF50CFD0C040D0B0D120D6A
:100E60001A0D210D280D2F0D360D3D0D430D4A0D88
:100E7000510D570D5E0D650D6B0D720D780D7E0DCC
:100E8000850D8B0D910D970D9D0DA40DAA0DB00D27
:100E9000B60DBC0DC10DC70DCD0DD30DD90DDE0D99
:100EA000E40DEA0DEF0DF50DFA0D000E050E0B0E1B
:100EB000100E150E1B0E200E250E2B0E300E350EAD
:100EC0003A0E3F0E440E490E4E0E530E580E5D0E56
:100ED000620E670E6C0E710E760E7A0E7F0E840E09
:100EE000890E8D0E920E970E9B0EA00EA40EA90ECB
:100EF000AE0EB20EB70EBB0EC00EC40EC80ECD0E97
:100F0000D10ED50EDA0EDE0EE20EE70EEB0EEF0E70
:100F1000F30EF80EFC0E000F040F080F0C0F100F4D
:100F2000140F190F1D0F210F250F290F2D0F310F32
:100F3000340F380F3C0F400F440F480F4C0F500F29
:100F4000530F570F5B0F5F0F630F660F6A0F6E0F24
:100F5000710F750F790F7C0F800F840F870F8B0F28
:100F60008F0F920F960F990F9D0FA00FA40FA70F31
:100F7000AB0FAE0FB20FB50FB90FBC0FC00FC30F41
:100F8000C60FCA0FCD0FD10FD40FD70FDB0FDE0F57
:100F9000E10FE40FE80FEB0FEE0FF20FF50FF80F74
:100FA000FB0FFF0F000007000E0015001C002300C0
:100FB0002A00310038003F0046004D0054005B001D
:100FC00062006900700077007E0085008C0093004D
:100FD0009A00A100A800AF00B600BD00C400CB007D
:100FE000D200D900E000E700EE00F500FC000301AC
:100FF0000A01110118011F0126012D0134013B01D5
:1010000042014901500157015E0165016C01730104
:101010007A01810188018F0196019D01A401AB0134
:10102000B201B901C001C701CE01D501DC01E30164
:10103000EA01F101F801FF0106020D0214021B0290
:1010400022022902300237023E0245024C025302BC
:101050005A02610268026F0276027D0284028B02EC
:1010600092029902A002A702AE02B502BC02BE0221
:10107000C002C202C402C602C802CA02CC02CE0228
:10108000D002D202D502D702D902DB02DD02DF0292
:10109000E102E302E502E702E902EB02EE02F002FE
:1010A000F202F402F602F802FA02FC02FE02000367
:1010B00002030403070309030B030D030F031103CA
:1010C00013031503170319031B031D032003220336
:1010D0002403260328032A032C032E0330033203A0
:1010E0003403360339033B033D033F03410343030A
:1010F0004503470349034B034D034F035203540376
:10110000560358035A035C035E03600362036403DF
:10111000660368036B036D036F0371037303750349
:10112000770379037B037D037F03810384038603B5
:1011300088038A038C038E0390039203940396031F
:1011400098039A039D039F03A103A303A503A70389
:10115000A903AB03AD03AF03B103B303B603B803F5
:10116000BA03BC03BE03C003C203C403C603C8035F
:10117000CA03CC03CF03D103D303D503D703D903C9
:10118000DB03DD03DF03E103E303E503E803EA0335
:10119000EC03EE03F003F203F403F603F803FA039F
:1011A000FC03FF030000000000000000000000003E
:1011B0000000000001000100010001000200020027
:1011C00003000300040004000500050006000600FB
:1011D00007000800090009000A000B000C000D00C0
:1011E0000E000F0010001100120013001400150073
:1011F0001600170019001A001B001D001E001F001A
:101200002100220024002500270028002A002C00AD
:101210002D002F00310033003400360038003A0032
:101220003C003E00400042004400460048004A00A6
:101230004D004F0051005300560058005A005D0009
:101240005F0062006400670069006C006F0071005D
:101250007400770079007C007F00820085008800A0
:101260008B008D009000940097009A009D00A000D4
:10127000A300A600AA00AD00B000B400B700BA00F9
:10128000BE00C100C500C800CC00D000D300D7000C
:10129000DB00DE00E200E600EA00EE00F100F5000F
:1012A000F900FD000101050109010D0112011601FE
:1012B0001A011E01220127012B012F0134013801DF
:1012C0003D01410146014A014F01530158015D01B1
:1012D000610166016B017001750179017E01830175
:1012E00088018D01920197019C01A101A701AC0128
:1012F000B101B601BC01C101C601CC01D101D601C9
:10130000DC01E101E701EC01F201F801FD0103025A
:1013100009020E0214021A02200226022C023102D5
:1013200037023D0243024A02500256025C02620248
:1013300068026F0275027B02810288028E029502AA
:101340009B02A202A802AF02B502BC02C302C902FC
:10135000D002D702DE02E402EB02F202F90200033D
:1013600007030E0315031C0323032A033103390368
:10137000400347034E0356035D0364036C0373038A
:101380007B0382038A0391039903A003A803B0039C
:10139000B803BF03C703CF03D703DF03E703EF039C
:1013A000F603FF039B2811241FBECFEFDAE0DEBF58
:1013B000CDBF12E0A0E0B1E0E0E3FDE602C00590A1
:1013C0000D92A438B107D9F723E0A4E8B2E001C038
:1013D0001D92AD39B207E1F719E0C3EDD9E004C0C1
:1013E0002197FE010E94CC33C23DD107C9F70E946C
:1013F000F7200C9496360C940000EF92FF920F9316
:101400001F93CF93DF93DC01EB018881E1E0F0E0F3
:10141000022E02C0EE0FFF1F0A94E2F7E095E823C8
:10142000E88312962C93129711965C934E9319961B
:10143000ED92FD920D931C931C97DF91CF911F911C
:101440000F91FF90EF9008958F929F92AF92BF926D
:10145000FF920F931F93CF93DF93EC01E881F98103
:1014600020813A8101E010E0C801032E02C0880FFC
:10147000991F0A94E2F7022F10E00823192302C0F3
:10148000159507953A95E2F7F02E8B81081731F004
:101490000E94342E6D837E838F8398870E94342E22
:1014A0008D809E80AF80B884DC01CB0188199909BA
:1014B000AA09BB0989849A84AB84BC8488169906DE
:1014C000AA06BB0618F48C81F8120C830B838C815E
:1014D000DF91CF911F910F91FF90BF90AF909F90A0
:1014E0008F900895FC01648711821082138212820A
:1014F00014821582168217821086118608950F9322
:101500001F93CF93DF938C01EB0161E682E992E0B8
:101510000E94280EF801648582E992E00E943A0E4A
:10152000BE01729562956F7067277F70672782E9A9
:1015300092E00E943A0E6C2F6295607F82E992E001
:101540000E943A0E82E992E00E94440EDF91CF9110
:101550001F910F9108958F929F92AF92BF92EF9239
:10156000FF920F931F93CF93DF93EC017B010881D0
:1015700019810617170760F5B80180E090E00E9416
:1015800076324B015C01B70180E090E00E94763238
:101590009B01AC01C501B4010E94D53120E030E0CF
:1015A0004FE753E40E9404330E944732E62FF0E0F5
:1015B000EE0FFF1FEA55FA4F659174917B876A879A
:1015C0000F5F1F4F19830883CE010E947F0A1CC042
:1015D00055238CF48A819B818115904120F08FEFF7
:1015E0009FE09B838A836A817B81CE010E947F0A70
:1015F00081E0888706C06FEF7FE00E947F0A81E06C
:101600008F831E8219821882DF91CF911F910F91D3
:10161000FF90EF90BF90AF909F908F9008958F9222
:101620009F92AF92BF92EF92FF920F931F93CF932F
:10163000DF93EC017B01088119810617170708F079
:101640005CC0B80180E090E00E9476324B015C0102
:10165000B70180E090E00E9476329B01AC01C501A9
:10166000B4010E94D53120E030E04FE753E40E94FE
:1016700004330E944732E62FF0E0EE0FFF1FEA55D9
:10168000FC4F6591749180E090E00E94763220E0FA
:1016900030EC4FE754E40E94D5314B015C018A8164
:1016A0009B818115904120F08FEF9FE09B838A837F
:1016B000EA80FB806FEF7FE06E197F0980E090E0A9
:1016C0000E947632A50194010E9404334B015C0113
:1016D000B70180E090E00E947632A50194010E945B
:1016E00069310E9447327B876A870F5F1F4F1983DA
:1016F0000883CE010E947F0A13C08A819B818115D5
:10170000904120F08FEF9FE09B838A836A817B81E9
:10171000CE010E947F0A1F8281E088871982188289
:10172000DF91CF911F910F91FF90EF90BF90AF90FD
:101730009F908F900895FC012281338121153041C3
:1017400028F02FEF3FE0FC0133832283FC0162810C
:1017500073810E947F0A08958F929F92AF92BF92E9
:10176000CF92DF92EF92FF920F931F93CF93DF936D
:10177000EC017B01088119810617170708F04DC09D
:10178000B80180E090E00E9476324B015C01B70125
:1017900080E090E00E9476329B01AC01C501B4016B
:1017A0000E94D53120E030E04FE753E40E9404333B
:1017B0000E944732E62FF0E0EE0FFF1FEA55FE4F82
:1017C0006591749180E090E00E94763220E030ECE8
:1017D0004FE754E40E94D5316B017C018A819B81E3
:1017E0008115904120F08FEF9FE09B838A836A816F
:1017F0007B8180E090E00E947632A70196010E94F2
:1018000004330E9447327B876A870F5F1F4F19831B
:101810000883CE010E947F0A09C01B861A8660E0F9
:1018200070E00E947F0A198619821882DF91CF9199
:101830001F910F91FF90EF90DF90CF90BF90AF90EE
:101840009F908F9008954F925F926F927F92AF9288
:10185000BF92CF92DF92EF92FF920F931F93CF939D
:10186000DF93EC015B016A0179018C81811113C066
:101870008D81882381F081E08C838E831F8218867E
:1018800019863B832A830E94342E6D877E878F873B
:10189000988B198218828C818823C1F08D818111E7
:1018A00015C08E81811103C08F81882329F08A851C
:1018B0009B859B838A8302C0FB82EA821C821E82F4
:1018C0001F82188681E0898719821882898588237A
:1018D000E9F08C8181111AC00E94342E4D845E84FF
:1018E0006F8478882AE0420E511C611C711C4616D8
:1018F00057066806790650F40E94342E6D877E875D
:101900008F87988BB801CE010E94AC0B8E81882303
:10191000D1F00E94342E0D851E852F8538890B5FEE
:101920001F4F2F4F3F4F061717072807390758F447
:101930000E94342E6D877E878F87988BA601B50114
:10194000CE010E94AB0A8F81882311F10E94342EB0
:101950000D851E852F8538890B5F1F4F2F4F3F4FF9
:10196000061717072807390798F40E94342E6D8749
:101970007E878F87988B8A819B81E816F90611F004
:10198000FB82EA82DD2024F0B601CE010E940F0B1B
:1019900088858823F9F00E94342E0D851E852F85B9
:1019A00038890B5F1F4F2F4F3F4F06171707280728
:1019B000390780F40E94342E6D877E878F87988B3D
:1019C0008A819B81E816F90629F0FB82EA82CE0122
:1019D0000E949B0BDF91CF911F910F91FF90EF9091
:1019E000DF90CF90BF90AF907F906F905F904F90BF
:1019F00008951F93CF93DF93EB01142F60E782E9E3
:101A000092E00E94280E60E182E992E00E943A0E84
:101A100082E992E00E94440E61E682E992E00E942F
:101A2000280E612F82E992E00E943A0EBE01729563
:101A300062956F7067277F70672782E992E00E9446
:101A40003A0E6C2F6295607F82E992E00E943A0E16
:101A500082E992E00E94440EDF91CF911F91089598
:101A6000CF93DF93DC01EB019881E1E0F0E0022EFF
:101A700002C0EE0FFF1F0A94E2F7E095E923E88326
:101A80002C9312965C934E9311971092810081E0F3
:101A900080936F00DF91CF910895DC011092840252
:101AA0001092850210928602109287021092810095
:101AB00010928500109284001196ED91FC9112977E
:101AC00080812C91622F41E050E0022E02C0440F31
:101AD000551F0A94E2F790E08423952302C0959560
:101AE00087952A95E2F7019739F3208130E0242386
:101AF0003523062E02C0359527950A94E2F7232B4D
:101B0000A1F381E0809381001196ED91FC911297F1
:101B100020818C91682F41E050E0082E02C0440FD4
:101B2000551F0A94E2F730E02423352302C035958F
:101B300027958A95E2F72130310531F3808190E0D5
:101B400084239523062E02C0959587950A94E2F783
:101B5000892BA1F3E0918400F0918500109281001F
:101B60002091840230918502409186025091870233
:101B7000AFEFBFEF0E949F336E0F7F1F811D911D3E
:101B800008958F929F92AF92BF92CF92DF92EF9281
:101B9000FF9269017A01862F90E0FC01EE0FFF1F92
:101BA000EE0FFF1FE05BF74F85909590A590B490E6
:101BB000FC01EE0FFF1FEA55F84F6591749180E02C
:101BC00090E00E947632A70196010E9404330E94A1
:101BD0004732A5019401261B370B480B590BCA014C
:101BE000B901FF90EF90DF90CF90BF90AF909F90A2
:101BF0008F9008951F920F920FB60F9211248F931A
:101C00009F93AF93BF938091840290918502A0919E
:101C10008602B09187020196A11DB11D80938402B6
:101C200090938502A0938602B0938702BF91AF91F3
:101C30009F918F910F900FBE0F901F9018958AB1B2
:101C400083608AB91092B90088E48093B80008953F
:101C500084EA8093BC008091BC008823E4F7660F7F
:101C60006093BB0084E88093BC008091BC00882313
:101C7000E4F708956093BB0084E88093BC008091F2
:101C8000BC008823E4F7089584E98093BC00809128
:101C9000BC0084FDFCCF0895FC0164871182108292
:101CA0001382128214821582168217821086118680
:101CB00008950F931F93CF93DF938C01C62FD72FD7
:101CC00060E682E992E00E94280EF801648582E9CC
:101CD00092E00E943A0E6D2F82E992E00E943A0E45
:101CE0006C2F82E992E00E943A0E82E992E00E9413
:101CF000440EDF91CF911F910F9108958F929F9283
:101D0000AF92BF92CF92DF92EF92FF920F931F9309
:101D1000CF93DF93EC018B016881798160177107A4
:101D200008F082C06115710509F050C08A859B8555
:101D3000009709F44BC0BC0180E090E00E9476322D
:101D400020E030E049EA54E40E94D5316B017C0187
:101D50009B01AC010E9404339B01AC01C701B60199
:101D60000E9404339B01AC01C701B6010E940433F9
:101D70009B01AC01C701B6010E9404330E944732A7
:101D8000F62E70E080E090E00E94763220E030E0B5
:101D90004FE753E40E94D5314B015C01B80180E06C
:101DA00090E00E947632A50194010E9404330E94C3
:101DB000473279836883EF2DF0E0EE0FFF1FEC557B
:101DC000F24F859194919B878A8723C080E090E0B1
:101DD0000E9476326B017C01B80180E090E00E94A5
:101DE00076329B01AC01C701B6010E94D53120E0DB
:101DF00030E04FE753E40E9404330E944732E62F5D
:101E0000F0E0EE0FFF1FEC55F24F859194919B8708
:101E10008A87888199810196998388836A857B85E1
:101E2000CE010E94590E1CC055238CF48A819B81DF
:101E30008115904120F08FEF9FE09B838A836A8118
:101E40007B81CE010E94590E81E0888706C06FEF2A
:101E50007FE00E94590E81E08F831E8219821882D2
:101E6000DF91CF911F910F91FF90EF90DF90CF9076
:101E7000BF90AF909F908F9008958F929F92AF9256
:101E8000BF92EF92FF920F931F93CF93DF93EC01DA
:101E90007B01088119810617170708F05CC0B8019B
:101EA00080E090E00E9476324B015C01B70180E057
:101EB00090E00E9476329B01AC01C501B4010E9402
:101EC000D53120E030E04FE753E40E9404330E9414
:101ED0004732E62FF0E0EE0FFF1FEC55F44F65910F
:101EE000749180E090E00E94763220E030EC4FE781
:101EF00054E40E94D5314B015C018A819B8181159C
:101F0000904120F08FEF9FE09B838A83EA80FB80E3
:101F10006FEF7FE06E197F0980E090E00E947632DB
:101F2000A50194010E9404334B015C01B70180E0DC
:101F300090E00E947632A50194010E9469310E94CE
:101F400047327B876A870F5F1F4F19830883CE0153
:101F50000E94590E13C08A819B818115904120F007
:101F60008FEF9FE09B838A836A817B81CE010E94F1
:101F7000590E1F8281E0888719821882DF91CF91E4
:101F80001F910F91FF90EF90BF90AF909F908F9017
:101F90000895FC01228133812115304128F02FEF73
:101FA0003FE0FC0133832283FC01628173810E9444
:101FB000590E0895FC01148216821782108611862C
:101FC00011821082138212820E94C90F0895CF934A
:101FD000DF93FC012481211110C0EC010E94342EFA
:101FE0006D877E878F87988B8FEF9FE09B838A8397
:101FF000CE010E94C90F81E08C83DF91CF910895BB
:102000008F929F92AF92BF92CF92DF92EF92FF9208
:102010000F931F93CF93DF93EC017B01088119810C
:102020000617170708F04DC0B80180E090E00E9445
:1020300076324B015C01B70180E090E00E9476327D
:102040009B01AC01C501B4010E94D53120E030E014
:102050004FE753E40E9404330E944732E62FF0E03A
:10206000EE0FFF1FEC55F64F6591749180E090E004
:102070000E94763220E030EC4FE754E40E94D531E4
:102080006B017C018A819B818115904120F08FEF4B
:102090009FE09B838A836A817B8180E090E00E943D
:1020A0007632A70196010E9404330E9447327B8753
:1020B0006A870F5F1F4F19830883CE010E94590E54
:1020C00009C01B861A8660E070E00E94590E1986CE
:1020D00019821882DF91CF911F910F91FF90EF909D
:1020E000DF90CF90BF90AF909F908F9008954F92C8
:1020F0005F926F927F92AF92BF92CF92DF92EF92F8
:10210000FF920F931F93CF93DF93EC015B016A0162
:1021100079018C81811113C08D81882381F081E048
:102120008C838E831F82188619863B832A830E94A4
:10213000342E6D877E878F87988B198218828C81C9
:102140008823F1F08D8181111BC08E81811103C024
:102150008F81882329F08A859B859B838A8302C08F
:10216000FB82EA821C821E821F82188681E0898798
:102170000E94342E6D877E878F87988B19821882F4
:1021800089858823E9F08C8181111AC00E94342E40
:102190004D845E846F8478882AE0420E511C611C55
:1021A000711C461657066806790650F40E94342EB4
:1021B0006D877E878F87988BB801CE010E940010B3
:1021C0008E818823D1F00E94342E0D851E852F85A7
:1021D00038890B5F1F4F2F4F3F4F061717072807F0
:1021E000390758F40E94342E6D877E878F87988B2D
:1021F000A601B501CE010E947E0E8F81882311F1C8
:102200000E94342E0D851E852F8538890B5F1F4F48
:102210002F4F3F4F061717072807390798F40E94DA
:10222000342E6D877E878F87988B8A819B81E816F5
:10223000F90611F0FB82EA82DD2024F0B601CE011E
:102240000E943D0F88858823F9F00E94342E0D8569
:102250001E852F8538890B5F1F4F2F4F3F4F061765
:1022600017072807390780F40E94342E6D877E8770
:102270008F87988B8A819B81E816F90629F0FB826B
:10228000EA82CE010E94C90FDF91CF911F910F9179
:10229000FF90EF90DF90CF90BF90AF907F906F90C6
:1022A0005F904F900895CF92DF92EF92FF920F933D
:1022B0001F93CF93DF93EC018B018C81811115C0AB
:1022C0009D81992391F081E08C838FEF9FE09B8328
:1022D0008A83CE010E94C90F0E94342E6D877E87AB
:1022E0008F87988B198218820DC0882359F08D81B1
:1022F000811108C01C821E821F82188681E0898796
:102300001982188289858823E9F08C8181111AC08D
:102310000E94342ECD84DE84EF84F8882AE0C20E39
:10232000D11CE11CF11CC616D706E806F90650F4CC
:102330000E94342E6D877E878F87988BB801CE01DF
:102340000E940010DF91CF911F910F91FF90EF90AD
:10235000DF90CF9008951F93CF93DF93C62FD72F91
:10236000142F60E782E992E00E94280E60E182E982
:1023700092E00E943A0E82E992E00E94440E60E6EA
:1023800082E992E00E94280E612F82E992E00E9489
:102390003A0E6D2F82E992E00E943A0E6C2F82E98C
:1023A00092E00E943A0E6D2F82E992E00E943A0E6E
:1023B0006C2F82E992E00E943A0E6D2F82E992E042
:1023C0000E943A0E6C2F82E992E00E943A0E6D2F25
:1023D00082E992E00E943A0E6C2F82E992E00E941C
:1023E0003A0E82E992E00E94440EDF91CF911F9154
:1023F0000895019779F46F3F7F4F61F484E992E08B
:102400000E942B2E83E992E00E94E82B82E992E061
:102410000E941F0E08956F927F928F929F92AF92AB
:10242000BF92CF92DF92EF92FF920F931F93CF93C1
:10243000DF9394EF980F953508F06BC039014A018E
:10244000B62ED82EDA018C91811126C0C0E0D0E0E2
:102450008C2D90E0C817D907D4F486EC8C9F7001BE
:102460008D9FF00C1124E80CF91C6D2DC7010E9402
:10247000772EF701B38281E18C9FF0018D9FF00DE3
:102480001124E60DF71D81E085832196E1CF81E0DF
:10249000D80115968C933DC080E090E0883091057E
:1024A00054F4F701E80FF91F2081203839F4D401E2
:1024B00011968C918083C0E0D0E002C00196EECFEF
:1024C0008C2D90E0C817D907D4F486EC8C9F70014E
:1024D0008D9FF00C1124E80CF91C6D2DC7010E9492
:1024E000772EF701B38281E18C9FF0018D9FF00D73
:1024F0001124E60DF71D81E085832196E1CFF1E0FF
:10250000AF1207C0D80114961C92149781E015965B
:102510008C93DF91CF911F910F91FF90EF90DF90FF
:10252000CF90BF90AF909F908F907F906F900895C5
:102530006F927F928F929F92AF92BF92CF92DF92D3
:10254000EF92FF920F931F93CF93DF93CDB7DEB738
:1025500094EF980F953508F06FC039014A016B016F
:10256000482FE0E0F0E02E2D30E0E217F3070CF00A
:1025700049C05F0196EC9E9FD0019F9FB00D112432
:10258000AC0DBD1D9C919923D9F111969C91119789
:10259000491336C087E090E0992384F07801E80E73
:1025A000F91EF7016081603839F0CD010E94772E65
:1025B00080E8F701808340C00197EECFCD010E94F3
:1025C000FB2E81E18A9DF0018B9DF00D1124E80D19
:1025D000F91D1582F601808181112EC0EA53FF4F4B
:1025E0008081811129C0EA53FF4F8081811124C06D
:1025F000EA53FF4F808181111FC0F30115821CC077
:102600003196B1CF9DAD911111C020E030E028305E
:10261000310594F4F801E20FF31F9081491303C0D0
:1026200080E8808309C02F5F3F4FF1CF2FE760E83C
:10263000CE0141960E943F2ADF91CF911F910F91C9
:10264000FF90EF90DF90CF90BF90AF909F908F90D2
:102650007F906F9008958F929F92AF92BF92CF928A
:10266000DF92EF920F931F93CF93DF9394EF980F26
:10267000953508F066C0FB019081992309F44DC09F
:10268000918189134DC059016A01EB0187E090E007
:1026900099231CF14801880E991EF40120812038ED
:1026A000D1F000E010E08E2D90E0081719077CF4BF
:1026B000F401608126EC209FC001219F900D112420
:1026C0008C0F9D1F0E94772E0F5F1F4FECCF80E86D
:1026D000F401808336C00197DBCF00E010E08E2D3F
:1026E00090E008171907B4F426EC209FC001219F41
:1026F000900D11248C0F9D1F0E94FB2E81E1809F65
:10270000F001819FF00D1124EC0DFD1D15820F5F6E
:102710001F4FE5CFF501158214C020E030E002C064
:1027200020E030E02830310564F4F801E20FF31FB7
:102730009081891303C080E8808303C02F5F3F4FDF
:10274000F1CFDF91CF911F910F91EF90DF90CF905C
:10275000BF90AF909F908F9008952F923F924F928D
:102760005F926F927F928F929F92AF92BF92CF9221
:10277000DF92EF92FF920F931F93CF93DF93CDB72A
:10278000DEB727970FB6F894DEBF0FBECDBF8D839F
:102790006B017A013A8329831C821B82212C312C04
:1027A0003D81232F30E03F832E8386EC829F800182
:1027B000839F100D11240E0D1F1D64E2C8010E949D
:1027C000CB308FEF96E721E0815090402040E1F739
:1027D00000C000008E819F81880F991F2E813F814C
:1027E000280F391F2C0D3D1D3F832E83C9010E94E8
:1027F0004D0D4B015C01689412F8B694A794979420
:1028000087941694D1F768E4C8010E94CB303FEF5B
:1028100086E791E0315080409040E1F700C0000031
:102820008E819F810E944D0D2B013C010E947632CA
:1028300027E137EB41ED58E30E9404330E94473211
:10284000A5019401261B370B480B590B24153505A0
:102850004605570558F4DC01CB01880D991DAA1DCA
:10286000BB1D481659066A067B06B0F18414950410
:10287000A604B70448F42FEF221A320A89819A81FC
:1028800001979A83898310C0481459046A047B0411
:1028900058F42B813C812F5F3F4F3C832B838981F0
:1028A0009A8101969A83898393E32916310428F04B
:1028B0002B813C812333310578F469817A81C80109
:1028C0000E94E4303FEF86E791E031508040904035
:1028D000E1F700C0000064CFC8010E94FB2E2796DC
:1028E0000FB6F894DEBF0FBECDBFDF91CF911F9121
:1028F0000F91FF90EF90DF90CF90BF90AF909F909F
:102900008F907F906F905F904F903F902F900895A1
:102910008130D1F0823051F4FB0180818058808376
:1029200090E0880F892F881F990B0895FB01808103
:10293000805C808390E0082E892F000C881F990B03
:10294000000C881F991F089580E008952F923F92F0
:102950004F925F926F927F928F929F92AF92BF92AF
:10296000CF92DF92EF92FF920F931F93CF93DF935B
:1029700000D000D01F92CDB7DEB794EF980F9535F9
:1029800008F09DC0FB82EA8218013D832C832A0156
:10299000B62E8983E12CF12C0A2D10E0E016F10609
:1029A0000CF08DC080910201813031F46C817D8109
:1029B0008A2D0E94881401C08E2D682E712C86EC01
:1029C000869D4001879D900C1124840C951CD40198
:1029D0008C9181112DC06981C4010E94772EF40170
:1029E000B38281E1869D8001879D100D1124F10144
:1029F000E00FF11F81E08583AA81BB8114968C9141
:102A00001497811104C015968C91882341F0279664
:102A1000BFAD2797B13019F0E1E0AE1250C0AA81E6
:102A2000BB8114961C92149781E015968C9347C035
:102A300001501109E016F106F1F52896BFAD28976F
:102A4000B11132C080E090E0883091056CF4F6015D
:102A5000E80FF91F2081203829F4D40111968C91B8
:102A6000808302C00196F0CF6981C4010E94772E55
:102A7000F401B38281E1869DF001879DF00D112460
:102A8000E20DF31D81E085832796FFAD2797F13096
:102A900011F0A81210C0AA81BB8114961C92149741
:102AA00081E015968C9307C02B2D498160E9CE01FA
:102AB0004A960E943F2ABFEFEB1AFB0A6DCF0F9098
:102AC0000F900F900F900F90DF91CF911F910F916A
:102AD000FF90EF90DF90CF90BF90AF909F908F903E
:102AE0007F906F905F904F903F902F9008952F921E
:102AF0003F924F925F926F927F928F929F92AF928E
:102B0000BF92CF92DF92EF92FF920F931F93CF93DA
:102B1000DF93CDB7DEB72B970FB6F894DEBF0FBEAD
:102B2000CDBF5B01922E0B8387013B8024EF320ED9
:102B3000242F30E03D832C83220F331F4C815D8195
:102B4000240F351F820F931F9A83898320E030E082
:102B5000A901632D0E94C10D6B017C01692D70E0FC
:102B600080E090E00E9476329B01AC01632D898168
:102B70009A810E94C10D2B013C01692D70E0719575
:102B800061957109072E000C880B990B0E94783211
:102B90009B01AC01632D89819A810E94C10D6E83D6
:102BA0007F838887998726EC4C815D81249FC001B3
:102BB000259F900D11244501880E991E5B81852F5C
:102BC00090E09C012C5031093D832C83FC0135970A
:102BD000EE0FFF1FE80DF91D40815181212C312C92
:102BE000A12CB12C5B874A87A016B10620F02016D5
:102BF000310608F06AC06B81C4010E94CB305FEFE0
:102C000086E791E0515080409040E1F700C000001D
:102C100089819A810E944D0DC616D706E806F906ED
:102C2000D8F42A853B852F3F4FEF340789F02F5F7B
:102C30003F4F3B872A87EC81FD813796EE0FFF1FC0
:102C4000E80DF91D208131812F5F3F4F31832083B3
:102C50005FEFA51AB50A1EC06C157D058E059F0590
:102C6000C8F42A853B852115310589F021503109A9
:102C70003B872A87EC81FD813796EE0FFF1FE80D19
:102C8000F91D2081318121503109318320833FEFAB
:102C9000231A330A4A855B8541155105C9F04F3F18
:102CA0005F4FC9F0461657066806790608F09CCFB4
:102CB0002E813F81488559856217730784079507E0
:102CC00008F092CF8A859B8508C08A859B8505C0C0
:102CD00080E090E002C08FEF9FEF2B960FB6F89444
:102CE000DEBF0FBECDBFDF91CF911F910F91FF903F
:102CF000EF90DF90CF90BF90AF909F908F907F909C
:102D00006F905F904F903F902F9008954F925F92F9
:102D10006F927F928F929F92AF92BF92CF92DF92EB
:102D2000EF92FF920F931F93CF93DF93182F5B01C6
:102D3000EA012115310559F488EE93E0FA0126ECF9
:102D4000129FE00DF11D11249787868708C0FA01B4
:102D500046EC849FE00DF11D1124378726870F2E46
:102D6000F4E6EF2EF12CF02D0CE021E0412FBE0116
:102D7000C5010E9477154C01892B09F05AC04E01FC
:102D800086EC189F800C911C112481E090E0F401E6
:102D9000978786870DE021E0412FBE01C5010E9483
:102DA0007715885D92402C013C016894CC24C1F8D1
:102DB000D12CF5E5CF16D1040CF087C0F60137967B
:102DC000EE0FFF1FE80DF91D20813181C301072C93
:102DD000000CAA0BBB0B820F931FA11DB11D009706
:102DE000A140B10558F0F6013796EE0FFF1FE80D30
:102DF000F91D8FEF9FEF918380830AC0F60137960C
:102E0000EE0FFF1FE80DF91D240D351D31832083C2
:102E10000CE00C0D0F2EF2E3EF2EF12CF02D21E043
:102E2000412FBE01C5010E9477158FEFC81AD80A3D
:102E3000C0CFCC24C394D12CE5E5CE16D1040CF040
:102E400044C0CE01F6EC1F9F800D911D1124F601A8
:102E50003796EE0FFF1FE80FF91F20813181A40183
:102E600060E070E0420F531F611D711D4115510557
:102E70006140710568F09601295F3F4F220F331FB3
:102E8000FC01E20FF31F2FEF3FEF318320830CC0D3
:102E9000A601495F5F4F440F551FFC01E40FF51F6A
:102EA000280D391D318320830CE00C0D0F2EF2E329
:102EB000EF2EF12CF02D21E0412FBE01C5010E9423
:102EC0007715FFEFCF1ADF0AB7CFCE0126EC129F9E
:102ED000800D911D11240E94FB2EDF91CF911F9137
:102EE0000F91FF90EF90DF90CF90BF90AF909F90A9
:102EF0008F907F906F905F904F9008952F923F92A8
:102F00004F925F926F927F928F929F92AF92BF92F9
:102F1000CF92DF92EF92FF920F931F93CF93DF93A5
:102F2000CDB7DEB7CC5BD1090FB6F894DEBF0FBECC
:102F3000CDBF5B014A013901C555DF4FC882CB5A6D
:102F4000D040C455DF4FD882CC5AD040C355DF4F54
:102F5000E882CD5AD040C255DF4FF882CE5AD040D9
:102F6000C155DF4F0883CF5AD040C055DF4F18837B
:102F7000C05BD04024E830E033235CF0482F50E0C1
:102F8000421753071CF0182F121B04C02C50310994
:102F9000F3CF10E01111D6C160E782E992E00E9400
:102FA000280E60E482E992E00E943A0E82E992E003
:102FB0000E94440E60E070E0CE0185559F4F0E9454
:102FC0005F2A60E782E992E00E94280E60E182E9D0
:102FD00092E00E943A0E82E992E00E94440EC401FF
:102FE0004196CF54DF4F99838883C15BD04060E026
:102FF00070E00E94590EF401B296CD54DF4FF98370
:10300000E883C35BD04060E070E0CF010E94590EBE
:103010006401F3E3CF0ED11C60E070E0C6010E94B2
:10302000590E15BCF5010684F785E02DCB54DF4F12
:10303000F983E883C55BD0402501F6EC4F0E511CA7
:10304000F2010684F785E02DC954DF4FF983E88348
:10305000C75BD0407501F4E7EF1AFEEFFF0AF701F6
:103060000684F785E02DC754DF4FF983E883C95BF9
:10307000D0401501FEEA2F1AFDEF3F0AF101068448
:10308000F785E02DC554DF4FF983E883CB5BD04053
:103090008AEAECE0F1E0DE01119601900D928A954A
:1030A000E1F78AEAFE013196D5011E9601900D9254
:1030B0008A95E1F7D501AC52BF4F8AEAFE013196FD
:1030C00001900D928A95E1F7D501A656BE4F8AEA86
:1030D000FE01319601900D928A95E1F7D501A05A33
:1030E000BD4F8AEAFE01319601900D928A95E1F773
:1030F00060E782E992E00E94280E60E182E992E0B6
:103100000E943A0E82E992E00E94440E6FEF7FE047
:10311000C4010E94590E8CEA92E00E943C369C0148
:10312000A501B30180E00E94AD13CB54DF4F28818D
:103130003981C55BD040A501B30180E00E948616AD
:10314000F501648575858CEA92E00E945A364AEA58
:1031500050E064E070E0C5010E960E94423660E7E0
:1031600082E992E00E94280E60E182E992E00E94EA
:103170003A0E82E992E00E94440E60E070E0C401E1
:103180000E94590EF40114826FEF7FE0CF54DF4F9D
:1031900088819981C15BD0400E94590E8EEA92E0ED
:1031A0000E943C369C01A501B30181E00E94AD1351
:1031B000C954DF4F28813981C75BD040A501B301D5
:1031C00081E00E948616F201648575858EEA92E0A0
:1031D0000E945A364AEA50E06EEA70E0C2010E964A
:1031E0000E94423660E782E992E00E94280E60E188
:1031F00082E992E00E943A0E82E992E00E94440E37
:1032000060E070E0CF54DF4F88819981C15BD0408E
:103210000E94590EF401158A6FEF7FE0CD54DF4F05
:1032200088819981C35BD0400E94590E80EB92E067
:103230000E943C369C01A501B30182E00E94AD13BF
:10324000C754DF4F28813981C95BD040A501B30144
:1032500082E00E948616F7016485758580EB92E016
:103260000E945A364AEA50E068E571E0C7010E96BE
:103270000E94423660E782E992E00E94280E60E1F7
:1032800082E992E00E943A0E82E992E00E94440EA6
:1032900060E070E0CD54DF4F88819981C35BD040FE
:1032A0000E94590EF40116A26FEF7FE0C6010E9442
:1032B000590E82EB92E00E943C369C01A501B301BD
:1032C00083E00E94AD13C554DF4F28813981CB5B69
:1032D000D040A501B30183E00E948616F101648508
:1032E000758582EB92E00E945A364AEA50E062E02D
:1032F00072E0C1010E960E94423660E782E992E0D8
:103300000E94280E60E182E992E00E943A0E82E972
:1033100092E00E94440E60E070E0C6010E94590EE7
:10332000F40117AA60E782E992E00E94280E60E4A7
:1033300082E992E00E943A0E82E992E00E94440EF5
:1033400083E085BD123059F510928D0210928B02E8
:1033500081E08093020110928A028093010160E073
:1033600080EC92E00E944C3660918B0281EC92E0FE
:103370000E944C366091020183EC92E00E944C3630
:1033800060918A0284EC92E00E944C3660910101C7
:1033900085EC92E00E944C3685B18B7F85B9143064
:1033A00059F461E080918D02811160E060938D029B
:1033B00080EC92E00E944C36153059F461E0809127
:1033C0000101811160E06093010185EC92E00E94AF
:1033D0004C361730B1F481E090918A02911180E06F
:1033E00080938A02813021F485B1846085B903C05D
:1033F00085B18B7F85B960918A0284EC92E00E944E
:103400004C36193059F461E080918B02811160E0F3
:1034100060938B0281EC92E00E944C361B3059F491
:1034200061E080910201811160E06093020183EC10
:1034300092E00E944C36C454DF4F0FB6F894DEBFC2
:103440000FBECDBFDF91CF911F910F91FF90EF90F5
:10345000DF90CF90BF90AF909F908F907F906F90B4
:103460005F904F903F902F9008952091010121117E
:103470003FC08730910508F43FC040910001209182
:10348000880230918902240F311D47FD3A9530930F
:10349000890220938802281739073CF0909389020B
:1034A000809388022FEF2093000122273327281BC7
:1034B000390B4091880250918902241735073CF05E
:1034C000309389022093880281E080930001FB0100
:1034D0008081882341F010928902109288028FEF38
:1034E0008093000110828091880290918902089552
:1034F0008630910520F0089580E090E0089580E006
:1035000090E00895CF92DF92EF92FF920F931F9376
:10351000CF93DF93CDB7DEB76C016EEB71E083E93B
:1035200092E00E94F82B4F8550E04F5F5F4F052ED1
:10353000000C660B770B83E992E00E94352C60E863
:1035400072E083E992E00E94F82B68EC71E083E975
:1035500092E00E94F82B488950E04F5F5F4F052EA4
:10356000000C660B770B83E992E00E94352C60E833
:1035700072E083E992E00E94F82B66ED71E083E946
:1035800092E00E94F82BF601468150E060E070E086
:1035900083E992E00E94352C60E872E083E992E0D2
:1035A0000E94F82B60EE71E083E992E00E94F82B14
:1035B000F601478150E060E070E083E992E00E940C
:1035C000352C60E872E083E992E00E94F82B6CEE03
:1035D00071E083E992E00E94F82B40918D0250E067
:1035E00060E070E083E992E00E94352C60E872E0D0
:1035F00083E992E00E94F82B65EF71E083E992E0A5
:103600000E94F82B4091040150E060E070E083E9F3
:1036100092E00E94352C60E872E083E992E00E941B
:10362000F82B6EEF71E083E992E00E94F82B409155
:10363000030150E060E070E083E992E00E94352CE5
:1036400060E872E083E992E00E94F82B6BE072E0A0
:1036500083E992E00E94F82B40918C0250E060E0F8
:1036600070E083E992E00E94352C60E872E083E923
:1036700092E00E94F82B66E172E083E992E00E94FA
:10368000F82B40918B0250E060E070E083E992E01B
:103690000E94352C60E872E083E992E00E94F82BEA
:1036A00063E272E083E992E00E94F82B4091050109
:1036B00050E060E070E083E992E00E94352C60E821
:1036C00072E083E992E00E94F82B6CE272E083E9F9
:1036D00092E00E94F82B4091020150E060E070E01F
:1036E00083E992E00E94352C60E872E083E992E081
:1036F0000E94F82B6AE372E083E992E00E94F82BC3
:1037000040918A0250E060E070E083E992E00E941C
:10371000352C60E872E083E992E00E94F82B65EFB7
:1037200071E083E992E00E94F82B4091010150E0A2
:1037300060E070E083E992E00E94352C60E872E07E
:1037400083E992E00E94F82BE12CF12CF5E5EF16CD
:10375000F1040CF06BC065E472E083E992E00E9432
:10376000F82BA701445F5F4F052E000C660B770B0B
:1037700083E992E00E94352C6AE272E083E992E0EC
:103780000E94F82B8701095F1F4F000F111FF601E0
:10379000E00FF11F4081518160E070E083E992E029
:1037A0000E94352C6AE272E083E992E00E94F82BD5
:1037B000F601EA53FF4FE00FF11F4081518160E0B5
:1037C00070E083E992E00E94352C6AE272E083E9BE
:1037D00092E00E94F82BF601E457FE4FE00FF11F34
:1037E0004081518160E070E083E992E00E94352CD5
:1037F0006AE272E083E992E00E94F82BC6018E5AD9
:103800009D4FFC01E00FF11F4081518160E070E0AD
:1038100083E992E00E94352C60E872E083E992E04F
:103820000E94F82B8FEFE81AF80A90CF6FE472E04D
:1038300083E992E00E94F82BF6014485558560E00B
:1038400070E083E992E00E94352C6AE272E083E93D
:1038500092E00E94F82BF601EA53FF4F448555850C
:1038600060E070E083E992E00E94352C6AE272E049
:1038700083E992E00E94F82BF601E457FE4F44855D
:10388000558560E070E083E992E00E94352C6AE2A1
:1038900072E083E992E00E94F82BF601EE5AFD4FA8
:1038A0004485558560E070E083E992E00E94352C04
:1038B00060E872E083E992E00E94F82B67E572E02D
:1038C00083E992E00E94F82B409108015091090190
:1038D00060910A0170910B0183E992E00E94552DDD
:1038E00060E872E083E992E00E94F82BDF91CF91CB
:1038F0001F910F91FF90EF90DF90CF9008951F934D
:10390000CF93DF93CDB7DEB7CC5AD1090FB6F89479
:10391000DEBF0FBECDBFCD53DF4F1881C35CD0409B
:10392000809106011813D7C0CC53DF4F9881C45C37
:10393000D040809107019813CEC0CA53DF4F8881D1
:10394000C65CD0408F3F09F0C6C0CB53DF4F8881A3
:10395000C55CD040863009F0BEC062E672E083E903
:1039600092E00E94F82B82E0C555DF4F8883CB5A46
:10397000D040C455DF4F8883CC5AD0408AEAECE06F
:10398000F1E0DE01119601900D928A95E1F760E079
:1039900080E090E00E944C3642E050E062E070E04F
:1039A000CE0185559F4F0E9442364AEA50E064E0BE
:1039B00070E0CE0101960E9442364AEA50E06EEA7B
:1039C00070E0CE0101960E9442364AEA50E068E576
:1039D00071E0CE0101960E9442364AEA50E062E070
:1039E00072E0CE0101960E94423668E077E08CEAF0
:1039F00092E00E945A3668E077E08EEA92E00E94F8
:103A00005A3668E077E080EB92E00E945A3668E030
:103A100077E082EB92E00E945A3661E08CEB92E014
:103A20000E944C3662E08DEB92E00E944C3662E0E0
:103A30008EEB92E00E944C3660E08FEB92E00E94A9
:103A40004C3660E080EC92E00E944C3660E081EC05
:103A500092E00E944C3660E082EC92E00E944C368C
:103A600061E083EC92E00E944C3660E084EC92E0EE
:103A70000E944C3661E085EC92E00E944C3640E5B5
:103A800060E070E0C252DF4F88819981CE5DD04006
:103A90000E94AB1140E568E077E0C052DF4F8881BB
:103AA0009981C05ED0400E941A3140E660E070E02B
:103AB000CE018E519F4F0E94F90C40E66FEF7FE0E0
:103AC000CE018D509F4F0E94C02A6FE672E083E9BD
:103AD00092E00E94F82B80910601181325C0CC5368
:103AE000DF4F9881C45CD0408091070198131CC0BF
:103AF000CA53DF4F8881C65CD0408331A9F4CB53D1
:103B0000DF4F8881C55CD040863071F4C953DF4FE8
:103B10006881C75CD040CA54DF4F6883C65BD04021
:103B200080E090E00E944C368091060118133CC062
:103B3000CC53DF4F9881C45CD0408091070198132B
:103B400033C0CA53DF4F8881C65CD040843161F5F1
:103B5000CB53DF4F8881C55CD040863029F5C953EF
:103B6000DF4F6881C75CD040C052DF4FE881F981E8
:103B7000C05ED0406683EA53FF4F6683C052DF4F7A
:103B8000E881F981C05ED040E457FE4F6683C052A1
:103B9000DF4FE881F981C05ED040EE5AFD4F668369
:103BA00082E090E00E944C368091060118133CC0E0
:103BB000CC53DF4F9881C45CD040809107019813AB
:103BC00033C0CA53DF4F8881C65CD040853161F570
:103BD000CB53DF4F8881C55CD040863029F5C9536F
:103BE000DF4F6881C75CD040C052DF4FE881F98168
:103BF000C05ED0406783EA53FF4F6783C052DF4FF8
:103C0000E881F981C05ED040E457FE4F6783C0521F
:103C1000DF4FE881F981C05ED040EE5AFD4F6783E7
:103C200083E090E00E944C3680910601181322C078
:103C3000CC53DF4F9881C45CD0408091070198132A
:103C400019C0CA53DF4F8881C65CD040863191F4D9
:103C5000CB53DF4F8881C55CD040863059F4C953BF
:103C6000DF4F6881C75CD040609305018CEB92E028
:103C70000E944C3680910601181322C0CC53DF4FAE
:103C80009881C45CD04080910701981319C0CA5331
:103C9000DF4F8881C65CD040873191F4CB53DF4F32
:103CA0008881C55CD040863059F4C953DF4F6881A4
:103CB000C75CD040609304018DEB92E00E944C36CB
:103CC00080910601181322C0CC53DF4F9881C45C49
:103CD000D04080910701981319C0CA53DF4F8881E3
:103CE000C65CD040883191F4CB53DF4F8881C55CEE
:103CF000D040863059F4C953DF4F6881C75CD0404B
:103D0000609303018EEB92E00E944C368091060195
:103D1000181322C0CC53DF4F9881C45CD0408091EF
:103D20000701981319C0CA53DF4F8881C65CD04081
:103D3000893191F4CB53DF4F8881C55CD040863008
:103D400059F4C953DF4F6881C75CD04060938C023F
:103D50008FEB92E00E944C3680910601181322C02E
:103D6000CC53DF4F9881C45CD040809107019813F9
:103D700019C0CA53DF4F8881C65CD0408A3191F4A4
:103D8000CB53DF4F8881C55CD040863059F4C9538E
:103D9000DF4F6881C75CD04060938D0280EC92E079
:103DA0000E944C3680910601181322C0CC53DF4F7D
:103DB0009881C45CD04080910701981319C0CA5300
:103DC000DF4F8881C65CD0408B3191F4CB53DF4FFD
:103DD0008881C55CD040863059F4C953DF4F688173
:103DE000C75CD04060938B0281EC92E00E944C361D
:103DF00080910601181325C0CC53DF4F9881C45C15
:103E0000D0408091070198131CC0CA53DF4F8881AE
:103E1000C65CD0408C31A9F4CB53DF4F8881C55CA0
:103E2000D040863071F4C953DF4F6881C75CD04001
:103E3000C954DF4F6883C75BD04082EC92E00E9498
:103E40004C3680910601181322C0CC53DF4F988165
:103E5000C45CD04080910701981319C0CA53DF4F4A
:103E60008881C65CD0408D3191F4CB53DF4F88817F
:103E7000C55CD040863059F4C953DF4F6881C75CB8
:103E8000D0406093020183EC92E00E944C36809116
:103E9000060118132DC0CC53DF4F9881C45CD0406D
:103EA00080910701981324C0CA53DF4F8881C65CF4
:103EB000D0408E31E9F4CB53DF4F8881C55CD040D0
:103EC0008630B1F4C953DF4F6881C75CD04060933E
:103ED0008A0284EC92E00E944C3680918A02813002
:103EE00021F485B1846085B903C085B18B7F85B924
:103EF000CD53DF4F1881C35CD04080910601181369
:103F000022C0CC53DF4F9881C45CD0408091070120
:103F1000981319C0CA53DF4F8881C65CD0408F31D7
:103F200091F4CB53DF4F8881C55CD040863059F483
:103F3000C953DF4F6881C75CD0406093010185ECB5
:103F400092E00E944C3680910601181337C0CC5382
:103F5000DF4F9881C45CD0408091070198132EC038
:103F6000CA53DF4F8881C65CD040803239F5CB53CD
:103F7000DF4F8881C55CD040863001F58DB79EB794
:103F80008C970FB6F8949EBF0FBE8DBFADB7BEB76E
:103F900011968CE2FE01EE54FF4F01900D928A952E
:103FA000E1F7C052DF4F88819981C05ED0400E9406
:103FB000821A0FB6F894DEBF0FBECDBFC455DF4FD7
:103FC0000FB6F894DEBF0FBECDBFDF91CF911F912A
:103FD00008958F929F92AF92BF92DF92EF92FF92DD
:103FE0000F931F93CF93DF938C0120E030E04AE7DB
:103FF00054E4609108017091090180910A01909147
:104000000B010E9404330E9447324B015C019B016B
:10401000ADECBCEC0E94903396958795969587956C
:10402000969587959C01220F331F880F991F880F43
:10403000991F880F991F820F931F9401281B390B1A
:10404000C901D22E99279401281B390B0E94903365
:10405000AC015695479556954795569547959A01C3
:104060000E94903396958795969587959695879516
:104070009C01220F331F880F991F880F991F880FEB
:10408000991F820F931F9A01281B390BC901E22E39
:104090009A01281B31090E949033AC01569547952F
:1040A00056954795569547959A010E949033969557
:1040B000879596958795969587959C01220F331F36
:1040C000880F991F880F991F880F991F820F931FC0
:1040D0009A01281B390BC901F22E9A01281B3109BC
:1040E0000E949033AC015695479556954795569545
:1040F00047959A010E949033969587959695879556
:10410000969587959C01220F331F880F991F880F62
:10411000991F880F991F820F931FD42FD81B60E718
:1041200082E992E00E94280E60E182E992E00E941A
:104130003A0E82E992E00E94440EC0E0CA3008F0D4
:104140004AC0CD1728F46FEF7FE0C8010E94590ED6
:10415000CF1530F46FEF7FE0C80141960E94590EF1
:10416000CE1530F46FEF7FE0C80182960E94590EA1
:10417000CD1530F46FEF7FE0C801C3960E94590E51
:104180003FEF83EC99E0315080409040E1F700C070
:10419000000060E070E0C8010E94590E60E070E02D
:1041A000C80141960E94590E60E070E0C8018296F5
:1041B0000E94590E60E070E0C801C3960E94590E3B
:1041C0002FEF33EC89E0215030408040E1F700C010
:1041D0000000CF5FB3CFDF91CF911F910F91FF9080
:1041E000EF90DF90BF90AF909F908F900895CF9306
:1041F000DF93CDB7DEB7CC52D4400FB6F894DEBF14
:104200000FBECDBFCE0101960E94A22846E463E016
:10421000CE018D960E94622E44E462E0CE018D5064
:104220009F4F0E94622E42E461E0CE0187549E4F70
:104230000E94622E40E460E0CE0181589D4F0E94B2
:10424000622E66E4CE018B5B9C4F0E944C0E64E4B0
:1042500085E493E08C0F9D1F41960E944C0E62E412
:1042600085E493E08C0F9D1F82960E944C0E60E4C3
:1042700085E493E08C0F9D1FC3960E944C0E60E472
:10428000CE0187579C4F0E94720A60E4CE01865689
:104290009C4F0E94572ACE0180569C4F0E94F72ABD
:1042A00084B1816084B984B1846084B912E3E12E61
:1042B000F12C00E010E027E046E250E067E270E019
:1042C000CE018F559C4F0E94FD0926E04CE250E044
:1042D0006DE270E0CE0182559C4F0E94FD0920E006
:1042E0004FE250E060E370E0CE0185549C4F0E94A5
:1042F000FD0927E043E250E064E270E0CE0188531C
:104300009C4F0E94FD0926E046E250E067E270E023
:10431000CE018B529C4F0E94FD0925E049E250E0FE
:104320006AE270E0CE018E519C4F0E94FD0924E0AC
:1043300043E250E064E270E0CE0181519C4F0E9464
:10434000300D27E049E250E06AE270E08FEE93E042
:104350008C0F9D1F03960E94300D26E049E250E02D
:104360006AE270E08FEE93E08C0F9D1F06960E942C
:10437000300D24E049E250E06AE270E08FEE93E015
:104380008C0F9D1F09960E94300DC550DC4F18827E
:10439000CB5FD340C450DC4F1882CC5FD34088E061
:1043A000E6EBF1E0DE01A35FBB4F01900D928A9531
:1043B000E1F7789480E090E00E9434368D8382E0CB
:1043C00090E00E9434368BAB83E090E00E9434365C
:1043D0008CAB82E090E00E943436C750DF4F888378
:1043E000C95FD04083E090E00E943436C650DF4F72
:1043F0008883CA5FD04082E090E00E943436C15486
:10440000DE4F8883CF5BD14083E090E00E9434365A
:10441000C054DE4F8883C05CD14082E090E00E94AF
:104420003436CB57DD4F8883C558D24083E090E0C7
:104430000E943436CA57DD4F8883C658D2404AEAB4
:1044400050E064E070E0CE01CB960E9424364AEA48
:1044500050E06EEA70E0CE018F5F9E4F0E942436DE
:104460004AEA50E068E571E0CE0189539E4F0E9410
:1044700024364AEA50E062E072E0CE0183579D4F55
:104480000E9424368CEA92E00E943C36BC01CE01A8
:104490008D960E94E4308EEA92E00E943C36BC0188
:1044A000CE018D509F4F0E94E43080EB92E00E943D
:1044B0003C36BC01CE0187549E4F0E94E43082EB13
:1044C00092E00E943C36BC01CE0181589D4F0E9473
:1044D000E4308CEB92E00E943436809305018DEB42
:1044E00092E00E943436809304018EEB92E00E94A9
:1044F0003436809303018FEB92E00E943436809330
:104500008C0280EC92E00E94343680938D0281EC24
:1045100092E00E94343680938B0282EC92E00E94FB
:1045200034368E8383EC92E00E943436809302010D
:1045300084EC92E00E943436182F80938A0285EC36
:1045400092E00E94343680930101113019F485B154
:10455000846085B968E1CE018D960E94772ECE01E8
:104560008D960E94FB2E68E1CE018D509F4F0E94D8
:10457000772ECE018D509F4F0E94FB2E68E1CE0119
:1045800087549E4F0E94772ECE0187549E4F0E94E3
:10459000FB2E68E1CE0181589D4F0E94772ECE01FF
:1045A00081589D4F0E94FB2E8FE7C656DC4F8883B3
:1045B000CA59D34085B1816085B92FEF33EC49E00A
:1045C000215030404040E1F700C0000085B18E7FAF
:1045D00085B95FEF83EC99E0515080409040E1F75E
:1045E00000C000004D9B05C0CE018B5B9C4F0E941C
:1045F000E91FC45DDB4F1882CC52D440C55DDB4F50
:104600001882CB52D440C75DDB4F1882C952D440C8
:10461000C95DDB4F19821882C752D440212C312C3E
:10462000812C912CCD5DDB4F19821882C352D4406E
:10463000CF5DDB4F19821882C152D440CB5DDB4F76
:1046400019821882C552D440C15EDB4F198218828C
:10465000CF51D440412C512CC35EDB4F19821882BC
:10466000CD51D440612C712CC85EDB4F1982188269
:10467000C851D440C55EDB4F19821882CB51D4405B
:10468000CA5EDB4F19821882C651D440EFEFC65E76
:10469000DB4FE883CA51D440B12CFFEFC65DDB4F3E
:1046A000F883CA52D440CE0101960E940B29CE0154
:1046B0008E519C4F0E94240A813071F42A81CB5E76
:1046C000DB4F2883C551D44021110BC0CB5EDB4F9B
:1046D0001882C551D44005C0CB5EDB4F1882C5514E
:1046E000D440CB5EDB4F3881C551D440332359F1E0
:1046F000C656DC4FC880CA59D340C556DC4FD88057
:10470000CB59D340C456DC4FE880CC59D340C35674
:10471000DC4FF880CD59D340C256DC4F0881CE59CA
:10472000D340C156DC4F1881CF59D3409E0121514F
:104730003C4FAE014B5B5C4FBE01635D7F4F898197
:104740000E947E17B0CF8A81882309F461C085B1A9
:10475000846085B981E0C450DC4F8883CC5FD3404E
:10476000C65DDB4F4881CA52D440411132C06C81D2
:10477000898190918B029F9390918D029F93EDB7C9
:10478000FEB7BC970FB6F894FEBF0FBEEDBFADB736
:10479000BEB711969CE2FE01319601900D929A955A
:1047A000E1F7AB2C9E01235F3B4F6901AE014757F8
:1047B0005C4F7A018E010B5B1C4F225131094C5525
:1047C00053400E94A6140FB6F894DEBF0FBECDBFB3
:1047D00014C06C81A0908D02CB2CFE01E35FFB4FD7
:1047E0007F018E0107571C4F9E012B5B3C4FAE0192
:1047F000435D5F4F89810E940B1280918B02811172
:1048000007C02C81498160E9CE0101960E943F2AB0
:104810008B81882309F458C0C65DDB4FF881CA52EA
:10482000D440F1112CC0898190918B029F932DB7B8
:104830003EB72C5231090FB6F8943EBF0FBE2DBFC4
:10484000ADB7BEB711969CE2FE01319601900D9274
:104850009A95E1F7EB2C8E01035F1B4F9E012757C2
:104860003C4FAE014B5B5C4FBE01635D7F4F0E94CE
:1048700098120FB6F894DEBF0FBECDBF10C0EB2C60
:104880008E01035F1B4F9E0127573C4FAE014B5BD0
:104890005C4FBE01635D7F4F89810E942B13809125
:1048A0008B02811107C02C81498160E8CE010196FD
:1048B0000E943F2A8989882339F080918A028111D8
:1048C00003C085B18B7F85B989858823B1F08F813D
:1048D00098859AAB89ABC950DF4F99838883C75FAE
:1048E000D040C354DE4F99838883CD5BD140CD57F0
:1048F000DD4F99838883C358D2408D85882309F47E
:10490000B8C08B8590910501891306C09C85C65659
:10491000DC4F9883CA59D340823059F49C8520E2F9
:10492000929FF0011124C95DDB4FF983E883C752E0
:10493000D440823259F42C8530E035952795359551
:104940002795C75DDB4F2883C952D440853049F491
:104950002C8530E035952795C55DDB4F2883CB52FC
:10496000D440803149F42C8530E035952795C45DDD
:10497000DB4F2883CC52D440813179F42C8530E050
:10498000A901440F551F440F551F440F551FC35E07
:10499000DB4F59834883CD51D440823179F42C8543
:1049A00030E0F901EE0FFF1FEE0FFF1FEE0FFF1FAC
:1049B000C15EDB4FF983E883CF51D440833159F492
:1049C0009C8540E2949F90011124CF5DDB4F398399
:1049D0002883C152D440843141F42C84312C220CE0
:1049E000331C220C331C220C331C8B3709F041C0C2
:1049F00087E090E0992354F0EDE0F4E0EC0FFD1F28
:104A0000E80FF91F20E820830197F4CFCE018D969F
:104A10000E94FB2ECE018D509F4F0E94FB2ECE0197
:104A200087549E4F0E94FB2ECE0181589D4F0E94BD
:104A3000FB2EC65EDB4F5881CA51D4405523A1F0EE
:104A4000C65BDC4F1882CA54D340C55ADC4F18826B
:104A5000CB55D340C459DC4F1882CC56D340C358F1
:104A6000DC4F1882CD57D340C257DC4F1882CE5846
:104A7000D3408889882309F442C000D000D000D0F8
:104A8000ADB7BEB7119686E0FE01E656FC4F019029
:104A90000D928A95E1F78DB79EB741970FB6F894BE
:104AA0009EBF0FBE8DBFADB7BEB7119681E1FE01AF
:104AB000E757FC4F01900D928A95E1F7CE018D9654
:104AC0009F938F93885E9C4F9F938F93EDB7FEB714
:104AD000BC970FB6F894FEBF0FBEEDBFADB7BEB723
:104AE00011968CE2FE01319601900D928A95E1F7C4
:104AF0000E947F1C0FB6F894DEBF0FBECDBF0E9490
:104B0000342E00918E0210918F02209190023091EC
:104B10009102065F1F4F2F4F3F4F061717072807B9
:104B2000390708F0B5C11989112309F4AEC0CE01C7
:104B30008F559C4F0E94240A813069F4C65DDB4F7B
:104B40003881CA52D44031110CC0CB5EDB4F088192
:104B5000C551D44007C0CB5EDB4F0881C551D4405E
:104B600001C0012F011112C0CE018F559C4F0E9430
:104B7000240A811108C0C65DDB4F4881CA52D44067
:104B8000413009F0012F011107C00CC0C65DDB4F99
:104B90001882CA52D44006C051E0C65DDB4F58832C
:104BA000CA52D440CE0182559C4F0E94240A8130C3
:104BB00041F4B8120CC0CB5EDB4F0881C551D44024
:104BC00007C0CB5EDB4F0881C551D44001C0012F27
:104BD0000023E9F085E493E08C0F9D1F41960E942D
:104BE000DA0F85E493E08C0F9D1F82960E94DA0F06
:104BF00085E493E08C0F9D1FC3960E94DA0FC55089
:104C0000DC4F1882CB5FD340BB24B3943EC0CE01AF
:104C100085549C4F0E94240A813019F494E0B91203
:104C2000012F002349F0C550DC4F1882CB5FD340E1
:104C30006894BB24B2F829C0CE0182559C4F0E94D3
:104C4000240A81110AC0CE0185549C4F0E94240A77
:104C5000811103C0E2E0BE12012F0023B1F0C55064
:104C6000DC4F1882CB5FD34085E493E08C0F9D1F0F
:104C700082960E94DA0F85E493E08C0F9D1FC39605
:104C80000E94DA0F6894BB24B1F8CE018B529C4F7E
:104C90000E94240A813069F4C65EDB4FF881CA5154
:104CA000D440FF2331F021E0CB5EDB4F2883C55198
:104CB000D440CB5EDB4F3881C551D44031113EC06A
:104CC000CE0188539C4F0E94240A813069F4C65E4D
:104CD000DB4F4881CA51D440423031F051E0CB5EC5
:104CE000DB4F5883C551D440CB5EDB4F8881C55123
:104CF000D440811129C0CE018B529C4F0E94240ABE
:104D0000811114C0CE0188539C4F0E94240A811146
:104D10000DC0C65EDB4F9881CA51D440913031F04E
:104D2000E1E0CB5EDB4FE883C551D440CB5EDB4F87
:104D3000F881C551D440F1110EC013C0C65EDB4FDF
:104D40001882CA51D4400DC022E0C65EDB4F2883D2
:104D5000CA51D44006C031E0C65EDB4F3883CA5129
:104D6000D44020E2AE0143505C4F65E0CE01805656
:104D70009C4F0E94A22B9250CA5EDB4F998388837E
:104D8000C651D44040E064E0CE0180569C4F0E9462
:104D9000142B969587959695879596958795C45DDE
:104DA000DB4F4881CC52D440840F911D20910401E7
:104DB000BE0164507C4FFC012E9FC0012F9F900DBF
:104DC00011240E94351AC55EDB4F99838883CB512D
:104DD000D44040E065E0CE0180569C4F0E94142BE9
:104DE0003C0140E066E0CE0180569C4F0E94412B82
:104DF0002C0140E264E0CE0180569C4F0E94012BC2
:104E00004C0140E061E0CE0180569C4F0E94012B96
:104E1000929582958F7089279F7089279C01C55D27
:104E2000DB4F4881CB52D440240F311DC85EDB4F8D
:104E300039832883C851D44040E067E0CE018056D2
:104E40009C4F0E94012B880F991F880F991FCB5DE3
:104E5000DB4F99838883C552D44040E067E0CE01A0
:104E600080569C4F0E94752B880F991F880F991FA1
:104E7000CD5DDB4F99838883C352D4400E94342E8A
:104E800060938E0270938F028093900290939102B0
:104E9000CE0186569C4F0E94992AC85EDB4F28811E
:104EA0003981C851D44040E050E0CA5EDB4F688190
:104EB0007981C651D440CE018D960E94932FC85E51
:104EC000DB4F28813981C851D440C55EDB4F488112
:104ED0005981CB51D440CA5EDB4F68817981C6517C
:104EE000D440CE018D509F4F0E94932FC85EDB4F60
:104EF00028813981C851D44040E050E0CA5EDB4F80
:104F000068817981C651D440CE0187549E4F0E945A
:104F1000932FC85EDB4F28813981C851D440C55ECC
:104F2000DB4F48815981CB51D440CA5EDB4F688149
:104F30007981C651D440CE0181589D4F0E94932F54
:104F400060E782E992E00E94280E60E182E992E047
:104F50000E943A0E82E992E00E94440EC65EDB4F48
:104F60005881CA51D440523009F062C0E12CF12C72
:104F7000DB2CC95DDB4FA880B980C752D440C75D28
:104F8000DB4FC880C952D4408D2D90E0E816F90659
:104F90000CF08FC086EC8E9DF0018F9DF00D1124DA
:104FA00081E090E08C0F9D1FE80FF91F27A530E0EE
:104FB00000908C0202C0220F331F0A94E2F7CD5DED
:104FC000DB4FE881F981C352D4402E0F3F1F2A0DD9
:104FD0003B1D2C0D311DCF5DDB4F48815981C152E6
:104FE000D440240F351F41E14E9DC0014F9D900DCF
:104FF00011248401020D131DC15EDB4F48815981CC
:10500000CF51D440440D551DC35EDB4F688179817B
:10501000CD51D440660D771DE5E4F3E0EC0FFD1FA4
:105020008E0F9F1F0E947710FFEFEF1AFF0AACCF81
:10503000C65EDB4F2881CA51D440211118C000E060
:1050400010E08B2D90E008171907A4F521E1209FAF
:10505000C001219F900D112445E453E04C0F5D1FCA
:10506000840F951F0E94E70F0F5F1F4FEACFC65EA8
:10507000DB4F5881CA51D4405130E1F400E010E0D8
:105080008B2D90E008171907ACF421E1209FC00197
:10509000219F900D1124B401620D731DE5E4F3E02E
:1050A000EC0FFD1F8E0F9F1F0E9453110F5F1F4FAC
:1050B000E7CFBD2C2E8530E00090030102C0220F07
:1050C000331F0A94E2F7CB5DDB4F48815981C5520B
:1050D000D440240F351FC95DDB4F88819981C752A9
:1050E000D440280F391FC75DDB4F9881C952D44087
:1050F000290F311DCF5DDB4FE881F981C152D440CA
:105100002E0F3F1F8401020D131DC15EDB4F48812E
:105110005981CF51D440440D551DC35EDB4F68818A
:105120007981CD51D440660D771DCE0187579C4FB4
:105130000E94230CB8CA6FEF7FEF81E090E00E94DD
:10514000F911089521E0FC01208B138E20E030E05E
:10515000203131053CF4FC01E20FF31F148E2F5F68
:105160003F4FF6CF089583E992E00E94C32D882334
:10517000D1F383E992E00E94C32D8823D1F383E920
:1051800092E00E94CD2D883FA0F708954130B1F400
:10519000E62FF0E0F595E795F595E795F595E79518
:1051A000677021E030E002C0220F331F6A95E2F7FA
:1051B000E80FF91F848D282B248F0895E62FF0E047
:1051C000F595E795F595E795F595E795677021E0F5
:1051D00030E002C0220F331F6A95E2F7E80FF91F93
:1051E0002095848D2823248F0895262F30E035952F
:1051F00027953595279535952795820F931FFC01A7
:10520000248D677081E090E002C0880F991F6A9535
:10521000E2F782230895FF920F931F93CF93DF93BA
:10522000EC0119821A8218861C861E861F8683E965
:1052300092E00E94C32D882309F41BC183E992E008
:105240000E94CD2D182F80E8810F883710F41A8F17
:1052500010C1183F08F00DC1012F11237CF12A8DD8
:1052600030E08C8190E080579F4F2817390731F547
:105270001883CE010E94B3288B83882391F0F88095
:105280006F2DCE010E94F528811133C081E0898302
:105290008B8D8F5F8B8F41E06F2DCE010E94C628D2
:1052A00028C081E08A83688140E0CE010E94C62840
:1052B0008B8D8823F1F081508B8F1BC00023CCF0A5
:1052C0002A8D30E08C8190E080589F4F2817390755
:1052D00081F41883CE010E94B32881E08A8368811B
:1052E00040E0CE010E94C6288B8D882311F08150AA
:1052F0008B8F8B8D811103C081E0888B01C0188A50
:105300000023BCF02A8D30E08C8190E080529F4FCA
:105310002817390771F481E08887CE010E94B328ED
:10532000212F30E090E8899F200D311D11243F830B
:105330002E8300230CF12A8D30E08C8190E0805583
:105340009F4F28173907C1F481E08C871A87CE0157
:105350000E94B3288B878A858B3771F41B8E81E07E
:10536000888B80E090E08031910534F4FE01E80FF5
:10537000F91F148E0196F7CF002364F02A8D30E0D8
:105380008C8190E080539F4F2817390719F481E0F2
:105390008E871D878A8D803F09F06BC01F3779F497
:1053A000173F09F466C083E992E00E94C32D882369
:1053B000D1F383E992E00E94CD2D182FF1CF81E047
:1053C0008F8783E992E00E94C32D8823D1F383E97C
:1053D00092E00E94CD2D898B873F09F44AC083E972
:1053E00092E00E94C32D8823D1F383E992E00E94CA
:1053F000CD2D8A8B873FE9F183E992E00E94C32D8E
:105400008823D1F383E992E00E94CD2D8B8B873FD7
:1054100081F183E992E00E94C32D8823D1F383E9CF
:1054200092E00E94CD2D8C8B873F19F183E992E0A9
:105430000E94C32D8823D1F383E992E00E94CD2DF1
:105440008D8B873FB1F000E0173F99F083E992E040
:105450000E94C32D8823D1F383E992E00E94CD2DD1
:10546000182F873F89F3FE01E00FF11D868B0F5F38
:10547000EBCFDF91CF911F910F91FF900895CF93C4
:10548000DF93D42FC22FFC018581680F83E992E05E
:105490000E94A52D6D2F83E992E00E94A52D6C2F0F
:1054A00083E992E00E94A52DDF91CF910895FC0140
:1054B00061831282138214821582108208950F93E1
:1054C0001F93CF93DF938C01EB0160E782E992E0B9
:1054D0000E94280E60E482E992E00E943A0E82E97E
:1054E00092E00E94440E60E682E992E00E94280E5B
:1054F000F801618182E992E00E943A0EBE01729544
:1055000062956F7067277F70672782E992E00E943B
:105510003A0E6C2F6295607F82E992E00E943A0E0B
:1055200082E992E00E94440EDF91CF911F910F918A
:1055300008950F931F93CF93DF93EC010E94342EB5
:105540000A811B812C813D810B5F1F4F2F4F3F4FE5
:10555000061717072807390770F40E94342E6A834C
:105560007B838C839D83688180E2689FB0011124D6
:10557000CE010E945F2ADF91CF911F910F91089574
:105580001F93CF93DF93EB01142F60E782E992E042
:105590000E94280E60E182E992E00E943A0E82E9C0
:1055A00092E00E94440E60E682E992E00E94280E9A
:1055B000612F82E992E00E943A0EBE0172956295D7
:1055C0006F7067277F70672782E992E00E943A0E2A
:1055D0006C2F6295607F82E992E00E943A0E82E928
:1055E00092E00E94440EDF91CF911F91089587E8C9
:1055F00080937A0082EF80937E0080E180937F0029
:105600000895606460937C0040937B00EAE7F0E0DB
:1056100080818064808380917A0086FDFCCF8091B8
:105620007800909179000895606460937C004093C5
:105630007B00EAE7F0E080818064808380917A00DB
:1056400086FDFCCF609178007091790080E090E059
:105650000E94763220E030EC4FE754E40E94D531CE
:1056600020E030E04FE753E40E9404330E944732C9
:10567000E62FF0E0EE0FFF1FEC55FE4E8591949162
:105680000895606460937C0040937B00EAE7F0E05B
:1056900080818064808380917A0086FDFCCF609158
:1056A00078007091790080E090E00E94763220E0EE
:1056B00030EC4FE754E40E94D53120E030E04FE772
:1056C00053E40E9404330E944732662359F0E62FC8
:1056D000F0E0EE0FFF1FEC55FE4E25913491822F26
:1056E000932F08958FEF9FEF0895606460937C007F
:1056F00040937B00EAE7F0E08081806480838091C2
:105700007A0086FDFCCF609178007091790080E08E
:1057100090E00E94763220E030EC4FE754E40E94A3
:10572000D53120E030E04FE753E40E9404330E947B
:105730004732E62FF0E0EE0FFF1FEC55F04F85915A
:1057400094910895606460937C0020937B00EAE765
:10575000F0E080818064808380917A0086FDFCCFB8
:1057600087E090E01816190694F4DC01AA0FBB1F1D
:10577000A40FB51FFC01E150F048EE0FFF1FE40F2E
:10578000F51F208131812D933C930197EBCF8091C0
:10579000780090917900FA019183808320E030E0D5
:1057A00080E090E02830310564F4F901EE0FFF1F2E
:1057B000E40FF51F60817181860F971F2F5F3F4FA8
:1057C000F1CF9695879596958795969587950895A7
:1057D0001092CD008FE18093CC00E9ECF0E088E1FD
:1057E00080838081806C808386E08093CA000895E6
:1057F000CF93DF93DB0190919502809196029813ED
:10580000FACF90E0292F30E0FD0101900020E9F768
:105810003197EA1BFB0B2E173F07A0F480919502EE
:10582000E82FF0E0ED01C20FD31F2881E956FD4FAC
:1058300020838F5F80939502882314F41092950241
:105840009F5FE0CF8091C80085FF0CC08C91809352
:10585000CE00809196028F5F80939602882314F485
:1058600010929602DF91CF9108954F925F926F92BE
:105870007F92AF92BF92CF92DF92EF92FF920F93FF
:105880001F93CF93DF93CDB7DEB72A013B01CDB68F
:10589000DEB677232CF00F2EF5E0BF2EF02D04C0DE
:1058A0000F2EF6E0BF2EF02D8DB79EB78B19910904
:1058B0000FB6F8949EBF0FBE8DBFEDB7FEB7319601
:1058C0007F018F0177200CF05DC07094609450943C
:1058D0004094411C511C611C711C8DE2EDB7FEB758
:1058E0008183C301B20120E137E240E050E00E9431
:1058F0007133CA01B9012AE030E040E050E00E9473
:105900007133605DF7016183C301B20128EE33E0BA
:1059100040E050E00E947133CA01B9012AE030E052
:1059200040E050E00E947133605DF7016283C30183
:10593000B20124E630E040E050E00E947133CA0139
:10594000B9012AE030E040E050E00E947133605D30
:10595000F7016383C301B2012AE030E040E050E088
:105960000E947133A62ECA01B9012AE030E040E05E
:1059700050E00E947133605DF701648380E38A0D1B
:10598000858351C0C301B20120E137E240E050E01D
:105990000E947133CA01B9012AE030E040E050E0D2
:1059A0000E947133605DEDB7FEB76183C301B20140
:1059B00028EE33E040E050E00E947133CA01B901A3
:1059C0002AE030E040E050E00E947133605DF70172
:1059D0006183C301B20124E630E040E050E00E9460
:1059E0007133CA01B9012AE030E040E050E00E9482
:1059F0007133605DF7016283C301B2012AE030E0D8
:105A000040E050E00E947133762ECA01B9012AE0CD
:105A100030E040E050E00E947133605DF701638345
:105A200080E3870D8483909195028091960298136C
:105A3000FACF90E09B15A0F480919502E82FF0E05A
:105A4000D801A90FB11D2C91E956FD4F20838F5F1E
:105A500080939502882314F4109295029F5FEACFF9
:105A60008091C80085FF0DC0F70180818093CE0032
:105A7000809196028F5F80939602882314F410928F
:105A800096020FB6F894DEBE0FBECDBEDF91CF9169
:105A90001F910F91FF90EF90DF90CF90BF90AF904C
:105AA0007F906F905F904F9008950F931F93CF93C7
:105AB000DF93CDB7DEB728970FB6F894DEBF0FBEE1
:105AC000CDBFCB01BA018E010F5F1F4F24E048E02C
:105AD0000E94D23390919502809196029813FACF4A
