:100000000C94D3090C94FB090C94FB090C94FB0988
:100010000C94FB090C94FB090C94FB090C94FB0950
:100020000C94FB090C94FB090C94FB090C94FB0940
:100030000C94FB090C94FB090C94FB090C94FB0930
:100040000C94FB090C94FB090C94FB090C94FB0920
:100050000C94F40D0C94C52E0C94FB090C94FB0924
:100060000C94FB090C94912E0C94FB090C946A2EB1
:100070000C94FB090C94FB090C94FB090C94FB09F0
:100080000C94FB090C94FB090C94FB090C94FB09E0
:100090000C94FB090C94FB090C94FB090C94FB09D0
:1000A0000C94FB090C94FB090C94FB0900407A109A
:1000B000F35A00A0724E18090010A5D4E80000E819
:1000C0007648170000E40B54020000CA9A3B000077
:1000D00000E1F505000080969800000040420F0006
:1000E0000000A08601000000102700000000E803C7
:1000F000000000006400000000000A000000000092
:100100000100000000002C76D888DC674F0823DF50
:10011000C1DFAE59E1B1B796E5E3E453C63AE65123
:10012000997696E8E6C28426EB898C9B62ED407C4A
:100130006FFCEFBC9C9F40F2BAA56FA5F490055AE6
:100140002AF75C936B6CF9676DC11BFCE0E40D470B
:10015000FEF520E6B500D0ED902E0300943577052E
:100160000080841E080000204E0A000000C80C33E6
:100170003333330F986E12831141EF8D2114893B75
:10018000E65516CFFEE6DB18D1844B381BF77C1DF5
:10019000901DA4BBE424203284725E228100C9F148
:1001A00024ECA1E53D27FF03F603EF03E703DF039C
:1001B000D703CF03C703BF03B803B003A803A0034B
:1001C000990391038A0382037B0373036C03640323
:1001D0005D0356034E0347034003390331032A03EB
:1001E00023031C0315030E0307030003F902F202A5
:1001F000EB02E402DE02D702D002C902C302BC0253
:10020000B502AF02A802A2029B0295028E028802EA
:1002100081027B0275026F02680262025C02560272
:1002200050024A0243023D02370231022C022602EA
:1002300020021A0214020E0209020302FD01F80153
:10024000F201EC01E701E101DC01D601D101CC01B1
:10025000C601C101BC01B601B101AC01A701A101F8
:100260009C01970192018D01880183017E01790132
:10027000750170016B01660161015D015801530157
:100280004F014A01460141013D01380134012F016E
:100290002B01270122011E011A01160112010D0175
:1002A000090105010101FD00F900F500F100EE0072
:1002B000EA00E600E200DE00DB00D700D300D00059
:1002C000CC00C800C500C100BE00BA00B700B40031
:1002D000B000AD00AA00A600A300A0009D009A00F7
:1002E0009700940090008D008B00880085008200AC
:1002F0007F007C0079007700740071006F006C0053
:1003000069006700640062005F005D005A005800E9
:100310005600530051004F004D004A00480046006F
:100320004400420040003E003C003A0038003600E5
:100330003400330031002F002D002C002A0028004B
:10034000270025002400220021001F001E001D00A0
:100350001B001A00190017001600150014001300E6
:100360001200110010000F000E000D000C000B0019
:100370000A00090009000800070006000600050041
:100380000500040004000300030002000200010055
:10039000010001000100000000000000000000005A
:1003A000000000000000FF03F303E703DB03CF03BB
:1003B000C303B803AD03A10396038B038003750346
:1003C0006A035F0354034A033F0335032A032003F0
:1003D00016030C030203F802EE02E402DB02D10270
:1003E000C802BE02B502AC02A302990290028802C2
:1003F0007F0276026D0265025C0254024B024302E8
:100400003B0233022B0223021B0213020B020402E3
:10041000FC01F501ED01E601DE01D701D001C901C2
:10042000C201BB01B401AD01A701A0019901930173
:100430008D01860180017A0173016D0167016101FF
:100440005B01560150014A0145013F013901340168
:100450002F01290124011F011A01150110010B01AF
:1004600006010101FC00F700F300EE00EA00E500E0
:10047000E100DC00D800D400D000CC00C800C300EC
:10048000C000BC00B800B400B000AC00A900A500DA
:10049000A2009E009B009700940091008D008A00AE
:1004A0008700840081007E007B0078007500720068
:1004B00070006D006A0067006500620060005D000A
:1004C0005B0059005600540052004F004D004B0095
:1004D000490047004500430041003F003D003B000C
:1004E0003A003800360034003300310030002E006E
:1004F0002C002B002A0028002700250024002300C0
:10050000220020001F001E001D001C001B001A00FE
:10051000190018001700160015001400130012002F
:100520001100100010000F000E000E000D000C0056
:100530000C000B000A000A0009000900080008006E
:10054000070007000600060006000500050004007D
:100550000400040003000300030003000200020083
:100560000200020002000100010001000100010080
:10057000010000000000000000000000000000007A
:10058000000000000000000000000000000000006B
:10059000000000000000000000000000000000005B
:1005A000000000000000000000016A01BC01000220
:1005B0003D027402A602D50201032A035203780306
:1005C0009C03BF03E103010421043F045D047A049A
:1005D0009704B204CD04E80402051B0534054C055C
:1005E00064057C059305AA05C105D705ED0502063E
:1005F00017062C06410655066A067D069106A506D5
:10060000B806CB06DE06F0060307150727073907ED
:100610004A075C076D077F079007A007B107C2076D
:10062000D207E307F3070308130823083308420837
:100630005208610870087F088F089D08AC08BB0845
:10064000CA08D808E708F5080309120920092E0985
:100650003C094A0957096509730980098E099B09F4
:10066000A909B609C309D009DD09EA09F709040A8D
:10067000110A1D0A2A0A370A430A500A5C0A680A44
:10068000750A810A8D0A990AA50AB20ABE0AC90A20
:10069000D50AE10AED0AF90A040B100B1C0B270B13
:1006A000330B3E0B490B550B600B6B0B770B820B1F
:1006B0008D0B980BA30BAE0BB90BC40BCF0BDA0B46
:1006C000E50BEF0BFA0B050C0F0C1A0C250C2F0C7D
:1006D0003A0C440C4F0C590C630C6E0C780C820CC9
:1006E0008D0C970CA10CAB0CB50CBF0CC90CD40C29
:1006F000DE0CE70CF10CFB0C050D0F0D190D230D95
:100700002C0D360D400D4A0D530D5D0D660D700D0F
:100710007A0D830D8D0D960D9F0DA90DB20DBC0D9B
:10072000C50DCE0DD80DE10DEA0DF30DFC0D060E35
:100730000F0E180E210E2A0E330E3C0E450E4E0ED5
:10074000570E600E690E720E7B0E840E8C0E950E87
:100750009E0EA70EB00EB80EC10ECA0ED20EDB0E44
:10076000E40EEC0EF50EFE0E060F0F0F170F200F06
:10077000280F310F390F410F4A0F520F5B0F630FD4
:100780006B0F740F7C0F840F8D0F950F9D0FA50FAE
:10079000AD0FB60FBE0FC60FCE0FD60FDE0FE60F92
:1007A000EE0FF60FFF0F35021502F801DB01C10154
:1007B000A70190017901640150013D012C011A014A
:1007C0000B01FC00ED00E100D400C800BD00B20048
:1007D000A8009E0096008D0085007E0076007000C7
:1007E0006A0064005F00590054004F004B0047004E
:1007F00043003F003B003800350032002F002C0042
:100800002A0028002500240021001F001D001C00D4
:100810001B00190017001600150014001300120029
:1008200010000F000E000E000D000C000C000B005D
:100830000A000A000A000900080007000700070074
:10084000060006000600060005000500050004007D
:1008500041EE0E00BA170E003E4D0D001F8E0C002B
:10086000BAD90B00742F0B00BE8E0A000CF70900DA
:10087000DE670900BAE008002B610800C5E8070040
:1008800020770700DD0B07009FA606000F47060034
:10089000DDEC0500BA9705005F47050086FB040004
:1008A000EFB304005D7004009530040062F40300AF
:1008B00090BB0300EE8503004F5303008723030022
:1008C0006EF60200DDCB0200AFA30200C37D020082
:1008D000F75902002E3802004A18020031FA0100CE
:1008E000C8DD0100F7C20100A7A90100C391010002
:1008F000377B0100EE650100D7510100E13E0100A8
:10090000FB2C0100171C0100250C010018FD000044
:10091000E4EE00007BE10000D3D40000E1C8000059
:100920009BBD0000F7B20000EBA80000709F000024
:100930007D9600000B8E0000128600008C7E000069
:1009400072770000BD700000696A000070640000EA
:10095000CD5E00007B59000075540000B84F0000C8
:100960003E4B00000547000009430000463F0000E1
:10097000B93B00005E38000034350000383200001A
:10098000662F0000BD2C00003A2A0000DC27000082
:100990009F2500008223000084210000A31F000087
:1009A000DC1D0000FF03FB03F703F303EF03EB037E
:1009B000E703E303DF03DB03D703D303CF03CB0357
:1009C000C703C303BF03BB03B703B303AF03AB0347
:1009D000A703A3039F039B03970393038F038B0337
:1009E000870383037F037B03770373036F036B0327
:1009F000670363035F035B03570353034F034B0317
:100A0000470343033F033B03370333032F032B0306
:100A1000270323031F031B03170313030F030B03F6
:100A200007030303FF02FB02F702F302EF02EB02EC
:100A3000E702E302DF02DB02D702D302CF02CB02DE
:100A4000C702C302BF02BB02B702B302AF02AA02CF
:100A5000A602A2029E029A02960292028E028A02C6
:100A6000860282027E027A02760272026E026A02B6
:100A7000660262025E025A02560252024E024A02A6
:100A8000460242023E023A02360232022E022A0296
:100A9000260222021E021A02160212020E020A0286
:100AA00006020202FE01FA01F601F201EE01EA017C
:100AB000E601E201DE01DA01D601D201CE01CA016E
:100AC000C601C201BE01BA01B601B201AE01AA015E
:100AD000A601A2019E019A01960192018E018A014E
:100AE000860182017E017A01760172016E016A013E
:100AF000660162015E015A01550151014D01490132
:100B0000450141013D013901350131012D01290125
:100B1000250121011D011901150111010D01090115
:100B200005010101FD00F900F500F100ED00E9000B
:100B3000E500E100DD00D900D500D100CD00C900FD
:100B4000C500C100BD00B900B500B100AD00A900ED
:100B5000A500A1009D009900950091008D008900DD
:100B6000850081007D007900750071006D006900CD
:100B7000650061005D005900550051004D004900BD
:100B8000450041003D003900350031002D002900AD
:100B9000250021001D001900150011000D0009009D
:100BA00005000000FF03FB03F703F303EF03EB0370
:100BB000E703E303DF03DB03D703D303CF03CB0355
:100BC000C703C303BF03BB03B703B303AF03AB0345
:100BD000A703A3039F039B03970393038F038B0335
:100BE000870383037F037B03770373036F036B0325
:100BF000670363035F035B03570353034F034B0315
:100C0000470343033F033B03370333032F032B0304
:100C1000270323031F031B03170313030F030B03F4
:100C200007030303FF02FB02F702F302EF02EB02EA
:100C3000E702E302DF02DB02D702D302CF02CB02DC
:100C4000C702C302BF02BB02B702B302AF02AA02CD
:100C5000A602A2029E029A02960292028E028A02C4
:100C6000860282027E027A02760272026E026A02B4
:100C7000660262025E025A02560252024E024A02A4
:100C8000460242023E023A02360232022E022A0294
:100C9000260222021E021A02160212020E020A0284
:100CA00006020202FE01FA01F601F201EE01EA017A
:100CB000E601E201DE01DA01D601D201CE01CA016C
:100CC000C601C201BE01BA01B601B201AE01AA015C
:100CD000A601A2019E019A01960192018E018A014C
:100CE000860182017E017A01760172016E016A013C
:100CF000660162015E015A01550151014D01490130
:100D0000450141013D013901350131012D01290123
:100D1000250121011D011901150111010D01090113
:100D200005010101FD00F900F500F100ED00E90009
:100D3000E500E100DD00D900D500D100CD00C900FB
:100D4000C500C100BD00B900B500B100AD00A900EB
:100D5000A500A1009D009900950091008D008900DB
:100D6000850081007D007900750071006D006900CB
:100D7000650061005D005900550051004D004900BB
:100D8000450041003D003900350031002D002900AB
:100D9000250021001D001900150011000D0009009B
:100DA000050000000000470510069406F7064907F5
:100DB0008E07CB07010831085E088708AE08D20805
:100DC000F308130931094E09690984099D09B50918
:100DD000CC09E209F8090D0A210A350A480A5B0A1A
:100DE0006D0A7E0A8F0AA00AB00AC00AD00ADF0A7A
:100DF000EE0AFC0A0B0B190B260B340B410B4E0BA6
:100E00005B0B670B740B800B8C0B970BA30BAE0B60
:100E1000BA0BC50BD00BDA0BE50BEF0BFA0B040C7E
:100E20000E0C180C210C2B0C350C3E0C470C500CE6
:100E30005A0C630C6B0C740C7D0C850C8E0C960C90
:100E40009F0CA70CAF0CB70CBF0CC70CCF0CD70C6A
:100E5000DE0CE60CEE0CF50CFD0C040D0B0D120D6A
:100E60001A0D210D280D2F0D360D3D0D430D4A0D88
:100E7000510D570D5E0D650D6B0D720D780D7E0DCC
:100E8000850D8B0D910D970D9D0DA40DAA0DB00D27
:100E9000B60DBC0DC10DC70DCD0DD30DD90DDE0D99
:100EA000E40DEA0DEF0DF50DFA0D000E050E0B0E1B
:100EB000100E150E1B0E200E250E2B0E300E350EAD
:100EC0003A0E3F0E440E490E4E0E530E580E5D0E56
:100ED000620E670E6C0E710E760E7A0E7F0E840E09
:100EE000890E8D0E920E970E9B0EA00EA40EA90ECB
:100EF000AE0EB20EB70EBB0EC00EC40EC80ECD0E97
:100F0000D10ED50EDA0EDE0EE20EE70EEB0EEF0E70
:100F1000F30EF80EFC0E000F040F080F0C0F100F4D
:100F2000140F190F1D0F210F250F290F2D0F310F32
:100F3000340F380F3C0F400F440F480F4C0F500F29
:100F4000530F570F5B0F5F0F630F660F6A0F6E0F24
:100F5000710F750F790F7C0F800F840F870F8B0F28
:100F60008F0F920F960F990F9D0FA00FA40FA70F31
:100F7000AB0FAE0FB20FB50FB90FBC0FC00FC30F41
:100F8000C60FCA0FCD0FD10FD40FD70FDB0FDE0F57
:100F9000E10FE40FE80FEB0FEE0FF20FF50FF80F74
:100FA000FB0FFF0F000007000E0015001C002300C0
:100FB0002A00310038003F0046004D0054005B001D
:100FC00062006900700077007E0085008C0093004D
:100FD0009A00A100A800AF00B600BD00C400CB007D
:100FE000D200D900E000E700EE00F500FC000301AC
:100FF0000A01110118011F0126012D0134013B01D5
:1010000042014901500157015E0165016C01730104
:101010007A01810188018F0196019D01A401AB0134
:10102000B201B901C001C701CE01D501DC01E30164
:10103000EA01F101F801FF0106020D0214021B0290
:1010400022022902300237023E0245024C025302BC
:101050005A02610268026F0276027D0284028B02EC
:1010600092029902A002A702AE02B502BC02BE0221
:10107000C002C202C402C602C802CA02CC02CE0228
:10108000D002D202D502D702D902DB02DD02DF0292
:10109000E102E302E502E702E902EB02EE02F002FE
:1010A000F202F402F602F802FA02FC02FE02000367
:1010B00002030403070309030B030D030F031103CA
:1010C00013031503170319031B031D032003220336
:1010D0002403260328032A032C032E0330033203A0
:1010E0003403360339033B033D033F03410343030A
:1010F0004503470349034B034D034F035203540376
:10110000560358035A035C035E03600362036403DF
:10111000660368036B036D036F0371037303750349
:10112000770379037B037D037F03810384038603B5
:1011300088038A038C038E0390039203940396031F
:1011400098039A039D039F03A103A303A503A70389
:10115000A903AB03AD03AF03B103B303B603B803F5
:10116000BA03BC03BE03C003C203C403C603C8035F
:10117000CA03CC03CF03D103D303D503D703D903C9
:10118000DB03DD03DF03E103E303E503E803EA0335
:10119000EC03EE03F003F203F403F603F803FA039F
:1011A000FC03FF030000000000000000000000003E
:1011B0000000000001000100010001000200020027
:1011C00003000300040004000500050006000600FB
:1011D00007000800090009000A000B000C000D00C0
:1011E0000E000F0010001100120013001400150073
:1011F0001600170019001A001B001D001E001F001A
:101200002100220024002500270028002A002C00AD
:101210002D002F00310033003400360038003A0032
:101220003C003E00400042004400460048004A00A6
:101230004D004F0051005300560058005A005D0009
:101240005F0062006400670069006C006F0071005D
:101250007400770079007C007F00820085008800A0
:101260008B008D009000940097009A009D00A000D4
:10127000A300A600AA00AD00B000B400B700BA00F9
:10128000BE00C100C500C800CC00D000D300D7000C
:10129000DB00DE00E200E600EA00EE00F100F5000F
:1012A000F900FD000101050109010D0112011601FE
:1012B0001A011E01220127012B012F0134013801DF
:1012C0003D01410146014A014F01530158015D01B1
:1012D000610166016B017001750179017E01830175
:1012E00088018D01920197019C01A101A701AC0128
:1012F000B101B601BC01C101C601CC01D101D601C9
:10130000DC01E101E701EC01F201F801FD0103025A
:1013100009020E0214021A02200226022C023102D5
:1013200037023D0243024A02500256025C02620248
:1013300068026F0275027B02810288028E029502AA
:101340009B02A202A802AF02B502BC02C302C902FC
:10135000D002D702DE02E402EB02F202F90200033D
:1013600007030E0315031C0323032A033103390368
:10137000400347034E0356035D0364036C0373038A
:101380007B0382038A0391039903A003A803B0039C
:10139000B803BF03C703CF03D703DF03E703EF039C
:1013A000F603FF03AF2811241FBECFEFDAE0DEBF44
:1013B000CDBF12E0A0E0B1E0E0E4FEE602C005909F
:1013C0000D92A835B107D9F723E0A8E5B2E001C036
:1013D0001D92A137B207E1F719E0C3EDD9E004C0CF
:1013E0002197FE010E945434C23DD107C9F70E94E3
:1013F00012210C941E370C940000EF92FF920F9371
:101400001F93CF93DF93DC01EB018881E1E0F0E0F3
:10141000022E02C0EE0FFF1F0A94E2F7E095E823C8
:10142000E88312962C93129711965C934E9319961B
:10143000ED92FD920D931C931C97DF91CF911F911C
:101440000F91FF90EF9008958F929F92AF92BF926D
:10145000FF920F931F93CF93DF93EC01E881F98103
:1014600020813A8101E010E0C801032E02C0880FFC
:10147000991F0A94E2F7022F10E00823192302C0F3
:10148000159507953A95E2F7F02E8B81081731F004
:101490000E94BC2E6D837E838F8398870E94BC2E12
:1014A0008D809E80AF80B884DC01CB0188199909BA
:1014B000AA09BB0989849A84AB84BC8488169906DE
:1014C000AA06BB0618F48C81F8120C830B838C815E
:1014D000DF91CF911F910F91FF90BF90AF909F90A0
:1014E0008F900895FC01648711821082138212820A
:1014F00014821582168217821086118608950F9322
:101500001F93CF93DF938C01EB0161E686E692E0B7
:101510000E94220EF801648586E692E00E94340E55
:10152000BE01729562956F7067277F70672786E6A8
:1015300092E00E94340E6C2F6295607F86E692E006
:101540000E94340E86E692E00E943E0EDF91CF911B
:101550001F910F9108958F929F92AF92BF92EF9239
:10156000FF920F931F93CF93DF93EC017B010881D0
:1015700019810617170760F5B80180E090E00E9416
:10158000FE324B015C01B70180E090E00E94FE3228
:101590009B01AC01C501B4010E945D3220E030E046
:1015A0004FE753E40E948C330E94CF32E62FF0E0E5
:1015B000EE0FFF1FEA55FA4F659174917B876A879A
:1015C0000F5F1F4F19830883CE010E947F0A0EC050
:1015D00055233CF46A817B810E947F0A81E08887E1
:1015E00002C081E08F831E8219821882DF91CF9121
:1015F0001F910F91FF90EF90BF90AF909F908F90B1
:1016000008954F925F926F927F928F929F92AF92C6
:10161000BF92CF92DF92EF92FF920F931F93CF93DF
:10162000DF938C015B01EA016901FC01E080F1803C
:10163000E616F70608F066C0B70180E090E00E9469
:10164000FE322B013C01B50180E090E00E94FE32A9
:101650009B01AC01C301B2010E945D3220E030E089
:101660004FE753E40E948C330E94CF32E62FF0E024
:10167000EE0FFF1FEA55FC4F6591749180E090E0FA
:101680000E94FE3220E030EC4FE754E40E945D32CD
:101690004B015C01C115F0E1DF0718F4CD2821F4FE
:1016A00005C0CFEFDFE002C0CFEFDFE0F801C2807E
:1016B000D380CC15DD0508F4E601CC19DD09BE01A7
:1016C00080E090E00E94FE32A50194010E948C33DC
:1016D0004B015C01B60180E090E00E94FE32A50162
:1016E00094010E94F1310E94CF32F8017387628722
:1016F000FFEFEF1AFF0AF801F182E082C8010E94B1
:101700007F0A0BC0FC01628173810E947F0AF8018D
:10171000178281E0808711821082DF91CF911F9123
:101720000F91FF90EF90DF90CF90BF90AF909F9080
:101730008F907F906F905F904F900895FC01628131
:1017400073810E947F0A08958F929F92AF92BF92F9
:10175000CF92DF92EF92FF920F931F93CF93DF937D
:10176000EC017B01088119810617170708F044C0B6
:10177000B80180E090E00E94FE324B015C01B701AD
:1017800080E090E00E94FE329B01AC01C501B401F3
:101790000E945D3220E030E04FE753E40E948C333A
:1017A0000E94CF32E62FF0E0EE0FFF1FEA55FE4F0A
:1017B0006591749180E090E00E94FE3220E030EC70
:1017C0004FE754E40E945D326B017C016A817B81AA
:1017D00080E090E00E94FE32A70196010E948C33C7
:1017E0000E94CF327B876A870F5F1F4F1983088360
:1017F000CE010E947F0A09C01B861A8660E070E055
:101800000E947F0A198619821882DF91CF911F9159
:101810000F91FF90EF90DF90CF90BF90AF909F908F
:101820008F9008954F925F926F927F928F929F92C6
:10183000AF92BF92CF92DF92EF92FF920F931F93DE
:10184000CF93DF93EC014B015A016901C11420E1F0
:10185000D20630F00F2ECC24CA94FFE0DF2EF02DFC
:101860008C81811113C08D81882381F081E08C836C
:101870008E831F8218861986DB82CA820E94BC2E44
:101880006D877E878F87988B198218828C81882339
:10189000C1F08D81811115C08E81811103C08F81AE
:1018A000882329F08A859B859B838A8302C0DB82FB
:1018B000CA821C821E821F82188681E08987198253
:1018C000188289858823E9F08C8181111AC00E94D1
:1018D000BC2E4D845E846F8478882AE0420E511CB1
:1018E000611C711C461657066806790650F40E9462
:1018F000BC2E6D877E878F87988BB801CE010E94A2
:10190000A40B8E818823D1F00E94BC2E0D851E85EC
:101910002F8538890B5F1F4F2F4F3F4F0617170733
:101920002807390758F40E94BC2E6D877E878F8761
:10193000988BA501B401CE010E94AB0A8F81882348
:10194000F9F00E94BC2E0D851E852F8538890B5F0E
:101950001F4F2F4F3F4F061717072807390780F4EF
:101960000E94BC2E6D877E878F87988BDB82CA8210
:10197000BB2034F09401A701B501CE010E94010BF8
:1019800088858823F9F00E94BC2E0D851E852F8541
:1019900038890B5F1F4F2F4F3F4F06171707280738
:1019A000390780F40E94BC2E6D877E878F87988BC5
:1019B0008A819B81C816D90629F0DB82CA82CE01B2
:1019C0000E949E0BDF91CF911F910F91FF90EF909E
:1019D000DF90CF90BF90AF909F908F907F906F904F
:1019E0005F904F9008951F93CF93DF93EB01142FD7
:1019F00060E786E692E00E94220E60E186E692E0D1
:101A00000E94340E86E692E00E943E0E61E686E673
:101A100092E00E94220E612F86E692E00E94340E30
:101A2000BE01729562956F7067277F70672786E6A3
:101A300092E00E94340E6C2F6295607F86E692E001
:101A40000E94340E86E692E00E943E0EDF91CF9116
:101A50001F910895CF93DF93DC01EB019881E1E0C2
:101A6000F0E0022E02C0EE0FFF1F0A94E2F7E095AD
:101A7000E923E8832C9312965C934E93119710926E
:101A8000810081E080936F00DF91CF910895DC01A8
:101A9000109258021092590210925A0210925B0250
:101AA0001092810010928500109284001196ED91A1
:101AB000FC91129780812C91622F41E050E0022E20
:101AC00002C0440F551F0A94E2F790E08423952347
:101AD00002C0959587952A95E2F7019739F3208101
:101AE00030E024233523062E02C0359527950A942D
:101AF000E2F7232BA1F381E0809381001196ED9111
:101B0000FC91129720818C91682F41E050E0082EC3
:101B100002C0440F551F0A94E2F730E02423352316
:101B200002C0359527958A95E2F72130310531F3CA
:101B3000808190E084239523062E02C09595879599
:101B40000A94E2F7892BA1F3E0918400F0918500DB
:101B500010928100209158023091590240915A020E
:101B600050915B02AFEFBFEF0E9427346E0F7F1FD3
:101B7000811D911D08958F929F92AF92BF92CF9237
:101B8000DF92EF92FF9269017A01862F90E0FC01CB
:101B9000EE0FFF1FEE0FFF1FE05BF74F8590959054
:101BA000A590B490FC01EE0FFF1FEA55F84F659128
:101BB000749180E090E00E94FE32A70196010E949D
:101BC0008C330E94CF32A5019401261B370B480BA2
:101BD000590BCA01B901FF90EF90DF90CF90BF90F1
:101BE000AF909F908F9008951F920F920FB60F9213
:101BF00011248F939F93AF93BF938091580290913C
:101C00005902A0915A02B0915B020196A11DB11D2B
:101C10008093580290935902A0935A02B0935B02AA
:101C2000BF91AF919F918F910F900FBE0F901F901A
:101C300018958AB183608AB91092B90088E48093BC
:101C4000B800089584EA8093BC008091BC0088238A
:101C5000E4F7660F6093BB0084E88093BC0080913A
:101C6000BC008823E4F708956093BB0084E8809368
:101C7000BC008091BC008823E4F7089584E9809338
:101C8000BC008091BC0084FDFCCF0895FC016487FA
:101C90001182108213821282148215821682178298
:101CA0001086118608950F931F93CF93DF938C01B5
:101CB000C62FD72F60E686E692E00E94220EF8013A
:101CC000648586E692E00E94340E6D2F86E692E0EF
:101CD0000E94340E6C2F86E692E00E94340E86E657
:101CE00092E00E943E0EDF91CF911F910F910895D7
:101CF0008F929F92AF92BF92CF92DF92EF92FF921C
:101D00000F931F93CF93DF93EC018B01688179814F
:101D10006017710708F082C06115710509F050C0A5
:101D20008A859B85009709F44BC0BC0180E090E058
:101D30000E94FE3220E030E049EA54E40E945D3225
:101D40006B017C019B01AC010E948C339B01AC01B7
:101D5000C701B6010E948C339B01AC01C701B601DB
:101D60000E948C339B01AC01C701B6010E948C33E9
:101D70000E94CF32F62E70E080E090E00E94FE32AA
:101D800020E030E04FE753E40E945D324B015C01FC
:101D9000B80180E090E00E94FE32A50194010E940B
:101DA0008C330E94CF3279836883EF2DF0E0EE0F01
:101DB000FF1FEC55F24F859194919B878A8723C032
:101DC00080E090E00E94FE326B017C01B80180E06F
:101DD00090E00E94FE329B01AC01C701B6010E9457
:101DE0005D3220E030E04FE753E40E948C330E94E4
:101DF000CF32E62FF0E0EE0FFF1FEC55F24F85914A
:101E000094919B878A878881998101969983888399
:101E10006A857B85CE010E94530E0EC055233CF48B
:101E20006A817B810E94530E81E0888702C081E035
:101E30008F831E8219821882DF91CF911F910F919B
:101E4000FF90EF90DF90CF90BF90AF909F908F90DA
:101E500008954F925F926F927F928F929F92AF926E
:101E6000BF92CF92DF92EF92FF920F931F93CF9387
:101E7000DF938C015B01EA016901FC01E080F180E4
:101E8000E616F70608F066C0B70180E090E00E9411
:101E9000FE322B013C01B50180E090E00E94FE3251
:101EA0009B01AC01C301B2010E945D3220E030E031
:101EB0004FE753E40E948C330E94CF32E62FF0E0CC
:101EC000EE0FFF1FEC55F44F6591749180E090E0A8
:101ED0000E94FE3220E030EC4FE754E40E945D3275
:101EE0004B015C01C115F0E1DF0718F4CD2821F4A6
:101EF00005C0CFEFDFE002C0CFEFDFE0F801C28026
:101F0000D380CC15DD0508F4E601CC19DD09BE014E
:101F100080E090E00E94FE32A50194010E948C3383
:101F20004B015C01B60180E090E00E94FE32A50109
:101F300094010E94F1310E94CF32F80173876287C9
:101F4000FFEFEF1AFF0AF801F182E082C8010E9458
:101F5000530E0BC0FC01628173810E94530EF80185
:101F6000178281E0808711821082DF91CF911F91CB
:101F70000F91FF90EF90DF90CF90BF90AF909F9028
:101F80008F907F906F905F904F900895FC016281D9
:101F900073810E94530E0895FC01148216821782E9
:101FA0001086118611821082138212820E94C60F3F
:101FB0000895CF93DF93FC012481211110C0EC011F
:101FC0000E94BC2E6D877E878F87988B8FEF9FE056
:101FD0009B838A83CE010E94C60F81E08C83DF91B0
:101FE000CF9108958F929F92AF92BF92CF92DF923E
:101FF000EF92FF920F931F93CF93DF93EC017B013E
:10200000088119810617170708F044C0B80180E05D
:1020100090E00E94FE324B015C01B70180E090E04D
:102020000E94FE329B01AC01C501B4010E945D32E9
:1020300020E030E04FE753E40E948C330E94CF321F
:10204000E62FF0E0EE0FFF1FEC55F64F659174910F
:1020500080E090E00E94FE3220E030EC4FE754E454
:102060000E945D326B017C016A817B8180E090E09F
:102070000E94FE32A70196010E948C330E94CF324B
:102080007B876A870F5F1F4F19830883CE010E94E9
:10209000530E09C01B861A8660E070E00E94530E42
:1020A000198619821882DF91CF911F910F91FF90AD
:1020B000EF90DF90CF90BF90AF909F908F9008955A
:1020C0004F925F926F927F928F929F92AF92BF9248
:1020D000CF92DF92EF92FF920F931F93CF93DF93F4
:1020E000EC014B015A016901C11420E1D20630F024
:1020F0000F2ECC24CA94FFE0DF2EF02D8C818111AD
:1021000013C08D81882381F081E08C838E831F82B0
:1021100018861986DB82CA820E94BC2E6D877E8754
:102120008F87988B198218828C818823F1F08D819A
:1021300081111BC08E81811103C08F81882329F0FA
:102140008A859B859B838A8302C0DB82CA821C822C
:102150001E821F82188681E089870E94BC2E6D87AF
:102160007E878F87988B1982188289858823E9F06A
:102170008C8181111AC00E94BC2E4D845E846F84B4
:1021800078882AE0420E511C611C711C46165706C5
:102190006806790650F40E94BC2E6D877E878F8773
:1021A000988BB801CE010E94F20F8E818823D1F066
:1021B0000E94BC2E0D851E852F8538890B5F1F4F11
:1021C0002F4F3F4F061717072807390758F40E946B
:1021D000BC2E6D877E878F87988BA501B401CE01B9
:1021E0000E94780E8F818823F9F00E94BC2E0D8505
:1021F0001E852F8538890B5F1F4F2F4F3F4F0617C6
:1022000017072807390780F40E94BC2E6D877E8748
:102210008F87988BDB82CA82BB2034F09401A701A0
:10222000B501CE010E94290F88858823F9F00E940C
:10223000BC2E0D851E852F8538890B5F1F4F2F4FB4
:102240003F4F061717072807390780F40E94BC2E56
:102250006D877E878F87988B8A819B81C816D90668
:1022600029F0DB82CA82CE010E94C60FDF91CF9196
:102270001F910F91FF90EF90DF90CF90BF90AF90A4
:102280009F908F907F906F905F904F900895CF9226
:10229000DF92EF92FF920F931F93CF93DF93EC01A6
:1022A0008B018C81811115C09D81992391F081E072
:1022B0008C838FEF9FE09B838A83CE010E94C60FA1
:1022C0000E94BC2E6D877E878F87988B198218821B
:1022D0000DC0882359F08D81811108C01C821E8297
:1022E0001F82188681E08987198218828985882350
:1022F000E9F08C8181111AC00E94BC2ECD84DE844D
:10230000EF84F8882AE0C20ED11CE11CF11CC6162D
:10231000D706E806F90650F40E94BC2E6D877E872A
:102320008F87988BB801CE010E94F20FDF91CF9179
:102330001F910F91FF90EF90DF90CF9008951F9322
:10234000CF93DF93C62FD72F142F60E786E692E056
:102350000E94220E60E186E692E00E94340E86E63C
:1023600092E00E943E0E60E686E692E00E94220E17
:10237000612F86E692E00E94340E6D2F86E692E091
:102380000E94340E6C2F86E692E00E94340E6D2F70
:1023900086E692E00E94340E6C2F86E692E00E9460
:1023A000340E6D2F86E692E00E94340E6C2F86E686
:1023B00092E00E94340E6D2F86E692E00E94340E69
:1023C0006C2F86E692E00E94340E86E692E00E9430
:1023D0003E0EDF91CF911F910895019779F46F3FE1
:1023E0007F4F61F488E692E00E94B32E87E692E088
:1023F0000E94702C86E692E00E94190E08956F925A
:102400007F928F929F92AF92BF92CF92DF92EF9284
:10241000FF920F931F93CF93DF9394EF980F95350F
:1024200008F06BC039014A01B62ED82EDA018C9122
:10243000811126C0C0E0D0E08C2D90E0C817D907EC
:10244000D4F486EC8C9F70018D9FF00C1124E80C65
:10245000F91C6D2DC7010E94FF2EF701B38281E1A7
:102460008C9FF0018D9FF00D1124E60DF71D81E08A
:1024700085832196E1CF81E0D80115968C933DC0EC
:1024800080E090E08830910554F4F701E80FF91FDF
:102490002081203839F4D40111968C918083C0E0DA
:1024A000D0E002C00196EECF8C2D90E0C817D9077E
:1024B000D4F486EC8C9F70018D9FF00C1124E80CF5
:1024C000F91C6D2DC7010E94FF2EF701B38281E137
:1024D0008C9FF0018D9FF00D1124E60DF71D81E01A
:1024E00085832196E1CFF1E0AF1207C0D8011496A1
:1024F0001C92149781E015968C93DF91CF911F91D8
:102500000F91FF90EF90DF90CF90BF90AF909F9092
:102510008F907F906F9008956F927F928F929F928D
:10252000AF92BF92CF92DF92EF92FF920F931F93E1
:10253000CF93DF93CDB7DEB794EF980F953508F0C2
:102540006FC039014A016B01482FE0E0F0E02E2D09
:1025500030E0E217F3070CF049C05F0196EC9E9F54
:10256000D0019F9FB00D1124AC0DBD1D9C919923EE
:10257000D9F111969C911197491336C087E090E0EC
:10258000992384F07801E80EF91EF7016081603824
:1025900039F0CD010E94FF2E80E8F701808340C012
:1025A0000197EECFCD010E94832F81E18A9DF0013A
:1025B0008B9DF00D1124E80DF91D1582F601808127
:1025C00081112EC0EA53FF4F8081811129C0EA5347
:1025D000FF4F8081811124C0EA53FF4F8081811118
:1025E0001FC0F30115821CC03196B1CF9DAD911172
:1025F00011C020E030E02830310594F4F801E20FFA
:10260000F31F9081491303C080E8808309C02F5FC6
:102610003F4FF1CF2FE760E8CE0141960E94532A49
:10262000DF91CF911F910F91FF90EF90DF90CF90AE
:10263000BF90AF909F908F907F906F9008958F92F2
:102640009F92AF92BF92CF92DF92EF920F931F9320
:10265000CF93DF9394EF980F953508F066C0FB0198
:102660009081992309F44DC0918189134DC059017E
:102670006A01EB0187E090E099231CF14801880E84
:10268000991EF40120812038D1F000E010E08E2D59
:1026900090E0081719077CF4F401608126EC209F74
:1026A000C001219F900D11248C0F9D1F0E94FF2EB1
:1026B0000F5F1F4FECCF80E8F401808336C0019795
:1026C000DBCF00E010E08E2D90E008171907B4F47E
:1026D00026EC209FC001219F900D11248C0F9D1F7F
:1026E0000E94832F81E1809FF001819FF00D1124D2
:1026F000EC0DFD1D15820F5F1F4FE5CFF501158213
:1027000014C020E030E002C020E030E02830310585
:1027100064F4F801E20FF31F9081891303C080E88D
:10272000808303C02F5F3F4FF1CFDF91CF911F9187
:102730000F91EF90DF90CF90BF90AF909F908F90D0
:1027400008952F923F924F925F926F927F928F9255
:102750009F92AF92BF92CF92DF92EF92FF920F9330
:102760001F93CF93DF93CDB7DEB727970FB6F894BB
:10277000DEBF0FBECDBF8D836B017A013A83298303
:102780001C821B82212C312C3D81232F30E03F8382
:102790002E8386EC829F8001839F100D11240E0DE5
:1027A0001F1D64E2C8010E9453318FEF96E721E0BC
:1027B000815090402040E1F700C000008E819F8151
:1027C000880F991F2E813F81280F391F2C0D3D1D29
:1027D0003F832E83C9010E94470D4B015C01689421
:1027E00012F8B694A794979487941694D1F768E456
:1027F000C8010E9453313FEF86E791E0315080409D
:102800009040E1F700C000008E819F810E94470D3B
:102810002B013C010E94FE3227E137EB41ED58E3EA
:102820000E948C330E94CF32A5019401261B370BE6
:10283000480B590B241535054605570558F4DC019E
:10284000CB01880D991DAA1DBB1D481659066A06A5
:102850007B06B0F184149504A604B70448F42FEF66
:10286000221A320A89819A8101979A83898310C03A
:10287000481459046A047B0458F42B813C812F5F6F
:102880003F4F3C832B8389819A8101969A83898368
:1028900093E32916310428F02B813C812333310541
:1028A00078F469817A81C8010E946C313FEF86E734
:1028B00091E0315080409040E1F700C0000064CFCB
:1028C000C8010E94832F27960FB6F894DEBF0FBE73
:1028D000CDBFDF91CF911F910F91FF90EF90DF90CF
:1028E000CF90BF90AF909F908F907F906F905F90B0
:1028F0004F903F902F9008958130D1F0823051F465
:10290000FB0180818058808390E0880F892F881F89
:10291000990B0895FB018081805C808390E0082EF4
:10292000892F000C881F990B000C881F991F089590
:1029300080E008952F923F924F925F926F927F9224
:102940008F929F92AF92BF92CF92DF92EF92FF92BF
:102950000F931F93CF93DF9300D000D01F92CDB77A
:10296000DEB794EF980F953508F09DC0FB82EA82A0
:1029700018013D832C832A01B62E8983E12CF12C8A
:102980000A2D10E0E016F1060CF08DC080910301D5
:10299000813031F46C817D818A2D0E947C1401C0CC
:1029A0008E2D682E712C86EC869D4001879D900CA3
:1029B0001124840C951CD4018C9181112DC0698146
:1029C000C4010E94FF2EF401B38281E1869D800143
:1029D000879D100D1124F101E00FF11F81E0858327
:1029E000AA81BB8114968C911497811104C015960D
:1029F0008C91882341F02796BFAD2797B13019F00D
:102A0000E1E0AE1250C0AA81BB8114961C921497CB
:102A100081E015968C9347C001501109E016F1062C
:102A2000F1F52896BFAD2897B11132C080E090E053
:102A3000883091056CF4F601E80FF91F20812038E9
:102A400029F4D40111968C91808302C00196F0CFB5
:102A50006981C4010E94FF2EF401B38281E1869D49
:102A6000F001879DF00D1124E20DF31D81E08583B7
:102A70002796FFAD2797F13011F0A81210C0AA8158
:102A8000BB8114961C92149781E015968C9307C015
:102A90002B2D498160E9CE014A960E94532ABFEF4F
:102AA000EB1AFB0A6DCF0F900F900F900F900F90C5
:102AB000DF91CF911F910F91FF90EF90DF90CF901A
:102AC000BF90AF909F908F907F906F905F904F904E
:102AD0003F902F9008952F923F924F925F926F9266
:102AE0007F928F929F92AF92BF92CF92DF92EF929E
:102AF000FF920F931F93CF93DF93CDB7DEB72B9742
:102B00000FB6F894DEBF0FBECDBF5B01922E0B83D4
:102B100087013B8024EF320E242F30E03D832C834D
:102B2000220F331F4C815D81240F351F820F931FAD
:102B30009A83898320E030E0A901632D0E94BB0DB8
:102B40006B017C01692D70E080E090E00E94FE3214
:102B50009B01AC01632D89819A810E94BB0D2B01E1
:102B60003C01692D70E0719561957109072E000C8B
:102B7000880B990B0E9400339B01AC01632D898166
:102B80009A810E94BB0D6E837F838887998726EC8C
:102B90004C815D81249FC001259F900D112445012A
:102BA000880E991E5B81852F90E09C012C50310985
:102BB0003D832C83FC013597EE0FFF1FE80DF91DB7
:102BC00040815181212C312CA12CB12C5B874A876B
:102BD000A016B10620F02016310608F06AC06B81FD
:102BE000C4010E9453315FEF86E791E0515080406D
:102BF0009040E1F700C0000089819A810E94470D52
:102C0000C616D706E806F906D8F42A853B852F3F75
:102C10004FEF340789F02F5F3F4F3B872A87EC81C6
:102C2000FD813796EE0FFF1FE80DF91D20813181E0
:102C30002F5F3F4F318320835FEFA51AB50A1EC077
:102C40006C157D058E059F05C8F42A853B852115E9
:102C5000310589F0215031093B872A87EC81FD81BC
:102C60003796EE0FFF1FE80DF91D208131812150AD
:102C70003109318320833FEF231A330A4A855B856C
:102C800041155105C9F04F3F5F4FC9F04616570631
:102C90006806790608F09CCF2E813F8148855985CA
:102CA000621773078407950708F092CF8A859B8582
:102CB00008C08A859B8505C080E090E002C08FEF48
:102CC0009FEF2B960FB6F894DEBF0FBECDBFDF91FE
:102CD000CF911F910F91FF90EF90DF90CF90BF9019
:102CE000AF909F908F907F906F905F904F903F90AC
:102CF0002F9008954F925F926F927F928F929F9242
:102D0000AF92BF92CF92DF92EF92FF920F931F93F9
:102D1000CF93DF93182F5B01EA012115310559F498
:102D200088EE93E0FA0126EC129FE00DF11D1124CC
:102D30009787868708C0FA0146EC849FE00DF11D55
:102D40001124378726870F2EF4E6EF2EF12CF02D75
:102D50000CE021E0412FBE01C5010E946B154C0122
:102D6000892B09F05AC04E0186EC189F800C911CEB
:102D7000112481E090E0F401978786870DE021E03F
:102D8000412FBE01C5010E946B15885D92402C0148
:102D90003C016894CC24C1F8D12CF5E5CF16D104C0
:102DA0000CF087C0F6013796EE0FFF1FE80DF91DF6
:102DB00020813181C301072C000CAA0BBB0B820FB1
:102DC000931FA11DB11D0097A140B10558F0F60158
:102DD0003796EE0FFF1FE80DF91D8FEF9FEF9183E0
:102DE00080830AC0F6013796EE0FFF1FE80DF91D2C
:102DF000240D351D318320830CE00C0D0F2EF2E3E2
:102E0000EF2EF12CF02D21E0412FBE01C5010E94D3
:102E10006B158FEFC81AD80AC0CFCC24C394D12C1D
:102E2000E5E5CE16D1040CF044C0CE01F6EC1F9FB0
:102E3000800D911D1124F6013796EE0FFF1FE80F4C
:102E4000F91F20813181A40160E070E0420F531F1F
:102E5000611D711D411551056140710568F09601B4
:102E6000295F3F4F220F331FFC01E20FF31F2FEFAB
:102E70003FEF318320830CC0A601495F5F4F440FB1
:102E8000551FFC01E40FF51F280D391D31832083E8
:102E90000CE00C0D0F2EF2E3EF2EF12CF02D21E0C3
:102EA000412FBE01C5010E946B15FFEFCF1ADF0A4B
:102EB000B7CFCE0126EC129F800D911D11240E94E8
:102EC000832FDF91CF911F910F91FF90EF90DF90B3
:102ED000CF90BF90AF909F908F907F906F905F90BA
:102EE0004F9008952F923F924F925F926F927F92F0
:102EF0008F929F92AF92BF92CF92DF92EF92FF920A
:102F00000F931F93CF93DF93CDB7DEB7CC5BD1097F
:102F10000FB6F894DEBF0FBECDBF5B014A01390189
:102F2000C555DF4FC882CB5AD040C455DF4FD88239
:102F3000CC5AD040C355DF4FE882CD5AD040C2555D
:102F4000DF4FF882CE5AD040C155DF4F0883CF5AA9
:102F5000D040C055DF4F1883C05BD04024E830E03C
:102F600033235CF0482F50E0421753071CF0182F12
:102F7000121B04C02C503109F3CF10E01111D6C13F
:102F800060E786E692E00E94220E60E486E692E028
:102F90000E94340E86E692E00E943E0E60E070E0F1
:102FA000CE0185559F4F0E94732A60E786E692E026
:102FB0000E94220E60E186E692E00E94340E86E6D0
:102FC00092E00E943E0EC4014196CF54DF4F998398
:102FD0008883C15BD04060E070E00E94530EF40132
:102FE000B296CD54DF4FF983E883C35BD04060E0F5
:102FF00070E0CF010E94530E6401F3E3CF0ED11CA9
:1030000060E070E0C6010E94530E15BCF501068415
:10301000F785E02DCB54DF4FF983E883C55BD040C3
:103020002501F6EC4F0E511CF2010684F785E02DC8
:10303000C954DF4FF983E883C75BD0407501F4E7DB
:10304000EF1AFEEFFF0AF7010684F785E02DC7545B
:10305000DF4FF983E883C95BD0401501FEEA2F1AE0
:10306000FDEF3F0AF1010684F785E02DC554DF4FDF
:10307000F983E883CB5BD0408AEAE6E1F1E0DE0148
:10308000119601900D928A95E1F78AEAFE01319638
:10309000D5011E9601900D928A95E1F7D501AC52AB
:1030A000BF4F8AEAFE01319601900D928A95E1F7B1
:1030B000D501A656BE4F8AEAFE01319601900D92C7
:1030C0008A95E1F7D501A05ABD4F8AEAFE013196F3
:1030D00001900D928A95E1F760E786E692E00E9402
:1030E000220E60E186E692E00E94340E86E692E0CF
:1030F0000E943E0E6FEF7FE0C4010E94530E8CEAE7
:1031000092E00E94C4369C01A501B30180E00E94B8
:10311000A113CB54DF4F28813981C55BD040A50175
:10312000B30180E00E947A16F501648575858CEA0A
:1031300092E00E94E2364AEA50E064E070E0C501A5
:103140000E960E94CA3660E786E692E00E94220E42
:1031500060E186E692E00E94340E86E692E00E94EC
:103160003E0E60E070E0C4010E94530EF401148230
:103170006FEF7FE0CF54DF4F88819981C15BD040F2
:103180000E94530E8EEA92E00E94C4369C01A50173
:10319000B30181E00E94A113C954DF4F2881398116
:1031A000C75BD040A501B30181E00E947A16F2010D
:1031B000648575858EEA92E00E94E2364AEA50E024
:1031C0006EEA70E0C2010E960E94CA3660E786E69B
:1031D00092E00E94220E60E186E692E00E94340EA8
:1031E00086E692E00E943E0E60E070E0CF54DF4F32
:1031F00088819981C15BD0400E94530EF401158AE9
:103200006FEF7FE0CD54DF4F88819981C35BD04061
:103210000E94530E80EB92E00E94C4369C01A501EF
:10322000B30182E00E94A113C754DF4F2881398186
:10323000C95BD040A501B30182E00E947A16F70174
:103240006485758580EB92E00E94E2364AEA50E0A0
:1032500068E571E0C7010E960E94CA3660E786E60F
:1032600092E00E94220E60E186E692E00E94340E17
:1032700086E692E00E943E0E60E070E0CD54DF4FA3
:1032800088819981C35BD0400E94530EF40116A23D
:103290006FEF7FE0C6010E94530E82EB92E00E9426
:1032A000C4369C01A501B30183E00E94A113C5545B
:1032B000DF4F28813981CB5BD040A501B30183E08A
:1032C0000E947A16F1016485758582EB92E00E9476
:1032D000E2364AEA50E062E072E0C1010E960E94D6
:1032E000CA3660E786E692E00E94220E60E186E63A
:1032F00092E00E94340E86E692E00E943E0E60E06C
:1033000070E0C6010E94530EF40117AA60E786E63A
:1033100092E00E94220E60E486E692E00E94340E63
:1033200086E692E00E943E0E83E085BD123059F59C
:103330001092610210925F0281E08093030110926B
:103340005E028093020160E080EC92E00E94D4363D
:1033500060915F0281EC92E00E94D436609103019B
:1033600083EC92E00E94D43660915E0284EC92E09D
:103370000E94D4366091020185EC92E00E94D4361E
:1033800085B18B7F85B9143059F461E08091610279
:10339000811160E06093610280EC92E00E94D4367B
:1033A000153059F461E080910201811160E0609371
:1033B000020185EC92E00E94D4361730B1F481E02E
:1033C00090915E02911180E080935E02813021F441
:1033D00085B1846085B903C085B18B7F85B9609163
:1033E0005E0284EC92E00E94D436193059F461E018
:1033F00080915F02811160E060935F0281EC92E056
:103400000E94D4361B3059F461E080910301811190
:1034100060E06093030183EC92E00E94D436C454D0
:10342000DF4F0FB6F894DEBF0FBECDBFDF91CF9157
:103430001F910F91FF90EF90DF90CF90BF90AF90D2
:103440009F908F907F906F905F904F903F902F90C4
:1034500008952091020121113FC08730910508F4A1
:103460003FC04091000120915C0230915D02240F29
:10347000311D47FD3A9530935D0220935C02281779
:1034800039073CF090935D0280935C022FEF20930C
:10349000000122273327281B390B40915C025091F1
:1034A0005D02241735073CF030935D0220935C02E7
:1034B00081E080930001FB018081882341F010921C
:1034C0005D0210925C028FEF809300011082809168
:1034D0005C0290915D0208958630910520F0089578
:1034E00080E090E0089580E090E00895FA019081F6
:1034F0009617E9F0691770F4292F30E0261B31097F
:10350000482F50E0421753071CF4981B90830FC0BC
:1035100060830DC0262F30E0291B3109482F50E071
:10352000421753071CF4890F808301C06083808198
:1035300020E2829FC00111240895CF92DF92EF9282
:10354000FF920F931F93CF93DF93CDB7DEB76C013C
:1035500068EC71E087E692E00E94802C4F8550E095
:103560004F5F5F4F052E000C660B770B87E692E0EE
:103570000E94BD2C64E572E087E692E00E94802CF8
:103580006DEC71E087E692E00E94802C488950E063
:103590004F5F5F4F052E000C660B770B87E692E0BE
:1035A0000E94BD2C64E572E087E692E00E94802CC8
:1035B00066ED71E087E692E00E94802CF60146817C
:1035C00050E060E070E087E692E00E94BD2C64E588
:1035D00072E087E692E00E94802C6BED71E087E656
:1035E00092E00E94802CF601478150E060E070E09C
:1035F00087E692E00E94BD2C64E572E087E692E0E7
:103600000E94802C62EE71E087E692E00E94802C9E
:103610004091610250E060E070E087E692E00E9435
:10362000BD2C64E572E087E692E00E94802C6BEE90
:1036300071E087E692E00E94802C40910E0150E0FC
:1036400060E070E087E692E00E94BD2C64E572E0E5
:1036500087E692E00E94802C64EF71E087E692E0BA
:103660000E94802C40910D0150E060E070E087E600
:1036700092E00E94BD2C64E572E087E692E00E9431
:10368000802C6CEF71E087E692E00E94802C4091E4
:10369000600250E060E070E087E692E00E94BD2C9E
:1036A00064E572E087E692E00E94802C62E072E0BE
:1036B00087E692E00E94802C40915F0250E060E03B
:1036C00070E087E692E00E94BD2C64E572E087E638
:1036D00092E00E94802C6AE072E087E692E00E940D
:1036E000802C40910F0150E060E070E087E692E0AE
:1036F0000E94BD2C64E572E087E692E00E94802C77
:1037000063E172E087E692E00E94802C4091030121
:1037100050E060E070E087E692E00E94BD2C64E536
:1037200072E087E692E00E94802C6BE172E087E60F
:1037300092E00E94802C40915E0250E060E070E0D8
:1037400087E692E00E94BD2C64E572E087E692E095
:103750000E94802C6BEE71E087E692E00E94802C44
:103760004091020150E060E070E087E692E00E9444
:10377000BD2C64E572E087E692E00E94802CE12C8B
:10378000F12CF5E5EF16F1040CF06BC062E272E08B
:1037900087E692E00E94802CA701445F5F4F052ED0
:1037A000000C660B770B87E692E00E94BD2C61E16E
:1037B00072E087E692E00E94802C8701095F1F4F2C
:1037C000000F111FF601E00FF11F4081518160E0F1
:1037D00070E087E692E00E94BD2C61E172E087E62E
:1037E00092E00E94802CF601EA53FF4FE00FF11F98
:1037F0004081518160E070E087E692E00E94BD2C3C
:1038000061E172E087E692E00E94802CF601E457C5
:10381000FE4FE00FF11F4081518160E070E087E6CC
:1038200092E00E94BD2C61E172E087E692E00E9486
:10383000802CC6018E5A9D4FFC01E00FF11F408184
:10384000518160E070E087E692E00E94BD2C64E563
:1038500072E087E692E00E94802C8FEFE81AF80A67
:1038600090CF69E272E087E692E00E94802CF60138
:103870004485558560E070E087E692E00E94BD2CAB
:1038800061E172E087E692E00E94802CF601EA5343
:10389000FF4F4485558560E070E087E692E00E9426
:1038A000BD2C61E172E087E692E00E94802CF60177
:1038B000E457FE4F4485558560E070E087E692E06E
:1038C0000E94BD2C61E172E087E692E00E94802CAC
:1038D000F601EE5AFD4F4485558560E070E087E6BD
:1038E00092E00E94BD2C64E572E087E692E00E94BF
:1038F000802C61E372E087E692E00E94802C409188
:10390000120150911301609114017091150187E625
:1039100092E00E94DD2D64E572E087E692E00E946D
:10392000802CDF91CF911F910F91FF90EF90DF904E
:10393000CF9008951F93CF93DF93CDB7DEB7CC5AC6
:10394000D1090FB6F894DEBF0FBECDBFCD53DF4F08
:103950001881C35CD040809110011813D7C0CC539C
:10396000DF4F9881C45CD040809111019813CEC084
:10397000CA53DF4F8881C65CD0408F3F09F0C6C074
:10398000CB53DF4F8881C55CD040863009F0BEC084
:1039900066E372E087E692E00E94802C82E0C555E3
:1039A000DF4F8883CB5AD040C455DF4F8883CC5A31
:1039B000D0408AEAE6E1F1E0DE01119601900D9235
:1039C0008A95E1F760E080E090E00E94D43642E022
:1039D00050E062E070E0CE0185559F4F0E94CA36EC
:1039E0004AEA50E064E070E0CE0101960E94CA36D7
:1039F0004AEA50E06EEA70E0CE0101960E94CA36B3
:103A00004AEA50E068E571E0CE0101960E94CA36AC
:103A10004AEA50E062E072E0CE0101960E94CA36A6
:103A200068E077E08CEA92E00E94E23668E077E0B6
:103A30008EEA92E00E94E23668E077E080EB92E066
:103A40000E94E23668E077E082EB92E00E94E23684
:103A500061E08CEB92E00E94D43662E08DEB92E064
:103A60000E94D43662E08EEB92E00E94D43660E091
:103A70008FEB92E00E94D43660E080EC92E00E94EE
:103A8000D43660E081EC92E00E94D43660E082ECB3
:103A900092E00E94D43661E083EC92E00E94D4363A
:103AA00060E084EC92E00E94D43661E085EC92E024
:103AB0000E94D43640E560E070E0C252DF4F88815A
:103AC0009981CE5DD0400E949F1140E568E077E08B
:103AD000C052DF4F88819981C05ED0400E94A231E0
:103AE00040E660E070E0CE018E519F4F0E94F30CE3
:103AF00040E66FEF7FE0CE018D509F4F0E94D42AA9
:103B000063E472E087E692E00E94802C80911001CD
:103B1000181325C0CC53DF4F9881C45CD0408091EE
:103B2000110198131CC0CA53DF4F8881C65CD04076
:103B30008331A9F4CB53DF4F8881C55CD0408630F8
:103B400071F4C953DF4F6881C75CD040CA54DF4F5E
:103B50006883C65BD04080E090E00E94D4368091BC
:103B6000100118133CC0CC53DF4F9881C45CD04087
:103B700080911101981333C0CA53DF4F8881C65C0E
:103B8000D040843161F5CB53DF4F8881C55CD04094
:103B9000863029F5C953DF4F6881C75CD040C052D9
:103BA000DF4FE881F981C05ED0406683EA53FF4F62
:103BB0006683C052DF4FE881F981C05ED040E45790
:103BC000FE4F6683C052DF4FE881F981C05ED0406E
:103BD000EE5AFD4F668382E090E00E94D4368091D9
:103BE000100118133CC0CC53DF4F9881C45CD04007
:103BF00080911101981333C0CA53DF4F8881C65C8E
:103C0000D040853161F5CB53DF4F8881C55CD04012
:103C1000863029F5C953DF4F6881C75CD040C05258
:103C2000DF4FE881F981C05ED0406783EA53FF4FE0
:103C30006783C052DF4FE881F981C05ED040E4570E
:103C4000FE4F6783C052DF4FE881F981C05ED040EC
:103C5000EE5AFD4F678383E090E00E94D436809156
:103C60001001181322C0CC53DF4F9881C45CD040A0
:103C700080911101981319C0CA53DF4F8881C65C27
:103C8000D040863191F4CB53DF4F8881C55CD04062
:103C9000863059F4C953DF4F6881C75CD0406093C8
:103CA0000F018CEB92E00E94D43680911001181322
:103CB00022C0CC53DF4F9881C45CD0408091110169
:103CC000981319C0CA53DF4F8881C65CD040873132
:103CD00091F4CB53DF4F8881C55CD040863059F4D6
:103CE000C953DF4F6881C75CD04060930E018DEBF4
:103CF00092E00E94D43680911001181322C0CC5358
:103D0000DF4F9881C45CD04080911101981319C095
:103D1000CA53DF4F8881C65CD040883191F4CB53C1
:103D2000DF4F8881C55CD040863059F4C953DF4FDE
:103D30006881C75CD04060930D018EEB92E00E94D9
:103D4000D43680911001181322C0CC53DF4F9881D4
:103D5000C45CD04080911101981319C0CA53DF4F41
:103D60008881C65CD040893191F4CB53DF4F888184
:103D7000C55CD040863059F4C953DF4F6881C75CB9
:103D8000D040609360028FEB92E00E94D436809125
:103D90001001181322C0CC53DF4F9881C45CD0406F
:103DA00080911101981319C0CA53DF4F8881C65CF6
:103DB000D0408A3191F4CB53DF4F8881C55CD0402D
:103DC000863059F4C953DF4F6881C75CD040609397
:103DD000610280EC92E00E94D436809110011813A9
:103DE00022C0CC53DF4F9881C45CD0408091110138
:103DF000981319C0CA53DF4F8881C65CD0408B31FD
:103E000091F4CB53DF4F8881C55CD040863059F4A4
:103E1000C953DF4F6881C75CD04060935F0281EC7B
:103E200092E00E94D43680911001181325C0CC5323
:103E3000DF4F9881C45CD0408091110198131CC061
:103E4000CA53DF4F8881C65CD0408C31A9F4CB5374
:103E5000DF4F8881C55CD040863071F4C953DF4F95
:103E60006881C75CD040C954DF4F6883C75BD040CE
:103E700082EC92E00E94D43680911001181322C087
:103E8000CC53DF4F9881C45CD040809111019813CE
:103E900019C0CA53DF4F8881C65CD0408D3191F480
:103EA000CB53DF4F8881C55CD040863059F4C9536D
:103EB000DF4F6881C75CD0406093030183EC92E0E0
:103EC0000E94D4368091100118132DC0CC53DF4FBF
:103ED0009881C45CD04080911101981324C0CA53CA
:103EE000DF4F8881C65CD0408E31E9F4CB53DF4F81
:103EF0008881C55CD0408630B1F4C953DF4F6881FA
:103F0000C75CD04060935E0284EC92E00E94D4369D
:103F100080915E02813021F485B1846085B903C04F
:103F200085B18B7F85B9CD53DF4F1881C35CD040FD
:103F300080911001181322C0CC53DF4F9881C45CCC
:103F4000D04080911101981319C0CA53DF4F888166
:103F5000C65CD0408F3191F4CB53DF4F8881C55C74
:103F6000D040863059F4C953DF4F6881C75CD040D8
:103F70006093020185EC92E00E94D436809110019A
:103F8000181337C0CC53DF4F9881C45CD040809168
:103F9000110198132EC0CA53DF4F8881C65CD040F0
:103FA000803239F5CB53DF4F8881C55CD0408630F5
:103FB00001F58DB79EB78C970FB6F8949EBF0FBED4
:103FC0008DBFADB7BEB711968CE2FE01EE54FF4F28
:103FD00001900D928A95E1F7C052DF4F8881998157
:103FE000C05ED0400E949D1A0FB6F894DEBF0FBE8F
:103FF000CDBFC455DF4F0FB6F894DEBF0FBECDBFA7
:10400000DF91CF911F9108958F929F92AF92BF92AF
:10401000DF92EF92FF920F931F93CF93DF938C0168
:1040200020E030E04AE754E46091120170911301FE
:1040300080911401909115010E948C330E94CF321F
:104040004B015C019B01ADECBCEC0E9418349695D1
:10405000879596958795969587959C01220F331F96
:10406000880F991F880F991F880F991F820F931F20
:104070009401281B390BC901D22E99279401281BC2
:10408000390B0E941834AC015695479556954795C3
:10409000569547959A010E9418349695879596955E
:1040A0008795969587959C01220F331F880F991F3E
:1040B000880F991F880F991F820F931F9A01281B41
:1040C000390BC901E22E9A01281B31090E941834CC
:1040D000AC015695479556954795569547959A0143
:1040E0000E9418349695879596958795969587950D
:1040F0009C01220F331F880F991F880F991F880F6B
:10410000991F820F931F9A01281B390BC901F22EA8
:104110009A01281B31090E941834AC015695479525
:1041200056954795569547959A010E94183496954D
:10413000879596958795969587959C01220F331FB5
:10414000880F991F880F991F880F991F820F931F3F
:10415000D42FD81B60E786E692E00E94220E60E131
:1041600086E692E00E94340E86E692E00E943E0EC1
:10417000C0E0CA3008F04AC0CD1728F46FEF7FE0E6
:10418000C8010E94530ECF1530F46FEF7FE0C801D5
:1041900041960E94530ECE1530F46FEF7FE0C801B8
:1041A00082960E94530ECD1530F46FEF7FE0C80168
:1041B000C3960E94530E3FEF83EC99E0315080404C
:1041C0009040E1F700C0000060E070E0C8010E948C
:1041D000530E60E070E0C80141960E94530E60E00B
:1041E00070E0C80182960E94530E60E070E0C80142
:1041F000C3960E94530E2FEF33EC89E021503040DC
:104200008040E1F700C00000CF5FB3CFDF91CF91D6
:104210001F910F91FF90EF90DF90BF90AF909F9014
:104220008F900895CF93DF93CDB7DEB7C553D440B9
:104230000FB6F894DEBF0FBECDBFCE0101960E942F
:10424000B62846E463E0CE018D960E94EA2E44E44F
:1042500062E0CE018D509F4F0E94EA2E42E461E061
:10426000CE0187549E4F0E94EA2E40E460E0CE01CA
:1042700081589D4F0E94EA2E66E4CE018B5B9C4FD5
:104280000E94460E64E485E493E08C0F9D1F4196E6
:104290000E94460E62E485E493E08C0F9D1F829697
:1042A0000E94460E60E485E493E08C0F9D1FC39648
:1042B0000E94460E60E4CE0187579C4F0E94720A0E
:1042C00060E4CE0186569C4F0E946B2ACE01805638
:1042D0009C4F0E940B2B84B1816084B984B18460AF
:1042E00084B912E3E12EF12C00E010E027E046E271
:1042F00050E067E270E0CE018F559C4F0E94FD09AF
:1043000026E04CE250E06DE270E0CE0182559C4F19
:104310000E94FD0920E04FE250E060E370E0CE0132
:1043200085549C4F0E94FD0927E043E250E064E27F
:1043300070E0CE0188539C4F0E94FD0926E046E2C2
:1043400050E067E270E0CE018B529C4F0E94FD0965
:1043500025E049E250E06AE270E0CE018E519C4FC8
:104360000E94FD0924E043E250E064E270E0CE01E7
:1043700081519C4F0E942A0D27E049E250E06AE2F9
:1043800070E08FEE93E08C0F9D1F03960E942A0D24
:1043900026E049E250E06AE270E08FEE93E08C0F95
:1043A0009D1F06960E942A0D24E049E250E06AE231
:1043B00070E08FEE93E08C0F9D1F09960E942A0DEE
:1043C000C550DC4F1882CB5FD340C450DC4F1882FD
:1043D000CC5FD340C35FDB4F1882CD50D44081E027
:1043E000C25FDB4F8883CE50D440C15FDB4F188261
:1043F000CF50D440C05FDB4F8883C051D440CF5EE4
:10440000DB4F1882C151D440CE5EDB4F8883C2514E
:10441000D440CD5EDB4F1882C351D440CC5EDB4F1D
:104420008883C451D440CB5EDB4F1882C551D44041
:10443000CA5EDB4F8883C651D440C95EDB4F188209
:10444000C751D440C85EDB4F8883C851D440C75E93
:10445000DB4F1882C951D44088E0E0ECF1E0DE0186
:10446000A65EBB4F01900D928A95E1F7789480E0AB
:1044700090E00E94BC368D8382E090E00E94BC36C2
:104480008BAB83E090E00E94BC368CAB82E090E086
:104490000E94BC36C750DF4F8883C95FD04083E09D
:1044A00090E00E94BC36C650DF4F8883CA5FD04080
:1044B00082E090E00E94BC36C154DE4F8883CF5B1F
:1044C000D14083E090E00E94BC36C054DE4F888328
:1044D000C05CD14082E090E00E94BC36CB57DD4FFB
:1044E0008883C558D24083E090E00E94BC36CA570A
:1044F000DD4F8883C658D2404AEA50E064E070E05D
:10450000CE01CB960E94AC364AEA50E06EEA70E0EB
:10451000CE018F5F9E4F0E94AC364AEA50E068E5BC
:1045200071E0CE0189539E4F0E94AC364AEA50E0BA
:1045300062E072E0CE0183579D4F0E94AC368CEA58
:1045400092E00E94C436BC01CE018D960E946C316F
:104550008EEA92E00E94C436BC01CE018D509F4F7E
:104560000E946C3180EB92E00E94C436BC01CE0107
:1045700087549E4F0E946C3182EB92E00E94C436B9
:10458000BC01CE0181589D4F0E946C318CEB92E0B2
:104590000E94BC3680930F018DEB92E00E94BC36E6
:1045A00080930E018EEB92E00E94BC3680930D0149
:1045B0008FEB92E00E94BC368093600280EC92E028
:1045C0000E94BC368093610281EC92E00E94BC366E
:1045D00080935F0282EC92E00E94BC368E8383EC73
:1045E00092E00E94BC368093030184EC92E00E942A
:1045F000BC36182F80935E0285EC92E00E94BC3698
:1046000080930201113019F485B1846085B968E1A5
:10461000CE018D960E94FF2ECE018D960E94832F93
:1046200068E1CE018D509F4F0E94FF2ECE018D502C
:104630009F4F0E94832F68E1CE0187549E4F0E94B6
:10464000FF2ECE0187549E4F0E94832F68E1CE013A
:1046500081589D4F0E94FF2ECE0181589D4F0E9490
:10466000832F8FE7C656DC4F8883CA59D34085B164
:10467000816085B92FEF33EC49E021503040404054
:10468000E1F700C0000085B18E7F85B95FEF83EC54
:1046900099E0515080409040E1F700C000004D9BF0
:1046A00005C0CE018B5B9C4F0E940420412C512CF5
:1046B000CB5CDB4F1882C553D440CC5CDB4F1882F7
:1046C000C453D440CC5DDB4F19821882C452D4400D
:1046D000C15DDB4F1882CF52D440612C712CC45D78
:1046E000DB4F19821882CC52D440CD5CDB4F18824C
:1046F000C353D440C85DDB4F19821882C852D440DE
:10470000CE5CDB4F1882C253D440CA5DDB4F1982A6
:104710001882C652D440CF5CDB4F1882C153D440BC
:10472000212C312CC05DDB4F1882C053D440C65DB4
:10473000DB4F19821882CA52D440CE5DDB4F1982FA
:104740001882C252D44088248A94B12CEFEFC25D03
:10475000DB4FE883CE52D440CE0101960E941F2940
:10476000CE018E519C4F0E94240A813011F49A8010
:1047700001C0912C992059F1C656DC4FC880CA5906
:10478000D340C556DC4FD880CB59D340C456DC4FFC
:10479000E880CC59D340C356DC4FF880CD59D34084
:1047A000C256DC4F0881CE59D340C156DC4F188128
:1047B000CF59D3409E0121513C4FAE014B5B5C4F22
:1047C000BE01635D7F4F89810E947217C5CF8A81C8
:1047D000882309F462C085B1846085B981E0C45042
:1047E000DC4F8883CC5FD340C25DDB4FF881CE5273
:1047F000D440F11134C06C81898190915F029F9304
:10480000909161029F932DB73EB72C5231090FB69C
:10481000F8943EBF0FBE2DBFADB7BEB711969CE258
:10482000FE01319601900D929A95E1F7AB2CAE0105
:10483000465E5B4F6A01FE01E757FC4F7F018E0128
:104840000B5B1C4F9E0125503C4F4D5E53400E9418
:104850009A140FB6F894DEBF0FBECDBF13C06C81A3
:10486000A0906102CB2CAE01465E5B4F7A018E01B7
:1048700007571C4F9E012B5B3C4F4D5E5340898177
:104880000E94FF1180915F02811107C02C81498134
:1048900060E9CE0101960E94532A8B81882309F496
:1048A00057C0C25DDB4F5881CE52D44051112BC04E
:1048B000898190915F029F93EDB7FEB7BC970FB6C9
:1048C000F894FEBF0FBEEDBFADB7BEB711969CE228
:1048D000FE01319601900D929A95E1F7EB2C8E0135
:1048E000065E1B4F9E0127573C4FAE014B5B5C4F52
:1048F000BE01635D7F4F0E948C120FB6F894DEBF3D
:104900000FBECDBF10C0EB2C8E01065E1B4F9E016B
:1049100027573C4FAE014B5B5C4FBE01635D7F4F41
:1049200089810E941F1380915F02811107C02C8131
:10493000498160E8CE0101960E94532A8989882323
:1049400039F080915E02811103C085B18B7F85B9FA
:1049500089858823B1F08F8198859AAB89ABC9503E
:10496000DF4F99838883C75FD040C354DE4F99835C
:104970008883CD5BD140CD57DD4F99838883C35861
:10498000D2408D85882309F4A5C08B8590910F01B5
:10499000891306C09C85C656DC4F9883CA59D340FC
:1049A000823031F43C85CB5CDB4F3883C553D44037
:1049B000853061F4C05FDB4F1882C051D4409C85C4
:1049C000990FCF5CDB4F9883C153D440803161F4A1
:1049D000C25FDB4F1882CE50D4409C85990FC05DDA
:1049E000DB4F9883C053D440813161F4CE5EDB4FFE
:1049F0001882C251D4409C85990FCE5CDB4F9883BE
:104A0000C253D440823161F4CC5EDB4F1882C45172
:104A1000D4409C85990FCD5CDB4F9883C353D44021
:104A2000833161F4CA5EDB4F1882C651D4409C8545
:104A3000990FC15DDB4F9883CF52D440843161F42C
:104A4000C85EDB4F1882C851D4409C85990FCC5C5E
:104A5000DB4F9883C453D4408B37E1F587E090E077
:104A6000992354F0EAE1F4E0EC0FFD1FE80FF91F81
:104A700020E820830197F4CFCE018D960E94832FEA
:104A8000CE018D509F4F0E94832FCE0187549E4FA1
:104A90000E94832FCE0181589D4F0E94832F882032
:104AA000A1F0C65BDC4F1882CA54D340C55ADC4F14
:104AB0001882CB55D340C459DC4F1882CC56D34012
:104AC000C358DC4F1882CD57D340C257DC4F1882F1
:104AD000CE58D3408889882309F443C000D000D041
:104AE00000D0ADB7BEB7119686E0FE01E656FC4F8A
:104AF00001900D928A95E1F74DB75EB7415151098A
:104B00000FB6F8945EBF0FBE4DBFADB7BEB71196DE
:104B100081E1FE01E757FC4F01900D928A95E1F784
:104B2000CE018D969F938F93885E9C4F9F938F931A
:104B30008DB79EB78C970FB6F8949EBF0FBE8DBFF2
:104B4000ADB7BEB711968CE2FE01319601900D9281
:104B50008A95E1F70E949A1C0FB6F894DEBF0FBE4B
:104B6000CDBF0E94BC2E0091620210916302209181
:104B7000640230916502065F1F4F2F4F3F4F0617AB
:104B800017072807390708F0C3C11989112309F449
:104B90009FC0CE018F559C4F0E94240A813049F45A
:104BA000C25DDB4FF881CE52D440F11104C0092D13
:104BB00003C0092D01C0012F011112C0CE018F5574
:104BC0009C4F0E94240A811108C0C25DDB4F2881DE
:104BD000CE52D440213009F0012F011107C00CC082
:104BE000C25DDB4F1882CE52D44006C031E0C25DB8
:104BF000DB4F3883CE52D440CE0182559C4F0E9469
:104C0000240A813029F441E0B41204C0092D03C004
:104C1000092D01C0012F0023E9F085E493E08C0FFA
:104C20009D1F41960E94CC0F85E493E08C0F9D1F41
:104C300082960E94CC0F85E493E08C0F9D1FC39653
:104C40000E94CC0FC550DC4F1882CB5FD340BB24F1
:104C5000B3943EC0CE0185549C4F0E94240A8130FB
:104C600019F454E0B512012F002349F0C550DC4F70
:104C70001882CB5FD3406894BB24B2F829C0CE0120
:104C800082559C4F0E94240A81110AC0CE0185548E
:104C90009C4F0E94240A811103C082E0B812012FA8
:104CA0000023B1F0C550DC4F1882CB5FD34085E4C0
:104CB00093E08C0F9D1F82960E94CC0F85E493E0B9
:104CC0008C0F9D1FC3960E94CC0F6894BB24B1F833
:104CD000CE018B529C4F0E94240A813021F48820FF
:104CE00011F099249394911024C0CE0188539C4FC5
:104CF0000E94240A813029F492E0891611F0992447
:104D00009394911018C0CE018B529C4F0E94240A9C
:104D100081110CC0CE0188539C4F0E94240A81113E
:104D200005C0E1E08E1611F099249394911007C00C
:104D300008C0812C06C06894882481F802C08824A9
:104D4000839420E2AE0143505C4F65E0CE01805673
:104D50009C4F0E942A2C9250CE5DDB4F9983888312
:104D6000C252D440E12CC05DDB4F0881C053D44017
:104D70009E01225F3B4FAE01435F5B4F64E0CE017B
:104D800080569C4F0E94532B9695879596958795B4
:104D90009695879520910E01BE0164507C4FAC0121
:104DA000249FC001259F900D11240E94291AC65DE1
:104DB000DB4F99838883CA52D440CE5CDB4F088195
:104DC000C253D4409E012E5E3B4FAE014F5E5B4FFF
:104DD00065E0CE0180569C4F0E94532BCA5DDB4F8D
:104DE00099838883C652D440CD5CDB4F0881C3537E
:104DF000D4409E012C5E3B4FAE014D5E5B4F66E0A2
:104E0000CE0180569C4F0E94972BC85DDB4F998343
:104E10008883C852D4406894EE24E5F8CC5CDB4F1C
:104E20000881C453D4409E01285E3B4FAE01495EC9
:104E30005B4F64E0CE0180569C4F0E94152BCC5DE9
:104E4000DB4F99838883C452D440E12CCF5CDB4F85
:104E50000881C153D4409E01205F3B4FAE01415FAA
:104E60005B4F61E0CE0180569C4F0E94152B1C01C8
:104E7000369427943694279436942794369427941E
:104E8000C15DDB4F0881CF52D4409E012A5E3B4F6B
:104E9000AE014B5E5B4F67E0CE0180569C4F0E9497
:104EA000152B880F991F880F991FC45DDB4F9983BD
:104EB0008883CC52D440C15DDB4F0881CF52D440AF
:104EC0009E012A5E3B4FAE014B5E5B4F67E0CE0119
:104ED00080569C4F0E94E62B3C01660C771C660CAA
:104EE000771CAE01475E5B4FCB5CDB4F6881C553DF
:104EF000D440809101010E94761A2C010E94BC2EA0
:104F000060936202709363028093640290936502DF
:104F1000CE0186569C4F0E94AD2A910140E050E0A0
:104F2000CE5DDB4F68817981C252D440CE018D962F
:104F30000E941B309101C65DDB4F48815981CA52E6
:104F4000D440CE5DDB4F68817981C252D440CE011E
:104F50008D509F4F0E941B30910140E050E0CE5D8C
:104F6000DB4F68817981C252D440CE0187549E4F75
:104F70000E941B309101C65DDB4F48815981CA52A6
:104F8000D440CE5DDB4F68817981C252D440CE01DE
:104F900081589D4F0E941B3060E786E692E00E9498
:104FA000220E60E186E692E00E94340E86E692E0F0
:104FB0000E943E0E52E0851253C0C12CD12C8B2D85
:104FC00090E0C816D9060CF087C08091600290E08E
:104FD000FC01EE0FFF1FE95FFE4F4081518126EC7F
:104FE0002C9DF0012D9DF00D112421E030E02C0FBF
:104FF0003D1FE20FF31F27A5FC01EC5FFE4FE22EE1
:10500000F12C008002C0EE0CFF1C0A94E2F7E40EC3
:10501000F51E21E12C9DC0012D9D900D1124CC5D2C
:10502000DB4F08811981C452D4409301240D351DF2
:10503000C85DDB4F48815981C852D440CA5DDB4FFF
:1050400068817981C652D440E5E4F3E0EC0FFD1F9E
:105050008E0F9F1F0E946010FFEFCF1ADF0AAFCFA5
:10506000811018C000E010E08B2D90E008171907A0
:105070009CF521E1209FC001219F900D112425E482
:1050800033E02C0F3D1F820F931F0E94D90F0F5F3B
:105090001F4FEACF31E083121FC000E010E0CC5D6B
:1050A000DB4FE880F980C452D4408B2D90E0081784
:1050B000190794F421E1209FC001219F900D112434
:1050C000B70145E453E04C0F5D1F840F951F0E940C
:1050D00047110F5F1F4FE9CF8091600290E0FC0104
:1050E000EE0FFF1FE95FFE4F408151812C81FC01D3
:1050F000EC5FFE4FE22EF12C008002C0EE0CFF1C94
:105100000A94E2F7E40EF51E2E8530E000900D01C2
:1051100002C0220F331F0A94E2F7C45DDB4F88817F
:105120009981CC52D440280F391F240D351DCC5DF8
:10513000DB4F08811981C452D440C85DDB4F4881E0
:105140005981C852D440CA5DDB4F68817981C6520B
:10515000D440CE0187579C4F0E94120CFDCA6FEFBE
:105160007FEF81E090E00E94ED11089521E0FC01C5
:10517000208B138E20E030E0203131053CF4FC011F
:10518000E20FF31F148E2F5F3F4FF6CF089587E68F
:1051900092E00E944B2E8823D1F387E692E00E9492
:1051A0004B2E8823D1F387E692E00E94552E883F4C
:1051B000A0F708954130B1F4E62FF0E0F595E795BA
:1051C000F595E795F595E795677021E030E002C029
:1051D000220F331F6A95E2F7E80FF91F848D282B01
:1051E000248F0895E62FF0E0F595E795F595E7957E
:1051F000F595E795677021E030E002C0220F331F7C
:105200006A95E2F7E80FF91F2095848D2823248FF3
:105210000895262F30E035952795359527953595B6
:105220002795820F931FFC01248D677081E090E029
:1052300002C0880F991F6A95E2F782230895FF92B2
:105240000F931F93CF93DF93EC0119821A82188674
:105250001C861E861F8687E692E00E944B2E8823BE
:1052600009F41BC187E692E00E94552E182F80E8B2
:10527000810F883710F41A8F10C1183F08F00DC144
:10528000012F11237CF12A8D30E08C8190E0805732
:105290009F4F2817390731F51883CE010E94C72880
:1052A0008B83882391F0F8806F2DCE010E9409290D
:1052B000811133C081E089838B8D8F5F8B8F41E0BB
:1052C0006F2DCE010E94DA2828C081E08A83688190
:1052D00040E0CE010E94DA288B8D8823F1F08150C6
:1052E0008B8F1BC00023CCF02A8D30E08C8190E0A6
:1052F00080589F4F2817390781F41883CE010E94E8
:10530000C72881E08A83688140E0CE010E94DA28C4
:105310008B8D882311F081508B8F8B8D811103C071
:1053200081E0888B01C0188A0023BCF02A8D30E010
:105330008C8190E080529F4F2817390771F481E0EB
:105340008887CE010E94C728212F30E090E8899FEE
:10535000200D311D11243F832E8300230CF12A8D53
:1053600030E08C8190E080559F4F28173907C1F4B9
:1053700081E08C871A87CE010E94C7288B878A8597
:105380008B3771F41B8E81E0888B80E090E0803158
:10539000910534F4FE01E80FF91F148E0196F7CF42
:1053A000002364F02A8D30E08C8190E080539F4F81
:1053B0002817390719F481E08E871D878A8D803F71
:1053C00009F06BC01F3779F4173F09F466C087E610
:1053D00092E00E944B2E8823D1F387E692E00E9450
:1053E000552E182FF1CF81E08F8787E692E00E943B
:1053F0004B2E8823D1F387E692E00E94552E898BAD
:10540000873F09F44AC087E692E00E944B2E88232A
:10541000D1F387E692E00E94552E8A8B873FE9F10F
:1054200087E692E00E944B2E8823D1F387E692E034
:105430000E94552E8B8B873F81F187E692E00E9478
:105440004B2E8823D1F387E692E00E94552E8C8B59
:10545000873F19F187E692E00E944B2E8823D1F313
:1054600087E692E00E94552E8D8B873FB1F000E0D9
:10547000173F99F087E692E00E944B2E8823D1F3E4
:1054800087E692E00E94552E182F873F89F3FE0190
:10549000E00FF11D868B0F5FEBCFDF91CF911F9156
:1054A0000F91FF900895CF93DF93D42FC22FFC016B
:1054B0008581680F87E692E00E942D2E6D2F87E68A
:1054C00092E00E942D2E6C2F87E692E00E942D2EF6
:1054D000DF91CF910895FC016183128213821482BF
:1054E0001582108208950F931F93CF93DF938C0141
:1054F000EB0160E786E692E00E94220E60E486E619
:1055000092E00E94340E86E692E00E943E0E60E633
:1055100086E692E00E94220EF801618186E692E022
:105520000E94340EBE01729562956F7067277F707E
:10553000672786E692E00E94340E6C2F6295607FAA
:1055400086E692E00E94340E86E692E00E943E0ECD
:10555000DF91CF911F910F9108950F931F93CF93D8
:10556000DF93EC010E94BC2E0A811B812C813D81BE
:105570000B5F1F4F2F4F3F4F06171707280739079D
:1055800070F40E94BC2E6A837B838C839D83688128
:1055900080E2689FB0011124CE010E94732ADF913E
:1055A000CF911F910F9108951F93CF93DF93EB013C
:1055B000142F60E786E692E00E94220E60E186E604
:1055C00092E00E94340E86E692E00E943E0E60E673
:1055D00086E692E00E94220E612F86E692E00E940B
:1055E000340EBE01729562956F7067277F706727D2
:1055F00086E692E00E94340E6C2F6295607F86E60C
:1056000092E00E94340E86E692E00E943E0EDF9108
:10561000CF911F91089587E880937A0082EF80935D
:105620007E0080E180937F000895EF920F93606485
:1056300060937C00E0927B00EAE7F0E08081806488
:10564000808380917A0086FDFCCF809178009091D4
:1056500079009695879596958795F90160816623DF
:1056600039F0FA018083809178009091790018C018
:105670009927FA01408150E0BA01625E7F4F6817B6
:1056800079072CF04E515109841795071CF481E0DD
:10569000F9018083802F90E0880F991F880F991F50
:1056A0000F91EF900895EF920F93606460937C00E8
:1056B000E0927B00EAE7F0E0808180648083809163
:1056C0007A0086FDFCCF80917800909179009695C4
:1056D000879596958795F9016081662359F0FA01BF
:1056E0008083FC01FF27EE0FFF1FEC55FE4E8591D6
:1056F00094911AC09927FA01408150E0BA01625E84
:105700007F4F681779072CF04E5151098417950780
:105710001CF481E0F9018083E02FF0E0EE0FFF1F21
:10572000EC55FE4E859194910F91EF900895EF9274
:105730000F93606460937C00E0927B00EAE7F0E006
:1057400080818064808380917A0086FDFCCF809187
:105750007800909179009695879596958795F901AF
:105760006081662329F0FA01808381111EC026C062
:105770009927FA01408150E0BA01625E7F4F6817B5
:1057800079072CF04E515109841795071CF481E0DC
:10579000F90180830023A9F0E02FF0E0EE0FFF1F56
:1057A000EC55FE4E859194910EC0FC01FF27EE0F43
:1057B000FF1FEC55FE4E8591949105C08FEF9FEF32
:1057C00002C08FEF9FEF0F91EF900895EF920F932C
:1057D000606460937C00E0927B00EAE7F0E0808107
:1057E0008064808380917A0086FDFCCF8091780070
:1057F000909179009695879596958795F9016081A6
:10580000662359F0FA018083FC01FF27EE0FFF1F8A
:10581000EC55F04F859194911AC09927FA01408177
:1058200050E0BA01625E7F4F681779072CF04E5145
:105830005109841795071CF481E0F9018083E02F5A
:10584000F0E0EE0FFF1FEC55F04F859194910F9112
:10585000EF900895606460937C0020937B00EAE7FA
:10586000F0E080818064808380917A0086FDFCCFA7
:1058700087E090E01816190694F4DC01AA0FBB1F0C
:10588000A40FB51FFC01E150F048EE0FFF1FE40F1D
:10589000F51F208131812D933C930197EBCF8091AF
:1058A000780090917900FA019183808320E030E0C4
:1058B00080E090E02830310564F4F901EE0FFF1F1D
:1058C000E40FF51F60817181860F971F2F5F3F4F97
:1058D000F1CF969587959695879596958795089596
:1058E0001092CD008FE18093CC00E9ECF0E088E1EC
:1058F00080838081806C808386E08093CA000895D5
:10590000CF93DF93DB019091690280916A02981333
:10591000FACF90E0292F30E0FD0101900020E9F757
:105920003197EA1BFB0B2E173F07A0F48091690209
:10593000E82FF0E0ED01C20FD31F2881E559FD4F9C
:1059400020838F5F80936902882314F41092690288
:105950009F5FE0CF8091C80085FF0CC08C91809341
:10596000CE0080916A028F5F80936A02882314F4CC
:1059700010926A02DF91CF9108954F925F926F92D9
:105980007F92AF92BF92CF92DF92EF92FF920F93EE
:105990001F93CF93DF93CDB7DEB72A013B01CDB67E
:1059A000DEB677232CF00F2EF5E0BF2EF02D04C0CD
:1059B0000F2EF6E0BF2EF02D8DB79EB78B199109F3
:1059C0000FB6F8949EBF0FBE8DBFEDB7FEB73196F0
:1059D0007F018F0177200CF05DC07094609450942B
:1059E0004094411C511C611C711C8DE2EDB7FEB747
:1059F0008183C301B20120E137E240E050E00E9420
:105A0000F933CA01B9012AE030E040E050E00E94D9
:105A1000F933605DF7016183C301B20128EE33E021
:105A200040E050E00E94F933CA01B9012AE030E0B9
:105A300040E050E00E94F933605DF7016283C301EA
:105A4000B20124E630E040E050E00E94F933CA01A0
:105A5000B9012AE030E040E050E00E94F933605D97
:105A6000F7016383C301B2012AE030E040E050E077
:105A70000E94F933A62ECA01B9012AE030E040E0C5
:105A800050E00E94F933605DF701648380E38A0D82
:105A9000858351C0C301B20120E137E240E050E00C
:105AA0000E94F933CA01B9012AE030E040E050E039
:105AB0000E94F933605DEDB7FEB76183C301B201A7
:105AC00028EE33E040E050E00E94F933CA01B9010A
:105AD0002AE030E040E050E00E94F933605DF701D9
