:100000000C9456090C947E090C947E090C947E097C
:100010000C947E090C947E090C947E090C947E0944
:100020000C947E090C947E090C947E090C947E0934
:100030000C947E090C947E090C947E090C947E0924
:100040000C947E090C947E090C947E090C947E0914
:100050000C94920D0C94092D0C947E090C947E093D
:100060000C947E090C94D52C0C947E090C94AE2C27
:100070000C947E090C947E090C947E090C947E09E4
:100080000C947E090C947E090C947E090C947E09D4
:100090000C947E090C947E090C947E090C947E09C4
:1000A0000C947E090C947E090C947E09FF03F603E0
:1000B000EF03E703DF03D703CF03C703BF03B8038F
:1000C000B003A803A003990391038A0382037B036F
:1000D00073036C0364035D0356034E03470340033D
:1000E000390331032A0323031C0315030E030703FB
:1000F0000003F902F202EB02E402DE02D702D002B0
:10010000C902C302BC02B502AF02A802A2029B024E
:1001100095028E02880281027B0275026F026802DC
:1001200062025C02560250024A0243023D0237025A
:1001300031022C02260220021A0214020E020902C7
:100140000302FD01F801F201EC01E701E101DC012C
:10015000D601D101CC01C601C101BC01B601B1017A
:10016000AC01A701A1019C01970192018D018801B9
:1001700083017E017901750170016B0166016101E6
:100180005D01580153014F014A01460141013D0102
:10019000380134012F012B01270122011E011A0110
:1001A000160112010D01090105010101FD00F9000F
:1001B000F500F100EE00EA00E600E200DE00DB0000
:1001C000D700D300D000CC00C800C500C100BE00DD
:1001D000BA00B700B400B000AD00AA00A600A300AA
:1001E000A0009D009A009700940090008D008B0065
:1001F0008800850082007F007C0079007700740011
:1002000071006F006C0069006700640062005F00AD
:100210005D005A0058005600530051004F004D0039
:100220004A00480046004400420040003E003C00B6
:100230003A00380036003400330031002F002D0022
:100240002C002A002800270025002400220021007D
:100250001F001E001D001B001A00190017001600C9
:100260001500140013001200110010000F000E0002
:100270000D000C000B000A0009000900080007002F
:10028000060006000500050004000400030003004A
:100290000200020001000100010001000000000056
:1002A000000000000000000000000000FF03F30356
:1002B000E703DB03CF03C303B803AD03A103960336
:1002C0008B03800375036A035F0354034A033F03F0
:1002D00035032A03200316030C030203F802EE027F
:1002E000E402DB02D102C802BE02B502AC02A302E4
:1002F0009902900288027F0276026D0265025C021A
:1003000054024B0243023B0233022B0223021B0224
:1003100013020B020402FC01F501ED01E601DE010E
:10032000D701D001C901C201BB01B401AD01A701D0
:10033000A001990193018D01860180017A01730169
:100340006D01670161015B01560150014A014501E0
:100350003F01390134012F01290124011F011A0134
:10036000150110010B0106010101FC00F700F3006B
:10037000EE00EA00E500E100DC00D800D400D00087
:10038000CC00C800C300C000BC00B800B400B0007E
:10039000AC00A900A500A2009E009B00970094005D
:1003A00091008D008A008700840081007E007B0020
:1003B00078007500720070006D006A0067006500CB
:1003C000620060005D005B0059005600540052005E
:1003D0004F004D004B0049004700450043004100DD
:1003E0003F003D003B003A00380036003400330047
:1003F000310030002E002C002B002A00280027009E
:10040000250024002300220020001F001E001D00E4
:100410001C001B001A001900180017001600150018
:100420001400130012001100100010000F000E0045
:100430000E000D000C000C000B000A000A00090061
:100440000900080008000700070006000600060073
:10045000050005000400040004000300030003007D
:10046000030002000200020002000200010001007D
:100470000100010001000100000000000000000078
:10048000000000000000000000000000000000006C
:10049000000000000000000000000000000000005C
:1004A000000000000000000000000000000000014B
:1004B0006A01BC0100023D027402A602D5020103DA
:1004C0002A03520378039C03BF03E10301042104C0
:1004D0003F045D047A049704B204CD04E8040205E5
:1004E0001B0534054C0564057C059305AA05C1056B
:1004F000D705ED05020617062C06410655066A06C5
:100500007D069106A506B806CB06DE06F0060307B3
:100510001507270739074A075C076D077F0790070C
:10052000A007B107C207D207E307F30703081308C0
:100530002308330842085208610870087F088F08B2
:100540009D08AC08BB08CA08D808E708F5080309E5
:10055000120920092E093C094A095709650973093E
:1005600080098E099B09A909B609C309D009DD09CB
:10057000EA09F709040A110A1D0A2A0A370A430A76
:10058000500A5C0A680A750A810A8D0A990AA50A46
:10059000B20ABE0AC90AD50AE10AED0AF90A040B31
:1005A000100B1C0B270B330B3E0B490B550B600B31
:1005B0006B0B770B820B8D0B980BA30BAE0BB90B50
:1005C000C40BCF0BDA0BE50BEF0BFA0B050C0F0C82
:1005D0001A0C250C2F0C3A0C440C4F0C590C630CC4
:1005E0006E0C780C820C8D0C970CA10CAB0CB50C1E
:1005F000BF0CC90CD40CDE0CE70CF10CFB0C050D88
:100600000F0D190D230D2C0D360D400D4A0D530DF8
:100610005D0D660D700D7A0D830D8D0D960D9F0D80
:10062000A90DB20DBC0DC50DCE0DD80DE10DEA0D15
:10063000F30DFC0D060E0F0E180E210E2A0E330EB2
:100640003C0E450E4E0E570E600E690E720E7B0E5E
:10065000840E8C0E950E9E0EA70EB00EB80EC10E17
:10066000CA0ED20EDB0EE40EEC0EF50EFE0E060FD9
:100670000F0F170F200F280F310F390F410F4A0F9F
:10068000520F5B0F630F6B0F740F7C0F840F8D0F76
:10069000950F9D0FA50FAD0FB60FBE0FC60FCE0F56
:1006A000D60FDE0FE60FEE0FF60FFF0F3502150225
:1006B000F801DB01C101A70190017901640150013A
:1006C0003D012C011A010B01FC00ED00E100D400FA
:1006D000C800BD00B200A8009E0096008D008500F5
:1006E0007E00760070006A0064005F0059005400CC
:1006F0004F004B00470043003F003B0038003500EF
:1007000032002F002C002A002800250024002100A0
:100710001F001D001C001B0019001700160015000B
:1007200014001300120010000F000E000E000D0048
:100730000C000C000B000A000A000A000900080067
:100740000700070007000600060006000600050077
:1007500005000500040041EE0E00BA170E003E4DE4
:100760000D001F8E0C00BAD90B00742F0B00BE8E2B
:100770000A000CF70900DE670900BAE008002B61E7
:100780000800C5E8070020770700DD0B07009FA6DB
:1007900006000F470600DDEC0500BA9705005F472D
:1007A000050086FB0400EFB304005D700400953083
:1007B000040062F4030090BB0300EE8503004F5376
:1007C0000300872303006EF60200DDCB0200AFA317
:1007D0000200C37D0200F75902002E3802004A18B9
:1007E000020031FA0100C8DD0100F7C20100A7A92B
:1007F0000100C3910100377B0100EE650100D75174
:100800000100E13E0100FB2C0100171C0100250C3A
:10081000010018FD0000E4EE00007BE10000D3D4ED
:100820000000E1C800009BBD0000F7B20000EBA88B
:100830000000709F00007D9600000B8E0000128665
:1008400000008C7E000072770000BD700000696AB5
:10085000000070640000CD5E00007B5900007554FC
:100860000000B84F00003E4B000005470000094360
:100870000000463F0000B93B00005E380000343500
:10088000000038320000662F0000BD2C00003A2A1C
:100890000000DC2700009F25000082230000842147
:1008A0000000A31F0000DC1D0000FF03FB03F70393
:1008B000F303EF03EB03E703E303DF03DB03D703F8
:1008C000D303CF03CB03C703C303BF03BB03B703E8
:1008D000B303AF03AB03A703A3039F039B039703D8
:1008E00093038F038B03870383037F037B037703C8
:1008F00073036F036B03670363035F035B035703B8
:1009000053034F034B03470343033F033B033703A7
:1009100033032F032B03270323031F031B03170397
:1009200013030F030B0307030303FF02FB02F7028A
:10093000F302EF02EB02E702E302DF02DB02D7027F
:10094000D302CF02CB02C702C302BF02BB02B7026F
:10095000B302AF02AA02A602A2029E029A02960265
:1009600092028E028A02860282027E027A02760257
:1009700072026E026A02660262025E025A02560247
:1009800052024E024A02460242023E023A02360237
:1009900032022E022A02260222021E021A02160227
:1009A00012020E020A0206020202FE01FA01F6011A
:1009B000F201EE01EA01E601E201DE01DA01D6010F
:1009C000D201CE01CA01C601C201BE01BA01B601FF
:1009D000B201AE01AA01A601A2019E019A019601EF
:1009E00092018E018A01860182017E017A017601DF
:1009F00072016E016A01660162015E015A015501D0
:100A000051014D014901450141013D0139013501C6
:100A100031012D012901250121011D0119011501B6
:100A200011010D01090105010101FD00F900F500A9
:100A3000F100ED00E900E500E100DD00D900D5009E
:100A4000D100CD00C900C500C100BD00B900B5008E
:100A5000B100AD00A900A500A1009D00990095007E
:100A600091008D008900850081007D00790075006E
:100A700071006D006900650061005D00590055005E
:100A800051004D004900450041003D00390035004E
:100A900031002D002900250021001D00190015003E
:100AA00011000D00090005000000FF03FB03F70320
:100AB000F303EF03EB03E703E303DF03DB03D703F6
:100AC000D303CF03CB03C703C303BF03BB03B703E6
:100AD000B303AF03AB03A703A3039F039B039703D6
:100AE00093038F038B03870383037F037B037703C6
:100AF00073036F036B03670363035F035B035703B6
:100B000053034F034B03470343033F033B033703A5
:100B100033032F032B03270323031F031B03170395
:100B200013030F030B0307030303FF02FB02F70288
:100B3000F302EF02EB02E702E302DF02DB02D7027D
:100B4000D302CF02CB02C702C302BF02BB02B7026D
:100B5000B302AF02AA02A602A2029E029A02960263
:100B600092028E028A02860282027E027A02760255
:100B700072026E026A02660262025E025A02560245
:100B800052024E024A02460242023E023A02360235
:100B900032022E022A02260222021E021A02160225
:100BA00012020E020A0206020202FE01FA01F60118
:100BB000F201EE01EA01E601E201DE01DA01D6010D
:100BC000D201CE01CA01C601C201BE01BA01B601FD
:100BD000B201AE01AA01A601A2019E019A019601ED
:100BE00092018E018A01860182017E017A017601DD
:100BF00072016E016A01660162015E015A015501CE
:100C000051014D014901450141013D0139013501C4
:100C100031012D012901250121011D0119011501B4
:100C200011010D01090105010101FD00F900F500A7
:100C3000F100ED00E900E500E100DD00D900D5009C
:100C4000D100CD00C900C500C100BD00B900B5008C
:100C5000B100AD00A900A500A1009D00990095007C
:100C600091008D008900850081007D00790075006C
:100C700071006D006900650061005D00590055005C
:100C800051004D004900450041003D00390035004C
:100C900031002D002900250021001D00190015003C
:100CA00011000D00090005000000000047051006B6
:100CB0009406F70649078E07CB07010831085E083E
:100CC0008708AE08D208F308130931094E096909EB
:100CD00084099D09B509CC09E209F8090D0A210A20
:100CE000350A480A5B0A6D0A7E0A8F0AA00AB00A12
:100CF000C00AD00ADF0AEE0AFC0A0B0B190B260BFE
:100D0000340B410B4E0B5B0B670B740B800B8C0B86
:100D1000970BA30BAE0BBA0BC50BD00BDA0BE50B85
:100D2000EF0BFA0B040C0E0C180C210C2B0C350CD1
:100D30003E0C470C500C5A0C630C6B0C740C7D0C65
:100D4000850C8E0C960C9F0CA70CAF0CB70CBF0C2F
:100D5000C70CCF0CD70CDE0CE60CEE0CF50CFD0C22
:100D6000040D0B0D120D1A0D210D280D2F0D360D32
:100D70003D0D430D4A0D510D570D5E0D650D6B0D6B
:100D8000720D780D7E0D850D8B0D910D970D9D0DBE
:100D9000A40DAA0DB00DB60DBC0DC10DC70DCD0D26
:100DA000D30DD90DDE0DE40DEA0DEF0DF50DFA0DA5
:100DB000000E050E0B0E100E150E1B0E200E250E2E
:100DC0002B0E300E350E3A0E3F0E440E490E4E0ECF
:100DD000530E580E5D0E620E670E6C0E710E760E7F
:100DE0007A0E7F0E840E890E8D0E920E970E9B0E3C
:100DF000A00EA40EA90EAE0EB20EB70EBB0EC00E04
:100E0000C40EC80ECD0ED10ED50EDA0EDE0EE20ED9
:100E1000E70EEB0EEF0EF30EF80EFC0E000F040FB4
:100E2000080F0C0F100F140F190F1D0F210F250F96
:100E3000290F2D0F310F340F380F3C0F400F440F87
:100E4000480F4C0F500F530F570F5B0F5F0F630F7F
:100E5000660F6A0F6E0F710F750F790F7C0F800F81
:100E6000840F870F8B0F8F0F920F960F990F9D0F87
:100E7000A00FA40FA70FAB0FAE0FB20FB50FB90F96
:100E8000BC0FC00FC30FC60FCA0FCD0FD10FD40FA9
:100E9000D70FDB0FDE0FE10FE40FE80FEB0FEE0FC4
:100EA000F20FF50FF80FFB0FFF0F000007000E0009
:100EB00015001C0023002A00310038003F004600C6
:100EC0004D0054005B0062006900700077007E00F6
:100ED00085008C0093009A00A100A800AF00B60026
:100EE000BD00C400CB00D200D900E000E700EE0056
:100EF000F500FC0003010A01110118011F01260180
:100F00002D0134013B0142014901500157015E01AD
:100F100065016C0173017A01810188018F019601DD
:100F20009D01A401AB01B201B901C001C701CE010D
:100F3000D501DC01E301EA01F101F801FF0106023C
:100F40000D0214021B0222022902300237023E0265
:100F500045024C0253025A02610268026F02760295
:100F60007D0284028B0292029902A002A702AE02C5
:100F7000B502BC02BE02C002C202C402C602C8025E
:100F8000CA02CC02CE02D002D202D502D702D902C6
:100F9000DB02DD02DF02E102E302E502E702E90231
:100FA000EB02EE02F002F202F402F602F802FA029A
:100FB000FC02FE02000302030403070309030B0300
:100FC0000D030F03110313031503170319031B0369
:100FD0001D03200322032403260328032A032C03D2
:100FE0002E03300332033403360339033B033D033E
:100FF0003F03410343034503470349034B034D03A9
:101000004F0352035403560358035A035C035E0311
:10101000600362036403660368036B036D036F037D
:10102000710373037503770379037B037D037F03E8
:1010300081038403860388038A038C038E03900351
:1010400092039403960398039A039D039F03A103BD
:10105000A303A503A703A903AB03AD03AF03B10328
:10106000B303B603B803BA03BC03BE03C003C20391
:10107000C403C603C803CA03CC03CF03D103D303FD
:10108000D503D703D903DB03DD03DF03E103E30368
:10109000E503E803EA03EC03EE03F003F203F403D1
:1010A000F603F803FA03FC03FF030000000000004E
:1010B000000000000000000000000100010001002D
:1010C0000100020002000300030004000400050008
:1010D00005000600060007000800090009000A00D4
:1010E0000B000C000D000E000F001000110012008C
:1010F0001300140015001600170019001A001B0039
:101100001D001E001F0021002200240025002700D2
:1011100028002A002C002D002F003100330034005D
:10112000360038003A003C003E00400042004400D7
:10113000460048004A004D004F0051005300560041
:1011400058005A005D005F0062006400670069009B
:101150006C006F0071007400770079007C007F00E4
:101160008200850088008B008D009000940097001D
:101170009A009D00A000A300A600AA00AD00B00048
:10118000B400B700BA00BE00C100C500C800CC0062
:10119000D000D300D700DB00DE00E200E600EA006A
:1011A000EE00F100F500F900FD0001010501090163
:1011B0000D01120116011A011E01220127012B0146
:1011C0002F01340138013D01410146014A014F011F
:1011D000530158015D01610166016B0170017501E8
:1011E00079017E01830188018D01920197019C01A3
:1011F000A101A701AC01B101B601BC01C101C60149
:10120000CC01D101D601DC01E101E701EC01F201E1
:10121000F801FD01030209020E0214021A02200263
:1012200026022C02310237023D0243024A025002DA
:1012300056025C02620268026F0275027B02810242
:1012400088028E0295029B02A202A802AF02B5029A
:10125000BC02C302C902D002D702DE02E402EB02E2
:10126000F202F902000307030E0315031C03230314
:101270002A0331033903400347034E0356035D033A
:1012800064036C0373037B0382038A039103990352
:10129000A003A803B003B803BF03C703CF03D7035A
:1012A000DF03E703EF03F603FF03592811241FBEF2
:1012B000CFEFDAE0DEBFCDBF12E0A0E0B1E0ECEAB4
:1012C000F5E602C005900D92AA36B107D9F723E0E2
:1012D000AAE6B2E001C01D92A338B207E1F719E017
:1012E000C6E5D9E004C02197FE010E949332C535BE
:1012F000D107C9F70E94CD1E0C94D4320C94000083
:10130000EF92FF920F931F93CF93DF93DC01EB01DA
:101310008881E1E0F0E0022E02C0EE0FFF1F0A9488
:10132000E2F7E095E823E88312962C931297119642
:101330005C934E931996ED92FD920D931C931C971E
:10134000DF91CF911F910F91FF90EF9008958F92B1
:101350009F92AF92BF92FF920F931F93CF93DF9311
:10136000EC01E881F98120813A8101E010E0C801B7
:10137000032E02C0880F991F0A94E2F7022F10E093
:101380000823192302C0159507953A95E2F7F02E28
:101390008B81081731F00E94002D6D837E838F832F
:1013A00098870E94002D8D809E80AF80B884DC01DC
:1013B000CB0188199909AA09BB0989849A84AB844D
:1013C000BC8488169906AA06BB0618F48C81F8120C
:1013D0000C830B838C81DF91CF911F910F91FF9034
:1013E000BF90AF909F908F900895FC016487118209
:1013F000108213821282148215821682178210863E
:10140000118608950F931F93CF93DF938C01EB0107
:1014100061E688E792E00E94C00DF801648588E7E4
:1014200092E00E94D20DBE01729562956F7067279F
:101430007F70672788E792E00E94D20D6C2F62953B
:10144000607F88E792E00E94D20D88E792E00E94D8
:10145000DC0DDF91CF911F910F9108958F929F9294
:10146000AF92BF92EF92FF920F931F93CF93DF93B0
:10147000EC017B01088119810617170760F5B80197
:1014800080E090E00E943D314B015C01B70180E0BB
:1014900090E00E943D319B01AC01C501B4010E9466
:1014A0009C3020E030E04FE753E40E94CB310E94B3
:1014B0000E31E62FF0E0EE0FFF1FE455FB4F659174
:1014C00074917B876A870F5F1F4F19830883CE0152
:1014D0000E94020A0EC055233CF46A817B810E945F
:1014E000020A81E0888702C081E08F831E82198210
:1014F0001882DF91CF911F910F91FF90EF90BF90D5
:10150000AF909F908F9008954F925F926F927F92CD
:101510008F929F92AF92BF92CF92DF92EF92FF9203
:101520000F931F93CF93DF938C015B01EA01690155
:10153000FC01E080F180E616F70608F066C0B7010E
:1015400080E090E00E943D312B013C01B50180E03C
:1015500090E00E943D319B01AC01C301B2010E94A9
:101560009C3020E030E04FE753E40E94CB310E94F2
:101570000E31E62FF0E0EE0FFF1FE455FD4F6591B1
:10158000749180E090E00E943D3120E030EC4FE724
:1015900054E40E949C304B015C01C115F0E1DF076F
:1015A00018F4CD2821F405C0CFEFDFE002C0CFEF63
:1015B000DFE0F801C280D380CC15DD0508F4E60138
:1015C000CC19DD09BE0180E090E00E943D31A5010B
:1015D00094010E94CB314B015C01B60180E090E0A8
:1015E0000E943D31A50194010E9430300E940E31CD
:1015F000F80173876287FFEFEF1AFF0AF801F182A3
:10160000E082C8010E94020A0BC0FC016281738162
:101610000E94020AF801178281E0808711821082FD
:10162000DF91CF911F910F91FF90EF90DF90CF90BE
:10163000BF90AF909F908F907F906F905F904F90F2
:101640000895FC01628173810E94020A08958F92BD
:101650009F92AF92BF92CF92DF92EF92FF920F9341
:101660001F93CF93DF93EC017B010881198106174B
:10167000170708F044C0B80180E090E00E943D31B7
:101680004B015C01B70180E090E00E943D319B017D
:10169000AC01C501B4010E949C3020E030E04FE76E
:1016A00053E40E94CB310E940E31E62FF0E0EE0FA2
:1016B000FF1FE455FF4F6591749180E090E00E9418
:1016C0003D3120E030EC4FE754E40E949C306B0148
:1016D0007C016A817B8180E090E00E943D31A7011E
:1016E00096010E94CB310E940E317B876A870F5F83
:1016F0001F4F19830883CE010E94020A09C01B866E
:101700001A8660E070E00E94020A19861982188227
:10171000DF91CF911F910F91FF90EF90DF90CF90CD
:10172000BF90AF909F908F9008954F925F926F926D
:101730007F928F929F92AF92BF92CF92DF92EF9261
:10174000FF920F931F93CF93DF93EC014B015A014C
:101750006901C11420E1D20630F00F2ECC24CA94C6
:10176000FFE0DF2EF02D8C81811113C08D81882345
:1017700081F081E08C838E831F8218861986DB823C
:10178000CA820E94002D6D877E878F87988B198271
:1017900018828C818823C1F08D81811115C08E81C2
:1017A000811103C08F81882329F08A859B859B83C3
:1017B0008A8302C0DB82CA821C821E821F82188634
:1017C00081E089871982188289858823E9F08C81D4
:1017D00081111AC00E94002D4D845E846F84788828
:1017E0002AE0420E511C611C711C46165706680601
:1017F000790650F40E94002D6D877E878F87988B25
:10180000B801CE010E94270B1E81112319F10E94FD
:10181000002D4D845E846F84788825E0420E511C33
:10182000611C711C461657066806790630F08C81DB
:10183000882311F01D8101C010E0112359F00E948E
:10184000002D6D877E878F87988BA501B401CE010F
:101850000E942E0A1F81112341F10E94002D4D8408
:101860005E846F84788825E0420E511C611C711CD7
:10187000461657066806790630F08C81882311F0E9
:101880001D8101C010E0112381F00E94002D6D87A1
:101890007E878F87988BDB82CA82BB2034F09401CD
:1018A000A701B501CE010E94840A1885112341F1D8
:1018B0000E94002D8D849E84AF84B88825E0820E1E
:1018C000911CA11CB11C86169706A806B90630F01B
:1018D0008C81882311F01D8101C010E0112381F05B
:1018E0000E94002D6D877E878F87988B8A819B81D0
:1018F000C816D90629F0DB82CA82CE010E94210BCC
:10190000DF91CF911F910F91FF90EF90DF90CF90DB
:10191000BF90AF909F908F907F906F905F904F900F
:1019200008951F93CF93DF93EB01142F60E788E7AF
:1019300092E00E94C00D60E188E792E00E94D20D23
:1019400088E792E00E94DC0D61E688E792E00E9461
:10195000C00D612F88E792E00E94D20DBE01729502
:1019600062956F7067277F70672788E792E00E9413
:10197000D20D6C2F6295607F88E792E00E94D20DB5
:1019800088E792E00E94DC0DDF91CF911F910895CE
:10199000CF93DF93DC01EB019881E1E0F0E0022ED0
:1019A00002C0EE0FFF1F0A94E2F7E095E923E883F7
:1019B0002C9312965C934E9311971092810081E0C4
:1019C00080936F00DF91CF910895DC0110926A023D
:1019D00010926B0210926C0210926D0210928100B4
:1019E00010928500109284001196ED91FC9112974F
:1019F00080812C91622F41E050E0022E02C0440F02
:101A0000551F0A94E2F790E08423952302C0959530
:101A100087952A95E2F7019739F3208130E0242356
:101A20003523062E02C0359527950A94E2F7232B1D
:101A3000A1F381E0809381001196ED91FC911297C2
:101A400020818C91682F41E050E0082E02C0440FA5
:101A5000551F0A94E2F730E02423352302C0359560
:101A600027958A95E2F72130310531F3808190E0A6
:101A700084239523062E02C0959587950A94E2F754
:101A8000892BA1F3E0918400F091850010928100F0
:101A900020916A0230916B0240916C0250916D026C
:101AA000AFEFBFEF0E9466326E0F7F1F811D911D49
:101AB00008958F929F92AF92BF92CF92DF92EF9252
:101AC000FF9269017A01862F90E0FC01EE0FFF1F63
:101AD000EE0FFF1FEA5AF84F85909590A590B490AD
:101AE000FC01EE0FFF1FE455F94F6591749180E002
:101AF00090E00E943D31A70196010E94CB310E94E7
:101B00000E31A5019401261B370B480B590BCA0156
:101B1000B901FF90EF90DF90CF90BF90AF909F9072
:101B20008F9008951F920F920FB60F9211248F93EA
:101B30009F93AF93BF9380916A0290916B02A091A3
:101B40006C02B0916D020196A11DB11D80936A02D5
:101B500090936B02A0936C02B0936D02BF91AF9112
:101B60009F918F910F900FBE0F901F9018958AB183
:101B700083608AB91092B90088E48093B800089510
:101B800084EA8093BC008091BC008823E4F7660F50
:101B90006093BB0084E88093BC008091BC008823E4
:101BA000E4F708956093BB0084E88093BC008091C3
:101BB000BC008823E4F7089584E98093BC008091F9
:101BC000BC0084FDFCCF0895FC0164871182108263
:101BD0001382128214821582168217821086118651
:101BE00008950F931F93CF93DF938C01C62FD72FA8
:101BF00060E688E792E00E94C00DF801648588E7FE
:101C000092E00E94D20D6D2F88E792E00E94D20DE3
:101C10006C2F88E792E00E94D20D88E792E00E9444
:101C2000DC0DDF91CF911F910F9108958F929F92BC
:101C3000AF92BF92CF92DF92EF92FF920F931F93DA
:101C4000CF93DF93EC018B01688179816017710775
:101C500008F082C06115710509F050C08A859B8526
:101C6000009709F44BC0BC0180E090E00E943D3138
:101C700020E030E049EA54E40E949C306B017C0192
:101C80009B01AC010E94CB319B01AC01C701B601A5
:101C90000E94CB319B01AC01C701B6010E94CB3140
:101CA0009B01AC01C701B6010E94CB310E940E31ED
:101CB000F62E70E080E090E00E943D3120E030E0C0
:101CC0004FE753E40E949C304B015C01B80180E077
:101CD00090E00E943D31A50194010E94CB310E9409
:101CE0000E3179836883EF2DF0E0EE0FFF1FE6558C
:101CF000F34F859194919B878A8723C080E090E081
:101D00000E943D316B017C01B80180E090E00E94AF
:101D10003D319B01AC01C701B6010E949C3020E01F
:101D200030E04FE753E40E94CB310E940E31E62FA2
:101D3000F0E0EE0FFF1FE655F34F859194919B87DE
:101D40008A87888199810196998388836A857B85B2
:101D5000CE010E94F10D0EC055233CF46A817B81B7
:101D60000E94F10D81E0888702C081E08F831E828E
:101D700019821882DF91CF911F910F91FF90EF9000
:101D8000DF90CF90BF90AF909F908F9008954F922B
:101D90005F926F927F928F929F92AF92BF92CF92FB
:101DA000DF92EF92FF920F931F93CF93DF938C01FB
:101DB0005B01EA016901FC01E080F180E616F706AB
:101DC00008F066C0B70180E090E00E943D312B0131
:101DD0003C01B50180E090E00E943D319B01AC01E7
:101DE000C301B2010E949C3020E030E04FE753E491
:101DF0000E94CB310E940E31E62FF0E0EE0FFF1F64
:101E0000E655F54F6591749180E090E00E943D3178
:101E100020E030EC4FE754E40E949C304B015C0121
:101E2000C115F0E1DF0718F4CD2821F405C0CFEF8C
:101E3000DFE002C0CFEFDFE0F801C280D380CC1535
:101E4000DD0508F4E601CC19DD09BE0180E090E073
:101E50000E943D31A50194010E94CB314B015C01F0
:101E6000B60180E090E00E943D31A50194010E94FE
:101E700030300E940E31F80173876287FFEFEF1A4E
:101E8000FF0AF801F182E082C8010E94F10D0BC047
:101E9000FC01628173810E94F10DF801178281E0DB
:101EA000808711821082DF91CF911F910F91FF9057
:101EB000EF90DF90CF90BF90AF909F908F907F90EA
:101EC0006F905F904F900895FC01628173810E9432
:101ED000F10D0895FC011482168217821086118676
:101EE00011821082138212820E94640F0895CF9390
:101EF000DF93FC012481211110C0EC010E94002D10
:101F00006D877E878F87988B8FEF9FE09B838A8377
:101F1000CE010E94640F81E08C83DF91CF91089500
:101F20008F929F92AF92BF92CF92DF92EF92FF92E9
:101F30000F931F93CF93DF93EC017B0108811981ED
:101F40000617170708F044C0B80180E090E00E942F
:101F50003D314B015C01B70180E090E00E943D31D2
:101F60009B01AC01C501B4010E949C3020E030E02F
:101F70004FE753E40E94CB310E940E31E62FF0E090
:101F8000EE0FFF1FE655F74F6591749180E090E0EA
:101F90000E943D3120E030EC4FE754E40E949C3039
:101FA0006B017C016A817B8180E090E00E943D3181
:101FB000A70196010E94CB310E940E317B876A8770
:101FC0000F5F1F4F19830883CE010E94F10D09C0D6
:101FD0001B861A8660E070E00E94F10D1986198256
:101FE0001882DF91CF911F910F91FF90EF90DF90BA
:101FF000CF90BF90AF909F908F9008954F925F9237
:102000006F927F928F929F92AF92BF92CF92DF9208
:10201000EF92FF920F931F93CF93DF93EC014B014D
:102020005A016901C11420E1D20630F00F2ECC24F0
:10203000CA94FFE0DF2EF02D8C81811113C08D81B9
:10204000882381F081E08C838E831F821886198615
:10205000DB82CA820E94002D6D877E878F87988BD6
:10206000198218828C818823F1F08D8181111BC027
:102070008E81811103C08F81882329F08A859B85F9
:102080009B838A8302C0DB82CA821C821E821F82DB
:10209000188681E089870E94002D6D877E878F8753
:1020A000988B1982188289858823E9F08C818111A7
:1020B0001AC00E94002D4D845E846F8478882AE0C7
:1020C000420E511C611C711C4616570668067906A3
:1020D00050F40E94002D6D877E878F87988BB80102
:1020E000CE010E94900F1E81112319F10E94002D34
:1020F0004D845E846F84788825E0420E511C611CFB
:10210000711C461657066806790630F08C818823C4
:1021100011F01D8101C010E0112359F00E94002D23
:102120006D877E878F87988BA501B401CE010E94B1
:10213000160E1F81112341F10E94002D4D845E84F3
:102140006F84788825E0420E511C611C711C461674
:1021500057066806790630F08C81882311F01D81BE
:1021600001C010E0112381F00E94002D6D877E8751
:102170008F87988BDB82CA82BB2034F09401A70141
:10218000B501CE010E94C70E1885112341F10E94AE
:10219000002D8D849E84AF84B88825E0820E911C2A
:1021A000A11CB11C86169706A806B90630F08C81D2
:1021B000882311F01D8101C010E0112381F00E94DD
:1021C000002D6D877E878F87988B8A819B81C816AB
:1021D000D90629F0DB82CA82CE010E94640FDF910A
:1021E000CF911F910F91FF90EF90DF90CF90BF9014
:1021F000AF909F908F907F906F905F904F900895D9
:10220000CF92DF92EF92FF920F931F93CF93DF93C2
:10221000EC018B018C81811115C09D81992391F076
:1022200081E08C838FEF9FE09B838A83CE010E94A5
:10223000640F0E94002D6D877E878F87988B19828F
:1022400018820DC0882359F08D81811108C01C822D
:102250001E821F82188681E08987198218828985EB
:102260008823E9F08C8181111AC00E94002DCD8451
:10227000DE84EF84F8882AE0C20ED11CE11CF11C38
:10228000C616D706E806F90650F40E94002D6D87A1
:102290007E878F87988BB801CE010E94900FDF91C7
:1022A000CF911F910F91FF90EF90DF90CF90089505
:1022B0001F93CF93DF93C62FD72F142F60E788E7A4
:1022C00092E00E94C00D60E188E792E00E94D20D8A
:1022D00088E792E00E94DC0D60E688E792E00E94C9
:1022E000C00D612F88E792E00E94D20D6D2F88E724
:1022F00092E00E94D20D6C2F88E792E00E94D20DEE
:102300006D2F88E792E00E94D20D6C2F88E792E053
:102310000E94D20D6D2F88E792E00E94D20D6C2FA3
:1023200088E792E00E94D20D6D2F88E792E00E942C
:10233000D20D6C2F88E792E00E94D20D88E792E0E0
:102340000E94DC0DDF91CF911F910895019779F4E0
:102350006F3F7F4F61F48AE792E00E94F72C89E794
:1023600092E00E94242C88E792E00E94B70D089525
:102370006F927F928F929F92AF92BF92CF92DF9295
:10238000EF92FF920F931F93CF93DF9394EF980FE9
:10239000953508F06BC039014A01B62ED82EDA0106
:1023A0008C91811126C0C0E0D0E08C2D90E0C81740
:1023B000D907D4F487EC8C9F70018D9FF00C112409
:1023C000E80CF91C6D2DC7010E94432DF701B48262
:1023D00081E18C9FF0018D9FF00D1124E60DF71D1A
:1023E00081E085832196E1CF81E0D80115968C9319
:1023F0003DC080E090E08830910554F4F701E80F8B
:10240000F91F2081203839F4D40112968C918083F1
:10241000C0E0D0E002C00196EECF8C2D90E0C8174E
:10242000D907D4F487EC8C9F70018D9FF00C112498
:10243000E80CF91C6D2DC7010E94432DF701B482F1
:1024400081E18C9FF0018D9FF00D1124E60DF71DA9
:1024500081E085832196E1CFF1E0AF1207C0D8017A
:1024600014961C92149781E015968C93DF91CF916E
:102470001F910F91FF90EF90DF90CF90BF90AF90A2
:102480009F908F907F906F9008956F927F928F9220
:102490009F92AF92BF92CF92DF92EF92FF920F93F3
:1024A0001F93CF93DF93CDB7DEB794EF980F953599
:1024B00008F06FC039014A016B01482FE0E0F0E0FD
:1024C0002E2D30E0E217F3070CF049C05F0197ECC6
:1024D0009E9FD0019F9FB00D1124AC0DBD1D9C91FE
:1024E0009923D9F112969C911297491336C087E02F
:1024F00090E0992384F07801E80EF91EF7016081DD
:10250000603839F0CD010E94432D80E8F7018083C7
:1025100040C00197EECFCD010E94CA2D81E18A9D76
:10252000F0018B9DF00D1124E80DF91D1582F601C7
:10253000808181112EC0E953FF4F8081811129C014
:10254000E953FF4F8081811124C0E953FF4F8081FF
:1025500081111FC0F30115821CC03196B1CF9DAD12
:10256000911111C020E030E02830310594F4F801D9
:10257000E20FF31F9081491303C080E8808309C0F4
:102580002F5F3F4FF1CF2FE760E8CE0141960E94C9
:10259000072ADF91CF911F910F91FF90EF90DF906D
:1025A000CF90BF90AF909F908F907F906F90089545
:1025B0008F929F92AF92BF92CF92DF92EF920F9342
:1025C0001F93CF93DF9394EF980F953508F066C073
:1025D000FB019081992309F44DC0928189134DC06C
:1025E00059016A01EB0187E090E099231CF1480151
:1025F000880E991EF40120812038D1F000E010E00F
:102600008E2D90E0081719077CF4F401608127EC07
:10261000209FC001219F900D11248C0F9D1F0E94AF
:10262000432D0F5F1F4FECCF80E8F401808336C04D
:102630000197DBCF00E010E08E2D90E0081719071E
:10264000B4F427EC209FC001219F900D11248C0F22
:102650009D1F0E94CA2D81E1809FF001819FF00D96
:102660001124EC0DFD1D15820F5F1F4FE5CFF50105
:10267000158214C020E030E002C020E030E02830B5
:10268000310564F4F801E20FF31F9081891303C050
:1026900080E8808303C02F5F3F4FF1CFDF91CF9160
:1026A0001F910F91EF90DF90CF90BF90AF909F90D0
:1026B0008F9008951F93CF93DF93CDB7DEB7CC5A99
:1026C000D1090FB6F894DEBF0FBECDBF6FEF7FE02C
:1026D000C252DF4F88819981CE5DD0400E94F10DBA
:1026E000CD53DF4F1881C35CD04080911001181387
:1026F000DCC0CC53DF4F9881C45CD0408091110185
:102700009813D3C0CA53DF4F8881C65CD0408F3F37
:1027100009F0CBC0CB53DF4F8881C55CD0408630F9
:1027200009F0C3C068EC71E089E792E00E94342CA4
:1027300082E0C555DF4F8883CB5AD040C455DF4F68
:102740008883CC5AD0408AEAE6E1F1E0DE011196B6
:1027500001900D928A95E1F760E080E090E00E94A0
:10276000C13242E050E062E070E0CE0185559F4FFB
:102770000E94B7324AEA50E064E070E0CE01019670
:102780000E94B7324AEA50E06EEA70E0CE0101964C
:102790000E94B7324AEA50E068E571E0CE01019646
:1027A0000E94B7324AEA50E062E072E0CE01019640
:1027B0000E94B73268E077E08CEA92E00E94CF3264
:1027C00068E077E08EEA92E00E94CF3268E077E03E
:1027D00080EB92E00E94CF3268E077E082EB92E0FB
:1027E0000E94CF3261E08CEB92E00E94C13262E045
:1027F0008DEB92E00E94C13262E08EEB92E00E948B
:10280000C13260E08FEB92E00E94C13260E080EC68
:1028100092E00E94C13260E081EC92E00E94C132FD
:1028200060E082EC92E00E94C13261E083EC92E0D1
:102830000E94C13260E084EC92E00E94C13261E00B
:1028400085EC92E00E94C1326FE086EC92E00E943B
:10285000C13240E560E070E0C252DF4F888199816B
:10286000CE5DD0400E94581140E568E077E0C0524C
:10287000DF4F88819981C05ED0400E94E12F40E601
:1028800060E070E0CE018E519F4F0E94910C40E6B7
:102890006FEF7FE0CE018D509F4F0E94882A65ED3B
:1028A00071E089E792E00E94342C809110011813A6
:1028B00020C0CC53DF4F9881C45CD040809111017F
:1028C000981317C0CA53DF4F8881C65CD04083314C
:1028D00081F4CB53DF4F8881C55CD040863049F40A
:1028E000C953DF4F6881C75CD04080E090E00E9410
:1028F000C1328091100118133CC0CC53DF4F988136
:10290000C45CD04080911101981333C0CA53DF4F8B
:102910008881C65CD040843161F5CB53DF4F88811C
:10292000C55CD040863029F5C953DF4F6881C75C4C
:10293000D040C052DF4FE881F981C05ED04067834C
:10294000E953FF4F6783C052DF4FE881F981C05ED2
:10295000D040E257FE4F6783C052DF4FE881F981D4
:10296000C05ED040EB5AFD4F678382E090E00E944A
:10297000C1328091100118133CC0CC53DF4F9881B5
:10298000C45CD04080911101981333C0CA53DF4F0B
:102990008881C65CD040853161F5CB53DF4F88819B
:1029A000C55CD040863029F5C953DF4F6881C75CCC
:1029B000D040C052DF4FE881F981C05ED0406087CF
:1029C000E953FF4F6087C052DF4FE881F981C05E55
:1029D000D040E257FE4F6087C052DF4FE881F98157
:1029E000C05ED040EB5AFD4F608783E090E00E94CC
:1029F000C13280911001181322C0CC53DF4F98814F
:102A0000C45CD04080911101981319C0CA53DF4FA4
:102A10008881C65CD040863191F4CB53DF4F8881EA
:102A2000C55CD040863059F4C953DF4F6881C75C1C
:102A3000D04060930F018CEB92E00E94C1328091F4
:102A40001001181322C0CC53DF4F9881C45CD040D2
:102A500080911101981319C0CA53DF4F8881C65C59
:102A6000D040873191F4CB53DF4F8881C55CD04093
:102A7000863059F4C953DF4F6881C75CD0406093FA
:102A80000E018DEB92E00E94C1328091100118136B
:102A900022C0CC53DF4F9881C45CD040809111019B
:102AA000981319C0CA53DF4F8881C65CD040883163
:102AB00091F4CB53DF4F8881C55CD040863059F408
:102AC000C953DF4F6881C75CD04060930D018EEB26
:102AD00092E00E94C13280911001181322C0CC53A1
:102AE000DF4F9881C45CD04080911101981319C0C8
:102AF000CA53DF4F8881C65CD040893191F4CB53F3
:102B0000DF4F8881C55CD040863059F4C953DF4F10
:102B10006881C75CD040609372028FEB92E00E94A4
:102B2000C13280911001181322C0CC53DF4F98811D
:102B3000C45CD04080911101981319C0CA53DF4F73
:102B40008881C65CD0408A3191F4CB53DF4F8881B5
:102B5000C55CD040863059F4C953DF4F6881C75CEB
:102B6000D0406093730280EC92E00E94C132809169
:102B70001001181322C0CC53DF4F9881C45CD040A1
:102B800080911101981319C0CA53DF4F8881C65C28
:102B9000D0408B3191F4CB53DF4F8881C55CD0405E
:102BA000863059F4C953DF4F6881C75CD0406093C9
:102BB000710281EC92E00E94C132809110011813E1
:102BC00020C0CC53DF4F9881C45CD040809111016C
:102BD000981317C0CA53DF4F8881C65CD0408C3130
:102BE00081F4CB53DF4F8881C55CD040863049F4F7
:102BF000C953DF4F6881C75CD04082EC92E00E94ED
:102C0000C13280911001181322C0CC53DF4F98813C
:102C1000C45CD04080911101981319C0CA53DF4F92
:102C20008881C65CD0408D3191F4CB53DF4F8881D1
:102C3000C55CD040863059F4C953DF4F6881C75C0A
:102C4000D0406093030183EC92E00E94C1328091F6
:102C5000100118132DC0CC53DF4F9881C45CD040B5
:102C600080911101981324C0CA53DF4F8881C65C3C
:102C7000D0408E31E9F4CB53DF4F8881C55CD04022
:102C80008630B1F4C953DF4F6881C75CD040609390
:102C9000700284EC92E00E94C13280917002813017
:102CA00021F485B1846085B903C085B18B7F85B976
:102CB000CD53DF4F1881C35CD040809110011813B1
:102CC00022C0CC53DF4F9881C45CD0408091110169
:102CD000981319C0CA53DF4F8881C65CD0408F312A
:102CE00091F4CB53DF4F8881C55CD040863059F4D6
:102CF000C953DF4F6881C75CD0406093020185EC07
:102D000092E00E94C13280911001181322C0CC536E
:102D1000DF4F9881C45CD04080911101981319C095
:102D2000CA53DF4F8881C65CD040813291F4CB53C7
:102D3000DF4F8881C55CD040863059F4C953DF4FDE
:102D40006881C75CD0406093010186EC92E00E94EC
:102D5000C132FFEF26E781E0F15020408040E1F7EB
:102D600000C0000060E070E0C252DF4F88819981AE
:102D7000CE5DD0400E94F10DC455DF4F0FB6F894E0
:102D8000DEBF0FBECDBFDF91CF911F9108952F926F
:102D90003F924F925F926F927F928F929F92AF92EB
:102DA000BF92CF92DF92EF92FF920F931F93CF9338
:102DB000DF93CDB7DEB727970FB6F894DEBF0FBE0F
:102DC000CDBF8D836B017A013A8329831C821B82DC
:102DD000212C312C3D81232F30E03F832E8387EC43
:102DE000829F8001839F100D11240E0D1F1D64E230
:102DF000C8010E94922F8FEF96E721E0815090400A
:102E00002040E1F700C000008E819F81880F991F4C
:102E10002E813F81280F391F2C0D3D1D3F832E83AE
:102E2000C9010E94E50C4B015C01689412F8B6944C
:102E3000A794979487941694D1F768E4C8010E94E8
:102E4000922F3FEF86E791E0315080409040E1F7CC
:102E500000C000008E819F810E94E50C2B013C0187
:102E60000E943D3127E137EB41ED58E30E94CB3121
:102E70000E940E31A5019401261B370B480B590BFC
:102E8000241535054605570558F4DC01CB01880D9E
:102E9000991DAA1DBB1D481659066A067B06B0F18E
:102EA00084149504A604B70448F42FEF221A320ABA
:102EB00089819A8101979A83898310C048145904A3
:102EC0006A047B0458F42B813C812F5F3F4F3C8385
:102ED0002B8389819A8101969A83898393E32916AA
:102EE000310428F02B813C812333310578F469814A
:102EF0007A81C8010E94AB2F3FEF86E791E0315005
:102F000080409040E1F700C0000064CFC8010E94FB
:102F1000CA2D27960FB6F894DEBF0FBECDBFDF9146
:102F2000CF911F910F91FF90EF90DF90CF90BF90C6
:102F3000AF909F908F907F906F905F904F903F9059
:102F40002F9008958130D1F0823051F4FB018081BF
:102F50008058808390E0880F892F881F990B0895EF
:102F6000FB018081805C808390E0082E892F000C1B
:102F7000881F990B000C881F991F089580E0089501
:102F80002F923F924F925F926F927F928F929F9279
:102F9000AF92BF92CF92DF92EF92FF920F931F9367
:102FA000CF93DF9300D000D01F92CDB7DEB794EF60
:102FB000980F953508F09DC0FB82EA8218013D8389
:102FC0002C832A01B62E8983E12CF12C0A2D10E0E6
:102FD000E016F1060CF08DC080910301813031F4D0
:102FE0006C817D818A2D0E94A21701C08E2D682ED2
:102FF000712C87EC869D4001879D900C1124840CD8
:10300000951CD4018C9181112DC06981C4010E944D
:10301000432DF401B48281E1869D8001879D100DCE
:103020001124F101E00FF11F81E08583AA81BB81AA
:1030300014968C911497811104C015968C91882355
:1030400041F02796BFAD2797B13019F0E1E0AE12FD
:1030500050C0AA81BB8114961C92149781E01596EA
:103060008C9347C001501109E016F106F1F528963E
:10307000BFAD2897B11132C080E090E08830910553
:103080006CF4F601E80FF91F2081203829F4D401EF
:1030900012968C91808302C00196F0CF6981C401A1
:1030A0000E94432DF401B48281E1869DF001879D49
:1030B000F00D1124E20DF31D81E085832796FFAD0D
:1030C0002797F13011F0A81210C0AA81BB81149685
:1030D0001C92149781E015968C9307C02B2D498183
:1030E00060E9CE014A960E94072ABFEFEB1AFB0A5D
:1030F0006DCF0F900F900F900F900F90DF91CF91A9
:103100001F910F91FF90EF90DF90CF90BF90AF9005
:103110009F908F907F906F905F904F903F902F90F7
:1031200008952F923F924F925F926F927F928F926B
:103130009F92AF92BF92CF92DF92EF92FF920F9346
:103140001F93CF93DF93CDB7DEB72B970FB6F894CD
:10315000DEBF0FBECDBF5B01922E0B8387013B808C
:1031600024EF320E242F30E03D832C83220F331FB7
:103170004C815D81240F351F820F931F9A838983B1
:1031800020E030E0A901632D0E94590D6B017C0104
:10319000692D70E080E090E00E943D319B01AC0120
:1031A000632D89819A810E94590D2B013C01692D63
:1031B00070E0719561957109072E000C880B990BD1
:1031C0000E943F319B01AC01632D89819A810E944D
:1031D000590D6E837F838887998727EC4C815D81A9
:1031E000249FC001259F900D11244501880E991E32
:1031F0005B81852F90E09C012C5031093D832C830D
:10320000F901EE0FFF1FE80DF91D47855089212CAC
:10321000312CA12CB12C5B874A87A016B10620F077
:103220002016310608F068C06B81C4010E94922FFD
:103230005FEF86E791E0515080409040E1F700C099
:10324000000089819A810E94E50CC616D706E8061F
:10325000F906D0F42A853B852F3F4FEF340781F0E4
:103260002F5F3F4F3B872A87EC81FD81EE0FFF1FC9
:10327000E80DF91D278530892F5F3F4F308B278759
:103280005FEFA51AB50A1DC06C157D058E059F055B
:10329000C0F42A853B852115310581F02150310983
:1032A0003B872A87EC81FD81EE0FFF1FE80DF91D9A
:1032B0002785308921503109308B27873FEF231A2A
:1032C000330A4A855B8541155105C9F04F3F5F4F71
:1032D000C9F0461657066806790608F09ECF2E817B
:1032E0003F8148855985621773078407950708F061
:1032F00094CF8A859B8508C08A859B8505C080E020
:1033000090E002C08FEF9FEF2B960FB6F894DEBFD0
:103310000FBECDBFDF91CF911F910F91FF90EF9026
:10332000DF90CF90BF90AF909F908F907F906F90E5
:103330005F904F903F902F9008954F925F926F92C1
:103340007F928F929F92AF92BF92CF92DF92EF9235
:10335000FF920F931F93CF93DF93182F5B01EA0126
:103360002115310559F488EE93E0FA0127EC129FFC
:10337000E00DF11D1124908B878708C0FA0147ECFE
:10338000849FE00DF11D1124308B27870F2EF4E66A
:10339000EF2EF12CF02D0CE021E0412FBE01C501F4
:1033A0000E9491184C01892B09F057C04E0167EC1F
:1033B000169F800C911C112481E090E0F401908B09
:1033C00087870DE021E0412FBE01C5010E949118C1
:1033D000885D92402C013C016894CC24C1F8D12C2A
:1033E000F5E5CF16D1040CF07DC0F601EE0FFF1FFE
:1033F000E80DF91D27853089C301072C000CAA0BA5
:10340000BB0B820F931FA11DB11D0097A140B105F9
:1034100050F0F601EE0FFF1FE80DF91D8FEF9FEF43
:10342000908B878709C0F601EE0FFF1FE80DF91D8D
:10343000240D351D308B27870CE00C0D0F2EF2E389
:10344000EF2EF12CF02D21E0412FBE01C5010E948D
:1034500091186FEFC61AD60AC3CFCC24C394D12CCF
:1034600085E5C816D104F4F5AE01E7EC1E9F400DCA
:10347000511D1124F601EE0FFF1FE40FF51F2785E4
:103480003089C401A0E0B0E0820F931FA11DB11DDF
:103490000097A140B10558F0C601880F991FFA01A5
:1034A000E80FF91F8FEF9FEF908B87870AC0C60147
:1034B000880F991FFA01E80FF91F280D391D308B6D
:1034C00027870CE00C0D0F2EF2E3EF2EF12CF02DE0
:1034D00021E0412FBE01C5010E9491182FEFC21AB1
:1034E000D20ABECFCE0147EC149F800D911D11244E
:1034F0000E94CA2DDF91CF911F910F91FF90EF9005
:10350000DF90CF90BF90AF909F908F907F906F9003
:103510005F904F9008952F923F924F925F926F92DB
:103520007F928F929F92AF92BF92CF92DF92EF9253
:10353000FF920F931F93CF93DF93CDB7DEB7CC5B92
:10354000D1090FB6F894DEBF0FBECDBF5B014A01B3
:103550003901C555DF4FC882CB5AD040C455DF4F23
:10356000D882CC5AD040C355DF4FE882CD5AD040E4
:10357000C255DF4FF882CE5AD040C155DF4F088385
:10358000CF5AD040C055DF4F1883C05BD04024E8ED
:1035900030E033235CF0482F50E0421753071CF013
:1035A000182F121B04C02C503109F3CF10E0111159
:1035B000D6C160E788E792E00E94C00D60E488E72A
:1035C00092E00E94D20D88E792E00E94DC0D60E05C
:1035D00070E0CE0185559F4F0E94272A60E788E75B
:1035E00092E00E94C00D60E188E792E00E94D20D57
:1035F00088E792E00E94DC0DC4014196CF54DF4F72
:1036000099838883C15BD04060E070E00E94F10D37
:10361000F401B296CD54DF4FF983E883C35BD04009
:1036200060E070E0CF010E94F10D6401F3E3CF0E82
:10363000D11C60E070E0C6010E94F10D15BCF501DF
:103640000784F089E02DCB54DF4FF983E883C55B15
:10365000D0402501F7EC4F0E511CF2010784F08990
:10366000E02DC954DF4FF983E883C75BD040750173
:10367000F2E7EF1AFEEFFF0AF7010784F089E02D69
:10368000C754DF4FF983E883C95BD0401501FBEADB
:103690002F1AFDEF3F0AF1010784F089E02DC55490
:1036A000DF4FF983E883CB5BD0408AEAE6E1F1E0C3
:1036B000DE01119601900D928A95E1F78AEAFE01EA
:1036C0003196D5011F9601900D928A95E1F7D501AB
:1036D000AA52BF4F8AEAFE01319601900D928A9557
:1036E000E1F7D501A356BE4F8AEAFE01319601905B
:1036F0000D928A95E1F7D501AC59BD4F8AEAFE01DA
:10370000319601900D928A95E1F760E788E792E0A3
:103710000E94C00D60E188E792E00E94D20D88E728
:1037200092E00E94DC0D6FEF7FE0C4010E94F10D7A
:103730008CEA92E00E94B1329C01A501B30180E0C5
:103740000E94C716CB54DF4F28813981C55BD0401A
:10375000A501B30180E00E949D19F501658576857C
:103760008CEA92E00E94CF324AEA50E064E070E0D6
:10377000C5010F960E94B73260E788E792E00E9489
:10378000C00D60E188E792E00E94D20D88E792E0E8
:103790000E94DC0D60E070E0C4010E94F10DF401B4
:1037A00014826FEF7FE0CF54DF4F88819981C15B36
:1037B000D0400E94F10D8EEA92E00E94B1329C014D
:1037C000A501B30181E00E94C716C954DF4F2881CB
:1037D0003981C75BD040A501B30181E00E949D19EA
:1037E000F201658576858EEA92E00E94CF324AEA40
:1037F00050E06EEA70E0C2010F960E94B73260E7B7
:1038000088E792E00E94C00D60E188E792E00E94A4
:10381000D20D88E792E00E94DC0D60E070E0CF54AA
:10382000DF4F88819981C15BD0400E94F10DF40186
:10383000158A6FEF7FE0CD54DF4F88819981C35B9C
:10384000D0400E94F10D80EB92E00E94B1329C01C9
:10385000A501B30182E00E94C716C754DF4F28813B
:103860003981C95BD040A501B30182E00E949D1956
:10387000F7016585768580EB92E00E94CF324AEAB7
:1038800050E068E571E0C7010F960E94B73260E72B
:1038900088E792E00E94C00D60E188E792E00E9414
:1038A000D20D88E792E00E94DC0D60E070E0CD541C
:1038B000DF4F88819981C35BD0400E94F10DF401F4
:1038C00016A26FEF7FE0C6010E94F10D82EB92E03D
:1038D0000E94B1329C01A501B30183E00E94C7168A
:1038E000C554DF4F28813981CB5BD040A501B3019E
:1038F00083E00E949D19F1016585768582EB92E057
:103900000E94CF324AEA50E062E072E0C1010F96B5
:103910000E94B73260E788E792E00E94C00D60E144
:1039200088E792E00E94D20D88E792E00E94DC0DC9
:1039300060E070E0C6010E94F10DF40117AA60E793
:1039400088E792E00E94C00D60E488E792E00E9460
:10395000D20D88E792E00E94DC0D83E085BD123035
:10396000A1F5109273021092710281E0809303011D
:1039700010927002809302018FE08093010160E059
:1039800080EC92E00E94C1326091710281EC92E081
:103990000E94C1326091030183EC92E00E94C13227
:1039A0006091700284EC92E00E94C1326091020149
:1039B00085EC92E00E94C1326091010186EC92E0B8
:1039C0000E94C13285B18B7F85B9143059F461E012
:1039D00080917302811160E06093730280EC92E049
:1039E0000E94C132153059F461E0809102018111C9
:1039F00060E06093020185EC92E00E94C1321730D2
:103A0000B1F481E090917002911180E08093700296
:103A1000813021F485B1846085B903C085B18B7F85
:103A200085B96091700284EC92E00E94C132193035
:103A300059F461E080917102811160E0609371023C
:103A400081EC92E00E94C1321B3059F461E0809118
:103A50000301811160E06093030183EC92E00E9416
:103A6000C132C454DF4F0FB6F894DEBF0FBECDBFD6
:103A7000DF91CF911F910F91FF90EF90DF90CF904A
:103A8000BF90AF909F908F907F906F905F904F907E
:103A90003F902F9008952091020121113FC087305F
:103AA000910508F43FC04091000120916E023091D1
:103AB0006F02240F311D47FD3A9530936F0220931A
:103AC0006E02281739073CF090936F0280936E02C4
:103AD0002FEF2093000122273327281B390B409119
:103AE0006E0250916F02241735073CF030936F023D
:103AF00020936E0281E080930001FB018081882386
:103B000041F010926F0210926E028FEF80930001CD
:103B1000108280916E0290916F0208958630910517
:103B200020F0089580E090E0089580E090E008950E
:103B3000FA0190819617E9F0691770F4292F30E0A7
:103B4000261B3109482F50E0421753071CF4981BDD
:103B500090830FC060830DC0262F30E0291B3109F0
:103B6000482F50E0421753071CF4890F808301C08F
:103B70006083808120E2829FC001112408958F928A
:103B80009F92AF92BF92DF92EF92FF920F931F939B
:103B9000CF93DF938C0120E030E04AE754E460915A
:103BA00012017091130180911401909115010E94EE
:103BB000CB310E940E314B015C019B01ADECBCECA2
:103BC0000E945732969587959695879596958795F5
:103BD0009C01220F331F880F991F880F991F880F90
:103BE000991F820F931F9401281B390BC901D22EF4
:103BF00099279401281B390B0E945732AC01569526
:103C0000479556954795569547959A010E94573284
:103C10009695879596958795969587959C01220F01
:103C2000331F880F991F880F991F880F991F820FC4
:103C3000931F9A01281B390BC901E22E9A01281BF8
:103C400031090E945732AC015695479556954795D4
:103C5000569547959A010E94573296958795969565
:103C60008795969587959C01220F331F880F991F82
:103C7000880F991F880F991F820F931F9A01281B85
:103C8000390BC901F22E9A01281B31090E945732C3
:103C9000AC015695479556954795569547959A0187
:103CA0000E94573296958795969587959695879514
:103CB0009C01220F331F880F991F880F991F880FAF
:103CC000991F820F931FD42FD81B60E788E792E0DB
:103CD0000E94C00D60E188E792E00E94D20D88E763
:103CE00092E00E94DC0DC0E0CA3008F04AC0CD1757
:103CF00028F46FEF7FE0C8010E94F10DCF1530F47A
:103D00006FEF7FE0C80141960E94F10DCE1530F4AF
:103D10006FEF7FE0C80182960E94F10DCD1530F45F
:103D20006FEF7FE0C801C3960E94F10D3FEF83EC77
:103D300099E0315080409040E1F700C0000060E021
:103D400070E0C8010E94F10D60E070E0C80141968A
:103D50000E94F10D60E070E0C80182960E94F10DB2
:103D600060E070E0C801C3960E94F10D2FEF33ECC4
:103D700089E0215030408040E1F700C00000CF5F73
:103D8000B3CFDF91CF911F910F91FF90EF90DF9014
:103D9000BF90AF909F908F900895CF93DF93CDB752
:103DA000DEB7C054D4400FB6F894DEBF0FBECDBF0F
:103DB000CE0101960E94602846E463E0CE018D9614
:103DC0000E942E2D44E462E0CE018C509F4F0E9451
:103DD0002E2D42E461E0CE0185549E4F0E942E2D8F
:103DE00040E460E0CE018E579D4F0E942E2D66E488
:103DF000CE01875B9C4F0E94E40D64E489E493E06C
:103E00008C0F9D1F41960E94E40D62E489E493E0CB
:103E10008C0F9D1F82960E94E40D60E489E493E07C
:103E20008C0F9D1FC3960E94E40D60E4CE01835762
:103E30009C4F0E94F50960E4CE0182569C4F0E947F
:103E40001F2ACE018C559C4F0E94BF2A84B18160ED
:103E500084B984B1846084B912E3E12EF12C00E0CE
:103E600010E027E046E250E067E270E0CE018B55BB
:103E70009C4F0E94800926E04CE250E06DE270E029
:103E8000CE018E549C4F0E94800920E04FE250E00A
:103E900060E370E0CE0181549C4F0E94800927E0CE
:103EA00043E250E064E270E0CE0184539C4F0E94F4
:103EB000800926E046E250E067E270E0CE018752DA
:103EC0009C4F0E94800925E049E250E06AE270E0E0
:103ED000CE018A519C4F0E94800924E043E250E0C9
:103EE00064E270E0CE018D509C4F0E94C80C27E028
:103EF00049E250E06AE270E083EF93E08C0F9D1F8F
:103F000003960E94C80C26E049E250E06AE270E0A5
:103F100083EF93E08C0F9D1F06960E94C80C24E04F
:103F200049E250E06AE270E083EF93E08C0F9D1F5E
:103F300009960E94C80CC150DC4F1882CF5FD34055
:103F4000C050DC4F1882C050D440CF5EDB4F188287
:103F5000C151D44081E0CE5EDB4F8883C251D44052
:103F6000CD5EDB4F1882C351D440CC5EDB4F8883DB
:103F7000C451D440CB5EDB4F1882C551D440CA5ED9
:103F8000DB4F8883C651D440C95EDB4F1882C751CE
:103F9000D440C85EDB4F8883C851D440C75EDB4F36
:103FA0001882C951D440C65EDB4F8883CA51D440C1
:103FB000C55EDB4F1882CB51D440C45EDB4F888393
:103FC000CC51D440C35EDB4F1882CD51D44088E041
:103FD000E0ECF1E0DE01A25EBB4F01900D928A950C
:103FE000E1F7789480E090E00E94A9328D8382E02E
:103FF00090E00E94A9328CAB83E090E00E94A9324D
:104000008DAB82E090E00E94A932C550DF4F8883DB
:10401000CB5FD04083E090E00E94A932C450DF4FD4
:104020008883CC5FD04082E090E00E94A932CE53DA
:10403000DE4F8883C25CD14083E090E00E94A932C9
:10404000CD53DE4F8883C35CD14082E090E00E9474
:10405000A932C757DD4F8883C958D24083E090E02A
:104060000E94A932C657DD4F8883CA58D2404AEA17
:1040700050E064E070E0CE01CC960E9499324AEAAA
:1040800050E06EEA70E0CE018D5F9E4F0E94993243
:104090004AEA50E068E571E0CE0186539E4F0E94E7
:1040A00099324AEA50E062E072E0CE018F569D4FAD
:1040B0000E9499328CEA92E00E94B132BC01CE019A
:1040C0008D960E94AB2F8EEA92E00E94B132BC0125
:1040D000CE018C509F4F0E94AB2F80EB92E00E944C
:1040E000B132BC01CE0185549E4F0E94AB2F82EBB2
:1040F00092E00E94B132BC01CE018E579D4F0E94CA
:10410000AB2F8CEB92E00E94A93280930F018DEBD4
:1041100092E00E94A93280930E018EEB92E00E9401
:10412000A93280930D018FEB92E00E94A932809317
:10413000720280EC92E00E94A9328093730281ECBB
:1041400092E00E94A9328093710282EC92E00E9478
:10415000A9328E8383EC92E00E94A93280930301FE
:1041600084EC92E00E94A932182F8093700285ECB3
:1041700092E00E94A9328093020186EC92E00E94B4
:10418000A93280930101113019F485B1846085B999
:1041900068E1CE018D960E94432DCE018D960E943E
:1041A000CA2D68E1CE018C509F4F0E94432DCE0155
:1041B0008C509F4F0E94CA2D68E1CE0185549E4FBE
:1041C0000E94432DCE0185549E4F0E94CA2D68E166
:1041D000CE018E579D4F0E94432DCE018E579D4F8D
:1041E0000E94CA2D8FE7C256DC4F8883CE59D34038
:1041F00085B1816085B92FEF33EC49E02150304023
:104200004040E1F700C0000085B18E7F85B95FEFC7
:1042100083EC99E0515080409040E1F700C00000ED
:104220004D9B05C0CE01875B9C4F0E94BF1DC35CA8
:10423000DB4F1882CD53D440612C712CC45CDB4F12
:104240001882CC53D440C05CDB4F1882C054D44099
:10425000212CC15CDB4F1882CF53D440CC5CDB4FA8
:104260001882C453D440C25CDB4F1882CE53D44072
:10427000CD5CDB4F1882C353D440C55CDB4F188242
:10428000CB53D440C75DDB4F19821882C952D4404A
:10429000CB5CDB4F1882C553D440412C512CCF5CF2
:1042A000DB4F19821882C153D440C65CDB4F1882A1
:1042B000CA53D440C35DDB4F19821882CD52D4401B
:1042C000C75CDB4F1882C953D440C55DDB4F1982F0
:1042D0001882CB52D440C85CDB4F1882C853D440FC
:1042E000CA5DDB4F19821882C652D440C95CDB4FCD
:1042F0001882C753D440C15DDB4F19821882CF5258
:10430000D440812C912CEFEFC85DDB4FE883C8527D
:10431000D440B12CFFEFCA5CDB4FF883C653D440C6
:10432000CE0101960E94D328CE018A519C4F0E9453
:10433000A709813011F43A8001C0312C332059F1A2
:10434000C256DC4FC880CE59D340C156DC4FD8800E
:10435000CF59D340C056DC4FE880C05AD340CF5528
:10436000DC4FF880C15AD340CE55DC4F0881C25A89
:10437000D340CD55DC4F1881C35AD3409E012D50F8
:104380003C4FAE01475B5C4FBE01635D7F4F89814F
:104390000E948B1AC5CF8A81882309F463C085B136
:1043A000846085B981E0C050DC4F8883C050D44020
:1043B000CA5CDB4F2881C653D440211134C06C81C4
:1043C0008981909171029F93909173029F934DB751
:1043D0005EB74C5251090FB6F8945EBF0FBE4DBF89
:1043E000ADB7BEB711969CE2FE01319601900D92D9
:1043F0009A95E1F7AB2CFE01E25EFB4F6F019E0147
:1044000023573C4F79018E01075B1C4F2E583F4FBD
:10441000AE01435D5F4F0E94C0170FB6F894DEBF38
:104420000FBECDBF14C06C81A0907302CB2CCE0107
:10443000825E9B4F7C018E0103571C4F9E01275BC0
:104440003C4FAE01435D5F4F89810E94B81180915E
:104450007102811107C02C81498160E9CE0101966A
:104460000E94072A8B81882309F48DC0C35CDB4F2F
:104470009881CD53D440992379F180E090E02B2DA1
:1044800030E0821793070CF07EC0398127EC289F1B
:10449000F001299FF00D112441E050E04C0F5D1F09
:1044A000E40FF51F26A5321315C027EC289FF00155
:1044B000299FF00D1124E40FF51F24A5222351F0AC
:1044C00027EC289FF001299FF00D1124E40FF51F20
:1044D00021E025A70196D3CFCA5CDB4F5881C65394
:1044E000D44051112BC08981909171029F93EDB7F7
:1044F000FEB7BC970FB6F894FEBF0FBEEDBFADB7C9
:10450000BEB711969CE2FE01319601900D929A95EC
:10451000E1F7EB2C8E01025E1B4F9E0123573C4FAF
:10452000AE01475B5C4FBE01635D7F4F0E94451249
:104530000FB6F894DEBF0FBECDBF10C0EB2C8E01BE
:10454000025E1B4F9E0123573C4FAE01475B5C4F01
:10455000BE01635D7F4F89810E94D81280917102F4
:10456000811107C02C81498160E8CE0101960E942B
:10457000072A8989882339F080917002811103C04C
:1045800085B18B7F85B989858823B1F08F81988526
:104590009BAB8AABC750DF4F99838883C95FD040FC
:1045A000C054DE4F99838883C05CD140C957DD4F2A
:1045B00099838883C758D2408D85882309F453C1D5
:1045C0008B8590910F01891306C09C85C256DC4FE4
:1045D0009883CE59D340823031F43C85C45CDB4FA4
:1045E0003883CC53D440853061F4CC5EDB4F1882E5
:1045F000C451D4409C85990FC85CDB4F9883C85345
:10460000D440803161F4CE5EDB4F1882C251D44079
:104610009C85990FC95CDB4F9883C753D440813187
:1046200061F4CA5EDB4F1882C651D4409C85990F55
:10463000C75CDB4F9883C953D440823161F4C85EB4
:10464000DB4F1882C851D4409C85990FC65CDB4F64
:104650009883CA53D440833161F4C65EDB4F18821D
:10466000CA51D4409C85990FCB5CDB4F9883C553CE
:10467000D440843161F4C45EDB4F1882CC51D44005
:104680009C85990FC55CDB4F9883CB53D440853113
:10469000B9F44C85CD5CDB4F4883C353D440CE0185
:1046A0008E549C4F0E94A709182FCE0181549C4F15
:1046B0000E94A709180FC25CDB4F1883CE53D44069
:1046C0008B85863181F45C85CC5CDB4F5883C45389
:1046D000D440CE018B559C4F0E94A709C15CDB4F93
:1046E0008883CF53D4408B85873191F42C84CE01BD
:1046F00084539C4F0E94A709182FCE0187529C4FCC
:104700000E94A709180FC05CDB4F1883C054D44027
:104710008B85803409F062C08C85803408F052C0EB
:1047200000E010E08B2D90E008171907A4F587EC46
:10473000809FF001819FF00D112481E090E08C0FAB
:104740009D1FE80FF91F85A5882311F187EC809F35
:104750007001819FF00C11248DE290E08C0F9D1F61
:104760008E0D9F1D0E94CA2D81E1809FF001819FC7
:10477000F00D112429E433E02C0F3D1FE20FF31F4D
:104780001582E1E0F0E0EC0FFD1FEE0DFF1D15A618
:104790000F5F1F4FC7CF8989882329F0CE56DC4F82
:1047A0001882C259D34080E090E0883091058CF4A3
:1047B000EEE1F4E0EC0FFD1FE80FF91F20E8208385
:1047C0000196F3CF31E0C35CDB4F3883CD53D44047
:1047D00005C0C35CDB4F1882CD53D4408B858B372B
:1047E00009F041C087E090E0992354F0EEE1F4E055
:1047F000EC0FFD1FE80FF91F20E820830197F4CF8D
:10480000CE018D960E94CA2DCE018C509F4F0E94E2
:10481000CA2DCE0185549E4F0E94CA2DCE018E57BF
:104820009D4F0E94CA2DC85DDB4F4881C852D440BD
:104830004423A1F0C25BDC4F1882CE54D340C15A4E
:10484000DC4F1882CF55D340C059DC4F1882C05777
:10485000D340CF57DC4F1882C158D340CE56DC4FDF
:104860001882C259D3408889882309F442C000D0F5
:1048700000D000D0ADB7BEB7119686E0FE01E2567B
:10488000FC4F01900D928A95E1F78DB79EB7419745
:104890000FB6F8949EBF0FBE8DBFADB7BEB71196D1
:1048A00081E1FE01E357FC4F01900D928A95E1F7FB
:1048B000CE018D969F938F93845E9C4F9F938F9391
:1048C000EDB7FEB7BC970FB6F894FEBF0FBEEDBFB5
:1048D000ADB7BEB711968CE2FE01319601900D92F4
:1048E0008A95E1F70E945A130FB6F894DEBF0FBE07
:1048F000CDBF0E94002D009174021091750220918D
:10490000760230917702065F1F4F2F4F3F4F0617F9
:1049100017072807390708F097C21989112309F4E6
:104920004FC1CC5CDB4F3881C453D440311107C038
:10493000CE018B559C4F0E94A709813039F0CC5C89
:10494000DB4F4881C453D440403249F4CA5CDB4F4A
:104950005881C653D440552321F0012F03C0032DA5
:1049600001C0032D011120C0CC5CDB4F8881C453F2
:10497000D440811107C0CE018B559C4F0E94A709DE
:10498000882339F0CC5CDB4F9881C453D4409034F9
:1049900041F4CA5CDB4FE881C653D440E13009F0F2
:1049A000012F011107C00CC0CA5CDB4F1882C6532F
:1049B000D44006C0F1E0CA5CDB4FF883C653D44054
:1049C000CC5CDB4F2881C453D440222371F0CE014C
:1049D0008B559C4F0E94A709C15CDB4F3881CF5398
:1049E000D440381721F0812F03C0832D01C0832DBF
:1049F000882329F0CC5CDB4F1882C453D440CD5CB3
:104A0000DB4F4881C353D440411107C0CE018E54BF
:104A10009C4F0E94A709813039F0CD5CDB4F588153
:104A2000C353D440503229F481E0B81621F0012F4D
:104A300003C0032D01C0032D0023E9F089E493E0B6
:104A40008C0F9D1F41960E946A0F89E493E08C0FA2
:104A50009D1F82960E946A0F89E493E08C0F9D1F30
:104A6000C3960E946A0FC150DC4F1882CF5FD340BB
:104A7000BB24B3945AC0CD5CDB4F9881C353D44060
:104A8000911107C0CE0181549C4F0E94A70981302B
:104A900039F0CD5CDB4FE881C353D440E03619F4E4
:104AA000F4E0BF12012F002349F0C150DC4F1882FF
:104AB000CF5FD3406894BB24B2F837C0CD5CDB4FE6
:104AC0002881C353D44021110EC0CE018E549C4F77
:104AD0000E94A709811107C0CE0181549C4F0E94FA
:104AE000A709882339F0CD5CDB4F3881C353D4400C
:104AF000303419F442E0B412012F0023B1F0C15058
:104B0000DC4F1882CF5FD34089E493E08C0F9D1F68
:104B100082960E946A0F89E493E08C0F9D1FC396D2
:104B20000E946A0F6894BB24B1F8CD5CDB4F5881BA
:104B3000C353D4405523D1F0CE018E549C4F0E94D4
:104B4000A709082FCE0181549C4F0E94A70990E02D
:104B5000800F911DC25CDB4FE881CE53D4402E2FD5
:104B600030E08217930721F0812F03C0832D01C00D
:104B7000832D882329F0CD5CDB4F1882C353D440AA
:104B80002220C9F0CE0184539C4F0E94A709082F10
:104B9000CE0187529C4F0E94A70990E0800F911D83
:104BA000C05CDB4FF881C054D4402F2F30E0821717
:104BB000930721F402C0132D01C0132D1111212CD4
:104BC000211007C0CE0187529C4F0E94A709813057
:104BD00019F020E2221209C0C85DDB4F3881C852AB
:104BE000D440332311F033243394311036C02110D4
:104BF00007C0CE0184539C4F0E94A709813019F051
:104C000040E6241209C0C85DDB4F5881C852D44029
:104C1000523011F033243394311025C021100EC0CE
:104C2000CE0187529C4F0E94A709811107C0CE0177
:104C300084539C4F0E94A709882319F080E428120E
:104C400009C0C85DDB4F9881C852D440913011F043
:104C50003324339431100EC013C0C85DDB4F18826B
:104C6000C852D4400DC0E2E0C85DDB4FE883C852B3
:104C7000D44006C0F1E0C85DDB4FF883C852D44091
:104C800020E2AE014F5F5B4F65E0CE018C559C4F3B
:104C90000E94DE2B92504C01E12CC95CDB4F088155
:104CA000C753D4409E012E5E3B4FAE014F5E5B4F1B
:104CB00064E0CE018C559C4F0E94072B96958795FA
:104CC000969587959695879520910E01BE017C5FFC
:104CD000AC01249FC001259F900D11240E944B1D03
:104CE000C15DDB4F99838883CF52D440C75CDB4FD3
:104CF0000881C953D4409E012A5E3B4FAE014B5EF2
:104D00005B4F65E0CE018C559C4F0E94072BC55D23
:104D1000DB4F99838883CB52D440C65CDB4F08813C
:104D2000CA53D4409E01285E3B4FAE01495E5B4FA3
:104D300066E0CE018C559C4F0E944B2BC35DDB4F30
:104D400099838883CD52D4406894EE24E5F8C55CFD
:104D5000DB4F0881CB53D4409E01245E3B4FAE0114
:104D6000455E5B4F64E0CE018C559C4F0E94C92A82
:104D7000C75DDB4F99838883C952D440E12CC85C5E
:104D8000DB4F0881C853D4409E012C5E3B4FAE01DF
:104D90004D5E5B4F61E0CE018C559C4F0E94C92A4D
:104DA000929582958F7089279F708927CA5DDB4F06
:104DB00099838883C652D440CB5CDB4F0881C553AE
:104DC000D4409E01265E3B4FAE01475E5B4F67E0DD
:104DD000CE018C559C4F0E94C92A880F991F880FBD
:104DE000991FCF5CDB4F99838883C153D440CB5C40
:104DF000DB4F0881C553D4409E01265E3B4FAE0178
:104E0000475E5B4F67E0CE018C559C4F0E949A2B0A
:104E10002C01440C551C440C551CAE01435E5B4FE9
:104E2000C45CDB4F6881CC53D440809101010E9467
:104E3000981D3C010E94002D6093740270937502CE
:104E40008093760290937702CE0182569C4F0E9407
:104E5000612ACA5DDB4F28813981C652D44040E0C7
:104E600050E0B401CE018D960E94622ECA5DDB4FE8
:104E700028813981C652D440C15DDB4F48815981B8
:104E8000CF52D440B401CE018C509F4F0E94622E6D
:104E9000CA5DDB4F28813981C652D44040E050E0E2
:104EA000B401CE0185549E4F0E94622ECA5DDB4F35
:104EB00028813981C652D440C15DDB4F4881598178
:104EC000CF52D440B401CE018E579D4F0E94622E26
:104ED00060E788E792E00E94C00D60E188E792E019
:104EE0000E94D20D88E792E00E94DC0DC85DDB4F86
:104EF0005881C852D440523009F053C0C12CD12C33
:104F00008B2D90E0C816D9060CF090C080917202EB
:104F100090E0FC01EE0FFF1FE95FFE4F40815181E1
:104F200027EC2C9DF0012D9DF00D112421E030E0A7
:104F30002C0F3D1FE20FF31F20A9FC01EC5FFE4F79
:104F4000E22EF12C008002C0EE0CFF1C0A94E2F766
:104F5000E40EF51E21E12C9DC0012D9D900D112424
:104F6000C75DDB4F08811981C952D4409201260DDB
:104F7000371DC35DDB4F48815981CD52D440C55D9B
:104F8000DB4F68817981CB52D440E9E4F3E0EC0F48
:104F9000FD1F8E0F9F1F0E94FE0FFFEFCF1ADF0A2B
:104FA000AFCFC85DDB4F2881C852D440211118C053
:104FB00000E010E08B2D90E008171907BCF521E107
:104FC000209FC001219F900D112449E453E04C0F14
:104FD0005D1F840F951F0E94770F0F5F1F4FEACF51
:104FE000C85DDB4F5881C852D4405130F9F400E01D
:104FF00010E0C75DDB4FE880F980C952D4408B2DAB
:1050000090E00817190794F421E1209FC001219F27
:10501000900D1124B701E9E4F3E0EC0FFD1F8E0FB2
:105020009F1F0E9400110F5F1F4FE9CF80917202F6
:1050300090E0FC01EE0FFF1FE95FFE4F40815181C0
:105040002C81FC01EC5FFE4FE22EF12C008002C0AF
:10505000EE0CFF1C0A94E2F7E40EF51E2E8530E0FC
:1050600000900D0102C0220F331F0A94E2F7CF5CBB
:10507000DB4F48815981C153D440240F351F260D81
:10508000371DC75DDB4F08811981C952D440C35D0C
:10509000DB4F48815981CD52D440C55DDB4F6881DB
:1050A0007981CB52D440CE0183579C4F0E94950BFF
:1050B00037C96FEF7FEF81E090E00E94A61108955D
:1050C000DC0181E050968C9350975B961C925B9725
:1050D0001D961C921D9713961C92139720E030E0AA
:1050E000203131053CF4FD01E20FF31F148E2F5FD8
:1050F0003F4FF6CF089589E792E00E948F2C8823D6
:10510000D1F389E792E00E948F2C8823D1F389E7BD
:1051100092E00E94992C883FA0F708954130B1F4A5
:10512000E62FF0E0F595E795F595E795F595E79588
:10513000677021E030E002C0220F331F6A95E2F76A
:10514000E80FF91F848D282B248F0895E62FF0E0B7
:10515000F595E795F595E795F595E795677021E065
:1051600030E002C0220F331F6A95E2F7E80FF91F03
:105170002095848D2823248F0895262F30E035959F
:1051800027953595279535952795820F931FFC0117
:10519000248D677081E090E002C0880F991F6A95A6
:1051A000E2F782230895FF920F931F93CF93DF932B
:1051B000EC0119821A8218861C861E861F8689E7D2
:1051C00092E00E948F2C882309F41BC189E792E0AA
:1051D0000E94992C182F80E8810F883710F41A8FBD
:1051E00010C1183F08F00DC1012F11237CF12A8D49
:1051F00030E08C8190E080579F4F2817390731F5B8
:105200001883CE010E947B288B83882391F0F8803D
:105210006F2DCE010E94BD28811133C081E08983AA
:105220008B8D8F5F8B8F41E06F2DCE010E948E287A
:1052300028C081E08A83688140E0CE010E948E28E8
:105240008B8D8823F1F081508B8F1BC00023CCF015
:105250002A8D30E08C8190E080589F4F28173907C5
:1052600081F41883CE010E947B2881E08A836881C3
:1052700040E0CE010E948E288B8D882311F0815052
:105280008B8F8B8D811103C081E0888B01C0188AC0
:105290000023BCF02A8D30E08C8190E080529F4F3B
:1052A0002817390771F481E08887CE010E947B2896
:1052B000212F30E090E8899F200D311D11243F837C
:1052C0002E8300230CF12A8D30E08C8190E08055F4
:1052D0009F4F28173907C1F481E08C871A87CE01C8
:1052E0000E947B288B878A858B3771F41B8E81E027
:1052F000888B80E090E08031910534F4FE01E80F66
:10530000F91F148E0196F7CF002364F02A8D30E048
:105310008C8190E080539F4F2817390719F481E062
:105320008E871D878A8D803F09F06BC01F3779F407
:10533000173F09F466C089E792E00E948F2C88230A
:10534000D1F389E792E00E94992C182FF1CF81E0E8
:105350008F8789E792E00E948F2C8823D1F389E719
:1053600092E00E94992C898B873F09F44AC089E713
:1053700092E00E948F2C8823D1F389E792E00E946B
:10538000992C8A8B873FE9F189E792E00E948F2C64
:105390008823D1F389E792E00E94992C8B8B873F79
:1053A00081F189E792E00E948F2C8823D1F389E76D
:1053B00092E00E94992C8C8B873F19F189E792E04B
:1053C0000E948F2C8823D1F389E792E00E94992CC8
:1053D0008D8B873FB1F000E0173F99F089E792E0AD
:1053E0000E948F2C8823D1F389E792E00E94992CA8
:1053F000182F873F89F3FE01E00FF11D868B0F5FA9
:10540000EBCFDF91CF911F910F91FF900895CF9334
:10541000DF93D42FC22FFC018581680F89E792E0CA
:105420000E94712C6D2F89E792E00E94712C6C2FE5
:1054300089E792E00E94712CDF91CF910895FC01E1
:1054400061831282138214821582108208950F9351
:105450001F93CF93DF938C01EB0160E788E792E025
:105460000E94C00D60E488E792E00E94D20D88E7B8
:1054700092E00E94DC0D60E688E792E00E94C00D99
:10548000F801618188E792E00E94D20DBE01729519
:1054900062956F7067277F70672788E792E00E94A8
:1054A000D20D6C2F6295607F88E792E00E94D20D4A
:1054B00088E792E00E94DC0DDF91CF911F910F9160
:1054C00008950F931F93CF93DF93EC010E94002D5B
:1054D0000A811B812C813D810B5F1F4F2F4F3F4F56
:1054E000061717072807390770F40E94002D6A83F2
:1054F0007B838C839D83688180E2689FB001112447
:10550000CE010E94272ADF91CF911F910F9108951C
:105510001F93CF93DF93EB01142F60E788E792E0AE
:105520000E94C00D60E188E792E00E94D20D88E7FA
:1055300092E00E94DC0D60E688E792E00E94C00DD8
:10554000612F88E792E00E94D20DBE0172956295AC
:105550006F7067277F70672788E792E00E94D20DFF
:105560006C2F6295607F88E792E00E94D20D88E7F9
:1055700092E00E94DC0DDF91CF911F91089587E8A2
:1055800080937A0082EF80937E0080E180937F0099
:105590000895EF920F93606460937C00E0927B002B
:1055A000EAE7F0E080818064808380917A0086FD64
:1055B000FCCF80917800909179009695879596958B
:1055C0008795F9016081662339F0FA018083809123
:1055D00078009091790018C09927FA01408150E035
:1055E000BA01625E7F4F681779072CF04E5151095E
:1055F000841795071CF481E0F9018083802F90E0E7
:10560000880F991F880F991F0F91EF900895EF92BF
:105610000F93606460937C00E0927B00EAE7F0E027
:1056200080818064808380917A0086FDFCCF8091A8
:105630007800909179009695879596958795F901D0
:105640006081662359F0FA018083FC01FF27EE0F89
:10565000FF1FE655FF4E859194911AC09927FA01D4
:10566000408150E0BA01625E7F4F681779072CF0E5
:105670004E515109841795071CF481E0F90180838C
:10568000E02FF0E0EE0FFF1FE655FF4E859194915D
:105690000F91EF900895EF920F93606460937C00F8
:1056A000E0927B00EAE7F0E0808180648083809173
:1056B0007A0086FDFCCF80917800909179009695D4
:1056C000879596958795F9016081662329F0FA01FF
:1056D000808381111EC026C09927FA01408150E0C5
:1056E000BA01625E7F4F681779072CF04E5151095D
:1056F000841795071CF481E0F90180830023A9F049
:10570000E02FF0E0EE0FFF1FE655FF4E85919491DC
:105710000EC0FC01FF27EE0FFF1FE655FF4E8591DF
:10572000949105C08FEF9FEF02C08FEF9FEF0F9115
:10573000EF900895EF920F93606460937C00E09285
:105740007B00EAE7F0E080818064808380917A00CA
:1057500086FDFCCF80917800909179009695879591
:1057600096958795F9016081662359F0FA01808347
:10577000FC01FF27EE0FFF1FE655F14F8591949135
:105780001AC09927FA01408150E0BA01625E7F4F4A
:10579000681779072CF04E515109841795071CF4AE
:1057A00081E0F9018083E02FF0E0EE0FFF1FE65566
:1057B000F14F859194910F91EF90089560646093FB
:1057C0007C0020937B00EAE7F0E0808180648083A6
:1057D00080917A0086FDFCCF87E090E018161906CC
:1057E00094F4DC01AA0FBB1FA40FB51FFC01E1500C
:1057F000F048EE0FFF1FE40FF51F208131812D933C
:105800003C930197EBCF8091780090917900FA0159
:105810009183808320E030E080E090E02830310503
:1058200064F4F901EE0FFF1FE40FF51F6081718131
:10583000860F971F2F5F3F4FF1CF969587959695CF
:1058400087959695879508951092CD008FE1809366
:10585000CC00E9ECF0E088E180838081806C80837B
:1058600086E08093CA000895CF93DF93DB01909187
:105870007B0280917C029813FACF90E0292F30E0D0
:10588000FD0101900020E9F73197EA1BFB0B2E1771
:105890003F07A0F480917B02E82FF0E0ED01C20FFA
:1058A000D31F2881E358FD4F20838F5F80937B02B5
:1058B000882314F410927B029F5FE0CF8091C80090
:1058C00085FF0CC08C918093CE0080917C028F5F0D
:1058D00080937C02882314F410927C02DF91CF9194
:1058E000089580917B02E82FF0E0E358FD4F60833C
:1058F0008F5F80937B02882314F410927B02809147
:10590000C80085FF0BC06093CE0080917C028F5F42
:1059100080937C02882314F410927C020895909165
:10592000FE028091FD02981711F081E0089580E059
:1059300008959091FE028091FD02981769F0E92F79
:10594000F0E0E150FD4F80819F5F9093FE0299232C
:1059500024F41092FE02089580E008951F920F92A1
:105960000FB60F9211248F93EF93FF93E0917C0277
:1059700080917B02E81759F0F0E0E358FD4F8081F9
:105980008093CE0080917C028F5F80937C02809117
:105990007C02882314F410927C02FF91EF918F9186
:1059A0000F900FBE0F901F9018951F920F920FB679
:1059B0000F9211248F939F93EF93FF938091FD0299
:1059C000E82FF0E09091CE00E150FD4F90838F5F83
:1059D0008093FD02882314F41092FD02FF91EF9151
:1059E0009F918F910F900FBE0F901F90189582E09E
:1059F00084BD9AEF97BD80936E0083E085BD0895C6
:105A000060917F0370918003809181039091820364
:105A100008951F920F920FB60F9211248F939F93A8
:105A2000AF93BF9380917F0390918003A0918103F6
:105A3000B09182030196A11DB11D80937F039093C5
:105A40008003A0938103B0938203BF91AF919F9194
:105A50008F910F900FBE0F901F901895FC01DC01E5
:105A6000A754BF4F6C9311964C9310828CE08383A4
:105A700080E090E296838583ED53FF4F1082118280
:105A8000128213820895CF93DF93FC01A281A38336
:105A9000628370E0278130E0CB01820F931F813653
:105AA000910564F043E053E0249FC001259F900DD1
:105AB000349F900D11249287818714C0EC012C979C
:105AC000CC0FDD1FCE0FDF1F8F859889EB012C9740
:105AD000CC0FDD1FCE0FDF1F2F853889821B930B64
