:100000000C9456090C947E090C947E090C947E097C
:100010000C947E090C947E090C947E090C947E0944
:100020000C947E090C947E090C947E090C947E0934
:100030000C947E090C947E090C947E090C947E0924
:100040000C947E090C947E090C947E090C947E0914
:100050000C94800D0C943E2E0C947E090C947E0919
:100060000C947E090C94052E0C947E090C94DA2DC8
:100070000C947E090C947E090C947E090C947E09E4
:100080000C947E090C947E090C947E090C947E09D4
:100090000C947E090C947E090C947E090C947E09C4
:1000A0000C947E090C947E090C947E09FF03F603E0
:1000B000EF03E703DF03D703CF03C703BF03B8038F
:1000C000B003A803A003990391038A0382037B036F
:1000D00073036C0364035D0356034E03470340033D
:1000E000390331032A0323031C0315030E030703FB
:1000F0000003F902F202EB02E402DE02D702D002B0
:10010000C902C302BC02B502AF02A802A2029B024E
:1001100095028E02880281027B0275026F026802DC
:1001200062025C02560250024A0243023D0237025A
:1001300031022C02260220021A0214020E020902C7
:100140000302FD01F801F201EC01E701E101DC012C
:10015000D601D101CC01C601C101BC01B601B1017A
:10016000AC01A701A1019C01970192018D018801B9
:1001700083017E017901750170016B0166016101E6
:100180005D01580153014F014A01460141013D0102
:10019000380134012F012B01270122011E011A0110
:1001A000160112010D01090105010101FD00F9000F
:1001B000F500F100EE00EA00E600E200DE00DB0000
:1001C000D700D300D000CC00C800C500C100BE00DD
:1001D000BA00B700B400B000AD00AA00A600A300AA
:1001E000A0009D009A009700940090008D008B0065
:1001F0008800850082007F007C0079007700740011
:1002000071006F006C0069006700640062005F00AD
:100210005D005A0058005600530051004F004D0039
:100220004A00480046004400420040003E003C00B6
:100230003A00380036003400330031002F002D0022
:100240002C002A002800270025002400220021007D
:100250001F001E001D001B001A00190017001600C9
:100260001500140013001200110010000F000E0002
:100270000D000C000B000A0009000900080007002F
:10028000060006000500050004000400030003004A
:100290000200020001000100010001000000000056
:1002A000000000000000000000000000FF03F30356
:1002B000E703DB03CF03C303B803AD03A103960336
:1002C0008B03800375036A035F0354034A033F03F0
:1002D00035032A03200316030C030203F802EE027F
:1002E000E402DB02D102C802BE02B502AC02A302E4
:1002F0009902900288027F0276026D0265025C021A
:1003000054024B0243023B0233022B0223021B0224
:1003100013020B020402FC01F501ED01E601DE010E
:10032000D701D001C901C201BB01B401AD01A701D0
:10033000A001990193018D01860180017A01730169
:100340006D01670161015B01560150014A014501E0
:100350003F01390134012F01290124011F011A0134
:10036000150110010B0106010101FC00F700F3006B
:10037000EE00EA00E500E100DC00D800D400D00087
:10038000CC00C800C300C000BC00B800B400B0007E
:10039000AC00A900A500A2009E009B00970094005D
:1003A00091008D008A008700840081007E007B0020
:1003B00078007500720070006D006A0067006500CB
:1003C000620060005D005B0059005600540052005E
:1003D0004F004D004B0049004700450043004100DD
:1003E0003F003D003B003A00380036003400330047
:1003F000310030002E002C002B002A00280027009E
:10040000250024002300220020001F001E001D00E4
:100410001C001B001A001900180017001600150018
:100420001400130012001100100010000F000E0045
:100430000E000D000C000C000B000A000A00090061
:100440000900080008000700070006000600060073
:10045000050005000400040004000300030003007D
:10046000030002000200020002000200010001007D
:100470000100010001000100000000000000000078
:10048000000000000000000000000000000000006C
:10049000000000000000000000000000000000005C
:1004A000000000000000000000000000000000014B
:1004B0006A01BC0100023D027402A602D5020103DA
:1004C0002A03520378039C03BF03E10301042104C0
:1004D0003F045D047A049704B204CD04E8040205E5
:1004E0001B0534054C0564057C059305AA05C1056B
:1004F000D705ED05020617062C06410655066A06C5
:100500007D069106A506B806CB06DE06F0060307B3
:100510001507270739074A075C076D077F0790070C
:10052000A007B107C207D207E307F30703081308C0
:100530002308330842085208610870087F088F08B2
:100540009D08AC08BB08CA08D808E708F5080309E5
:10055000120920092E093C094A095709650973093E
:1005600080098E099B09A909B609C309D009DD09CB
:10057000EA09F709040A110A1D0A2A0A370A430A76
:10058000500A5C0A680A750A810A8D0A990AA50A46
:10059000B20ABE0AC90AD50AE10AED0AF90A040B31
:1005A000100B1C0B270B330B3E0B490B550B600B31
:1005B0006B0B770B820B8D0B980BA30BAE0BB90B50
:1005C000C40BCF0BDA0BE50BEF0BFA0B050C0F0C82
:1005D0001A0C250C2F0C3A0C440C4F0C590C630CC4
:1005E0006E0C780C820C8D0C970CA10CAB0CB50C1E
:1005F000BF0CC90CD40CDE0CE70CF10CFB0C050D88
:100600000F0D190D230D2C0D360D400D4A0D530DF8
:100610005D0D660D700D7A0D830D8D0D960D9F0D80
:10062000A90DB20DBC0DC50DCE0DD80DE10DEA0D15
:10063000F30DFC0D060E0F0E180E210E2A0E330EB2
:100640003C0E450E4E0E570E600E690E720E7B0E5E
:10065000840E8C0E950E9E0EA70EB00EB80EC10E17
:10066000CA0ED20EDB0EE40EEC0EF50EFE0E060FD9
:100670000F0F170F200F280F310F390F410F4A0F9F
:10068000520F5B0F630F6B0F740F7C0F840F8D0F76
:10069000950F9D0FA50FAD0FB60FBE0FC60FCE0F56
:1006A000D60FDE0FE60FEE0FF60FFF0F3502150225
:1006B000F801DB01C101A70190017901640150013A
:1006C0003D012C011A010B01FC00ED00E100D400FA
:1006D000C800BD00B200A8009E0096008D008500F5
:1006E0007E00760070006A0064005F0059005400CC
:1006F0004F004B00470043003F003B0038003500EF
:1007000032002F002C002A002800250024002100A0
:100710001F001D001C001B0019001700160015000B
:1007200014001300120010000F000E000E000D0048
:100730000C000C000B000A000A000A000900080067
:100740000700070007000600060006000600050077
:1007500005000500040041EE0E00BA170E003E4DE4
:100760000D001F8E0C00BAD90B00742F0B00BE8E2B
:100770000A000CF70900DE670900BAE008002B61E7
:100780000800C5E8070020770700DD0B07009FA6DB
:1007900006000F470600DDEC0500BA9705005F472D
:1007A000050086FB0400EFB304005D700400953083
:1007B000040062F4030090BB0300EE8503004F5376
:1007C0000300872303006EF60200DDCB0200AFA317
:1007D0000200C37D0200F75902002E3802004A18B9
:1007E000020031FA0100C8DD0100F7C20100A7A92B
:1007F0000100C3910100377B0100EE650100D75174
:100800000100E13E0100FB2C0100171C0100250C3A
:10081000010018FD0000E4EE00007BE10000D3D4ED
:100820000000E1C800009BBD0000F7B20000EBA88B
:100830000000709F00007D9600000B8E0000128665
:1008400000008C7E000072770000BD700000696AB5
:10085000000070640000CD5E00007B5900007554FC
:100860000000B84F00003E4B000005470000094360
:100870000000463F0000B93B00005E380000343500
:10088000000038320000662F0000BD2C00003A2A1C
:100890000000DC2700009F25000082230000842147
:1008A0000000A31F0000DC1D0000FF03FB03F70393
:1008B000F303EF03EB03E703E303DF03DB03D703F8
:1008C000D303CF03CB03C703C303BF03BB03B703E8
:1008D000B303AF03AB03A703A3039F039B039703D8
:1008E00093038F038B03870383037F037B037703C8
:1008F00073036F036B03670363035F035B035703B8
:1009000053034F034B03470343033F033B033703A7
:1009100033032F032B03270323031F031B03170397
:1009200013030F030B0307030303FF02FB02F7028A
:10093000F302EF02EB02E702E302DF02DB02D7027F
:10094000D302CF02CB02C702C302BF02BB02B7026F
:10095000B302AF02AA02A602A2029E029A02960265
:1009600092028E028A02860282027E027A02760257
:1009700072026E026A02660262025E025A02560247
:1009800052024E024A02460242023E023A02360237
:1009900032022E022A02260222021E021A02160227
:1009A00012020E020A0206020202FE01FA01F6011A
:1009B000F201EE01EA01E601E201DE01DA01D6010F
:1009C000D201CE01CA01C601C201BE01BA01B601FF
:1009D000B201AE01AA01A601A2019E019A019601EF
:1009E00092018E018A01860182017E017A017601DF
:1009F00072016E016A01660162015E015A015501D0
:100A000051014D014901450141013D0139013501C6
:100A100031012D012901250121011D0119011501B6
:100A200011010D01090105010101FD00F900F500A9
:100A3000F100ED00E900E500E100DD00D900D5009E
:100A4000D100CD00C900C500C100BD00B900B5008E
:100A5000B100AD00A900A500A1009D00990095007E
:100A600091008D008900850081007D00790075006E
:100A700071006D006900650061005D00590055005E
:100A800051004D004900450041003D00390035004E
:100A900031002D002900250021001D00190015003E
:100AA00011000D00090005000000FF03FB03F70320
:100AB000F303EF03EB03E703E303DF03DB03D703F6
:100AC000D303CF03CB03C703C303BF03BB03B703E6
:100AD000B303AF03AB03A703A3039F039B039703D6
:100AE00093038F038B03870383037F037B037703C6
:100AF00073036F036B03670363035F035B035703B6
:100B000053034F034B03470343033F033B033703A5
:100B100033032F032B03270323031F031B03170395
:100B200013030F030B0307030303FF02FB02F70288
:100B3000F302EF02EB02E702E302DF02DB02D7027D
:100B4000D302CF02CB02C702C302BF02BB02B7026D
:100B5000B302AF02AA02A602A2029E029A02960263
:100B600092028E028A02860282027E027A02760255
:100B700072026E026A02660262025E025A02560245
:100B800052024E024A02460242023E023A02360235
:100B900032022E022A02260222021E021A02160225
:100BA00012020E020A0206020202FE01FA01F60118
:100BB000F201EE01EA01E601E201DE01DA01D6010D
:100BC000D201CE01CA01C601C201BE01BA01B601FD
:100BD000B201AE01AA01A601A2019E019A019601ED
:100BE00092018E018A01860182017E017A017601DD
:100BF00072016E016A01660162015E015A015501CE
:100C000051014D014901450141013D0139013501C4
:100C100031012D012901250121011D0119011501B4
:100C200011010D01090105010101FD00F900F500A7
:100C3000F100ED00E900E500E100DD00D900D5009C
:100C4000D100CD00C900C500C100BD00B900B5008C
:100C5000B100AD00A900A500A1009D00990095007C
:100C600091008D008900850081007D00790075006C
:100C700071006D006900650061005D00590055005C
:100C800051004D004900450041003D00390035004C
:100C900031002D002900250021001D00190015003C
:100CA00011000D00090005000000000047051006B6
:100CB0009406F70649078E07CB07010831085E083E
:100CC0008708AE08D208F308130931094E096909EB
:100CD00084099D09B509CC09E209F8090D0A210A20
:100CE000350A480A5B0A6D0A7E0A8F0AA00AB00A12
:100CF000C00AD00ADF0AEE0AFC0A0B0B190B260BFE
:100D0000340B410B4E0B5B0B670B740B800B8C0B86
:100D1000970BA30BAE0BBA0BC50BD00BDA0BE50B85
:100D2000EF0BFA0B040C0E0C180C210C2B0C350CD1
:100D30003E0C470C500C5A0C630C6B0C740C7D0C65
:100D4000850C8E0C960C9F0CA70CAF0CB70CBF0C2F
:100D5000C70CCF0CD70CDE0CE60CEE0CF50CFD0C22
:100D6000040D0B0D120D1A0D210D280D2F0D360D32
:100D70003D0D430D4A0D510D570D5E0D650D6B0D6B
:100D8000720D780D7E0D850D8B0D910D970D9D0DBE
:100D9000A40DAA0DB00DB60DBC0DC10DC70DCD0D26
:100DA000D30DD90DDE0DE40DEA0DEF0DF50DFA0DA5
:100DB000000E050E0B0E100E150E1B0E200E250E2E
:100DC0002B0E300E350E3A0E3F0E440E490E4E0ECF
:100DD000530E580E5D0E620E670E6C0E710E760E7F
:100DE0007A0E7F0E840E890E8D0E920E970E9B0E3C
:100DF000A00EA40EA90EAE0EB20EB70EBB0EC00E04
:100E0000C40EC80ECD0ED10ED50EDA0EDE0EE20ED9
:100E1000E70EEB0EEF0EF30EF80EFC0E000F040FB4
:100E2000080F0C0F100F140F190F1D0F210F250F96
:100E3000290F2D0F310F340F380F3C0F400F440F87
:100E4000480F4C0F500F530F570F5B0F5F0F630F7F
:100E5000660F6A0F6E0F710F750F790F7C0F800F81
:100E6000840F870F8B0F8F0F920F960F990F9D0F87
:100E7000A00FA40FA70FAB0FAE0FB20FB50FB90F96
:100E8000BC0FC00FC30FC60FCA0FCD0FD10FD40FA9
:100E9000D70FDB0FDE0FE10FE40FE80FEB0FEE0FC4
:100EA000F20FF50FF80FFB0FFF0F000007000E0009
:100EB00015001C0023002A00310038003F004600C6
:100EC0004D0054005B0062006900700077007E00F6
:100ED00085008C0093009A00A100A800AF00B60026
:100EE000BD00C400CB00D200D900E000E700EE0056
:100EF000F500FC0003010A01110118011F01260180
:100F00002D0134013B0142014901500157015E01AD
:100F100065016C0173017A01810188018F019601DD
:100F20009D01A401AB01B201B901C001C701CE010D
:100F3000D501DC01E301EA01F101F801FF0106023C
:100F40000D0214021B0222022902300237023E0265
:100F500045024C0253025A02610268026F02760295
:100F60007D0284028B0292029902A002A702AE02C5
:100F7000B502BC02BE02C002C202C402C602C8025E
:100F8000CA02CC02CE02D002D202D502D702D902C6
:100F9000DB02DD02DF02E102E302E502E702E90231
:100FA000EB02EE02F002F202F402F602F802FA029A
:100FB000FC02FE02000302030403070309030B0300
:100FC0000D030F03110313031503170319031B0369
:100FD0001D03200322032403260328032A032C03D2
:100FE0002E03300332033403360339033B033D033E
:100FF0003F03410343034503470349034B034D03A9
:101000004F0352035403560358035A035C035E0311
:10101000600362036403660368036B036D036F037D
:10102000710373037503770379037B037D037F03E8
:1010300081038403860388038A038C038E03900351
:1010400092039403960398039A039D039F03A103BD
:10105000A303A503A703A903AB03AD03AF03B10328
:10106000B303B603B803BA03BC03BE03C003C20391
:10107000C403C603C803CA03CC03CF03D103D303FD
:10108000D503D703D903DB03DD03DF03E103E30368
:10109000E503E803EA03EC03EE03F003F203F403D1
:1010A000F603F803FA03FC03FF030000000000004E
:1010B000000000000000000000000100010001002D
:1010C0000100020002000300030004000400050008
:1010D00005000600060007000800090009000A00D4
:1010E0000B000C000D000E000F001000110012008C
:1010F0001300140015001600170019001A001B0039
:101100001D001E001F0021002200240025002700D2
:1011100028002A002C002D002F003100330034005D
:10112000360038003A003C003E00400042004400D7
:10113000460048004A004D004F0051005300560041
:1011400058005A005D005F0062006400670069009B
:101150006C006F0071007400770079007C007F00E4
:101160008200850088008B008D009000940097001D
:101170009A009D00A000A300A600AA00AD00B00048
:10118000B400B700BA00BE00C100C500C800CC0062
:10119000D000D300D700DB00DE00E200E600EA006A
:1011A000EE00F100F500F900FD0001010501090163
:1011B0000D01120116011A011E01220127012B0146
:1011C0002F01340138013D01410146014A014F011F
:1011D000530158015D01610166016B0170017501E8
:1011E00079017E01830188018D01920197019C01A3
:1011F000A101A701AC01B101B601BC01C101C60149
:10120000CC01D101D601DC01E101E701EC01F201E1
:10121000F801FD01030209020E0214021A02200263
:1012200026022C02310237023D0243024A025002DA
:1012300056025C02620268026F0275027B02810242
:1012400088028E0295029B02A202A802AF02B5029A
:10125000BC02C302C902D002D702DE02E402EB02E2
:10126000F202F902000307030E0315031C03230314
:101270002A0331033903400347034E0356035D033A
:1012800064036C0373037B0382038A039103990352
:10129000A003A803B003B803BF03C703CF03D7035A
:1012A000DF03E703EF03F603FF03E72811241FBE64
:1012B000CFEFDAE0DEBFCDBF12E0A0E0B1E0E6E1C3
:1012C000F8E602C005900D92AE35B107D9F723E0DC
:1012D000AEE5B2E001C01D92A83FB207E1F719E008
:1012E000C6E5D9E004C02197FE010E94C833C53588
:1012F000D107C9F70E943F1F0C9409340C940000D9
:10130000EF92FF920F931F93CF93DF93DC01EB01DA
:101310008881E1E0F0E0022E02C0EE0FFF1F0A9488
:10132000E2F7E095E823E88312962C931297119642
:101330005C934E931996ED92FD920D931C931C971E
:10134000DF91CF911F910F91FF90EF9008958F92B1
:101350009F92AF92BF92FF920F931F93CF93DF9311
:10136000EC01E881F98120813A8101E010E0C801B7
:10137000032E02C0880F991F0A94E2F7022F10E093
:101380000823192302C0159507953A95E2F7F02E28
:101390008B81081731F00E94352E6D837E838F83F9
:1013A00098870E94352E8D809E80AF80B884DC01A6
:1013B000CB0188199909AA09BB0989849A84AB844D
:1013C000BC8488169906AA06BB0618F48C81F8120C
:1013D0000C830B838C81DF91CF911F910F91FF9034
:1013E000BF90AF909F908F900895FC016487118209
:1013F000108213821282148215821682178210863E
:10140000118608950F931F93CF93DF938C01EB0107
:1014100061E68CE692E00E94AE0DF80164858CE6F0
:1014200092E00E94C00DBE01729562956F706727B1
:101430007F7067278CE692E00E94C00D6C2F62954A
:10144000607F8CE692E00E94C00D8CE692E00E94E4
:10145000CA0DDF91CF911F910F9108958F929F92A6
:10146000AF92BF92EF92FF920F931F93CF93DF93B0
:10147000EC017B01088119810617170760F5B80197
:1014800080E090E00E9472324B015C01B70180E085
:1014900090E00E9472329B01AC01C501B4010E9430
:1014A000D13120E030E04FE753E40E9400330E9446
:1014B0004332E62FF0E0EE0FFF1FE455FB4F65913E
:1014C00074917B876A870F5F1F4F19830883CE0152
:1014D0000E94020A0EC055233CF46A817B810E945F
:1014E000020A81E0888702C081E08F831E82198210
:1014F0001882DF91CF911F910F91FF90EF90BF90D5
:10150000AF909F908F9008954F925F926F927F92CD
:101510008F929F92AF92BF92CF92DF92EF92FF9203
:101520000F931F93CF93DF938C015B01EA01690155
:10153000FC01E080F180E616F70608F066C0B7010E
:1015400080E090E00E9472322B013C01B50180E006
:1015500090E00E9472329B01AC01C301B2010E9473
:10156000D13120E030E04FE753E40E9400330E9485
:101570004332E62FF0E0EE0FFF1FE455FD4F65917B
:10158000749180E090E00E94723220E030EC4FE7EE
:1015900054E40E94D1314B015C01C115F0E1DF0739
:1015A00018F4CD2821F405C0CFEFDFE002C0CFEF63
:1015B000DFE0F801C280D380CC15DD0508F4E60138
:1015C000CC19DD09BE0180E090E00E947232A501D5
:1015D00094010E9400334B015C01B60180E090E071
:1015E0000E947232A50194010E9465310E9443322B
:1015F000F80173876287FFEFEF1AFF0AF801F182A3
:10160000E082C8010E94020A0BC0FC016281738162
:101610000E94020AF801178281E0808711821082FD
:10162000DF91CF911F910F91FF90EF90DF90CF90BE
:10163000BF90AF909F908F907F906F905F904F90F2
:101640000895FC01628173810E94020A08958F92BD
:101650009F92AF92BF92CF92DF92EF92FF920F9341
:101660001F93CF93DF93EC017B010881198106174B
:10167000170708F044C0B80180E090E00E94723281
:101680004B015C01B70180E090E00E9472329B0147
:10169000AC01C501B4010E94D13120E030E04FE738
:1016A00053E40E9400330E944332E62FF0E0EE0F35
:1016B000FF1FE455FF4F6591749180E090E00E9418
:1016C000723220E030EC4FE754E40E94D1316B01DC
:1016D0007C016A817B8180E090E00E947232A701E8
:1016E00096010E9400330E9443327B876A870F5F16
:1016F0001F4F19830883CE010E94020A09C01B866E
:101700001A8660E070E00E94020A19861982188227
:10171000DF91CF911F910F91FF90EF90DF90CF90CD
:10172000BF90AF909F908F9008954F925F926F926D
:101730007F928F929F92AF92BF92CF92DF92EF9261
:10174000FF920F931F93CF93DF93EC014B015A014C
:101750006901C11420E1D20630F00F2ECC24CA94C6
:10176000FFE0DF2EF02D8C81811113C08D81882345
:1017700081F081E08C838E831F8218861986DB823C
:10178000CA820E94352E6D877E878F87988B19823B
:1017900018828C818823C1F08D81811115C08E81C2
:1017A000811103C08F81882329F08A859B859B83C3
:1017B0008A8302C0DB82CA821C821E821F82188634
:1017C00081E089871982188289858823E9F08C81D4
:1017D00081111AC00E94352E4D845E846F847888F2
:1017E0002AE0420E511C611C711C46165706680601
:1017F000790650F40E94352E6D877E878F87988BEF
:10180000B801CE010E94270B1E81112319F10E94FD
:10181000352E4D845E846F84788825E0420E511CFD
:10182000611C711C461657066806790630F08C81DB
:10183000882311F01D8101C010E0112359F00E948E
:10184000352E6D877E878F87988BA501B401CE01D9
:101850000E942E0A1F81112341F10E94352E4D84D2
:101860005E846F84788825E0420E511C611C711CD7
:10187000461657066806790630F08C81882311F0E9
:101880001D8101C010E0112381F00E94352E6D876B
:101890007E878F87988BDB82CA82BB2034F09401CD
:1018A000A701B501CE010E94840A88858823B1F082
:1018B0008C81882399F08D81882381F00E94352EB8
:1018C0006D877E878F87988B8A819B81C816D90602
:1018D00029F0DB82CA82CE010E94210BDF91CF91D9
:1018E0001F910F91FF90EF90DF90CF90BF90AF903E
:1018F0009F908F907F906F905F904F9008951F936F
:10190000CF93DF93EB01142F60E78CE692E00E9407
:10191000AE0D60E18CE692E00E94C00D8CE692E094
:101920000E94CA0D61E68CE692E00E94AE0D612F26
:101930008CE692E00E94C00DBE01729562956F70B8
:1019400067277F7067278CE692E00E94C00D6C2F9E
:101950006295607F8CE692E00E94C00D8CE692E07A
:101960000E94CA0DDF91CF911F910895CF93DF930D
:10197000DC01EB019881E1E0F0E0022E02C0EE0F05
:10198000FF1F0A94E2F7E095E923E8832C9312966F
:101990005C934E9311971092810081E080936F00C9
:1019A000DF91CF910895DC0110925E0210925F02E8
:1019B00010926002109261021092810010928500D4
:1019C000109284001196ED91FC91129780812C91D8
:1019D000622F41E050E0022E02C0440F551F0A94CE
:1019E000E2F790E08423952302C0959587952A9588
:1019F000E2F7019739F3208130E024233523062EC6
:101A000002C0359527950A94E2F7232BA1F381E0D4
:101A1000809381001196ED91FC91129720818C9119
:101A2000682F41E050E0082E02C0440F551F0A9471
:101A3000E2F730E02423352302C0359527958A95B7
:101A4000E2F72130310531F3808190E08423952342
:101A5000062E02C0959587950A94E2F7892BA1F38B
:101A6000E0918400F09185001092810020915E0247
:101A700030915F024091600250916102AFEFBFEF81
:101A80000E949B336E0F7F1F811D911D08958F92C1
:101A90009F92AF92BF92CF92DF92EF92FF92690135
:101AA0007A01862F90E0FC01EE0FFF1FEE0FFF1F63
:101AB000EA5AF84F85909590A590B490FC01EE0FEE
:101AC000FF1FE455F94F6591749180E090E00E940A
:101AD0007232A70196010E9400330E944332A50191
:101AE0009401261B370B480B590BCA01B901FF9013
:101AF000EF90DF90CF90BF90AF909F908F90089520
:101B00001F920F920FB60F9211248F939F93AF9352
:101B1000BF9380915E0290915F02A0916002B091AC
:101B200061020196A11DB11D80935E0290935F0238
:101B3000A0936002B0936102BF91AF919F918F918A
:101B40000F900FBE0F901F9018958AB183608AB9CD
:101B50001092B90088E48093B800089584EA8093D5
:101B6000BC008091BC008823E4F7660F6093BB0043
:101B700084E88093BC008091BC008823E4F708953A
:101B80006093BB0084E88093BC008091BC008823F4
:101B9000E4F7089584E98093BC008091BC0084FD43
:101BA000FCCF0895FC016487118210821382128297
:101BB00014821582168217821086118608950F935B
:101BC0001F93CF93DF938C01C62FD72F60E68CE64F
:101BD00092E00E94AE0DF80164858CE692E00E94CE
:101BE000C00D6D2F8CE692E00E94C00D6C2F8CE62C
:101BF00092E00E94C00D8CE692E00E94CA0DDF9137
:101C0000CF911F910F9108958F929F92AF92BF92A3
:101C1000CF92DF92EF92FF920F931F93CF93DF93B8
:101C2000EC018B01688179816017710708F082C02F
:101C30006115710509F050C08A859B85009709F4EC
:101C40004BC0BC0180E090E00E94723220E030E0A6
:101C500049EA54E40E94D1316B017C019B01AC0143
:101C60000E9400339B01AC01C701B6010E94003302
:101C70009B01AC01C701B6010E9400339B01AC017E
:101C8000C701B6010E9400330E944332F62E70E075
:101C900080E090E00E94723220E030E04FE753E4B1
:101CA0000E94D1314B015C01B80180E090E00E94BC
:101CB0007232A50194010E9400330E94433279835D
:101CC0006883EF2DF0E0EE0FFF1FE655F34F85918F
:101CD00094919B878A8723C080E090E00E947232B3
:101CE0006B017C01B80180E090E00E9472329B01A0
:101CF000AC01C701B6010E94D13120E030E04FE7CE
:101D000053E40E9400330E944332E62FF0E0EE0FCE
:101D1000FF1FE655F34F859194919B878A878881B1
:101D200099810196998388836A857B85CE010E947B
:101D3000DF0D0EC055233CF46A817B810E94DF0DCC
:101D400081E0888702C081E08F831E821982188219
:101D5000DF91CF911F910F91FF90EF90DF90CF9087
:101D6000BF90AF909F908F9008954F925F926F9227
:101D70007F928F929F92AF92BF92CF92DF92EF921B
:101D8000FF920F931F93CF93DF938C015B01EA01C6
:101D90006901FC01E080F180E616F70608F066C0F4
:101DA000B70180E090E00E9472322B013C01B50146
:101DB00080E090E00E9472329B01AC01C301B2014D
:101DC0000E94D13120E030E04FE753E40E9400331D
:101DD0000E944332E62FF0E0EE0FFF1FE655F54F6D
:101DE0006591749180E090E00E94723220E030ECC6
:101DF0004FE754E40E94D1314B015C01C115F0E181
:101E0000DF0718F4CD2821F405C0CFEFDFE002C0D2
:101E1000CFEFDFE0F801C280D380CC15DD0508F4F8
:101E2000E601CC19DD09BE0180E090E00E9472322B
:101E3000A50194010E9400334B015C01B60180E0D2
:101E400090E00E947232A50194010E9465310E94C7
:101E50004332F80173876287FFEFEF1AFF0AF80138
:101E6000F182E082C8010E94DF0D0BC0FC0162819B
:101E700073810E94DF0DF801178281E08087118253
:101E80001082DF91CF911F910F91FF90EF90DF9023
:101E9000CF90BF90AF909F908F907F906F905F900A
:101EA0004F900895FC01628173810E94DF0D0895B7
:101EB000FC0114821682178210861186118210820C
:101EC000138212820E94520F0895CF93DF93FC0178
:101ED0002481211110C0EC010E94352E6D877E8770
:101EE0008F87988B8FEF9FE09B838A83CE010E9420
:101EF000520F81E08C83DF91CF9108958F929F9252
:101F0000AF92BF92CF92DF92EF92FF920F931F9307
:101F1000CF93DF93EC017B01088119810617170726
:101F200008F044C0B80180E090E00E9472324B019A
:101F30005C01B70180E090E00E9472329B01AC012D
:101F4000C501B4010E94D13120E030E04FE753E4F5
:101F50000E9400330E944332E62FF0E0EE0FFF1F95
:101F6000E655F74F6591749180E090E00E947232DF
:101F700020E030EC4FE754E40E94D1316B017C014A
:101F80006A817B8180E090E00E947232A701960115
:101F90000E9400330E9443327B876A870F5F1F4F86
:101FA00019830883CE010E94DF0D09C01B861A86A3
:101FB00060E070E00E94DF0D198619821882DF91BF
:101FC000CF911F910F91FF90EF90DF90CF90BF9036
:101FD000AF909F908F9008954F925F926F927F92F3
:101FE0008F929F92AF92BF92CF92DF92EF92FF9229
:101FF0000F931F93CF93DF93EC014B015A016901BB
:10200000C11420E1D20630F00F2ECC24CA94FFE098
:10201000DF2EF02D8C81811113C08D81882381F0FA
:1020200081E08C838E831F8218861986DB82CA82A8
:102030000E94352E6D877E878F87988B1982188234
:102040008C818823F1F08D8181111BC08E818111DB
:1020500003C08F81882329F08A859B859B838A838F
:1020600002C0DB82CA821C821E821F82188681E027
:1020700089870E94352E6D877E878F87988B19827E
:10208000188289858823E9F08C8181111AC00E9409
:10209000352E4D845E846F8478882AE0420E511C70
:1020A000611C711C461657066806790650F40E949A
:1020B000352E6D877E878F87988BB801CE010E9461
:1020C0007E0F1E81112319F10E94352E4D845E84EE
:1020D0006F84788825E0420E511C611C711C4616E5
:1020E00057066806790630F08C81882311F01D812F
:1020F00001C010E0112359F00E94352E6D877E87B4
:102100008F87988BA501B401CE010E94040E1F8118
:10211000112341F10E94352E4D845E846F847888AE
:1021200025E0420E511C611C711C461657066806BC
:10213000790630F08C81882311F01D8101C010E0F8
:10214000112381F00E94352E6D877E878F87988BB3
:10215000DB82CA82BB2034F09401A701B501CE0115
:102160000E94B50E1885112341F10E94352E8D84F1
:102170009E84AF84B88825E0820E911CA11CB11CFE
:1021800086169706A806B90630F08C81882311F0D0
:102190001D8101C010E0112381F00E94352E6D8752
:1021A0007E878F87988B8A819B81C816D90629F0F4
:1021B000DB82CA82CE010E94520FDF91CF911F9124
:1021C0000F91FF90EF90DF90CF90BF90AF909F90D6
:1021D0008F907F906F905F904F900895CF92DF9295
:1021E000EF92FF920F931F93CF93DF93EC018B013C
:1021F0008C81811115C09D81992391F081E08C83A0
:102200008FEF9FE09B838A83CE010E94520F0E9432
:10221000352E6D877E878F87988B198218820DC027
:10222000882359F08D81811108C01C821E821F8273
:10223000188681E089871982188289858823E9F0C8
:102240008C8181111AC00E94352ECD84DE84EF84EA
:10225000F8882AE0C20ED11CE11CF11CC616D70674
:10226000E806F90650F40E94352E6D877E878F8729
:10227000988BB801CE010E947E0FDF91CF911F9104
:102280000F91FF90EF90DF90CF9008951F93CF9321
:10229000DF93C62FD72F142F60E78CE692E00E94C1
:1022A000AE0D60E18CE692E00E94C00D8CE692E0FB
:1022B0000E94CA0D60E68CE692E00E94AE0D612F8E
:1022C0008CE692E00E94C00D6D2F8CE692E00E9499
:1022D000C00D6C2F8CE692E00E94C00D6D2F8CE635
:1022E00092E00E94C00D6C2F8CE692E00E94C00D1F
:1022F0006D2F8CE692E00E94C00D6C2F8CE692E070
:102300000E94C00D6D2F8CE692E00E94C00D6C2FD4
:102310008CE692E00E94C00D8CE692E00E94CA0D0D
:10232000DF91CF911F910895019779F46F3F7F4F0F
:1023300061F48EE692E00E942C2E8DE692E00E94DF
:10234000282D8CE692E00E94A50D08956F927F9251
:102350008F929F92AF92BF92CF92DF92EF92FF92B5
:102360000F931F93CF93DF9394EF980F953508F059
:102370006BC039014A01B62ED82EDA018C91811139
:1023800026C0C0E0D0E08C2D90E0C817D907D4F467
:1023900087EC8C9F70018D9FF00C1124E80CF91CC8
:1023A0006D2DC7010E94782EF701B48281E18C9FC8
:1023B000F0018D9FF00D1124E60DF71D81E085835E
:1023C0002196E1CF81E0D80115968C933DC080E045
:1023D00090E08830910554F4F701E80FF91F20814F
:1023E000203839F4D40112968C918083C0E0D0E07B
:1023F00002C00196EECF8C2D90E0C817D907D4F417
:1024000087EC8C9F70018D9FF00C1124E80CF91C57
:102410006D2DC7010E94782EF701B48281E18C9F57
:10242000F0018D9FF00D1124E60DF71D81E08583ED
:102430002196E1CFF1E0AF1207C0D80114961C92AB
:10244000149781E015968C93DF91CF911F910F9196
:10245000FF90EF90DF90CF90BF90AF909F908F90C4
:102460007F906F9008956F927F928F929F92AF921C
:10247000BF92CF92DF92EF92FF920F931F93CF9371
:10248000DF93CDB7DEB794EF980F953508F071C0A4
:1024900039014A016B01482FE0E0F0E02E2D30E0D9
:1024A000E217F3070CF049C05F0197EC9E9FD00143
:1024B0009F9FB00D1124AC0DBD1D9C919923D9F1A6
:1024C00012969C911297491336C087E090E09923A9
:1024D00084F07801E80EF91EF7016081603839F068
:1024E000CD010E94782E80E8F701808342C00197D9
:1024F000EECFCD010E94FF2E81E18A9DF0018B9DE0
:10250000F00D1124E80DF91D1582F601808181116D
:1025100030C0E953FF4F808181112BC0E953FF4F39
:102520008081811126C0E953FF4F8081811121C034
:10253000F30115821EC03196B1CF27969FAD279724
:10254000911111C020E030E02830310594F4F801F9
:10255000E20FF31F9081491303C080E8808309C014
:102560002F5F3F4FF1CF2FE760E8CE0141960E94E9
:102570000B2BDF91CF911F910F91FF90EF90DF9088
:10258000CF90BF90AF909F908F907F906F90089565
:102590008F929F92AF92BF92CF92DF92EF920F9362
:1025A0001F93CF93DF9394EF980F953508F066C093
:1025B000FB019081992309F44DC0928189134DC08C
:1025C00059016A01EB0187E090E099231CF1480171
:1025D000880E991EF40120812038D1F000E010E02F
:1025E0008E2D90E0081719077CF4F401608127EC28
:1025F000209FC001219F900D11248C0F9D1F0E94D0
:10260000782E0F5F1F4FECCF80E8F401808336C037
:102610000197DBCF00E010E08E2D90E0081719073E
:10262000B4F427EC209FC001219F900D11248C0F42
:102630009D1F0E94FF2E81E1809FF001819FF00D80
:102640001124EC0DFD1D15820F5F1F4FE5CFF50125
:10265000158214C020E030E002C020E030E02830D5
:10266000310564F4F801E20FF31F9081891303C070
:1026700080E8808303C02F5F3F4FF1CFDF91CF9180
:102680001F910F91EF90DF90CF90BF90AF909F90F0
:102690008F900895CF92DF92EF92FF920F93CF9396
:1026A000DF93EC017B016A01A90187E090E09923A7
:1026B0003CF0FA01E80FF91F30E830830197F7CFBB
:1026C000CE010E94FF2ECE0189539F4F0E94FF2E04
:1026D000CE0182579E4F0E94FF2ECE018B5A9D4FF6
:1026E0000E94FF2E002329F0F7011582168A17A2F7
:1026F00010AEF6011582DF91CF910F91FF90EF9010
:10270000DF90CF9008951F93CF93DF93CDB7DEB7BF
:10271000CC5AD1090FB6F894DEBF0FBECDBF6FEF14
:102720007FE0C951DF4F88819981C75ED0400E9408
:10273000DF0DC953DF4F1881C75CD0408091100175
:102740001813DCC0C853DF4F9881C85CD04080911B
:1027500011019813D3C0C653DF4F8881CA5CD040A3
:102760008F3F09F0CBC0C753DF4F8881C95CD04091
:10277000863009F0C3C068EC71E08DE692E00E94FB
:10278000382D82E0C555DF4F8883CB5AD040C455E1
:10279000DF4F8883CC5AD0408AEAE6E1F1E0DE01DF
:1027A000119601900D928A95E1F760E080E090E04B
:1027B0000E94F63342E050E062E070E0CE018555C1
:1027C0009F4F0E94EC334AEA50E064E070E0CE0193
:1027D00001960E94EC334AEA50E06EEA70E0CE01C6
:1027E00001960E94EC334AEA50E068E571E0CE01C0
:1027F00001960E94EC334AEA50E062E072E0CE01BA
:1028000001960E94EC3368E077E08CEA92E00E9447
:10281000043468E077E08EEA92E00E94043468E0D5
:1028200077E080EB92E00E94043468E077E082EB8E
:1028300092E00E94043461E08CEB92E00E94F63357
:1028400062E08DEB92E00E94F63362E08EEB92E064
:102850000E94F63360E08FEB92E00E94F63360E076
:1028600080EC92E00E94F63360E081EC92E00E94FE
:10287000F63360E082EC92E00E94F63361E083EC94
:1028800092E00E94F63360E084EC92E00E94F6331E
:1028900061E085EC92E00E94F6336FE086EC92E016
:1028A0000E94F63340E560E070E0C951DF4F888157
:1028B0009981C75ED0400E94461140E568E077E00C
:1028C000C751DF4F88819981C95ED0400E9416317F
:1028D00040E660E070E0CE0185519F4F0E947F0C82
:1028E00040E66FEF7FE0CE0184509F4F0E948C2B1B
:1028F00065ED71E08DE692E00E94382D8091100127
:10290000181320C0C853DF4F9881C85CD040809115
:102910001101981317C0C653DF4F8881CA5CD0409D
:10292000833181F4C753DF4F8881C95CD040863042
:1029300049F4C553DF4F6881CB5CD04080E090E024
:102940000E94F6338091100118133CC0C853DF4F2A
:102950009881C85CD04080911101981333C0C65350
:10296000DF4F8881CA5CD040843161F5C753DF4FA7
:102970008881C95CD040863029F5C553DF4F688116
:10298000CB5CD040C751DF4FE881F981C95ED040B0
:102990006783E953FF4F6783C751DF4FE881F981B0
:1029A000C95ED040E257FE4F6783C751DF4FE881D1
:1029B000F981C95ED040EB5AFD4F678382E090E019
:1029C0000E94F6338091100118133CC0C853DF4FAA
:1029D0009881C85CD04080911101981333C0C653D0
:1029E000DF4F8881CA5CD040853161F5C753DF4F26
:1029F0008881C95CD040863029F5C553DF4F688196
:102A0000CB5CD040C751DF4FE881F981C95ED0402F
:102A10006087E953FF4F6087C751DF4FE881F98135
:102A2000C95ED040E257FE4F6087C751DF4FE88153
:102A3000F981C95ED040EB5AFD4F608783E090E09A
:102A40000E94F63380911001181322C0C853DF4F43
:102A50009881C85CD04080911101981319C0C65369
:102A6000DF4F8881CA5CD040863191F4C753DF4F75
:102A70008881C95CD040863059F4C553DF4F6881E6
:102A8000CB5CD04060930F018CEB92E00E94F63358
:102A900080911001181322C0C853DF4F9881C85C81
:102AA000D04080911101981319C0C653DF4F88811F
:102AB000CA5CD040873191F4C753DF4F8881C95C2D
:102AC000D040863059F4C553DF4F6881CB5CD0408D
:102AD00060930E018DEB92E00E94F633809110011D
:102AE000181322C0C853DF4F9881C85CD040809132
:102AF0001101981319C0C653DF4F8881CA5CD040BA
:102B0000813291F4C753DF4F8881C95CD040863051
:102B100059F4C553DF4F6881CB5CD040609301010D
:102B200086EC92E00E94F63380911001181322C0C7
:102B3000C853DF4F9881C85CD04080911101981331
:102B400019C0C653DF4F8881CA5CD040883191F4E8
:102B5000C753DF4F8881C95CD040863059F4C553D4
:102B6000DF4F6881CB5CD04060930D018EEB92E02B
:102B70000E94F63380911001181322C0C853DF4F12
:102B80009881C85CD04080911101981319C0C65338
:102B9000DF4F8881CA5CD040893191F4C753DF4F41
:102BA0008881C95CD040863059F4C553DF4F6881B5
:102BB000CB5CD040609366028FEB92E00E94F633CC
:102BC00080911001181322C0C853DF4F9881C85C50
:102BD000D04080911101981319C0C653DF4F8881EE
:102BE000CA5CD0408A3191F4C753DF4F8881C95CF9
:102BF000D040863059F4C553DF4F6881CB5CD0405C
:102C00006093670280EC92E00E94F633809110019D
:102C1000181322C0C853DF4F9881C85CD040809100
:102C20001101981319C0C653DF4F8881CA5CD04088
:102C30008B3191F4C753DF4F8881C95CD040863017
:102C400059F4C553DF4F6881CB5CD0406093650277
:102C500081EC92E00E94F63380911001181320C09D
:102C6000C853DF4F9881C85CD04080911101981300
:102C700017C0C653DF4F8881CA5CD0408C3181F4C5
:102C8000C753DF4F8881C95CD040863049F4C553B3
:102C9000DF4F6881CB5CD04082EC92E00E94F6333B
:102CA00080911001181322C0C853DF4F9881C85C6F
:102CB000D04080911101981319C0C653DF4F88810D
:102CC000CA5CD0408D3191F4C753DF4F8881C95C15
:102CD000D040863059F4C553DF4F6881CB5CD0407B
:102CE0006093030183EC92E00E94F633809110011F
:102CF00018132DC0C853DF4F9881C85CD040809115
:102D00001101981324C0C653DF4F8881CA5CD0409C
:102D10008E31E9F4C753DF4F8881C95CD0408630DB
:102D2000B1F4C553DF4F6881CB5CD040609364023F
:102D300084EC92E00E94F63380916402813021F4A9
:102D400085B1846085B903C085B18B7F85B9C953CE
:102D5000DF4F1881C75CD04080911001181322C04A
:102D6000C853DF4F9881C85CD040809111019813FF
:102D700019C0C653DF4F8881CA5CD0408F3191F4AF
:102D8000C753DF4F8881C95CD040863059F4C553A2
:102D9000DF4F6881CB5CD0406093020185EC92E00C
:102DA0000E94F63380911001181328C0C853DF4FDA
:102DB0009881C85CD0408091110198131FC0C65300
:102DC000DF4F8881CA5CD0408132C1F4C753DF4FE6
:102DD0008881C95CD040863089F4C553DF4F688153
:102DE000CB5CD040662319F06093010103C081E001
:102DF0008093010186EC92E00E94F633FFEF26E714
:102E000081E0F15020408040E1F700C0000060E028
:102E100070E0C951DF4F88819981C75ED0400E9420
:102E2000DF0DC455DF4F0FB6F894DEBF0FBECDBF28
:102E3000DF91CF911F9108952F923F924F925F9211
:102E40006F927F928F929F92AF92BF92CF92DF92BA
:102E5000EF92FF920F931F93CF93DF93CDB7DEB71F
:102E600027970FB6F894DEBF0FBECDBF8D836B01E1
:102E70007A013A8329831C821B82212C312C3D81CB
:102E8000232F30E03F832E8387EC829F8001839F36
:102E9000100D11240E0D1F1D64E2C8010E94C730E1
:102EA0008FEF96E721E0815090402040E1F700C08D
:102EB00000008E819F81880F991F2E813F81280FEE
:102EC000391F2C0D3D1D3F832E83C9010E94D30C59
:102ED0004B015C01689412F8B694A7949794879478
:102EE0001694D1F768E4C8010E94C7303FEF86E727
:102EF00091E0315080409040E1F700C000008E81A9
:102F00009F810E94D30C2B013C010E94723227E169
:102F100037EB41ED58E30E9400330E944332A50194
:102F20009401261B370B480B590B24153505460514
:102F3000570558F4DC01CB01880D991DAA1DBB1D56
:102F4000481659066A067B06B0F184149504A60457
:102F5000B70448F42FEF221A320A89819A81019727
:102F60009A83898310C0481459046A047B0458F476
:102F70002B813C812F5F3F4F3C832B8389819A813A
:102F800001969A83898393E32916310428F02B81D3
:102F90003C812333310578F469817A81C8010E942C
:102FA000E0303FEF86E791E0315080409040E1F71C
:102FB00000C0000064CFC8010E94FF2E27960FB604
:102FC000F894DEBF0FBECDBFDF91CF911F910F915F
:102FD000FF90EF90DF90CF90BF90AF909F908F9039
:102FE0007F906F905F904F903F902F900895813029
:102FF000D1F0823051F4FB0180818058808390E0D1
:10300000880F892F881F990B0895FB018081805CB0
:10301000808390E0082E892F000C881F990B000CEC
:10302000881F991F089580E008952F923F924F9234
:103030005F926F927F928F929F92AF92BF92CF9248
:10304000DF92EF92FF920F931F93CF93DF9300D005
:1030500000D01F92CDB7DEB794EF980F953508F0EA
:103060009DC0FB82EA8218013D832C832A01B62E83
:103070008983E12CF12C0A2D10E0E016F1060CF00A
:103080008DC080910301813031F46C817D818A2D66
:103090000E94F71701C08E2D682E712C87EC869D3B
:1030A0004001879D900C1124840C951CD4018C91B7
:1030B00081112DC06981C4010E94782EF401B4826F
:1030C00081E1869D8001879D100D1124F101E00FA3
:1030D000F11F81E08583AA81BB8114968C9114979E
:1030E000811104C015968C91882341F06096BFAD84
:1030F0006097B13019F0E1E0AE1250C0AA81BB81F7
:1031000014961C92149781E015968C9347C0015039
:103110001109E016F106F1F56196BFAD6197B111A5
:1031200032C080E090E0883091056CF4F601E80F41
:10313000F91F2081203829F4D40112968C918083C4
:1031400002C00196F0CF6981C4010E94782EF4017B
:10315000B48281E1869DF001879DF00D1124E20D7E
:10316000F31D81E085836096FFAD6097F13011F02B
:10317000A81210C0AA81BB8114961C92149781E0FA
:1031800015968C9307C02B2D498160E9CE014A9694
:103190000E940B2BBFEFEB1AFB0A6DCF0F900F9025
:1031A0000F900F900F90DF91CF911F910F91FF9093
:1031B000EF90DF90CF90BF90AF909F908F907F90D7
:1031C0006F905F904F903F902F9008952F923F9275
:1031D0004F925F926F927F928F929F92AF92BF9227
:1031E000CF92DF92EF92FF920F931F93CF93DF93D3
:1031F000CDB7DEB72B970FB6F894DEBF0FBECDBFAD
:103200005B01922E0B8387013B8024EF320E242F2B
:1032100030E03D832C83220F331F4C815D81240FCE
:10322000351F820F931F9A83898320E030E0A90124
:10323000632D0E94470D6B017C01692D70E080E0D9
:1032400090E00E9472329B01AC01632D89819A81CA
:103250000E94470D2B013C01692D70E0719561952D
:103260007109072E000C880B990B0E9474329B0188
:10327000AC01632D89819A810E94470D6E837F8303
:103280008887998727EC4C815D81249FC001259F09
:10329000900D11244501880E991E5B81852F90E0C9
:1032A0009C012C5031093D832C83F901EE0FFF1F47
:1032B000E80DF91D47855089212C312CA12CB12C0A
:1032C0005B874A87A016B10620F02016310608F069
:1032D00068C06B81C4010E94C7305FEF86E791E050
:1032E000515080409040E1F700C0000089819A81F0
:1032F0000E94D30CC616D706E806F906D0F42A8534
:103300003B852F3F4FEF340781F02F5F3F4F3B87C7
:103310002A87EC81FD81EE0FFF1FE80DF91D27853F
:1033200030892F5F3F4F308B27875FEFA51AB50A93
:103330001DC06C157D058E059F05C0F42A853B8553
:103340002115310581F0215031093B872A87EC8115
:10335000FD81EE0FFF1FE80DF91D278530892150F3
:103360003109308B27873FEF231A330A4A855B8563
:1033700041155105C9F04F3F5F4FC9F0461657063A
:103380006806790608F09ECF2E813F8148855985D1
:10339000621773078407950708F094CF8A859B8589
:1033A00008C08A859B8505C080E090E002C08FEF51
:1033B0009FEF2B960FB6F894DEBF0FBECDBFDF9107
:1033C000CF911F910F91FF90EF90DF90CF90BF9022
:1033D000AF909F908F907F906F905F904F903F90B5
:1033E0002F9008954F925F926F927F928F929F924B
:1033F000AF92BF92CF92DF92EF92FF920F931F9303
:10340000CF93DF93182F5B01EA012115310559F4A1
:1034100088EE93E0FA0127EC129FE00DF11D1124D4
:10342000908B878708C0FA0147EC849FE00DF11D5F
:103430001124308B27870F2EF4E6EF2EF12CF02D80
:103440000CE021E0412FBE01C5010E94E6184C01AD
:10345000892B09F057C04E0167EC169F800C911C18
:10346000112481E090E0F401908B87870DE021E04A
:10347000412FBE01C5010E94E618885D92402C01D3
:103480003C016894CC24C1F8D12CF5E5CF16D104C9
:103490000CF07DC0F601EE0FFF1FE80DF91D27852A
:1034A0003089C301072C000CAA0BBB0B820F931FA2
:1034B000A11DB11D0097A140B10550F0F601EE0F1E
:1034C000FF1FE80DF91D8FEF9FEF908B878709C0D5
:1034D000F601EE0FFF1FE80DF91D240D351D308B91
:1034E00027870CE00C0D0F2EF2E3EF2EF12CF02DC0
:1034F00021E0412FBE01C5010E94E6186FEFC61AF8
:10350000D60AC3CFCC24C394D12C85E5C816D104E8
:10351000F4F5AE01E7EC1E9F400D511D1124F6019C
:10352000EE0FFF1FE40FF51F27853089C401A0E0CF
:10353000B0E0820F931FA11DB11D0097A140B105FE
:1035400058F0C601880F991FFA01E80FF91F8FEF95
:103550009FEF908B87870AC0C601880F991FFA01D9
:10356000E80FF91F280D391D308B27870CE00C0D53
:103570000F2EF2E3EF2EF12CF02D21E0412FBE01B2
:10358000C5010E94E6182FEFC21AD20ABECFCE01A3
:1035900047EC149F800D911D11240E94FF2EDF9196
:1035A000CF911F910F91FF90EF90DF90CF90BF9040
:1035B000AF909F908F907F906F905F904F90089505
:1035C0002F923F924F925F926F927F928F929F9233
:1035D000AF92BF92CF92DF92EF92FF920F931F9321
:1035E000CF93DF93CDB7DEB7CC5BD1090FB6F8949C
:1035F000DEBF0FBECDBF5B014A013901C555DF4FAC
:10360000C882CB5AD040C455DF4FD882CC5AD04064
:10361000C355DF4FE882CD5AD040C255DF4FF88204
:10362000CE5AD040C155DF4F0883CF5AD040C05545
:10363000DF4F1883C05BD04024E830E033235CF0D8
:10364000482F50E0421753071CF0182F121B04C0DC
:103650002C503109F3CF10E01111D6C160E78CE690
:1036600092E00E94AE0D60E48CE692E00E94C00DF4
:103670008CE692E00E94CA0D60E070E0CE018555B4
:103680009F4F0E942B2B60E78CE692E00E94AE0DCC
:1036900060E18CE692E00E94C00D8CE692E00E9410
:1036A000CA0DC4014196CF54DF4F99838883C15B13
:1036B000D04060E070E00E94DF0DF401B296CD547E
:1036C000DF4FF983E883C35BD04060E070E0CF0157
:1036D0000E94DF0D6401F3E3CF0ED11C60E070E0C7
:1036E000C6010E94DF0D15BCF5010784F089E02DAD
:1036F000CB54DF4FF983E883C55BD0402501F7EC5D
:103700004F0E511CF2010784F089E02DC954DF4FA0
:10371000F983E883C75BD0407501F2E7EF1AFEEF4B
:10372000FF0AF7010784F089E02DC754DF4FF983C2
:10373000E883C95BD0401501FBEA2F1AFDEF3F0A71
:10374000F1010784F089E02DC554DF4FF983E88348
:10375000CB5BD0408AEAE6E1F1E0DE011196019010
:103760000D928A95E1F78AEAFE013196D5011F96FE
:1037700001900D928A95E1F7D501AA52BF4F8AEACE
:10378000FE01319601900D928A95E1F7D501A3567D
:10379000BE4F8AEAFE01319601900D928A95E1F7BB
:1037A000D501AC59BD4F8AEAFE01319601900D92C8
:1037B0008A95E1F760E78CE692E00E94AE0D60E149
:1037C0008CE692E00E94C00D8CE692E00E94CA0D49
:1037D0006FEF7FE0C4010E94DF0D8CEA92E00E944F
:1037E000E6339C01A501B30180E00E941C17CB5475
:1037F000DF4F28813981C55BD040A501B30180E04E
:103800000E94F219F501658576858CEA92E00E94A6
:1038100004344AEA50E064E070E0C5010F960E946B
:10382000EC3360E78CE692E00E94AE0D60E18CE63E
:1038300092E00E94C00D8CE692E00E94CA0D60E00A
:1038400070E0C4010E94DF0DF40114826FEF7FE08D
:10385000CF54DF4F88819981C15BD0400E94DF0D3A
:103860008EEA92E00E94E6339C01A501B30181E05B
:103870000E941C17C954DF4F28813981C75BD04093
:10388000A501B30181E00E94F219F20165857685F8
:103890008EEA92E00E9404344AEA50E06EEA70E058
:1038A000C2010F960E94EC3360E78CE692E00E9422
:1038B000AE0D60E18CE692E00E94C00D8CE692E0D5
:1038C0000E94CA0D60E070E0CF54DF4F888199817B
:1038D000C15BD0400E94DF0DF401158A6FEF7FE0DD
:1038E000CD54DF4F88819981C35BD0400E94DF0DAA
:1038F00080EB92E00E94E6339C01A501B30182E0D7
:103900000E941C17C754DF4F28813981C95BD04002
:10391000A501B30182E00E94F219F7016585768561
:1039200080EB92E00E9404344AEA50E068E571E0DE
:10393000C7010F960E94EC3360E78CE692E00E948C
:10394000AE0D60E18CE692E00E94C00D8CE692E044
:103950000E94CA0D60E070E0CD54DF4F88819981EC
:10396000C35BD0400E94DF0DF40116A26FEF7FE031
:10397000C6010E94DF0D82EB92E00E94E6339C01BB
:10398000A501B30183E00E941C17C554DF4F2881B5
:103990003981CB5BD040A501B30183E00E94F219CD
:1039A000F1016585768582EB92E00E9404344AEA53
:1039B00050E062E072E0C1010F960E94EC3360E7D4
:1039C0008CE692E00E94AE0D60E18CE692E00E94EF
:1039D000C00D8CE692E00E94CA0D60E070E0C60166
:1039E0000E94DF0DF40117AA60E78CE692E00E94C6
:1039F000AE0D60E48CE692E00E94C00D8CE692E091
:103A00000E94CA0D83E085BD123089F510926702CD
:103A10001092650281E0809303011092640280930A
:103A2000020160E080EC92E00E94F6336091650252
:103A300081EC92E00E94F6336091030183EC92E006
:103A40000E94F6336091640284EC92E00E94F633A7
:103A50006091020185EC92E00E94F63360910101D1
:103A600086EC92E00E94F63385B18B7F85B91430E5
:103A700059F461E080916702811160E06093670210
:103A800080EC92E00E94F633153059F461E08091A9
:103A90000201811160E06093020185EC92E00E94D6
:103AA000F6331730B1F481E090916402911180E017
:103AB00080936402813021F485B1846085B903C0AC
:103AC00085B18B7F85B96091640284EC92E00E949D
:103AD000F633193059F461E080916502811160E09C
:103AE0006093650281EC92E00E94F6331B3059F43A
:103AF00061E080910301811160E06093030183EC38
:103B000092E00E94F633C454DF4F0FB6F894DEBF44
:103B10000FBECDBFDF91CF911F910F91FF90EF901E
:103B2000DF90CF90BF90AF909F908F907F906F90DD
:103B30005F904F903F902F900895209102012111A6
:103B40003FC08730910508F43FC0409100012091AB
:103B5000620230916302240F311D47FD3A95309384
:103B6000630220936202281739073CF090936302A6
:103B7000809362022FEF2093000122273327281B16
:103B8000390B4091620250916302241735073CF0D3
:103B9000309363022093620281E080930001FB0175
:103BA0008081882341F010926302109262028FEFAD
:103BB00080930001108280916202909163020895C7
:103BC0008630910520F0089580E090E0089580E02F
:103BD00090E008950F931F93CF93DF93FA01A08194
:103BE000B1819B012A1B3B0BA9F1A901332324F4CA
:103BF00044275527421B530B8A01559547955595E8
:103C000047955595479555954795489FE001499F9C
:103C1000D00D589FD00D1124209729F0C13081E09C
:103C2000D80720F405C0C1E0D0E002C0C0E0D1E078
:103C3000C017D10718F0718360830CC012161306E9
:103C40002CF4AC0FBD1FB183A08304C0AC1BBD0B13
:103C5000B183A08380819181DF91CF911F910F91DA
:103C600008958F929F92AF92BF92DF92EF92FF9250
:103C70000F931F93CF93DF938C0120E030E04AE74E
:103C800054E460911201709113018091140190919C
:103C900015010E9400330E9443324B015C019B01DD
:103CA000ADECBCEC0E948C339695879596958795E4
:103CB000969587959C01220F331F880F991F880FB7
:103CC000991F880F991F820F931F9401281B390B8E
:103CD000C901D22E99279401281B390B0E948C33DD
:103CE000AC015695479556954795569547959A0137
:103CF0000E948C339695879596958795969587958E
:103D00009C01220F331F880F991F880F991F880F5E
:103D1000991F820F931F9A01281B390BC901E22EAC
:103D20009A01281B31090E948C33AC0156954795A6
:103D300056954795569547959A010E948C339695CE
:103D4000879596958795969587959C01220F331FA9
:103D5000880F991F880F991F880F991F820F931F33
:103D60009A01281B390BC901F22E9A01281B31092F
:103D70000E948C33AC0156954795569547955695BC
:103D800047959A010E948C339695879596958795CD
:103D9000969587959C01220F331F880F991F880FD6
:103DA000991F880F991F820F931FD42FD81B60E78C
:103DB0008CE692E00E94AE0D60E18CE692E00E94FB
:103DC000C00D8CE692E00E94CA0DC0E0CA3008F037
:103DD0004AC0CD1728F46FEF7FE0C8010E94DF0DC5
:103DE000CF1530F46FEF7FE0C80141960E94DF0DE0
:103DF000CE1530F46FEF7FE0C80182960E94DF0D90
:103E0000CD1530F46FEF7FE0C801C3960E94DF0D3F
:103E10003FEF83EC99E0315080409040E1F700C0E3
:103E2000000060E070E0C8010E94DF0D60E070E01B
:103E3000C80141960E94DF0D60E070E0C8018296E3
:103E40000E94DF0D60E070E0C801C3960E94DF0DA4
:103E50002FEF33EC89E0215030408040E1F700C083
:103E60000000CF5FB3CFDF91CF911F910F91FF90F3
:103E7000EF90DF90BF90AF909F908F900895CF9379
:103E8000DF93CDB7DEB7CA54D4400FB6F894DEBF87
:103E90000FBECDBFCE0101960E94EE2846E463E03E
:103EA000CE01C6960E94632E44E462E0CE018350A8
:103EB0009F4F0E94632E42E461E0CE018C539E4FDF
:103EC0000E94632E40E460E0CE0185579D4F0E9422
:103ED000632E66E4CE018E5A9C4F0E94D20D64E49C
:103EE00082E593E08C0F9D1F41960E94D20D62E403
:103EF00082E593E08C0F9D1F82960E94D20D60E4B4
:103F000082E593E08C0F9D1FC3960E94D20D60E462
:103F1000CE018A569C4F0E94F50960E4CE01895576
:103F20009C4F0E94232BCE0183559C4F0E94C32B94
:103F300084B1816084B984B1846084B912E3E12ED4
:103F4000F12C00E010E027E046E250E067E270E08C
:103F5000CE0182559C4F0E94800926E04CE250E041
:103F60006DE270E0CE0185549C4F0E94800920E0F4
:103F70004FE250E060E370E0CE0188539C4F0E9416
:103F8000800927E043E250E064E270E0CE018B520A
:103F90009C4F0E94800926E046E250E067E270E014
:103FA000CE018E519C4F0E94800925E049E250E0ED
:103FB0006AE270E0CE0181519C4F0E94800924E0AA
:103FC00043E250E064E270E0CE0184509C4F0E94D6
:103FD000B60C27E049E250E06AE270E08CEF93E033
:103FE0008C0F9D1F03960E94B60C26E049E250E01C
:103FF0006AE270E08CEF93E08C0F9D1F06960E94A2
:10400000B60C24E049E250E06AE270E08CEF93E005
:104010008C0F9D1F09960E94B60CC85FDB4F18825B
:10402000C850D440C75FDB4F1882C950D440C65E29
:10403000DB4F1882CA51D44081E0C55EDB4F8883D4
:10404000CB51D440C45EDB4F1882CC51D440C35E08
:10405000DB4F8883CD51D440C25EDB4F1882CE51F6
:10406000D440C15EDB4F8883CF51D440C05EDB4F6C
:104070001882C052D440CF5DDB4F8883C152D440F8
:10408000CE5DDB4F1882C252D440CD5DDB4F8883BA
:10409000C352D440CC5DDB4F1882C452D440CB5DB8
:1040A000DB4F8883C552D440CA5DDB4F198218822A
:1040B000C652D44088E0E0ECF1E0DE01A85DBB4FE1
:1040C00001900D928A95E1F7789480E090E00E944B
:1040D000DE338D8382E090E00E94DE338DAF83E09B
:1040E00090E00E94DE338EAF82E090E00E94DE33EB
:1040F000CC5FDE4F8883C450D14083E090E00E94C3
:10410000DE33CB5FDE4F8883C550D14082E090E044
:104110000E94DE33C553DE4F8883CB5CD14083E001
:1041200090E00E94DE33C453DE4F8883CC5CD140E4
:1041300082E090E00E94DE33CE56DD4F8883C25984
:10414000D24083E090E00E94DE33CD56DD4F88837D
:10415000C359D2404AEA50E064E070E086E390E060
:104160008C0F9D1F0F960E94CE334AEA50E06EEAF4
:1041700070E0CE01845F9E4F0E94CE334AEA50E049
:1041800068E571E0CE018D529E4F0E94CE334AEA1F
:1041900050E062E072E0CE0186569D4F0E94CE3321
:1041A0008CEA92E00E94E633BC01CE01C6960E94E2
:1041B000E0308EEA92E00E94E633BC01CE018350EB
:1041C0009F4F0E94E03080EB92E00E94E633BC01FA
:1041D000CE018C539E4F0E94E03082EB92E00E9411
:1041E000E633BC01CE0185579D4F0E94E0308CEB39
:1041F00092E00E94DE3380930F018DEB92E00E94EB
:10420000DE3380930E018EEB92E00E94DE338093CA
:104210000D018FEB92E00E94DE338093660280EC0A
:1042200092E00E94DE338093670281EC92E00E946C
:10423000DE338093650282EC92E00E94DE338E834F
:1042400083EC92E00E94DE338093030184EC92E0E1
:104250000E94DE33182F8093640285EC92E00E9466
:10426000DE338093020186EC92E00E94DE3380937D
:104270000101113019F485B1846085B968E1CE017E
:10428000C6960E94782ECE01C6960E94FF2E68E147
:10429000CE0183509F4F0E94782ECE0183509F4FB6
:1042A0000E94FF2E68E1CE018C539E4F0E94782E13
:1042B000CE018C539E4F0E94FF2E68E1CE018557A0
:1042C0009D4F0E94782ECE0185579D4F0E94FF2E54
:1042D0008FE7C955DC4F8883C75AD34085B18160C9
:1042E00085B92FEF33EC49E0215030404040E1F7F1
:1042F00000C0000085B18E7F85B95FEF83EC99E047
:10430000515080409040E1F700C000004D9B05C037
:10431000CE018E5A9C4F0E94311ECE5BDB4F18821D
:10432000C254D440C25CDB4F19821882CE53D440B1
:10433000C65BDB4F1882CA54D440C75CDB4F18827F
:10434000C953D440C75BDB4F1882C954D440C05C0A
:10435000DB4F1882C054D440C85BDB4F1882C8546E
:10436000D440C35CDB4F1882CD53D440C95BDB4FD4
:104370001882C754D440CF5CDB4F19821882C153D6
:10438000D440CF5BDB4F1882C154D440C65CDB4FB6
:1043900019821882CA53D440212C312CCA5BDB4FBE
:1043A0001882C654D440CB5CDB4F19821882C553A7
:1043B000D440CB5BDB4F1882C554D440CD5CDB4F7F
:1043C00019821882C353D440CD5BDB4F1882C3548B
:1043D000D440412C512CCC5BDB4F1882C454D440C8
:1043E000C95CDB4F19821882C753D440812C912CB1
:1043F000EFEFC05DDB4FE883C053D440B12CFFEF3B
:10440000C45CDB4FF883CC53D440CE0101960E94AC
:104410005829CE0181519C4F0E94A709813011F487
:104420008A8101C080E0882359F1C955DC4FC880DA
:10443000C75AD340C855DC4FD880C85AD340C75557
:10444000DC4FE880C95AD340C655DC4FF880CA5AC1
:10445000D340C555DC4F0881CB5AD340C455DC4FFF
:104460001881CC5AD3409E0124503C4FAE014E5A85
:104470005C4FBE016A5C7F4F89810E94E01AC5CF04
:104480008A81882309F463C085B1846085B981E09D
:10449000C75FDB4F8883C950D440C45CDB4F2881A1
:1044A000CC53D440211134C06C8189819091650234
:1044B0009F93909167029F934DB75EB74553510903
:1044C0000FB6F8945EBF0FBE4DBFADB7BEB7119625
:1044D00095E3FE01319601900D929A95E1F7AB2C90
:1044E000FE01E85DFB4F6F019E012A563C4F7901AA
:1044F0008E010E5A1C4F2E583F4FAE014A5C5F4F43
:104500000E9415180FB6F894DEBF0FBECDBF14C0C1
:104510006C81A0906702CB2CCE01885D9B4F7C0103
:104520008E010A561C4F9E012E5A3C4FAE014A5C2A
:104530005F4F89810E94A61180916502811107C099
:104540002C81498160E9CE0101960E940B2B8B8161
:10455000882309F48DC0CE5BDB4F9881C254D440D0
:10456000992379F180E090E02B2D30E082179307BA
:104570000CF07EC0398127EC289FF001299FF00DB7
:10458000112441E050E04C0F5D1FE40FF51F27A9F7
:10459000321315C027EC289FF001299FF00D11243C
:1045A000E40FF51F25A9222351F027EC289FF001E5
:1045B000299FF00D1124E40FF51F21E026AB019691
:1045C000D3CFC45CDB4F5881CC53D44051112BC0A6
:1045D0008981909165029F93EDB7FEB7F5970FB66D
:1045E000F894FEBF0FBEEDBFADB7BEB7119695E311
:1045F000FE01319601900D929A95E1F7EB2C8E0118
:10460000085D1B4F9E012A563C4FAE014E5A5C4F2F
:10461000BE016A5C7F4F0E9433120FB6F894DEBF72
:104620000FBECDBF10C0EB2C8E01085D1B4F9E014D
:104630002A563C4FAE014E5A5C4FBE016A5C7F4F1A
:1046400089810E94C81280916502811107C02C8166
:10465000498160E8CE0101960E940B2B898988234D
:1046600039F080916402811103C085B18B7F85B9D7
:1046700019A11123B9F0C05DDB4F0881C053D440AC
:104680009E01285D3B4FAE014A565C4FBE016E5AFB
:104690007C4FCE01C6960E944A138DE692E00E949E
:1046A000D72DB3CE89858823B1F08F8198859CAFB3
:1046B0008BAFCE5FDE4F99838883C250D140C75302
:1046C000DE4F99838883C95CD140C057DD4F998301
:1046D0008883C059D2408D85882309F438C18B85E1
:1046E00090910F01891307C08C85C955DC4F8883D1
:1046F000C75AD3402CC1823061F48C8590E2899FE7
:10470000A0011124C25CDB4F59834883CE53D440AF
:104710001EC1853069F4C35EDB4F1882CD51D44091
:104720008C85880FCD5BDB4F8883C354D4400FC189
:10473000803169F4C55EDB4F1882CB51D4408C8543
:10474000880FCC5BDB4F8883C454D44000C18131D7
:1047500069F4C15EDB4F1882CF51D4408C85880F3D
:10476000CB5BDB4F8883C554D440F1C0823169F400
:10477000CF5DDB4F1882C152D4408C85880FCA5B55
:10478000DB4F8883C654D440E2C0833169F4CD5DE9
:10479000DB4F1882C352D4408C85880FCF5BDB4F30
:1047A0008883C154D440D3C0843169F4CB5DDB4FDE
:1047B0001882C552D4408C85880FC95BDB4F888333
:1047C000C754D440C4C08531C1F4EC85C35CDB4F11
:1047D000E883CD53D440CE0185549C4F0E94A70955
:1047E000082FCE0188539C4F0E94A709080FC85B71
:1047F000DB4F0883C854D440AAC0863189F4FC85B5
:10480000C05CDB4FF883C054D440CE0182559C4F2E
:104810000E94A709C75BDB4F8883C954D44097C067
:104820008731C1F42C85C75CDB4F2883C953D44042
:10483000CE018B529C4F0E94A709082FCE018E51AA
:104840009C4F0E94A709080FC65BDB4F0883CA5420
:10485000D4407DC0803409F059C08C85803408F084
:104860006AC0E12CF12CD12E8B2D90E0E816F906D0
:10487000ACF587EC8E9DF0018F9DF00D112441E089
:1048800050E04C0F5D1FE40FF51F86A9882311F13E
:1048900087EC8E9D80018F9D100D112486E390E0A2
:1048A0008C0F9D1F800F911F0E94FF2E81E18E9D16
:1048B000F0018F9DF00D112482E593E08C0F9D1F78
:1048C000E80FF91F1582E1E0F0E0EC0FFD1FE00FAB
:1048D000F11F16AA9FEFE91AF90AC6CF1D2D898983
:1048E000882329F0C556DC4F1882CB59D34080E08D
:1048F00090E08830910534F5E8E2F4E0EC0FFD1F1C
:10490000E80FF91F20E820830196F3CF8B37F9F4E5
:10491000C05DDB4F0881C053D4409E01285D3B4FF2
:10492000AE014A565C4FBE016E5A7C4FCE01C69610
:104930000E944A130CC0E1E0CE5BDB4FE883C25417
:10494000D44005C0CE5BDB4F1882C254D440888966
:10495000882309F444C000D000D000D0ADB7BEB762
:10496000119686E0FE01E955FC4F01900D928A9563
:10497000E1F72DB73EB7215131090FB6F8943EBF8C
:104980000FBE2DBFADB7BEB7119681E1FE01EA564D
:10499000FC4F01900D928A95E1F7CE01C6969F9348
:1049A0008F93845E9C4F9F938F934DB75EB7455313
:1049B00051090FB6F8945EBF0FBE4DBFADB7BEB77D
:1049C000119685E3FE01319601900D928A95E1F7EB
:1049D0000E9483130FB6F894DEBF0FBECDBF0E94B6
:1049E000352EC0906802D0906902E0906A02F09083
:1049F0006B02EAE0CE0ED11CE11CF11CC616D706F4
:104A0000E806F90640F48DE692E00E94C22D80345B
:104A100020F401E003C0012F01C0012F002309F49D
:104A2000A9C2F988FF2009F459C1C05CDB4FF881A5
:104A3000C054D440F11107C0CE0182559C4F0E9452
:104A4000A709813039F0C05CDB4F2881C054D440C5
:104A5000203249F4C45CDB4F3881CC53D44033233B
:104A600021F0EF2C03C0E12E01C0E12EE11020C0A7
:104A7000C05CDB4F4881C054D440411107C0CE0117
:104A800082559C4F0E94A709882339F0C05CDB4FF8
:104A90005881C054D440503441F4C45CDB4F888109
:104AA000CC53D440813009F0EF2CE11007C00CC08A
:104AB000C45CDB4F1882CC53D44006C091E0C45C88
:104AC000DB4F9883CC53D440C05CDB4FE881C054AB
:104AD000D440EE2371F0CE0182559C4F0E94A7096D
:104AE000C75BDB4FF881C954D440F81721F08F2DF4
:104AF00003C0812F01C0812F882329F0C05CDB4FC8
:104B00001882C054D440C35CDB4F2881CD53D440BD
:104B1000211107C0CE0185549C4F0E94A709813006
:104B200039F0C35CDB4F3881CD53D440303229F4A7
:104B300041E0B41621F0EF2C03C0E12E01C0E12EBC
:104B4000EE20E9F082E593E08C0F9D1F41960E94D4
:104B5000580F82E593E08C0F9D1F82960E94580F9C
:104B600082E593E08C0F9D1FC3960E94580FC85F8B
:104B7000DB4F1882C850D440BB24B3945AC0C35CE6
:104B8000DB4F5881CD53D440511107C0CE0188531B
:104B90009C4F0E94A709813039F0C35CDB4F8881AC
:104BA000CD53D440803619F494E0B912EF2CEE20A6
:104BB00049F0C85FDB4F1882C850D4406894BB24CA
:104BC000B2F837C0C35CDB4FE881CD53D440E1116C
:104BD0000EC0CE0185549C4F0E94A709811107C0C9
:104BE000CE0188539C4F0E94A709882339F0C35CEB
:104BF000DB4FF881CD53D440F03419F422E0B212E7
:104C0000EF2CEE20B1F0C85FDB4F1882C850D440C3
:104C100082E593E08C0F9D1F82960E94580F82E5DB
:104C200093E08C0F9D1FC3960E94580F6894BB247D
:104C3000B1F8C35CDB4F3881CD53D4403323D1F07E
:104C4000CE0185549C4F0E94A709E82ECE018853BF
:104C50009C4F0E94A70990E08E0D911DC85BDB4F11
:104C60004881C854D440242F30E08217930721F0A4
:104C70008F2D03C0812F01C0812F882329F0C35CB1
:104C8000DB4F1882CD53D440C75CDB4F5881C953EA
:104C9000D4405523C9F0CE018B529C4F0E94A709E6
:104CA000E82ECE018E519C4F0E94A70990E08E0DF8
:104CB000911DC65BDB4FE881CA54D4402E2F30E0F3
:104CC0008217930721F402C0F12E01C0F12EFF20BC
:104CD00029F0C75CDB4F1882C953D440C75CDB4F57
:104CE000F881C953D440F11107C0CE018E519C4FB9
:104CF0000E94A709813039F0C75CDB4F2881C95376
:104D0000D440203239F4C05DDB4F3881C053D440E9
:104D10003111102F111146C0C75CDB4F4881C953B8
:104D2000D440411107C0CE018B529C4F0E94A7096D
:104D3000813039F0C75CDB4F5881C953D4405036BD
:104D400041F4C05DDB4F8881C053D440823009F00C
:104D5000102F11112DC0C75CDB4F9881C953D4406F
:104D600091110EC0CE018E519C4F0E94A709811156
:104D700007C0CE018B529C4F0E94A709882339F0AF
:104D8000C75CDB4FE881C953D440E03441F4C05DD7
:104D9000DB4FF881C053D440F13009F0102F1111CE
:104DA0000EC013C0C05DDB4F1882C053D4400DC08D
:104DB00022E0C05DDB4F2883C053D44006C031E001
:104DC000C05DDB4F3883C053D44020E2AE01465F64
:104DD0005B4F65E0CE0183559C4F0E94E22C9250C0
:104DE0004C01E12CCC5BDB4F0881C454D4409E01C4
:104DF000255E3B4FAE01465E5B4F64E0CE018355BE
:104E00009C4F0E940B2C9695879596958795969525
:104E1000879520910E01BE01675F7B4FAC01249FF7
:104E2000C001259F900D11240E949D1DC95CDB4F80
:104E300099838883C753D440CB5BDB4F0881C5542B
:104E4000D4409E01215E3B4FAE01425E5B4F65E068
:104E5000CE0183559C4F0E940B2CCD5CDB4F998378
:104E60008883C353D440CA5BDB4F0881C654D44007
:104E70009E012F5D3B4FAE01405E5B4F66E0CE0171
:104E800083559C4F0E944F2CCB5CDB4F99838883CA
:104E9000C553D4406894EE24E5F8C95BDB4F088124
:104EA000C754D4409E012B5D3B4FAE014C5D5B4F20
:104EB00064E0CE0183559C4F0E94CD2BCF5CDB4F2D
:104EC00099838883C153D440E12CCD5BDB4F0881AB
:104ED000C354D4409E01235E3B4FAE01445E5B4F02
:104EE00061E0CE0183559C4F0E94CD2B2C0156943E
:104EF0004794569447945694479456944794CF5B5E
:104F0000DB4F0881C154D4409E012D5D3B4FAE0163
:104F10004E5D5B4F67E0CE0183559C4F0E94CD2BC9
:104F20001C01220C331C220C331CCF5BDB4F08818D
:104F3000C154D4409E012D5D3B4FAE014E5D5B4F91
:104F400067E0CE0183559C4F0E949E2C880F991FCD
:104F5000880F991FC65CDB4F99838883CA53D4405E
:104F60000E94352E609368027093690280936A02F2
:104F700090936B0280910101AE014A5D5B4FC25C70
:104F8000DB4F68817981CE53D44090E00E94EA1DC6
:104F90006C01CE0189559C4F0E94652B920140E027
:104FA00050E0B401CE01C6960E94972F9201C95CD1
:104FB000DB4F48815981C753D440B401CE0183509F
:104FC0009F4F0E94972F920140E050E0B401CE0124
:104FD0008C539E4F0E94972F9201C95CDB4F4881F2
:104FE0005981C753D440B401CE0185579D4F0E94CB
:104FF000972F60E78CE692E00E94AE0D60E18CE6B0
:1050000092E00E94C00D8CE692E00E94CA0DC05D45
:10501000DB4F5881C053D440523009F056C0612C48
:10502000712C8B2D90E0681679060CF093C080915E
:10503000660290E0FC01EE0FFF1FE95FFE4F40812A
:10504000518127EC269DF001279DF00D112421E0D0
:1050500030E02C0F3D1FE20FF31F21ADFC01EC5F90
:10506000FE4FE22EF12C008002C0EE0CFF1C0A94D1
:10507000E2F7E40EF51E21E1269DC001279D900D6B
:105080001124CF5CDB4F08811981C153D440C65C29
:10509000DB4F28813981CA53D440CB5CDB4F488138
:1050A0005981C553D440CD5CDB4F68817981C353AE
:1050B000D440E2E5F3E0EC0FFD1F8E0F9F1F0E942E
:1050C000EC0FFFEF6F1A7F0AACCFC05DDB4F28817A
:1050D000C053D440211118C000E010E08B2D90E0A7
:1050E00008171907BCF521E1209FC001219F900DF1
:1050F000112442E553E04C0F5D1F840F951F0E9461
:10510000650F0F5F1F4FEACFC05DDB4F5881C05363
:10511000D4405130F9F400E010E0CF5CDB4FE88080
:10512000F980C153D4408B2D90E00817190794F4EF
:1051300021E1209FC001219F900D1124B701E2E5DC
:10514000F3E0EC0FFD1F8E0F9F1F0E94EE100F5F0C
:105150001F4FE9CF8091660290E0FC01EE0FFF1F28
:10516000E95FFE4F408151812C81FC01EC5FFE4FD5
:10517000E22EF12C008002C0EE0CFF1C0A94E2F734
:10518000E40EF51E2E8530E000900D0102C0220FC6
:10519000331F0A94E2F7220D331D2C0D3D1DCF5C09
:1051A000DB4F08811981C153D440CB5CDB4F488170
:1051B0005981C553D440CD5CDB4F68817981C3539D
:1051C000D440CE018A569C4F0E94950B1EC96FEFAA
:1051D0007FEF81E090E00E9494110895DC0181E06E
:1051E00050968C9350971D961C921D9713961C9267
:1051F00013975F961C921E925E9792961C929297BE
:10520000D3961C92D397D4961C92D49720E030E08A
:10521000203131053CF4FD01E20FF31F13A22F5F93
:105220003F4FF6CF08954130B1F4E62FF0E0F59509
:10523000E795F595E795F595E795677021E030E0FE
:1052400002C0220F331F6A95E2F7E80FF91F83A10E
:10525000282B23A30895E62FF0E0F595E795F59523
:10526000E795F595E795677021E030E002C0220FE1
:10527000331F6A95E2F7E80FF91F209583A12823D1
:1052800023A30895262F30E035952795359527954A
:1052900035952795820F931FFC0123A1677081E04C
:1052A00090E002C0880F991F6A95E2F78223089563
:1052B000FF920F931F93CF93DF93EC0119821A8211
:1052C00018861C861E861F8618A28DE692E00E9414
:1052D0009D2D882309F499C100E08DE692E00E949B
:1052E0009D2D813021F4063020F010E003C010E045
:1052F00001C011E0112309F488C10F5F8DE692E02F
:105300000E94D42D813049F48DE692E00E94BD2D9B
:1053100019A21CAA81E088A378C18DE692E00E94C0
:10532000C22D813840F08CA9811107C089A1803A33
:1053300028F410E003C010E001C010E0112329F1AF
:105340008DE692E00E949D2D8823E1F08DE692E0AB
:105350000E94A72D8823A4F7482F50E02C8130E02D
:10536000B90160577F4F4617570749F020583F4F04
:105370004217530721F090E2980F903108F789A364
:105380001CAA43C119A21CAA40C18DE692E00E944A
:10539000A72D182F80E8810F883718F419A31CAAAD
:1053A0009CCF183F08F099CF212F1123CCF149A1B0
:1053B00050E08C8190E080579F4F4817590781F546
:1053C0008CA9811104C0188381E08CAB86CF1B832C
:1053D000112399F01881612FCE010E944229811179
:1053E0001DC081E089838AA18F5F8AA341E0612F7C
:1053F000CE010E941329188A11C081E08A83688136
:1054000040E0CE010E9413298AA1882311F0815027
:105410008AA38AA1811102C081E0888B1CAAF5C0F1
:1054200022231CF149A150E08C8190E080589F4FCD
:1054300048175907D1F48CA9811104C0188381E061
:105440008CAB4BCF81E08A83688140E0CE010E9423
:1054500013298AA1882311F081508AA38AA181117E
:1054600002C081E0888B1CAAD0C02223E4F049A1AD
:1054700050E08C8190E080529F4F4817590799F473
:105480008CA9811105C081E088871BAB8CAB25CF2F
:105490008BA990E020E8129F800D911D11249F831D
:1054A0008E831CAA1ACF222374F149A150E08C816B
:1054B00090E080559F4F4817590729F58CA9811115
:1054C00004C01A8781E08CAB08CF81E08C871B87F2
:1054D0008A85823031F490E2199F900111243F8F28
:1054E0002E8F8B3771F41AA281E0888B80E090E0D8
:1054F0008031910534F4FE01E80FF91F13A20196E3
:10550000F7CF1CAAEACE222384F029A130E08C81B7
:1055100090E080539F4F2817390739F48CA98111E7
:10552000DCCE81E08E871D87D8CE89A1803F09F02F
:10553000D4CE1F3779F4173F09F4CFCE8DE692E031
:105540000E949D2D8823D1F38DE692E00E94A72D25
:10555000182FF1CF81E08F878DE692E00E949D2D7C
:105560008823D1F38DE692E00E94A72D8D8B873F93
:1055700009F44BC08DE692E00E949D2D8823D1F363
:105580008DE692E00E94A72D8E8B873FF1F18DE68C
:1055900092E00E949D2D8823D1F38DE692E00E9437
:1055A000A72D8F8B873F89F18DE692E00E949D2D7C
:1055B0008823D1F38DE692E00E94A72D888F873F44
:1055C00021F18DE692E00E949D2D8823D1F38DE696
:1055D00092E00E94A72D898F873FB9F0F12C173FE9
:1055E00009F47BCE8DE692E00E949D2D8823D1F3B5
:1055F0008DE692E00E94A72D182F873F81F3FE01D0
:10560000EF0DF11D828FF394EACFDF91CF911F91BF
:105610000F91FF900895CF93DF93D42FC22FFC01F9
:105620008581680F8DE692E00E947A2D6D2F8DE6C0
:1056300092E00E947A2D6C2F8DE692E00E947A2DE6
:10564000DF91CF910895FC0161831282138214824D
:105650001582108208950F931F93CF93DF938C01CF
:10566000EB0160E78CE692E00E94AE0D60E48CE610
:1056700092E00E94C00D8CE692E00E94CA0D60E6A6
:105680008CE692E00E94AE0DF80161818CE692E01A
:105690000E94C00DBE01729562956F7067277F7082
:1056A00067278CE692E00E94C00D6C2F6295607FA8
:1056B0008CE692E00E94C00D8CE692E00E94CA0D3A
:1056C000DF91CF911F910F9108950F931F93CF9367
:1056D000DF93EC010E94352E0A811B812C813D81D4
:1056E0000B5F1F4F2F4F3F4F06171707280739072C
:1056F00070F40E94352E6A837B838C839D8368813E
:1057000080E2689FB0011124CE010E942B2BDF9113
:10571000CF911F910F9108951F93CF93DF93EB01CA
:10572000142F60E78CE692E00E94AE0D60E18CE6FB
:1057300092E00E94C00D8CE692E00E94CA0D60E6E5
:105740008CE692E00E94AE0D612F8CE692E00E9402
:10575000C00DBE01729562956F7067277F706727D5
:105760008CE692E00E94C00D6C2F6295607F8CE603
:1057700092E00E94C00D8CE692E00E94CA0DDF917B
:10578000CF911F91089587E880937A0082EF8093EC
:105790007E0080E180937F000895EF920F93606414
:1057A00060937C00E0927B00EAE7F0E08081806417
:1057B000808380917A0086FDFCCF80917800909163
:1057C00079009695879596958795F901608166236E
:1057D00039F0FA018083809178009091790018C0A7
:1057E0009927FA01408150E0BA01625E7F4F681745
:1057F00079072CF04E515109841795071CF481E06C
:10580000F9018083802F90E0880F991F880F991FDE
:105810000F91EF900895EF920F93606460937C0076
:10582000E0927B00EAE7F0E08081806480838091F1
:105830007A0086FDFCCF8091780090917900969552
:10584000879596958795F9016081662359F0FA014D
:105850008083FC01FF27EE0FFF1FE655FF4E859169
:1058600094911AC09927FA01408150E0BA01625E12
:105870007F4F681779072CF04E515109841795070F
:105880001CF481E0F9018083E02FF0E0EE0FFF1FB0
:10589000E655FF4E859194910F91EF900895EF9208
:1058A0000F93606460937C00E0927B00EAE7F0E095
:1058B00080818064808380917A0086FDFCCF809116
:1058C0007800909179009695879596958795F9013E
:1058D0006081662329F0FA01808381111EC026C0F1
:1058E0009927FA01408150E0BA01625E7F4F681744
:1058F00079072CF04E515109841795071CF481E06B
:10590000F90180830023A9F0E02FF0E0EE0FFF1FE4
:10591000E655FF4E859194910EC0FC01FF27EE0FD6
:10592000FF1FE655FF4E8591949105C08FEF9FEFC5
:1059300002C08FEF9FEF0F91EF900895EF920F93BA
:10594000606460937C00E0927B00EAE7F0E0808195
:105950008064808380917A0086FDFCCF80917800FE
:10596000909179009695879596958795F901608134
:10597000662359F0FA018083FC01FF27EE0FFF1F19
:10598000E655F14F859194911AC09927FA0140810B
:1059900050E0BA01625E7F4F681779072CF04E51D4
:1059A0005109841795071CF481E0F9018083E02FE9
:1059B000F0E0EE0FFF1FE655F14F859194910F91A6
:1059C000EF900895606460937C0020937B00EAE789
:1059D000F0E080818064808380917A0086FDFCCF36
:1059E00087E090E01816190694F4DC01AA0FBB1F9B
:1059F000A40FB51FFC01E150F048EE0FFF1FE40FAC
:105A0000F51F208131812D933C930197EBCF80913D
:105A1000780090917900FA019183808320E030E052
:105A200080E090E02830310564F4F901EE0FFF1FAB
:105A3000E40FF51F60817181860F971F2F5F3F4F25
:105A4000F1CF969587959695879596958795089524
:105A50001092CD008FE18093CC00E9ECF0E088E17A
:105A600080838081806C808386E08093CA00089563
:105A7000CF93DF93DB0190917002809171029813B4
:105A8000FACF20E0822F90E0FD0101900020E9F79D
:105A90003197EA1BFB0B8E179F07B8F4E091700259
:105AA000F0E0ED01C80FD91F8881EE58FD4F8083CB
:105AB000809170028F5F80937002809170028823C2
:105AC00014F4109270022F5FDDCF8091C80085FF23
:105AD0000EC08C918093CE00809171028F5F809375
