:100000000C94D3090C94FB090C94FB090C94FB0988
:100010000C94FB090C94FB090C94FB090C94FB0950
:100020000C94FB090C94FB090C94FB090C94FB0940
:100030000C94FB090C94FB090C94FB090C94FB0930
:100040000C94FB090C94FB090C94FB090C94FB0920
:100050000C94E40D0C94602C0C94FB090C94FB099B
:100060000C94FB090C942C2C0C94FB090C94052C7F
:100070000C94FB090C94FB090C94FB090C94FB09F0
:100080000C94FB090C94FB090C94FB090C94FB09E0
:100090000C94FB090C94FB090C94FB090C94FB09D0
:1000A0000C94FB090C94FB090C94FB0900407A109A
:1000B000F35A00A0724E18090010A5D4E80000E819
:1000C0007648170000E40B54020000CA9A3B000077
:1000D00000E1F505000080969800000040420F0006
:1000E0000000A08601000000102700000000E803C7
:1000F000000000006400000000000A000000000092
:100100000100000000002C76D888DC674F0823DF50
:10011000C1DFAE59E1B1B796E5E3E453C63AE65123
:10012000997696E8E6C28426EB898C9B62ED407C4A
:100130006FFCEFBC9C9F40F2BAA56FA5F490055AE6
:100140002AF75C936B6CF9676DC11BFCE0E40D470B
:10015000FEF520E6B500D0ED902E0300943577052E
:100160000080841E080000204E0A000000C80C33E6
:100170003333330F986E12831141EF8D2114893B75
:10018000E65516CFFEE6DB18D1844B381BF77C1DF5
:10019000901DA4BBE424203284725E228100C9F148
:1001A00024ECA1E53D27FF03F603EF03E703DF039C
:1001B000D703CF03C703BF03B803B003A803A0034B
:1001C000990391038A0382037B0373036C03640323
:1001D0005D0356034E0347034003390331032A03EB
:1001E00023031C0315030E0307030003F902F202A5
:1001F000EB02E402DE02D702D002C902C302BC0253
:10020000B502AF02A802A2029B0295028E028802EA
:1002100081027B0275026F02680262025C02560272
:1002200050024A0243023D02370231022C022602EA
:1002300020021A0214020E0209020302FD01F80153
:10024000F201EC01E701E101DC01D601D101CC01B1
:10025000C601C101BC01B601B101AC01A701A101F8
:100260009C01970192018D01880183017E01790132
:10027000750170016B01660161015D015801530157
:100280004F014A01460141013D01380134012F016E
:100290002B01270122011E011A01160112010D0175
:1002A000090105010101FD00F900F500F100EE0072
:1002B000EA00E600E200DE00DB00D700D300D00059
:1002C000CC00C800C500C100BE00BA00B700B40031
:1002D000B000AD00AA00A600A300A0009D009A00F7
:1002E0009700940090008D008B00880085008200AC
:1002F0007F007C0079007700740071006F006C0053
:1003000069006700640062005F005D005A005800E9
:100310005600530051004F004D004A00480046006F
:100320004400420040003E003C003A0038003600E5
:100330003400330031002F002D002C002A0028004B
:10034000270025002400220021001F001E001D00A0
:100350001B001A00190017001600150014001300E6
:100360001200110010000F000E000D000C000B0019
:100370000A00090009000800070006000600050041
:100380000500040004000300030002000200010055
:10039000010001000100000000000000000000005A
:1003A000000000000000FF03F303E703DB03CF03BB
:1003B000C303B803AD03A10396038B038003750346
:1003C0006A035F0354034A033F0335032A032003F0
:1003D00016030C030203F802EE02E402DB02D10270
:1003E000C802BE02B502AC02A302990290028802C2
:1003F0007F0276026D0265025C0254024B024302E8
:100400003B0233022B0223021B0213020B020402E3
:10041000FC01F501ED01E601DE01D701D001C901C2
:10042000C201BB01B401AD01A701A0019901930173
:100430008D01860180017A0173016D0167016101FF
:100440005B01560150014A0145013F013901340168
:100450002F01290124011F011A01150110010B01AF
:1004600006010101FC00F700F300EE00EA00E500E0
:10047000E100DC00D800D400D000CC00C800C300EC
:10048000C000BC00B800B400B000AC00A900A500DA
:10049000A2009E009B009700940091008D008A00AE
:1004A0008700840081007E007B0078007500720068
:1004B00070006D006A0067006500620060005D000A
:1004C0005B0059005600540052004F004D004B0095
:1004D000490047004500430041003F003D003B000C
:1004E0003A003800360034003300310030002E006E
:1004F0002C002B002A0028002700250024002300C0
:10050000220020001F001E001D001C001B001A00FE
:10051000190018001700160015001400130012002F
:100520001100100010000F000E000E000D000C0056
:100530000C000B000A000A0009000900080008006E
:10054000070007000600060006000500050004007D
:100550000400040003000300030003000200020083
:100560000200020002000100010001000100010080
:10057000010000000000000000000000000000007A
:10058000000000000000000000000000000000006B
:10059000000000000000000000000000000000005B
:1005A000000000000000000000016A01BC01000220
:1005B0003D027402A602D50201032A035203780306
:1005C0009C03BF03E103010421043F045D047A049A
:1005D0009704B204CD04E80402051B0534054C055C
:1005E00064057C059305AA05C105D705ED0502063E
:1005F00017062C06410655066A067D069106A506D5
:10060000B806CB06DE06F0060307150727073907ED
:100610004A075C076D077F079007A007B107C2076D
:10062000D207E307F3070308130823083308420837
:100630005208610870087F088F089D08AC08BB0845
:10064000CA08D808E708F5080309120920092E0985
:100650003C094A0957096509730980098E099B09F4
:10066000A909B609C309D009DD09EA09F709040A8D
:10067000110A1D0A2A0A370A430A500A5C0A680A44
:10068000750A810A8D0A990AA50AB20ABE0AC90A20
:10069000D50AE10AED0AF90A040B100B1C0B270B13
:1006A000330B3E0B490B550B600B6B0B770B820B1F
:1006B0008D0B980BA30BAE0BB90BC40BCF0BDA0B46
:1006C000E50BEF0BFA0B050C0F0C1A0C250C2F0C7D
:1006D0003A0C440C4F0C590C630C6E0C780C820CC9
:1006E0008D0C970CA10CAB0CB50CBF0CC90CD40C29
:1006F000DE0CE70CF10CFB0C050D0F0D190D230D95
:100700002C0D360D400D4A0D530D5D0D660D700D0F
:100710007A0D830D8D0D960D9F0DA90DB20DBC0D9B
:10072000C50DCE0DD80DE10DEA0DF30DFC0D060E35
:100730000F0E180E210E2A0E330E3C0E450E4E0ED5
:10074000570E600E690E720E7B0E840E8C0E950E87
:100750009E0EA70EB00EB80EC10ECA0ED20EDB0E44
:10076000E40EEC0EF50EFE0E060F0F0F170F200F06
:10077000280F310F390F410F4A0F520F5B0F630FD4
:100780006B0F740F7C0F840F8D0F950F9D0FA50FAE
:10079000AD0FB60FBE0FC60FCE0FD60FDE0FE60F92
:1007A000EE0FF60FFF0F35021502F801DB01C10154
:1007B000A70190017901640150013D012C011A014A
:1007C0000B01FC00ED00E100D400C800BD00B20048
:1007D000A8009E0096008D0085007E0076007000C7
:1007E0006A0064005F00590054004F004B0047004E
:1007F00043003F003B003800350032002F002C0042
:100800002A0028002500240021001F001D001C00D4
:100810001B00190017001600150014001300120029
:1008200010000F000E000E000D000C000C000B005D
:100830000A000A000A000900080007000700070074
:10084000060006000600060005000500050004007D
:1008500041EE0E00BA170E003E4D0D001F8E0C002B
:10086000BAD90B00742F0B00BE8E0A000CF70900DA
:10087000DE670900BAE008002B610800C5E8070040
:1008800020770700DD0B07009FA606000F47060034
:10089000DDEC0500BA9705005F47050086FB040004
:1008A000EFB304005D7004009530040062F40300AF
:1008B00090BB0300EE8503004F5303008723030022
:1008C0006EF60200DDCB0200AFA30200C37D020082
:1008D000F75902002E3802004A18020031FA0100CE
:1008E000C8DD0100F7C20100A7A90100C391010002
:1008F000377B0100EE650100D7510100E13E0100A8
:10090000FB2C0100171C0100250C010018FD000044
:10091000E4EE00007BE10000D3D40000E1C8000059
:100920009BBD0000F7B20000EBA80000709F000024
:100930007D9600000B8E0000128600008C7E000069
:1009400072770000BD700000696A000070640000EA
:10095000CD5E00007B59000075540000B84F0000C8
:100960003E4B00000547000009430000463F0000E1
:10097000B93B00005E38000034350000383200001A
:10098000662F0000BD2C00003A2A0000DC27000082
:100990009F2500008223000084210000A31F000087
:1009A000DC1D0000FF03FB03F703F303EF03EB037E
:1009B000E703E303DF03DB03D703D303CF03CB0357
:1009C000C703C303BF03BB03B703B303AF03AB0347
:1009D000A703A3039F039B03970393038F038B0337
:1009E000870383037F037B03770373036F036B0327
:1009F000670363035F035B03570353034F034B0317
:100A0000470343033F033B03370333032F032B0306
:100A1000270323031F031B03170313030F030B03F6
:100A200007030303FF02FB02F702F302EF02EB02EC
:100A3000E702E302DF02DB02D702D302CF02CB02DE
:100A4000C702C302BF02BB02B702B302AF02AA02CF
:100A5000A602A2029E029A02960292028E028A02C6
:100A6000860282027E027A02760272026E026A02B6
:100A7000660262025E025A02560252024E024A02A6
:100A8000460242023E023A02360232022E022A0296
:100A9000260222021E021A02160212020E020A0286
:100AA00006020202FE01FA01F601F201EE01EA017C
:100AB000E601E201DE01DA01D601D201CE01CA016E
:100AC000C601C201BE01BA01B601B201AE01AA015E
:100AD000A601A2019E019A01960192018E018A014E
:100AE000860182017E017A01760172016E016A013E
:100AF000660162015E015A01550151014D01490132
:100B0000450141013D013901350131012D01290125
:100B1000250121011D011901150111010D01090115
:100B200005010101FD00F900F500F100ED00E9000B
:100B3000E500E100DD00D900D500D100CD00C900FD
:100B4000C500C100BD00B900B500B100AD00A900ED
:100B5000A500A1009D009900950091008D008900DD
:100B6000850081007D007900750071006D006900CD
:100B7000650061005D005900550051004D004900BD
:100B8000450041003D003900350031002D002900AD
:100B9000250021001D001900150011000D0009009D
:100BA00005000000FF03FB03F703F303EF03EB0370
:100BB000E703E303DF03DB03D703D303CF03CB0355
:100BC000C703C303BF03BB03B703B303AF03AB0345
:100BD000A703A3039F039B03970393038F038B0335
:100BE000870383037F037B03770373036F036B0325
:100BF000670363035F035B03570353034F034B0315
:100C0000470343033F033B03370333032F032B0304
:100C1000270323031F031B03170313030F030B03F4
:100C200007030303FF02FB02F702F302EF02EB02EA
:100C3000E702E302DF02DB02D702D302CF02CB02DC
:100C4000C702C302BF02BB02B702B302AF02AA02CD
:100C5000A602A2029E029A02960292028E028A02C4
:100C6000860282027E027A02760272026E026A02B4
:100C7000660262025E025A02560252024E024A02A4
:100C8000460242023E023A02360232022E022A0294
:100C9000260222021E021A02160212020E020A0284
:100CA00006020202FE01FA01F601F201EE01EA017A
:100CB000E601E201DE01DA01D601D201CE01CA016C
:100CC000C601C201BE01BA01B601B201AE01AA015C
:100CD000A601A2019E019A01960192018E018A014C
:100CE000860182017E017A01760172016E016A013C
:100CF000660162015E015A01550151014D01490130
:100D0000450141013D013901350131012D01290123
:100D1000250121011D011901150111010D01090113
:100D200005010101FD00F900F500F100ED00E90009
:100D3000E500E100DD00D900D500D100CD00C900FB
:100D4000C500C100BD00B900B500B100AD00A900EB
:100D5000A500A1009D009900950091008D008900DB
:100D6000850081007D007900750071006D006900CB
:100D7000650061005D005900550051004D004900BB
:100D8000450041003D003900350031002D002900AB
:100D9000250021001D001900150011000D0009009B
:100DA000050000000000470510069406F7064907F5
:100DB0008E07CB07010831085E088708AE08D20805
:100DC000F308130931094E09690984099D09B50918
:100DD000CC09E209F8090D0A210A350A480A5B0A1A
:100DE0006D0A7E0A8F0AA00AB00AC00AD00ADF0A7A
:100DF000EE0AFC0A0B0B190B260B340B410B4E0BA6
:100E00005B0B670B740B800B8C0B970BA30BAE0B60
:100E1000BA0BC50BD00BDA0BE50BEF0BFA0B040C7E
:100E20000E0C180C210C2B0C350C3E0C470C500CE6
:100E30005A0C630C6B0C740C7D0C850C8E0C960C90
:100E40009F0CA70CAF0CB70CBF0CC70CCF0CD70C6A
:100E5000DE0CE60CEE0CF50CFD0C040D0B0D120D6A
:100E60001A0D210D280D2F0D360D3D0D430D4A0D88
:100E7000510D570D5E0D650D6B0D720D780D7E0DCC
:100E8000850D8B0D910D970D9D0DA40DAA0DB00D27
:100E9000B60DBC0DC10DC70DCD0DD30DD90DDE0D99
:100EA000E40DEA0DEF0DF50DFA0D000E050E0B0E1B
:100EB000100E150E1B0E200E250E2B0E300E350EAD
:100EC0003A0E3F0E440E490E4E0E530E580E5D0E56
:100ED000620E670E6C0E710E760E7A0E7F0E840E09
:100EE000890E8D0E920E970E9B0EA00EA40EA90ECB
:100EF000AE0EB20EB70EBB0EC00EC40EC80ECD0E97
:100F0000D10ED50EDA0EDE0EE20EE70EEB0EEF0E70
:100F1000F30EF80EFC0E000F040F080F0C0F100F4D
:100F2000140F190F1D0F210F250F290F2D0F310F32
:100F3000340F380F3C0F400F440F480F4C0F500F29
:100F4000530F570F5B0F5F0F630F660F6A0F6E0F24
:100F5000710F750F790F7C0F800F840F870F8B0F28
:100F60008F0F920F960F990F9D0FA00FA40FA70F31
:100F7000AB0FAE0FB20FB50FB90FBC0FC00FC30F41
:100F8000C60FCA0FCD0FD10FD40FD70FDB0FDE0F57
:100F9000E10FE40FE80FEB0FEE0FF20FF50FF80F74
:100FA000FB0FFF0F000007000E0015001C002300C0
:100FB0002A00310038003F0046004D0054005B001D
:100FC00062006900700077007E0085008C0093004D
:100FD0009A00A100A800AF00B600BD00C400CB007D
:100FE000D200D900E000E700EE00F500FC000301AC
:100FF0000A01110118011F0126012D0134013B01D5
:1010000042014901500157015E0165016C01730104
:101010007A01810188018F0196019D01A401AB0134
:10102000B201B901C001C701CE01D501DC01E30164
:10103000EA01F101F801FF0106020D0214021B0290
:1010400022022902300237023E0245024C025302BC
:101050005A02610268026F0276027D0284028B02EC
:1010600092029902A002A702AE02B502BC02BE0221
:10107000C002C202C402C602C802CA02CC02CE0228
:10108000D002D202D502D702D902DB02DD02DF0292
:10109000E102E302E502E702E902EB02EE02F002FE
:1010A000F202F402F602F802FA02FC02FE02000367
:1010B00002030403070309030B030D030F031103CA
:1010C00013031503170319031B031D032003220336
:1010D0002403260328032A032C032E0330033203A0
:1010E0003403360339033B033D033F03410343030A
:1010F0004503470349034B034D034F035203540376
:10110000560358035A035C035E03600362036403DF
:10111000660368036B036D036F0371037303750349
:10112000770379037B037D037F03810384038603B5
:1011300088038A038C038E0390039203940396031F
:1011400098039A039D039F03A103A303A503A70389
:10115000A903AB03AD03AF03B103B303B603B803F5
:10116000BA03BC03BE03C003C203C403C603C8035F
:10117000CA03CC03CF03D103D303D503D703D903C9
:10118000DB03DD03DF03E103E303E503E803EA0335
:10119000EC03EE03F003F203F403F603F803FA039F
:1011A000FC03FF030000000000000000000000003E
:1011B0000000000001000100010001000200020027
:1011C00003000300040004000500050006000600FB
:1011D00007000800090009000A000B000C000D00C0
:1011E0000E000F0010001100120013001400150073
:1011F0001600170019001A001B001D001E001F001A
:101200002100220024002500270028002A002C00AD
:101210002D002F00310033003400360038003A0032
:101220003C003E00400042004400460048004A00A6
:101230004D004F0051005300560058005A005D0009
:101240005F0062006400670069006C006F0071005D
:101250007400770079007C007F00820085008800A0
:101260008B008D009000940097009A009D00A000D4
:10127000A300A600AA00AD00B000B400B700BA00F9
:10128000BE00C100C500C800CC00D000D300D7000C
:10129000DB00DE00E200E600EA00EE00F100F5000F
:1012A000F900FD000101050109010D0112011601FE
:1012B0001A011E01220127012B012F0134013801DF
:1012C0003D01410146014A014F01530158015D01B1
:1012D000610166016B017001750179017E01830175
:1012E00088018D01920197019C01A101A701AC0128
:1012F000B101B601BC01C101C601CC01D101D601C9
:10130000DC01E101E701EC01F201F801FD0103025A
:1013100009020E0214021A02200226022C023102D5
:1013200037023D0243024A02500256025C02620248
:1013300068026F0275027B02810288028E029502AA
:101340009B02A202A802AF02B502BC02C302C902FC
:10135000D002D702DE02E402EB02F202F90200033D
:1013600007030E0315031C0323032A033103390368
:10137000400347034E0356035D0364036C0373038A
:101380007B0382038A0391039903A003A803B0039C
:10139000B803BF03C703CF03D703DF03E703EF039C
:1013A000F603FF03472711241FBECFEFDAE0DEBFAD
:1013B000CDBF12E0A0E0B1E0E6E7F9E602C005909B
:1013C0000D92A438B107D9F723E0A4E8B2E001C038
:1013D0001D92AD39B207E1F719E0C3EDD9E004C0C1
:1013E0002197FE010E94EF31C23DD107C9F70E944B
:1013F000F4200C94B9340C940000EF92FF920F93F8
:101400001F93CF93DF93DC01EB018881E1E0F0E0F3
:10141000022E02C0EE0FFF1F0A94E2F7E095E823C8
:10142000E88312962C93129711965C934E9319961B
:10143000ED92FD920D931C931C97DF91CF911F911C
:101440000F91FF90EF9008958F929F92AF92BF926D
:10145000FF920F931F93CF93DF93EC01E881F98103
:1014600020813A8101E010E0C801032E02C0880FFC
:10147000991F0A94E2F7022F10E00823192302C0F3
:10148000159507953A95E2F7F02E8B81081731F004
:101490000E94572C6D837E838F8398870E94572CE0
:1014A0008D809E80AF80B884DC01CB0188199909BA
:1014B000AA09BB0989849A84AB84BC8488169906DE
:1014C000AA06BB0618F48C81F8120C830B838C815E
:1014D000DF91CF911F910F91FF90BF90AF909F90A0
:1014E0008F900895FC01648711821082138212820A
:1014F00014821582168217821086118608950F9322
:101500001F93CF93DF938C01EB0161E682E992E0B8
:101510000E94120EF801648582E992E00E94240E76
:10152000BE01729562956F7067277F70672782E9A9
:1015300092E00E94240E6C2F6295607F82E992E017
:101540000E94240E82E992E00E942E0EDF91CF913C
:101550001F910F9108958F929F92AF92BF92EF9239
:10156000FF920F931F93CF93DF93EC017B010881D0
:1015700019810617170760F5B80180E090E00E9416
:1015800099304B015C01B70180E090E00E949930F6
:101590009B01AC01C501B4010E94F82F20E030E0AE
:1015A0004FE753E40E9427310E946A30E62FF0E0B3
:1015B000EE0FFF1FEA55FA4F659174917B876A879A
:1015C0000F5F1F4F19830883CE010E947F0A09C055
:1015D0006FEF7FE00E947F0A1E8281E08F83198275
:1015E0001882DF91CF911F910F91FF90EF90BF90E4
:1015F000AF909F908F9008958F929F92AF92BF92DD
:10160000EF92FF920F931F93CF93DF93EC017B0137
:10161000088119810617170708F05CC0B80180E03F
:1016200090E00E9499304B015C01B70180E090E0AE
:101630000E9499309B01AC01C501B4010E94F82FB2
:1016400020E030E04FE753E40E9427310E946A30E7
:10165000E62FF0E0EE0FFF1FEA55FC4F6591749105
:1016600080E090E00E94993020E030EC4FE754E4B5
:101670000E94F82F4B015C018A819B81811590416A
:1016800020F08FEF9FE09B838A83EA80FB806FEFDF
:101690007FE06E197F0980E090E00E949930A501FB
:1016A00094010E9427314B015C01B70180E090E07A
:1016B0000E949930A50194010E948C2F0E946A30EB
:1016C0007B876A870F5F1F4F19830883CE010E94B3
:1016D0007F0A13C08A819B818115904120F08FEF92
:1016E0009FE09B838A836A817B81CE010E947F0A6F
:1016F0001F8281E0888719821882DF91CF911F9124
:101700000F91FF90EF90BF90AF909F908F900895B2
:10171000FC01228133812115304128F02FEF3FE079
:10172000FC0133832283FC01628173810E947F0A62
:1017300008958F929F92AF92BF92CF92DF92EF92D5
:10174000FF920F931F93CF93DF93EC017B010881EE
:1017500019810617170708F04DC0B80180E090E026
:101760000E9499304B015C01B70180E090E00E943B
:1017700099309B01AC01C501B4010E94F82F20E013
:1017800030E04FE753E40E9427310E946A30E62F91
:10179000F0E0EE0FFF1FEA55FE4F6591749180E077
:1017A00090E00E94993020E030EC4FE754E40E9432
:1017B000F82F6B017C018A819B818115904120F07B
:1017C0008FEF9FE09B838A836A817B8180E090E03A
:1017D0000E949930A70196010E9427310E946A3029
:1017E0007B876A870F5F1F4F19830883CE010E9492
:1017F0007F0A09C01B861A8660E070E00E947F0A9B
:10180000198619821882DF91CF911F910F91FF9055
:10181000EF90DF90CF90BF90AF909F908F90089502
:101820004F925F926F927F92AF92BF92CF92DF9270
:10183000EF92FF920F931F93CF93DF93EC015B0125
:101840006A0179018C81811113C08D81882381F017
:1018500081E08C838E831F82188619863B832A83BE
:101860000E94572C6D877E878F87988B19821882EC
:101870008C818823C1F08D81811115C08E818111E9
:1018800003C08F81882329F08A859B859B838A8367
:1018900002C0FB82EA821C821E821F82188681E0BF
:1018A00089871982188289858823E9F08C818111C2
:1018B0001AC00E94572C4D845E846F8478882AE079
:1018C000420E511C611C711C4616570668067906AB
:1018D00050F40E94572C6D877E878F87988BB801B4
:1018E000CE010E94990B8E818823C9F00E94572C4B
:1018F0000D851E852F8538890B5F1F4F2F4F3F4F5A
:10190000061717072807390750F40E94572C6D87D0
:101910007E878F87988BB501CE010E94AB0A8F819D
:10192000882301F10E94572C0D851E852F8538894B
:101930000B5F1F4F2F4F3F4F061717072807390719
:1019400088F40E94572C6D877E878F87988B8A81B9
:101950009B81E816F90611F0FB82EA82B601CE01FE
:101960000E94FC0A88858823F9F00E94572C0D8577
:101970001E852F8538890B5F1F4F2F4F3F4F06174E
:1019800017072807390780F40E94572C6D877E8738
:101990008F87988B8A819B81E816F90629F0FB8254
:1019A000EA82CE010E94880BDF91CF911F910F91A7
:1019B000FF90EF90DF90CF90BF90AF907F906F90AF
:1019C0005F904F9008951F93CF93DF93EB01142FF7
:1019D00060E782E992E00E94120E60E182E992E003
:1019E0000E94240E82E992E00E942E0E61E682E9B6
:1019F00092E00E94120E612F82E992E00E94240E72
:101A0000BE01729562956F7067277F70672782E9C4
:101A100092E00E94240E6C2F6295607F82E992E032
:101A20000E94240E82E992E00E942E0EDF91CF9157
:101A30001F910895CF93DF93DC01EB019881E1E0E2
:101A4000F0E0022E02C0EE0FFF1F0A94E2F7E095CD
:101A5000E923E8832C9312965C934E93119710928E
:101A6000810081E080936F00DF91CF910895DC01C8
:101A700010928402109285021092860210928702C0
:101A80001092810010928500109284001196ED91C1
:101A9000FC91129780812C91622F41E050E0022E40
:101AA00002C0440F551F0A94E2F790E08423952367
:101AB00002C0959587952A95E2F7019739F3208121
:101AC00030E024233523062E02C0359527950A944D
:101AD000E2F7232BA1F381E0809381001196ED9131
:101AE000FC91129720818C91682F41E050E0082EE4
:101AF00002C0440F551F0A94E2F730E02423352337
:101B000002C0359527958A95E2F72130310531F3EA
:101B1000808190E084239523062E02C095958795B9
:101B20000A94E2F7892BA1F3E0918400F0918500FB
:101B300010928100209184023091850240918602AA
:101B400050918702AFEFBFEF0E94C2316E0F7F1F2F
:101B5000811D911D08958F929F92AF92BF92CF9257
:101B6000DF92EF92FF9269017A01862F90E0FC01EB
:101B7000EE0FFF1FEE0FFF1FE05BF74F8590959074
:101B8000A590B490FC01EE0FFF1FEA55F84F659148
:101B9000749180E090E00E949930A70196010E9424
:101BA00027310E946A30A5019401261B370B480B90
:101BB000590BCA01B901FF90EF90DF90CF90BF9011
:101BC000AF909F908F9008951F920F920FB60F9233
:101BD00011248F939F93AF93BF9380918402909130
:101BE0008502A0918602B09187020196A11DB11DC8
:101BF0008093840290938502A0938602B09387021B
:101C0000BF91AF919F918F910F900FBE0F901F903A
:101C100018958AB183608AB91092B90088E48093DC
:101C2000B800089584EA8093BC008091BC008823AA
:101C3000E4F7660F6093BB0084E88093BC0080915A
:101C4000BC008823E4F708956093BB0084E8809388
:101C5000BC008091BC008823E4F7089584E9809358
:101C6000BC008091BC0084FDFCCF0895FC0164871A
:101C700011821082138212821482158216821782B8
:101C80001086118608950F931F93CF93DF938C01D5
:101C9000C62FD72F60E682E992E00E94120EF8016B
:101CA000648582E992E00E94240E6D2F82E992E021
:101CB0000E94240E6C2F82E992E00E94240E82E999
:101CC00092E00E942E0EDF91CF911F910F91089507
:101CD0008F929F92AF92BF92CF92DF92EF92FF923C
:101CE0000F931F93CF93DF93EC018B016881798170
:101CF0006017710708F082C06115710509F050C0C6
:101D00008A859B85009709F44BC0BC0180E090E078
:101D10000E94993020E030E049EA54E40E94F82F14
:101D20006B017C019B01AC010E9427319B01AC013E
:101D3000C701B6010E9427319B01AC01C701B60162
:101D40000E9427319B01AC01C701B6010E942731D7
:101D50000E946A30F62E70E080E090E00E94993098
:101D600020E030E04FE753E40E94F82F4B015C0184
:101D7000B80180E090E00E949930A50194010E9492
:101D800027310E946A3079836883EF2DF0E0EE0FEF
:101D9000FF1FEC55F24F859194919B878A8723C052
:101DA00080E090E00E9499306B017C01B80180E0F6
:101DB00090E00E9499309B01AC01C701B6010E94DE
:101DC000F82F20E030E04FE753E40E9427310E94D3
:101DD0006A30E62FF0E0EE0FFF1FEC55F24F8591D1
:101DE00094919B878A8788819981019699838883BA
:101DF0006A857B85CE010E94430E09C06FEF7FE0AC
:101E00000E94430E1E8281E08F8319821882DF9127
:101E1000CF911F910F91FF90EF90DF90CF90BF90E7
:101E2000AF909F908F9008958F929F92AF92BF92A4
:101E3000EF92FF920F931F93CF93DF93EC017B01FF
:101E4000088119810617170708F05CC0B80180E007
:101E500090E00E9499304B015C01B70180E090E076
:101E60000E9499309B01AC01C501B4010E94F82F7A
:101E700020E030E04FE753E40E9427310E946A30AF
:101E8000E62FF0E0EE0FFF1FEC55F44F65917491D3
:101E900080E090E00E94993020E030EC4FE754E47D
:101EA0000E94F82F4B015C018A819B818115904132
:101EB00020F08FEF9FE09B838A83EA80FB806FEFA7
:101EC0007FE06E197F0980E090E00E949930A501C3
:101ED00094010E9427314B015C01B70180E090E042
:101EE0000E949930A50194010E948C2F0E946A30B3
:101EF0007B876A870F5F1F4F19830883CE010E947B
:101F0000430E13C08A819B818115904120F08FEF91
:101F10009FE09B838A836A817B81CE010E94430E6E
:101F20001F8281E0888719821882DF91CF911F91EB
:101F30000F91FF90EF90BF90AF909F908F9008957A
:101F4000FC01228133812115304128F02FEF3FE041
:101F5000FC0133832283FC01628173810E94430E62
:101F60000895FC0114821682178210861186118250
:101F70001082138212820E94A00F0895CF93DF93E4
:101F8000FC012481211110C0EC010E94572C6D87A7
:101F90007E878F87988B8FEF9FE09B838A83CE010C
:101FA0000E94A00F81E08C83DF91CF9108958F92E2
:101FB0009F92AF92BF92CF92DF92EF92FF920F93D8
:101FC0001F93CF93DF93EC017B01088119810617E2
:101FD000170708F04DC0B80180E090E00E949930EA
:101FE0004B015C01B70180E090E00E9499309B01B9
:101FF000AC01C501B4010E94F82F20E030E04FE7AA
:1020000053E40E9427310E946A30E62FF0E0EE0F81
:10201000FF1FEC55F64F6591749180E090E00E94AF
:10202000993020E030EC4FE754E40E94F82F6B0128
:102030007C018A819B818115904120F08FEF9FE088
:102040009B838A836A817B8180E090E00E94993043
:10205000A70196010E9427310E946A307B876A8718
:102060000F5F1F4F19830883CE010E94430E09C0E2
:102070001B861A8660E070E00E94430E1986198262
:102080001882DF91CF911F910F91FF90EF90DF9019
:10209000CF90BF90AF909F908F9008954F925F9296
:1020A0006F927F92AF92BF92CF92DF92EF92FF92A8
:1020B0000F931F93CF93DF93EC015B016A017901CA
:1020C0008C81811113C08D81882381F081E08C8304
:1020D0008E831F82188619863B832A830E94572C81
:1020E0006D877E878F87988B198218828C818823D1
:1020F000F1F08D8181111BC08E81811103C08F8110
:10210000882329F08A859B859B838A8302C0FB8272
:10211000EA821C821E821F82188681E089870E94C3
:10212000572C6D877E878F87988B198218828985B7
:102130008823E9F08C8181111AC00E94572C4D84AC
:102140005E846F8478882AE0420E511C611C711CE9
:10215000461657066806790650F40E94572C6D877C
:102160007E878F87988BB801CE010E94D70F8E8112
:102170008823C9F00E94572C0D851E852F8538892C
:102180000B5F1F4F2F4F3F4F0617170728073907C1
:1021900050F40E94572C6D877E878F87988BB501EE
:1021A000CE010E94680E8F81882301F10E94572C76
:1021B0000D851E852F8538890B5F1F4F2F4F3F4F91
:1021C000061717072807390788F40E94572C6D87D0
:1021D0007E878F87988B8A819B81E816F90611F09C
:1021E000FB82EA82B601CE010E94140F8885882303
:1021F000F9F00E94572C0D851E852F8538890B5FBD
:102200001F4F2F4F3F4F061717072807390780F436
:102210000E94572C6D877E878F87988B8A819B8140
:10222000E816F90629F0FB82EA82CE010E94A00F8F
:10223000DF91CF911F910F91FF90EF90DF90CF90A2
:10224000BF90AF907F906F905F904F900895CF9226
:10225000DF92EF92FF920F931F93CF93DF93EC01E6
:102260008B018C81811115C09D81992391F081E0B2
:102270008C838FEF9FE09B838A83CE010E94A00F07
:102280000E94572C6D877E878F87988B19821882C2
:102290000DC0882359F08D81811108C01C821E82D7
:1022A0001F82188681E08987198218828985882390
:1022B000E9F08C8181111AC00E94572CCD84DE84F4
:1022C000EF84F8882AE0C20ED11CE11CF11CC6166E
:1022D000D706E806F90650F40E94572C6D877E87D2
:1022E0008F87988BB801CE010E94D70FDF91CF91D5
:1022F0001F910F91FF90EF90DF90CF9008951F9363
:10230000CF93DF93C62FD72F142F60E782E992E097
:102310000E94120E60E182E992E00E94240E82E99E
:1023200092E00E942E0E60E682E992E00E94120E78
:10233000612F82E992E00E94240E6D2F82E992E0E3
:102340000E94240E6C2F82E992E00E94240E6D2FD1
:1023500082E992E00E94240E6C2F82E992E00E94B2
:10236000240E6D2F82E992E00E94240E6C2F82E9E8
:1023700092E00E94240E6D2F82E992E00E94240ECA
:102380006C2F82E992E00E94240E82E992E00E9482
:102390002E0EDF91CF911F910895019779F46F3F31
:1023A0007F4F61F484E992E00E944E2C83E992E031
:1023B0000E940B2A82E992E00E94090E08956F9212
:1023C0007F928F929F92AF92BF92CF92DF92EF92C5
:1023D000FF920F931F93CF93DF9394EF980F953550
:1023E00008F06BC039014A01B62ED82EDA018C9163
:1023F000811126C0C0E0D0E08C2D90E0C817D9072D
:10240000D4F486EC8C9F70018D9FF00C1124E80CA5
:10241000F91C6D2DC7010E949A2CF701B38281E14E
:102420008C9FF0018D9FF00D1124E60DF71D81E0CA
:1024300085832196E1CF81E0D80115968C933DC02C
:1024400080E090E08830910554F4F701E80FF91F1F
:102450002081203839F4D40111968C918083C0E01A
:10246000D0E002C00196EECF8C2D90E0C817D907BE
:10247000D4F486EC8C9F70018D9FF00C1124E80C35
:10248000F91C6D2DC7010E949A2CF701B38281E1DE
:102490008C9FF0018D9FF00D1124E60DF71D81E05A
:1024A00085832196E1CFF1E0AF1207C0D8011496E1
:1024B0001C92149781E015968C93DF91CF911F9118
:1024C0000F91FF90EF90DF90CF90BF90AF909F90D3
:1024D0008F907F906F9008956F927F928F929F92CE
:1024E000AF92BF92CF92DF92EF92FF920F931F9322
:1024F000CF93DF931F92CDB7DEB7C255DF4F9881E0
:10250000CE5AD040998394EF980F953508F06FC05C
:1025100039014A016B01482FE0E0F0E02E2D30E058
:10252000E217F3070CF049C05F0196EC9E9FD001C3
:102530009F9FB00D1124AC0DBD1D9C919923D9F125
:1025400011969C911197491336C087E090E099232A
:1025500084F07801E80EF91EF7016081603839F0E7
:10256000CD010E949A2C80E8F701808340C001973A
:10257000EECFCD010E941E2D81E18A9DF0018B9D41
:10258000F00D1124E80DF91D1582F60180818111ED
:102590002EC0EA53FF4F8081811129C0EA53FF4FBB
:1025A0008081811124C0EA53FF4F808181111FC0B7
:1025B000F30115821CC03196B1CFF981F11111C020
:1025C00020E030E02830310594F4F801E20FF31FE9
:1025D0009081491303C080E8808309C02F5F3F4F7B
:1025E000F1CF2FE760E8CE0142960E9496280F9027
:1025F000DF91CF911F910F91FF90EF90DF90CF90DF
:10260000BF90AF909F908F907F906F9008958F9222
:102610009F92AF92BF92CF92DF92EF920F931F9350
:10262000CF93DF9394EF980F953508F066C0FB01C8
:102630009081992309F44DC0918189134DC05901AE
:102640006A01EB0187E090E099231CF14801880EB4
:10265000991EF40120812038D1F000E010E08E2D89
:1026600090E0081719077CF4F401608126EC209FA4
:10267000C001219F900D11248C0F9D1F0E949A2C48
:102680000F5F1F4FECCF80E8F401808336C00197C5
:10269000DBCF00E010E08E2D90E008171907B4F4AE
:1026A00026EC209FC001219F900D11248C0F9D1FAF
:1026B0000E941E2D81E1809FF001819FF00D112469
:1026C000EC0DFD1D15820F5F1F4FE5CFF501158243
:1026D00014C020E030E002C020E030E028303105B6
:1026E00064F4F801E20FF31F9081891303C080E8BE
:1026F000808303C02F5F3F4FF1CFDF91CF911F91B8
:102700000F91EF90DF90CF90BF90AF909F908F9000
:1027100008952F923F924F925F926F927F928F9285
:102720009F92AF92BF92CF92DF92EF92FF920F9360
:102730001F93CF93DF93CDB7DEB727970FB6F894EB
:10274000DEBF0FBECDBF8D836B017A013A83298333
:102750001C821B82212C312C3D81232F30E03F83B2
:102760002E8386EC829F8001839F100D11240E0D15
:102770001F1D64E2C8010E94EE2E8FEF96E721E054
:10278000815090402040E1F700C000008E819F8181
:10279000880F991F2E813F81280F391F2C0D3D1D59
:1027A0003F832E83C9010E94370D4B015C01689461
:1027B00012F8B694A794979487941694D1F768E486
:1027C000C8010E94EE2E3FEF86E791E03150804035
:1027D0009040E1F700C000008E819F810E94370D7C
:1027E0002B013C010E94993027E137EB41ED58E382
:1027F0000E9427310E946A30A5019401261B370BE5
:10280000480B590B241535054605570558F4DC01CE
:10281000CB01880D991DAA1DBB1D481659066A06D5
:102820007B06B0F184149504A604B70448F42FEF96
:10283000221A320A89819A8101979A83898310C06A
:10284000481459046A047B0458F42B813C812F5F9F
:102850003F4F3C832B8389819A8101969A83898398
:1028600093E32916310428F02B813C812333310571
:1028700078F469817A81C8010E94072F3FEF86E7CB
:1028800091E0315080409040E1F700C0000064CFFB
:10289000C8010E941E2D27960FB6F894DEBF0FBE0A
:1028A000CDBFDF91CF911F910F91FF90EF90DF90FF
:1028B000CF90BF90AF909F908F907F906F905F90E0
:1028C0004F903F902F9008958130D1F0823051F495
:1028D000FB0180818058808390E0880F892F881FBA
:1028E000990B0895FB018081805C808390E0082E25
:1028F000892F000C881F990B000C881F991F0895C1
:1029000080E008952F923F924F925F926F927F9254
:102910008F929F92AF92BF92CF92DF92EF92FF92EF
:102920000F931F93CF93DF93CDB7DEB727970FB6E3
:10293000F894DEBF0FBECDBFC854DF4F9881C85B8F
:10294000D0409D83C754DF4FA881C95BD040A98385
:1029500094EF980F953508F095C0FC82EB82180132
:102960003F832E832A01B62E8A83E12CF12C0A2D77
:1029700010E0E016F1060CF085C080910201813074
:1029800031F46E817F818A2D0E94641401C08E2DE6
:10299000682E712C86EC869D4001879D900C112439
:1029A000840C951CF4018081811129C06A81C401C5
:1029B0000E949A2CD4011396BC9281E1869D8001DD
:1029C000879D100D1124F101E00FF11F81E0858337
:1029D000EB81FC818481811103C08581882331F0E2
:1029E000FD81F13019F081E0A8124CC0AB81BC81AF
:1029F00014961C92149781E015968C9343C0015055
:102A00001109E016F106D1F5B981B11130C080E0AD
:102A100090E0883091056CF4F601E80FF91F2081F1
:102A2000203829F4D40111968C91808302C001963C
:102A3000F0CF6A81C4010E949A2CF401B38281E133
:102A4000869DF001879DF00D1124E20DF31D81E0BC
:102A50008583FD81F13011F0A81210C0AB81BC81DB
:102A600014961C92149781E015968C9307C02B2D19
:102A70004A8160E9CE014C960E949628BFEFEB1A7E
:102A8000FB0A75CF27960FB6F894DEBF0FBECDBFF9
:102A9000DF91CF911F910F91FF90EF90DF90CF903A
:102AA000BF90AF909F908F907F906F905F904F906E
:102AB0003F902F9008952F923F924F925F926F9286
:102AC0007F928F929F92AF92BF92CF92DF92EF92BE
:102AD000FF920F931F93CF93DF93CDB7DEB72B9762
:102AE0000FB6F894DEBF0FBECDBF5B01922E0B83F5
:102AF00087013B8024EF320E242F30E03D832C836E
:102B0000220F331F4C815D81240F351F820F931FCD
:102B10009A83898320E030E0A901632D0E94AB0DE8
:102B20006B017C01692D70E080E090E00E9499309B
:102B30009B01AC01632D89819A810E94AB0D2B0111
:102B40003C01692D70E0719561957109072E000CAB
:102B5000880B990B0E949B309B01AC01632D8981EE
:102B60009A810E94AB0D6E837F838887998726ECBC
:102B70004C815D81249FC001259F900D112445014A
:102B8000880E991E5B81852F90E09C012C503109A5
:102B90003D832C83FC013597EE0FFF1FE80DF91DD7
:102BA00040815181212C312CA12CB12C5B874A878B
:102BB000A016B10620F02016310608F06AC06B811D
:102BC000C4010E94EE2E5FEF86E791E051508040F5
:102BD0009040E1F700C0000089819A810E94370D82
:102BE000C616D706E806F906D8F42A853B852F3F96
:102BF0004FEF340789F02F5F3F4F3B872A87EC81E7
:102C0000FD813796EE0FFF1FE80DF91D2081318100
:102C10002F5F3F4F318320835FEFA51AB50A1EC097
:102C20006C157D058E059F05C8F42A853B85211509
:102C3000310589F0215031093B872A87EC81FD81DC
:102C40003796EE0FFF1FE80DF91D208131812150CD
:102C50003109318320833FEF231A330A4A855B858C
:102C600041155105C9F04F3F5F4FC9F04616570651
:102C70006806790608F09CCF2E813F8148855985EA
:102C8000621773078407950708F092CF8A859B85A2
:102C900008C08A859B8505C080E090E002C08FEF68
:102CA0009FEF2B960FB6F894DEBF0FBECDBFDF911E
:102CB000CF911F910F91FF90EF90DF90CF90BF9039
:102CC000AF909F908F907F906F905F904F903F90CC
:102CD0002F9008954F925F926F927F928F929F9262
:102CE000AF92BF92CF92DF92EF92FF920F931F931A
:102CF000CF93DF93182F5B01EA012115310559F4B9
:102D000088EE93E0FA0126EC129FE00DF11D1124EC
:102D10009787868708C0FA0146EC849FE00DF11D75
:102D20001124378726870F2EF4E6EF2EF12CF02D95
:102D30000CE021E0412FBE01C5010E945B154C0152
:102D4000892B09F05AC04E0186EC189F800C911C0B
:102D5000112481E090E0F401978786870DE021E05F
:102D6000412FBE01C5010E945B15885D92402C0178
:102D70003C016894CC24C1F8D12CF5E5CF16D104E0
:102D80000CF087C0F6013796EE0FFF1FE80DF91D16
:102D900020813181C301072C000CAA0BBB0B820FD1
:102DA000931FA11DB11D0097A140B10558F0F60178
:102DB0003796EE0FFF1FE80DF91D8FEF9FEF918300
:102DC00080830AC0F6013796EE0FFF1FE80DF91D4C
:102DD000240D351D318320830CE00C0D0F2EF2E302
:102DE000EF2EF12CF02D21E0412FBE01C5010E94F4
:102DF0005B158FEFC81AD80AC0CFCC24C394D12C4E
:102E0000E5E5CE16D1040CF044C0CE01F6EC1F9FD0
:102E1000800D911D1124F6013796EE0FFF1FE80F6C
:102E2000F91F20813181A40160E070E0420F531F3F
:102E3000611D711D411551056140710568F09601D4
:102E4000295F3F4F220F331FFC01E20FF31F2FEFCB
:102E50003FEF318320830CC0A601495F5F4F440FD1
:102E6000551FFC01E40FF51F280D391D3183208308
:102E70000CE00C0D0F2EF2E3EF2EF12CF02D21E0E3
:102E8000412FBE01C5010E945B15FFEFCF1ADF0A7B
:102E9000B7CFCE0126EC129F800D911D11240E9408
:102EA0001E2DDF91CF911F910F91FF90EF90DF903A
:102EB000CF90BF90AF909F908F907F906F905F90DA
:102EC0004F9008952F923F924F925F926F927F9210
:102ED0008F929F92AF92BF92CF92DF92EF92FF922A
:102EE0000F931F93CF93DF93CDB7DEB7CC5BD109A0
:102EF0000FB6F894DEBF0FBECDBF5B014A013901AA
:102F0000C555DF4FC882CB5AD040C455DF4FD88259
:102F1000CC5AD040C355DF4FE882CD5AD040C2557D
:102F2000DF4FF882CE5AD040C155DF4F0883CF5AC9
:102F3000D040C055DF4F1883C05BD04024E830E05C
:102F400033235CF0482F50E0421753071CF0182F32
:102F5000121B04C02C503109F3CF10E01111D6C15F
:102F600060E782E992E00E94120E60E482E992E05A
:102F70000E94240E82E992E00E942E0E60E070E032
:102F8000CE0185559F4F0E94B62860E782E992E006
:102F90000E94120E60E182E992E00E94240E82E912
:102FA00092E00E942E0EC4014196CF54DF4F9983C8
:102FB0008883C15BD04060E070E00E94430EF40162
:102FC000B296CD54DF4FF983E883C35BD04060E015
:102FD00070E0CF010E94430E6401F3E3CF0ED11CD9
:102FE00060E070E0C6010E94430E15BCF501068446
:102FF000F785E02DCB54DF4FF983E883C55BD040E4
:103000002501F6EC4F0E511CF2010684F785E02DE8
:10301000C954DF4FF983E883C75BD0407501F4E7FB
:10302000EF1AFEEFFF0AF7010684F785E02DC7547B
:10303000DF4FF983E883C95BD0401501FEEA2F1A00
:10304000FDEF3F0AF1010684F785E02DC554DF4FFF
:10305000F983E883CB5BD0408AEAECE0F1E0DE0163
:10306000119601900D928A95E1F78AEAFE01319658
:10307000D5011E9601900D928A95E1F7D501AC52CB
:10308000BF4F8AEAFE01319601900D928A95E1F7D1
:10309000D501A656BE4F8AEAFE01319601900D92E7
:1030A0008A95E1F7D501A05ABD4F8AEAFE01319613
:1030B00001900D928A95E1F760E782E992E00E9423
:1030C000120E60E182E992E00E94240E82E992E011
:1030D0000E942E0E6FEF7FE0C4010E94430E8CEA27
:1030E00092E00E945F349C01A501B30180E00E9440
:1030F0008913CB54DF4F28813981C55BD040A501AE
:10310000B30180E00E946A16F501648575858CEA3A
:1031100092E00E947D344AEA50E064E070E0C5012C
:103120000E960E94653460E782E992E00E94120EDA
:1031300060E182E992E00E94240E82E992E00E941E
:103140002E0E60E070E0C4010E94430EF401148270
:103150006FEF7FE0CF54DF4F88819981C15BD04012
:103160000E94430E8EEA92E00E945F349C01A5010A
:10317000B30181E00E948913C954DF4F288139814E
:10318000C75BD040A501B30181E00E946A16F2013D
:10319000648575858EEA92E00E947D344AEA50E0AB
:1031A0006EEA70E0C2010E960E94653460E782E923
:1031B00092E00E94120E60E182E992E00E94240EE9
:1031C00082E992E00E942E0E60E070E0CF54DF4F63
:1031D00088819981C15BD0400E94430EF401158A19
:1031E0006FEF7FE0CD54DF4F88819981C35BD04082
:1031F0000E94430E80EB92E00E945F349C01A50187
:10320000B30182E00E948913C754DF4F28813981BE
:10321000C95BD040A501B30182E00E946A16F701A4
:103220006485758580EB92E00E947D344AEA50E027
:1032300068E571E0C7010E960E94653460E782E997
:1032400092E00E94120E60E182E992E00E94240E58
:1032500082E992E00E942E0E60E070E0CD54DF4FD4
:1032600088819981C35BD0400E94430EF40116A26D
:103270006FEF7FE0C6010E94430E82EB92E00E9456
:103280005F349C01A501B30183E00E948913C554FA
:10329000DF4F28813981CB5BD040A501B30183E0AA
:1032A0000E946A16F1016485758582EB92E00E94A6
:1032B0007D344AEA50E062E072E0C1010E960E945D
:1032C000653460E782E992E00E94120E60E182E9D3
:1032D00092E00E94240E82E992E00E942E0E60E0AD
:1032E00070E0C6010E94430EF40117AA60E782E96C
:1032F00092E00E94120E60E482E992E00E94240EA5
:1033000082E992E00E942E0E83E085BD123059F5CD
:1033100010928D0210928B0281E080930201109234
:103320008A028093010160E080EC92E00E946F3499
:1033300060918B0281EC92E00E946F3460910201F7
:1033400083EC92E00E946F3460918A0284EC92E0F8
:103350000E946F346091010185EC92E00E946F340D
:1033600085B18B7F85B9143059F461E080918D026D
:10337000811160E060938D0280EC92E00E946F34D6
:10338000153059F461E080910101811160E0609392
:10339000010185EC92E00E946F341730B1F481E0B6
:1033A00090918A02911180E080938A02813021F409
:1033B00085B1846085B903C085B18B7F85B9609183
:1033C0008A0284EC92E00E946F34193059F461E073
:1033D00080918B02811160E060938B0281EC92E01E
:1033E0000E946F341B3059F461E080910201811119
:1033F00060E06093020183EC92E00E946F34C45459
:10340000DF4F0FB6F894DEBF0FBECDBFDF91CF9177
:103410001F910F91FF90EF90DF90CF90BF90AF90F2
:103420009F908F907F906F905F904F903F902F90E4
:1034300008952091010121113FC08730910508F4C2
:103440003FC0409100012091880230918902240FF1
:10345000311D47FD3A953093890220938802281741
:1034600039073CF090938902809388022FEF2093D4
:10347000000122273327281B390B409188025091E5
:103480008902241735073CF0309389022093880283
:1034900081E080930001FB018081882341F010923C
:1034A0008902109288028FEF809300011082809130
:1034B00088029091890208958630910520F0089540
:1034C00080E090E0089580E090E00895CF92DF9250
:1034D000EF92FF920F931F93CF93DF93CDB7DEB799
:1034E0006C016EEB71E083E992E00E941B2A4F852C
:1034F00050E04F5F5F4F052E000C660B770B83E9A2
:1035000092E00E94582A60E872E083E992E00E940B
:103510001B2A68EC71E083E992E00E941B2A48892B
:1035200050E04F5F5F4F052E000C660B770B83E971
:1035300092E00E94582A60E872E083E992E00E94DB
:103540001B2A66ED71E083E992E00E941B2AF601D6
:10355000468150E060E070E083E992E00E94582AE2
:1035600060E872E083E992E00E941B2A60EE71E05D
:1035700083E992E00E941B2AF601478150E060E057
:1035800070E083E992E00E94582A60E872E083E9E3
:1035900092E00E941B2A6CEE71E083E992E00E94A7
:1035A0001B2A40918D0250E060E070E083E992E0D8
:1035B0000E94582A60E872E083E992E00E941B2A88
:1035C00065EF71E083E992E00E941B2A40910401BB
:1035D00050E060E070E083E992E00E94582A60E8E1
:1035E00072E083E992E00E941B2A6EEF71E083E9AA
:1035F00092E00E941B2A4091030150E060E070E0DD
:1036000083E992E00E94582A60E872E083E992E040
:103610000E941B2A6BE072E083E992E00E941B2A61
:1036200040918C0250E060E070E083E992E00E94FB
:10363000582A60E872E083E992E00E941B2A66E162
:1036400072E083E992E00E941B2A40918B0250E0D5
:1036500060E070E083E992E00E94582A60E872E03E
:1036600083E992E00E941B2A63E272E083E992E020
:103670000E941B2A4091050150E060E070E083E960
:1036800092E00E94582A60E872E083E992E00E948A
:103690001B2A6CE272E083E992E00E941B2A4091AF
:1036A000020150E060E070E083E992E00E94582A55
:1036B00060E872E083E992E00E941B2A6AE372E00C
:1036C00083E992E00E941B2A40918A0250E060E068
:1036D00070E083E992E00E94582A60E872E083E992
:1036E00092E00E941B2A65EF71E083E992E00E945C
:1036F0001B2A4091010150E060E070E083E992E014
:103700000E94582A60E872E083E992E00E941B2A36
:10371000E12CF12CF5E5EF16F1040CF06BC065E43B
:1037200072E083E992E00E941B2AA701445F5F4F89
:10373000052E000C660B770B83E992E00E94582A55
:103740006AE272E083E992E00E941B2A8701095F26
:103750001F4F000F111FF601E00FF11F4081518133
:1037600060E070E083E992E00E94582A6AE272E029
:1037700083E992E00E941B2AF601EA53FF4FE00F13
:10378000F11F4081518160E070E083E992E00E9486
:10379000582A6AE272E083E992E00E941B2AF6014D
:1037A000E457FE4FE00FF11F4081518160E070E06F
:1037B00083E992E00E94582A6AE272E083E992E08B
:1037C0000E941B2AC6018E5A9D4FFC01E00FF11F7B
:1037D0004081518160E070E083E992E00E94582AC4
:1037E00060E872E083E992E00E941B2A8FEFE81AFA
:1037F000F80A90CF6FE472E083E992E00E941B2AFE
:10380000F6014485558560E070E083E992E00E940E
:10381000582A6AE272E083E992E00E941B2AF601CC
:10382000EA53FF4F4485558560E070E083E992E0FC
:103830000E94582A6AE272E083E992E00E941B2A01
:10384000F601E457FE4F4485558560E070E083E95A
:1038500092E00E94582A6AE272E083E992E00E94B4
:103860001B2AF601EE5AFD4F4485558560E070E055
:1038700083E992E00E94582A60E872E083E992E0CE
:103880000E941B2A67E572E083E992E00E941B2AEE
:10389000409108015091090160910A0170910B015A
:1038A00083E992E00E94782B60E872E083E992E07D
:1038B0000E941B2ADF91CF911F910F91FF90EF90F3
:1038C000DF90CF9008951F93CF93DF93CDB7DEB7EE
:1038D000C05BD1090FB6F894DEBF0FBECDBFCE5A84
:1038E000DE4F88819981C255D140C155DF4F998300
:1038F0008883CF5AD040CC5ADE4FE881F981C45535
:10390000D140C355DF4FF983E883CD5AD040C95326
:10391000DF4F1881C75CD040809106011813D7C0D3
:10392000C853DF4F9881C85CD0408091070198133D
:10393000CEC0C653DF4F8881CA5CD0408F3F09F0AC
:10394000C6C0C753DF4F8881C95CD040863009F0BC
:10395000BEC062E672E083E992E00E941B2A82E028
:10396000C555DF4F8883CB5AD040C455DF4F88837D
:10397000CC5AD0408AEAECE0F1E0DE0111960190E9
:103980000D928A95E1F760E080E090E00E946F344C
:1039900042E050E062E070E0CE0185559F4F0E940A
:1039A00065344AEA50E064E070E0CE0101960E947E
:1039B00065344AEA50E06EEA70E0CE0101960E945A
:1039C00065344AEA50E068E571E0CE0101960E9454
:1039D00065344AEA50E062E072E0CE0101960E944E
:1039E000653468E077E08CEA92E00E947D3468E01C
:1039F00077E08EEA92E00E947D3468E077E080EB29
:103A000092E00E947D3468E077E082EB92E00E94D1
:103A10007D3461E08CEB92E00E946F3462E08DEBCC
:103A200092E00E946F3462E08EEB92E00E946F346D
:103A300060E08FEB92E00E946F3460E080EC92E0F7
:103A40000E946F3460E081EC92E00E946F3460E08D
:103A500082EC92E00E946F3461E083EC92E00E947D
:103A60006F3460E084EC92E00E946F3461E085EC9A
:103A700092E00E946F3440E560E070E0C155DF4F96
:103A800088819981CF5AD0400E947F1140E568E03B
:103A900077E0C355DF4F88819981CD5AD0400E948D
:103AA0003D2F40E660E070E0CE018A5A9E4F0E94B2
:103AB000E30C40E66FEF7FE0CE0189599E4F0E94F4
:103AC00017296FE672E083E992E00E941B2A809139
:103AD0000601181325C0C853DF4F9881C85CD04039
:103AE0008091070198131CC0C653DF4F8881CA5CC0
:103AF000D0408331A9F4C753DF4F8881C95CD040DF
:103B0000863071F4C553DF4F6881CB5CD040C6541A
:103B1000DF4F6883CA5BD04080E090E00E946F3442
:103B20008091060118133CC0C853DF4F9881C85CD0
:103B3000D04080910701981333C0C653DF4F88816E
:103B4000CA5CD040843161F5C753DF4F8881C95CBE
:103B5000D040863029F5C553DF4F6881CB5CD0401B
:103B6000C355DF4FE881F981CD5AD0406683EA53CF
:103B7000FF4F6683C355DF4FE881F981CD5AD040AE
:103B8000E457FE4F6683C355DF4FE881F981CD5A74
:103B9000D040EE5AFD4F668382E090E00E946F3481
:103BA0008091060118133CC0C853DF4F9881C85C50
:103BB000D04080910701981333C0C653DF4F8881EE
:103BC000CA5CD040853161F5C753DF4F8881C95C3D
:103BD000D040863029F5C553DF4F6881CB5CD0409B
:103BE000C355DF4FE881F981CD5AD0406783EA534E
:103BF000FF4F6783C355DF4FE881F981CD5AD0402D
:103C0000E457FE4F6783C355DF4FE881F981CD5AF2
:103C1000D040EE5AFD4F678383E090E00E946F34FE
:103C200080910601181322C0C853DF4F9881C85CE9
:103C3000D04080910701981319C0C653DF4F888187
:103C4000CA5CD040863191F4C753DF4F8881C95C8C
:103C5000D040863059F4C553DF4F6881CB5CD040EB
:103C6000609305018CEB92E00E946F348091060115
:103C7000181322C0C853DF4F9881C85CD040809190
:103C80000701981319C0C653DF4F8881CA5CD04022
:103C9000873191F4C753DF4F8881C95CD0408630AB
:103CA00059F4C553DF4F6881CB5CD0406093040169
:103CB0008DEB92E00E946F3480910601181322C0B0
:103CC000C853DF4F9881C85CD0408091070198139A
:103CD00019C0C653DF4F8881CA5CD040883191F447
:103CE000C753DF4F8881C95CD040863059F4C55333
:103CF000DF4F6881CB5CD040609303018EEB92E094
:103D00000E946F3480910601181322C0C853DF4F00
:103D10009881C85CD04080910701981319C0C653A0
:103D2000DF4F8881CA5CD040893191F4C753DF4F9F
:103D30008881C95CD040863059F4C553DF4F688113
:103D4000CB5CD04060938C028FEB92E00E946F348A
:103D500080910601181322C0C853DF4F9881C85CB8
:103D6000D04080910701981319C0C653DF4F888156
:103D7000CA5CD0408A3191F4C753DF4F8881C95C57
:103D8000D040863059F4C553DF4F6881CB5CD040BA
:103D900060938D0280EC92E00E946F348091060166
:103DA000181322C0C853DF4F9881C85CD04080915F
:103DB0000701981319C0C653DF4F8881CA5CD040F1
:103DC0008B3191F4C753DF4F8881C95CD040863076
:103DD00059F4C553DF4F6881CB5CD04060938B02B0
:103DE00081EC92E00E946F3480910601181325C087
:103DF000C853DF4F9881C85CD04080910701981369
:103E00001CC0C653DF4F8881CA5CD0408C31A9F4F6
:103E1000C753DF4F8881C95CD040863071F4C553E9
:103E2000DF4F6881CB5CD040C554DF4F6883CB5BEC
:103E3000D04082EC92E00E946F348091060118130A
:103E400022C0C853DF4F9881C85CD04080910701E1
:103E5000981319C0C653DF4F8881CA5CD0408D319A
:103E600091F4C753DF4F8881C95CD040863059F444
:103E7000C553DF4F6881CB5CD0406093020183EC77
:103E800092E00E946F348091060118132DC0C85330
:103E9000DF4F9881C85CD04080910701981324C0FF
:103EA000C653DF4F8881CA5CD0408E31E9F4C753D6
:103EB000DF4F8881C95CD0408630B1F4C553DF4FF5
:103EC0006881CB5CD04060938A0284EC92E00E94CF
:103ED0006F3480918A02813021F485B1846085B984
:103EE00003C085B18B7F85B9C953DF4F1881C75C8B
:103EF000D04080910601181322C0C853DF4F98812B
:103F0000C85CD04080910701981319C0C653DF4F99
:103F10008881CA5CD0408F3191F4C753DF4F8881CC
:103F2000C95CD040863059F4C553DF4F6881CB5C03
:103F3000D0406093010185EC92E00E946F34809143
:103F40000601181338C0C853DF4F9881C85CD040B1
:103F50008091070198132FC0C653DF4F8881CA5C38
:103F6000D040803241F5C753DF4F8881C95CD040D3
:103F7000863009F58DB79EB78C5991090FB6F89424
:103F80009EBF0FBE8DBFADB7BEB711968CE9FE01C7
:103F9000EA54FF4F01900D928A95E1F7C355DF4F28
:103FA00088819981CD5AD0400E94661A0FB6F89444
:103FB000DEBF0FBECDBFC055DF4F0FB6F894DEBFDA
:103FC0000FBECDBFDF91CF911F9108958F929F9229
:103FD000AF92BF92DF92EF92FF920F931F93CF9316
:103FE000DF938C0120E030E04AE754E4609108015F
:103FF0007091090180910A0190910B010E94273173
:104000000E946A304B015C019B01ADECBCEC0E944C
:10401000B3319695879596958795969587959C014A
:10402000220F331F880F991F880F991F880F991F20
:10403000820F931F9401281B390BC901D22E992797
:104040009401281B390B0E94B331AC01569547955A
:1040500056954795569547959A010E94B331969586
:10406000879596958795969587959C01220F331F86
:10407000880F991F880F991F880F991F820F931F10
:104080009A01281B390BC901E22E9A01281B31091C
:104090000E94B331AC015695479556954795569574
:1040A00047959A010E94B331969587959695879585
:1040B000969587959C01220F331F880F991F880FB3
:1040C000991F880F991F820F931F9A01281B390B84
:1040D000C901F22E9A01281B31090E94B331AC01AB
:1040E0005695479556954795569547959A010E943E
:1040F000B3319695879596958795969587959C016A
:10410000220F331F880F991F880F991F880F991F3F
:10411000820F931FD42FD81B60E782E992E00E94A0
:10412000120E60E182E992E00E94240E82E992E0A0
:104130000E942E0EC0E0CA3008F04AC0CD1728F405
:104140006FEF7FE0C8010E94430ECF1530F46FEF90
:104150007FE0C80141960E94430ECE1530F46FEF08
:104160007FE0C80182960E94430ECD1530F46FEFB8
:104170007FE0C801C3960E94430E3FEF83EC99E0B5
:10418000315080409040E1F700C0000060E070E0F6
:10419000C8010E94430E60E070E0C80141960E9491
:1041A000430E60E070E0C80182960E94430E60E01A
:1041B00070E0C801C3960E94430E2FEF33EC89E0F4
:1041C000215030408040E1F700C00000CF5FB3CF06
:1041D000DF91CF911F910F91FF90EF90DF90BF90F3
:1041E000AF909F908F900895CF93DF93CDB7DEB7B8
:1041F000CF58D4400FB6F894DEBF0FBECDBFCE016E
:1042000001960E944E2746E463E0CE0183569F4FFD
:104210000E94852C44E462E0CE018D599E4F0E949D
:10422000852C42E461E0CE01875D9D4F0E94852C84
:1042300040E460E0CE0181519D4F0E94852C66E4F0
:10424000CE018B549C4F0E94360E64E485EB93E0C4
:104250008C0F9D1F41960E94360E62E485EB93E021
:104260008C0F9D1F82960E94360E60E485EB93E0D2
:104270008C0F9D1FC3960E94360E60E4CE018750BE
:104280009C4F0E94720A60E4CE01865F9B4F0E94A1
:10429000AE28CE01805F9B4F0E944E2984B1816081
:1042A00084B984B1846084B912E3E12EF12C00E07A
:1042B00010E027E046E250E067E270E0CE018F5E5A
:1042C0009B4F0E94FD0926E04CE250E06DE270E059
:1042D000CE01825E9B4F0E94FD0920E04FE250E03C
:1042E00060E370E0CE01855D9B4F0E94FD0927E0F1
:1042F00043E250E064E270E0CE01885C9B4F0E9494
:10430000FD0926E046E250E067E270E0CE018B5BFB
:104310009B4F0E94FD0925E049E250E06AE270E00F
:10432000CE018E5A9B4F0E94FD0924E043E250E0EB
:1043300064E270E0CE01815A9B4F0E941A0D27E083
:1043400049E250E06AE270E08FE594E08C0F9D1F37
:1043500003960E941A0D26E049E250E06AE270E0FE
:104360008FE594E08C0F9D1F06960E941A0D24E0A5
:1043700049E250E06AE270E08FE594E08C0F9D1F07
:1043800009960E941A0DC559DB4F1882CB56D440AE
:10439000C459DB4F1882CC56D44088E0E6EBF1E0FC
:1043A000DE01A358BB4F01900D928A95E1F77894F6
:1043B00080E090E00E9457348D8382E090E00E947C
:1043C0005734CD55DF4F8883C35AD04083E090E007
:1043D0000E945734CC55DF4F8883C45AD04082E0C6
:1043E00090E00E945734C759DE4F8883C956D140A8
:1043F00083E090E00E945734C659DE4F8883CA5646
:10440000D14082E090E00E945734C15DDD4F888347
:10441000CF52D24083E090E00E945734C05DDD4F20
:104420008883C053D24082E090E00E945734CB5042
:10443000DD4F8883C55FD24083E090E00E9457340F
:10444000CA50DD4F8883C65FD2404AEA50E064E03C
:1044500070E08DE990E08C0F9D1F0E960E9447340E
:104460004AEA50E06EEA70E0CE018F589E4F0E94FB
:1044700047344AEA50E068E571E0CE01895C9D4F1F
:104480000E9447344AEA50E062E072E0CE01835075
:104490009D4F0E9447348CEA92E00E945F34BC0139
:1044A000CE0183569F4F0E94072F8EEA92E00E9412
:1044B0005F34BC01CE018D599E4F0E94072F80EBC7
:1044C00092E00E945F34BC01CE01875D9D4F0E9447
:1044D000072F82EB92E00E945F34BC01CE01815134
:1044E0009D4F0E94072F8CEB92E00E9457348093DF
:1044F00005018DEB92E00E945734809304018EEB0E
:1045000092E00E945734809303018FEB92E00E9467
:10451000573480938C0280EC92E00E945734809351
:104520008D0281EC92E00E94573480938B0282ECE2
:1045300092E00E9457348E8383EC92E00E945734BD
:104540008093020184EC92E00E945734182F8093EC
:104550008A0285EC92E00E94573480930101113069
:1045600019F485B1846085B968E1CE0183569F4F07
:104570000E949A2CCE0183569F4F0E941E2D68E107
:10458000CE018D599E4F0E949A2CCE018D599E4F7F
:104590000E941E2D68E1CE01875D9D4F0E949A2CDE
:1045A000CE01875D9D4F0E941E2D68E1CE01815195
:1045B0009D4F0E949A2CCE0181519D4F0E941E2D2D
:1045C0008FE7C65FDB4F8883CA50D44085B18160D6
:1045D00085B92FEF33EC49E0215030404040E1F7FE
:1045E00000C0000085B18E7F85B95FEF83EC99E054
:1045F000515080409040E1F700C000004D9B05C045
:10460000CE018B549C4F0E94E61FCB57DB4F198283
:104610001882C558D440412C512CC357DB4F198206
:104620001882CD58D440C757DB4F19821882C95819
:10463000D440C957DB4F19821882C758D440612C27
:10464000712CC557DB4F19821882CB58D440212CCE
:10465000312C88248A94B12CEFEFC157DB4FE883CB
:10466000CF58D440CE0101960E946627CE018E5AC3
:104670009B4F0E94240A813011F49A8001C0912C32
:10468000992059F1C65FDB4FC880CA50D440C55F3E
:10469000DB4FD880CB50D440C45FDB4FE880CC5098
:1046A000D440C35FDB4FF880CD50D440C25FDB4FB6
:1046B0000881CE50D440C15FDB4F1881CF50D44029
:1046C0009E01215A3B4FAE014B545C4FBE016356D5
:1046D0007F4F89810E946217C5CF8A81882309F4A0
:1046E00062C085B1846085B981E0C459DB4F88839D
:1046F000CC56D440C157DB4FF881CF58D440F1118C
:1047000034C06C81898190918B029F9390918D022E
:104710009F932DB73EB72C5931090FB6F8943EBF81
:104720000FBE2DBFADB7BEB711969CE9FE01319605
:1047300001900D929A95E1F7AB2CAE0143585B4F77
:104740006A01FE01E750FC4F7F018E010B541C4FA4
:104750009E0125593B4F405E53400E9482140FB684
:10476000F894DEBF0FBECDBF13C06C81A0908D0248
:10477000CB2CAE0143585B4F7A018E0107501C4F82
:104780009E012B543C4F405E534089810E94DF11B3
:1047900080918B02811107C02C81498160E9CE0193
:1047A00001960E9496288B81882309F458C0C1572E
:1047B000DB4F5881CF58D44051112CC08981909142
:1047C0008B029F93EDB7FEB7EC59F1090FB6F89441
:1047D000FEBF0FBEEDBFADB7BEB711969CE9FE019F
:1047E000319601900D929A95E1F7EB2C8E010358CA
:1047F0001B4F9E0127503C4FAE014B545C4FBE01F6
:1048000063567F4F0E946C120FB6F894DEBF0FBE46
:10481000CDBF10C0EB2C8E0103581B4F9E012750BB
:104820003C4FAE014B545C4FBE0163567F4F8981B4
:104830000E94071380918B02811107C02C8149814E
:1048400060E8CE0101960E9496288989882339F074
:1048500080918A02811103C085B18B7F85B98985DA
:104860008823D1F08F819885CF55DF4F9983888336
:10487000C15AD040C959DE4F99838883C756D14069
:10488000C35DDD4F99838883CD52D240CD50DD4F3B
:1048900099838883C35FD2408D85882309F44AC0F9
:1048A0008B8590910501891306C09C85C65FDB4FFF
:1048B0009883CA50D4408B37E9F587E090E099237C
:1048C00054F0EDE7F4E0EC0FFD1FE80FF91F20E8CE
:1048D00020830197F4CFCE0183569F4F0E941E2D57
:1048E000CE018D599E4F0E941E2DCE01875D9D4F9A
:1048F0000E941E2DCE0181519D4F0E941E2D8820A9
:10490000A1F0C654DC4F1882CA5BD340C553DC4FBC
:104910001882CB5CD340C452DC4F1882CC5DD340AC
:10492000C351DC4F1882CD5ED340C250DC4F188299
:10493000CE5FD3408889882309F445C000D000D0D9
:1049400000D0ADB7BEB7119686E0FE01E65FFB4F23
:1049500001900D928A95E1F74DB75EB7415151092B
:104960000FB6F8945EBF0FBE4DBFADB7BEB7119680
:1049700081E1FE01E750FC4F01900D928A95E1F72D
:10498000CE0183569F4F9F938F93885E9C4F9F933A
:104990008F938DB79EB78C5991090FB6F8949EBF2F
:1049A0000FBE8DBFADB7BEB711968CE9FE01319633
:1049B00001900D928A95E1F70E94631C0FB6F8945E
:1049C000DEBF0FBECDBF0E94572C00918E0210910A
:1049D0008F022091900230919102065F1F4F2F4F5E
:1049E0003F4F061717072807390708F066C11989CE
:1049F000112309F49FC0CE018F5E9B4F0E94240AB1
:104A0000813049F4C157DB4FF881CF58D440F111C0
:104A100004C0092D03C0092D01C0012F011112C0CE
:104A2000CE018F5E9B4F0E94240A811108C0C1579E
:104A3000DB4F2881CF58D440213009F0012F0111DC
:104A400007C00CC0C157DB4F1882CF58D44006C0F6
:104A500031E0C157DB4F3883CF58D440CE01825E5E
:104A60009B4F0E94240A813029F441E0B41204C013
:104A7000092D03C0092D01C0012F0023E9F085EBAA
:104A800093E08C0F9D1F41960E94B10F85EB93E040
:104A90008C0F9D1F82960E94B10F85EB93E08C0FC7
:104AA0009D1FC3960E94B10FC559DB4F1882CB568C
:104AB000D440BB24B3943EC0CE01855D9B4F0E9481
:104AC000240A813019F454E0B512012F002349F073
:104AD000C559DB4F1882CB56D4406894BB24B2F83A
:104AE00029C0CE01825E9B4F0E94240A81110AC018
:104AF000CE01855D9B4F0E94240A811103C082E094
:104B0000B812012F0023B1F0C559DB4F1882CB56E4
:104B1000D44085EB93E08C0F9D1F82960E94B10FCD
:104B200085EB93E08C0F9D1FC3960E94B10F689494
:104B3000BB24B1F8CE018B5B9B4F0E94240A8130CD
:104B400021F4882011F099249394911024C0CE016F
:104B5000885C9B4F0E94240A813029F492E08916D8
:104B600011F099249394911018C0CE018B5B9B4F48
:104B70000E94240A81110CC0CE01885C9B4F0E94C8
:104B8000240A811105C0E1E08E1611F09924939456
:104B9000911007C008C0812C06C06894882481F851
:104BA00002C08824839420E2AE0143595B4F65E044
:104BB000CE01805F9B4F0E94C52992501C0140E0AE
:104BC00064E0CE01805F9B4F0E946B29969587958C
:104BD000969587959695879520910401BE01645915
:104BE0007B4FAC01249FC001259F900D11240E9492
:104BF000191AC557DB4F99838883CB58D44040E0BE
:104C000065E0CE01805F9B4F0E946B29C957DB4F47
:104C100099838883C758D44040E066E0CE01805F26
:104C20009B4F0E946B29C757DB4F99838883C958D4
:104C3000D44040E264E0CE01805F9B4F0E9458293F
:104C4000CB57DB4F99838883C558D44040E061E05F
:104C5000CE01805F9B4F0E9458293C017694679457
:104C600076946794769467947694679440E067E0CE
:104C7000CE01805F9B4F0E945829880F991F880F93
:104C8000991FC357DB4F99838883CD58D44040E0A8
:104C900067E0CE01805F9B4F0E9498292C01440C55
:104CA000551C440C551C0E94572C60938E02709327
:104CB0008F028093900290939102CE01865F9B4F6A
:104CC0000E94F028930140E050E0B101CE018356EC
:104CD0009F4F0E94B62D9301C557DB4F48815981E4
:104CE000CB58D440B101CE018D599E4F0E94B62DB4
:104CF000930140E050E0B101CE01875D9D4F0E94DD
:104D0000B62D9301C557DB4F48815981CB58D4400C
:104D1000B101CE0181519D4F0E94B62D60E782E91D
:104D200092E00E94120E60E182E992E00E94240E5D
:104D300082E992E00E942E0E52E0851243C0E12CDF
:104D4000F12C8B2D90E0E816F9060CF077C086EC7C
:104D50008E9DF0018F9DF00D11248DE990E08C0F58
:104D60009D1FE80FF91F238130E000908C0202C0E4
:104D7000220F331F0A94E2F7240D351D41E14E9DA9
:104D8000C0014F9D900D1124CB57DB4F0881198135
:104D9000C558D440C757DB4F48815981C958D440C2
:104DA000C957DB4F68817981C758D440E5EBF3E000
:104DB000EC0FFD1F8E0F9F1F0E944E10FFEFEF1A8A
:104DC000FF0ABFCF811018C000E010E08B2D90E0EB
:104DD000081719079CF521E1209FC001219F900D24
:104DE000112425EB33E02C0F3D1F820F931F0E94EF
:104DF000BE0F0F5F1F4FEACF31E083121FC000E0EC
:104E000010E0CB57DB4FE880F980C558D4408B2D9C
:104E100090E00817190794F421E1209FC001219F19
:104E2000900D1124B70145EB53E04C0F5D1F840F2B
:104E3000951F0E9427110F5F1F4FE9CF2E8530E08D
:104E40000090030102C0220F331F0A94E2F7C357F8
:104E5000DB4F88819981CD58D440280F391FCB571B
:104E6000DB4F08811981C558D440C757DB4F4881B3
:104E70005981C958D440C957DB4F68817981C758D7
:104E8000D440CE0187509C4F0E94100CEBCB6FEFAB
:104E90007FEF81E090E00E94CD11089521E0FC01B8
:104EA000208B138E089583E992E00E94E62B8823DD
:104EB000D1F383E992E00E94E62B8823D1F383E9C2
:104EC00092E00E94F02B883FA0F708950F931F9364
:104ED000CF93DF93EC0119821A8218861C861E86F6
:104EE0001F8683E992E00E94E62B882309F419C10A
:104EF00083E992E00E94F02B182F80E8810F883719
:104F000010F41A8F0EC1183F08F00BC1012F1123A6
:104F100074F12A8D30E08C8190E080579F4F2817E4
:104F2000390729F51883CE010E9453278B838823E4
:104F300091F0812F90E0FE01E80FF91F248D2130C0
:104F400081F131E039832B8D2F5F2B8FFE01E80F2C
:104F5000F91F348F26C081E08A83FE01E10FF11D25
:104F6000148E8B8D8823E9F081508B8F1AC000231B
:104F7000C4F02A8D30E08C8190E080589F4F281734
:104F8000390779F41883CE010E94532781E08A8380
:104F9000FE01E10FF11D148E8B8D882311F08150DD
:104FA0008B8F8B8D811103C081E0888B01C0188AA3
:104FB0000023BCF02A8D30E08C8190E080529F4F1E
:104FC0002817390771F481E08887CE010E945327A2
:104FD000212F30E090E8899F200D311D11243F835F
:104FE0002E8300230CF12A8D30E08C8190E08055D7
:104FF0009F4F28173907C1F481E08C871A87CE01AB
:105000000E9453278B878A858B3771F41B8E81E032
:10501000888B80E090E08038910534F4FE01E80F41
:10502000F91F148E0196F7CF002364F02A8D30E02B
:105030008C8190E080539F4F2817390719F481E045
:105040008E871D878A8D803F09F06BC01F3779F4EA
:10505000173F09F466C083E992E00E94E62B88239B
:10506000D1F383E992E00E94F02B182FF1CF81E079
:105070008F8783E992E00E94E62B8823D1F383E9AE
:1050800092E00E94F02B898B873F09F44AC083E9A4
:1050900092E00E94E62B8823D1F383E992E00E94FC
:1050A000F02B8A8B873FE9F183E992E00E94E62B9F
:1050B0008823D1F383E992E00E94F02B8B8B873F0A
:1050C00081F183E992E00E94E62B8823D1F383E902
:1050D00092E00E94F02B8C8B873F19F183E992E0DC
:1050E0000E94E62B8823D1F383E992E00E94F02B03
:1050F0008D8B873FB1F000E0173F99F083E992E094
:105100000E94E62B8823D1F383E992E00E94F02BE2
:10511000182F873F89F3FE01E00FF11D868B0F5F8B
:10512000EBCFDF91CF911F910F910895CF93DF9334
:10513000D42FC22FFC018581680F83E992E00E9481
:10514000C82B6D2F83E992E00E94C82B6C2F83E956
:1051500092E00E94C82BDF91CF910895FC016183FA
:105160001282138214821582108208950F931F9366
:10517000CF93DF938C01EB0160E782E992E00E941C
:10518000120E60E482E992E00E94240E82E992E02D
:105190000E942E0E60E682E992E00E94120EF80153
:1051A000618182E992E00E94240EBE0172956295AF
:1051B0006F7067277F70672782E992E00E94240E54
:1051C0006C2F6295607F82E992E00E94240E82E952
:1051D00092E00E942E0EDF91CF911F910F910895C2
:1051E0000F931F93CF93DF93EC010E94572C0A81FA
:1051F0001B812C813D810B5F1F4F2F4F3F4F0617A7
:1052000017072807390770F40E94572C6A837B839D
:105210008C839D83688180E2689FB0011124CE0158
:105220000E94B628DF91CF911F910F9108951F938F
:10523000CF93DF93EB01142F60E782E992E00E94A5
:10524000120E60E182E992E00E94240E82E992E06F
:105250000E942E0E60E682E992E00E94120E612FFB
:1052600082E992E00E94240EBE01729562956F70F1
:1052700067277F70672782E992E00E94240E6C2FD7
:105280006295607F82E992E00E94240E82E992E0BA
:105290000E942E0EDF91CF911F91089587E8809391
:1052A0007A0082EF80937E0080E180937F000895F2
:1052B000606460937C0040937B00EAE7F0E08081CB
:1052C0008064808380917A0086FDFCCF8091780095
:1052D000909179000895606460937C0040937B0016
:1052E000EAE7F0E080818064808380917A0086FD27
:1052F000FCCF609178007091790080E090E00E948E
:10530000993020E030EC4FE754E40E94F82F20E081
:1053100030E04FE753E40E9427310E946A30E62FC5
:10532000F0E0EE0FFF1FEC55FE4E8591949108952D
:10533000606460937C0040937B00EAE7F0E080814A
:105340008064808380917A0086FDFCCF6091780034
:105350007091790080E090E00E94993020E030EC7C
:105360004FE754E40E94F82F20E030E04FE753E489
:105370000E9427310E946A30E62FF0E0EE0FFF1FF7
:10538000EC55F04F859194910895606460937C0092
:1053900020937B00EAE7F0E0808180648083809145
:1053A0007A0086FDFCCF87E090E01816190694F489
:1053B000DC01AA0FBB1FA40FB51FFC01E150F04890
:1053C000EE0FFF1FE40FF51F208131812D933C93D9
:1053D0000197EBCF8091780090917900FA01918349
:1053E000808320E030E080E090E02830310564F4F4
:1053F000F901EE0FFF1FE40FF51F60817181860F29
:10540000971F2F5F3F4FF1CF96958795969587957C
:105410009695879508951092CD008FE18093CC00EA
:10542000E9ECF0E088E180838081806C808386E015
:105430008093CA000895CF93DF93DB01909195028A
:10544000809196029813FACF90E0292F30E0FD0169
:1054500001900020E9F73197EA1BFB0B2E173F075D
:10546000A0F480919502E82FF0E0ED01C20FD31F68
:105470002881E956FD4F20838F5F80939502882312
:1054800014F4109295029F5FE0CF8091C80085FFD1
:105490000CC08C918093CE00809196028F5F809398
:1054A0009602882314F410929602DF91CF9108950A
:1054B0004F925F926F927F92AF92BF92CF92DF92A4
:1054C000EF92FF920F931F93CF93DF93CDB7DEB789
:1054D0002A013B01CDB6DEB677232CF00F2EF5E086
:1054E000BF2EF02D04C00F2EF6E0BF2EF02D8DB78D
:1054F0009EB78B1991090FB6F8949EBF0FBE8DBF52
:10550000EDB7FEB731967F018F0177200CF05DC0BB
:105510007094609450944094411C511C611C711C07
:105520008DE2EDB7FEB78183C301B20120E137E21E
:1055300040E050E00E949431CA01B9012AE030E015
:1055400040E050E00E949431605DF7016183C30147
:10555000B20128EE33E040E050E00E949431CA01ED
:10556000B9012AE030E040E050E00E949431605DF3
:10557000F7016283C301B20124E630E040E050E06D
:105580000E949431CA01B9012AE030E040E050E0C5
:105590000E949431605DF7016383C301B2012AE088
:1055A00030E040E050E00E949431A62ECA01B901DB
:1055B0002AE030E040E050E00E949431605DF70165
:1055C000648380E38A0D858351C0C301B20120E169
:1055D00037E240E050E00E949431CA01B9012AE06C
:1055E00030E040E050E00E949431605DEDB7FEB7DE
:1055F0006183C301B20128EE33E040E050E00E9435
:105600009431CA01B9012AE030E040E050E00E9444
:105610009431605DF7016183C301B20124E630E09B
:1056200040E050E00E949431CA01B9012AE030E024
:1056300040E050E00E949431605DF7016283C30155
:10564000B2012AE030E040E050E00E949431762E32
:10565000CA01B9012AE030E040E050E00E949431F4
:10566000605DF701638380E3870D848390919502E9
:10567000809196029813FACF90E09B15A0F4809148
:105680009502E82FF0E0D801A90FB11D2C91E95641
:10569000FD4F20838F5F80939502882314F410922E
:1056A00095029F5FEACF8091C80085FF0DC0F7018A
:1056B00080818093CE00809196028F5F80939602C6
:1056C000882314F4109296020FB6F894DEBE0FBE33
:1056D000CDBEDF91CF911F910F91FF90EF90DF90A2
:1056E000CF90BF90AF907F906F905F904F90089554
:1056F0000F931F93CF93DF93CDB7DEB728970FB6E5
:10570000F894DEBF0FBECDBFCB01BA018E010F5F93
:105710001F4F24E048E00E94F5319091950280915E
:1057200096029813FACF90E09830B8F480919502E1
:10573000E82FF0E0A1E0B0E0AC0FBD1FA90FB11D54
:105740002C91E956FD4F20838F5F8093950288232B
:1057500014F4109295029F5FE7CF8091C80085FFF7
:105760000CC089818093CE00809196028F5F8093D8
:105770009602882314F41092960228960FB6F89495
:10578000DEBF0FBECDBFDF91CF911F910F91089566
:1057900080919502E82FF0E0E956FD4F60838F5F1E
:1057A00080939502882314F4109295028091C8008A
:1057B00085FF0BC06093CE00809196028F5F80932F
:1057C0009602882314F4109296020895909118037B
:1057D00080911703981711F081E0089580E00895F3
:1057E0009091180380911703981769F0E92FF0E062
:1057F000E75EFC4F80819F5F90931803992324F408
:1058000010921803089580E008951F920F920FB62A
:105810000F9211248F93EF93FF93E0919602809162
:105820009502E81759F0F0E0E956FD4F808180932A
:10583000CE00809196028F5F8093960280919602AF
:10584000882314F410929602FF91EF918F910F909C
:105850000FBE0F901F9018951F920F920FB60F92C8
:1058600011248F939F93EF93FF9380911703E82F59
:10587000F0E09091CE00E75EFC4F90838F5F8093C5
:105880001703882314F410921703FF91EF919F914F
:105890008F910F900FBE0F901F90189582E084BDDE
:1058A0009AEF97BD80936E0083E085BD0895609167
:1058B000990370919A0380919B0390919C030895A2
:1058C0001F920F920FB60F9211248F939F93AF9355
:1058D000BF938091990390919A03A0919B03B091FB
:1058E0009C030196A11DB11D8093990390939A0387
:1058F000A0939B03B0939C03BF91AF919F918F9115
:105900000F900FBE0F901F901895FC01DC01A8545A
:10591000BF4F6C9311964C9310828CE0828380E091
:1059200090E295838483EE53FF4F1082118212829E
:1059300013820895CF93DF93FC01A181A283618339
:1059400070E0268130E0CB01820F931F81369105F4
:1059500064F043E053E0249FC001259F900D349FE5
:10596000900D11249187808714C0EC012597CC0FEE
:10597000DD1FCE0FDF1F88819981EB012597CC0FAA
:10598000DD1FCE0FDF1F28813981821B930B91878A
:105990008087278130E0CB01821B930B8C309105EF
:1059A00064F443E053E0249FC001259F900D349F91
:1059B000900D11249387828715C0EB012597CC0F9A
:1059C000DD1FCE0FDF1F28813981EC012597CC0F19
:1059D000DD1FCE0FDF1F88819981A901481B590B5C
:1059E00053874287EB012597CC0FDD1FCE0FDF1FBA
:1059F00048815981B0E01597AA0FBB1FAE0FBF1F9A
:105A00008D919C91119760E070E0481B590B6109E2
:105A10007109EF01C254DF4F488359836A837B8346
:105A20008D919C912497A0E0B0E088839983AA830C
:105A3000BB8381E08083DF91CF910895FC011082C8
:105A40000895CF92DF92EF92FF92CF93DF93EC0114
:105A50006C817D81613080E2780700F180E090E028
:105A60000E94993020E030E040E056E40E948B2F05
:105A700020E038EF4FEF55E40E94F82F6B017C01D6
:105A80006885798580E090E00E949930A7019601B1
:105A90000E9427310E946A30CB0126C0611580E246
:105AA000780700F580E090E00E94993020E030E037
:105AB00040E056E40E948B2F20E030E040E059E3C4
:105AC0000E9427316B017C016A857B8580E090E034
:105AD0000E949930A70196010E9427310E946A30E6
